{
  "contractName": "ChestKeyERC20",
  "abi": [
    {
      "constant": true,
      "inputs": [],
      "name": "name",
      "outputs": [
        {
          "name": "",
          "type": "string"
        }
      ],
      "payable": false,
      "stateMutability": "view",
      "type": "function"
    },
    {
      "constant": true,
      "inputs": [
        {
          "name": "user",
          "type": "address"
        },
        {
          "name": "required",
          "type": "uint256"
        }
      ],
      "name": "isUserInRole",
      "outputs": [
        {
          "name": "",
          "type": "bool"
        }
      ],
      "payable": false,
      "stateMutability": "view",
      "type": "function"
    },
    {
      "constant": true,
      "inputs": [],
      "name": "FEATURE_MSIG_ENABLED",
      "outputs": [
        {
          "name": "",
          "type": "uint256"
        }
      ],
      "payable": false,
      "stateMutability": "view",
      "type": "function"
    },
    {
      "constant": true,
      "inputs": [],
      "name": "features",
      "outputs": [
        {
          "name": "",
          "type": "uint256"
        }
      ],
      "payable": false,
      "stateMutability": "view",
      "type": "function"
    },
    {
      "constant": true,
      "inputs": [],
      "name": "decimals",
      "outputs": [
        {
          "name": "",
          "type": "uint8"
        }
      ],
      "payable": false,
      "stateMutability": "view",
      "type": "function"
    },
    {
      "constant": true,
      "inputs": [
        {
          "name": "_to",
          "type": "address"
        },
        {
          "name": "_role",
          "type": "uint256"
        },
        {
          "name": "_expiresOn",
          "type": "uint256"
        }
      ],
      "name": "constructUpdateMsigRequest",
      "outputs": [
        {
          "name": "",
          "type": "bytes32"
        }
      ],
      "payable": false,
      "stateMutability": "view",
      "type": "function"
    },
    {
      "constant": true,
      "inputs": [
        {
          "name": "required",
          "type": "uint256"
        }
      ],
      "name": "isFeatureEnabled",
      "outputs": [
        {
          "name": "",
          "type": "bool"
        }
      ],
      "payable": false,
      "stateMutability": "view",
      "type": "function"
    },
    {
      "constant": true,
      "inputs": [
        {
          "name": "",
          "type": "address"
        }
      ],
      "name": "userRoles",
      "outputs": [
        {
          "name": "",
          "type": "uint256"
        }
      ],
      "payable": false,
      "stateMutability": "view",
      "type": "function"
    },
    {
      "constant": true,
      "inputs": [],
      "name": "MSIG_QUORUM",
      "outputs": [
        {
          "name": "",
          "type": "uint8"
        }
      ],
      "payable": false,
      "stateMutability": "view",
      "type": "function"
    },
    {
      "constant": true,
      "inputs": [
        {
          "name": "",
          "type": "address"
        }
      ],
      "name": "nonces",
      "outputs": [
        {
          "name": "",
          "type": "uint256"
        }
      ],
      "payable": false,
      "stateMutability": "view",
      "type": "function"
    },
    {
      "constant": true,
      "inputs": [],
      "name": "TOKEN_UID",
      "outputs": [
        {
          "name": "",
          "type": "uint256"
        }
      ],
      "payable": false,
      "stateMutability": "view",
      "type": "function"
    },
    {
      "constant": true,
      "inputs": [],
      "name": "ROLE_TOKEN_CREATOR",
      "outputs": [
        {
          "name": "",
          "type": "uint32"
        }
      ],
      "payable": false,
      "stateMutability": "view",
      "type": "function"
    },
    {
      "constant": true,
      "inputs": [],
      "name": "FEATURE_TRANSFERS_ON_BEHALF",
      "outputs": [
        {
          "name": "",
          "type": "uint32"
        }
      ],
      "payable": false,
      "stateMutability": "view",
      "type": "function"
    },
    {
      "constant": true,
      "inputs": [
        {
          "name": "_by",
          "type": "address[]"
        },
        {
          "name": "actual",
          "type": "uint256"
        },
        {
          "name": "required",
          "type": "uint256"
        }
      ],
      "name": "evaluateBy",
      "outputs": [
        {
          "name": "",
          "type": "uint256"
        }
      ],
      "payable": false,
      "stateMutability": "view",
      "type": "function"
    },
    {
      "constant": true,
      "inputs": [],
      "name": "symbol",
      "outputs": [
        {
          "name": "",
          "type": "string"
        }
      ],
      "payable": false,
      "stateMutability": "view",
      "type": "function"
    },
    {
      "constant": false,
      "inputs": [
        {
          "name": "_to",
          "type": "address"
        },
        {
          "name": "_role",
          "type": "uint256"
        }
      ],
      "name": "updateRole",
      "outputs": [],
      "payable": false,
      "stateMutability": "nonpayable",
      "type": "function"
    },
    {
      "constant": true,
      "inputs": [],
      "name": "ROLE_ACCESS_MANAGER",
      "outputs": [
        {
          "name": "",
          "type": "uint256"
        }
      ],
      "payable": false,
      "stateMutability": "view",
      "type": "function"
    },
    {
      "constant": true,
      "inputs": [],
      "name": "FEATURE_TRANSFERS",
      "outputs": [
        {
          "name": "",
          "type": "uint32"
        }
      ],
      "payable": false,
      "stateMutability": "view",
      "type": "function"
    },
    {
      "constant": false,
      "inputs": [
        {
          "name": "_mask",
          "type": "uint256"
        }
      ],
      "name": "updateFeatures",
      "outputs": [],
      "payable": false,
      "stateMutability": "nonpayable",
      "type": "function"
    },
    {
      "constant": false,
      "inputs": [
        {
          "name": "_to",
          "type": "address"
        },
        {
          "name": "_role",
          "type": "uint256"
        },
        {
          "name": "_expiresOn",
          "type": "uint256"
        },
        {
          "name": "v",
          "type": "uint8[]"
        },
        {
          "name": "r",
          "type": "bytes32[]"
        },
        {
          "name": "s",
          "type": "bytes32[]"
        }
      ],
      "name": "updateMsig",
      "outputs": [],
      "payable": false,
      "stateMutability": "nonpayable",
      "type": "function"
    },
    {
      "constant": true,
      "inputs": [],
      "name": "ROLE_TOKEN_DESTROYER",
      "outputs": [
        {
          "name": "",
          "type": "uint32"
        }
      ],
      "payable": false,
      "stateMutability": "view",
      "type": "function"
    },
    {
      "constant": true,
      "inputs": [
        {
          "name": "required",
          "type": "uint256"
        }
      ],
      "name": "isSenderInRole",
      "outputs": [
        {
          "name": "",
          "type": "bool"
        }
      ],
      "payable": false,
      "stateMutability": "view",
      "type": "function"
    },
    {
      "anonymous": false,
      "inputs": [
        {
          "indexed": true,
          "name": "_from",
          "type": "address"
        },
        {
          "indexed": true,
          "name": "_to",
          "type": "address"
        },
        {
          "indexed": false,
          "name": "_value",
          "type": "uint256"
        }
      ],
      "name": "Transfer",
      "type": "event"
    },
    {
      "anonymous": false,
      "inputs": [
        {
          "indexed": true,
          "name": "_owner",
          "type": "address"
        },
        {
          "indexed": true,
          "name": "_spender",
          "type": "address"
        },
        {
          "indexed": false,
          "name": "_value",
          "type": "uint256"
        }
      ],
      "name": "Approval",
      "type": "event"
    },
    {
      "anonymous": false,
      "inputs": [
        {
          "indexed": true,
          "name": "_by",
          "type": "address"
        },
        {
          "indexed": true,
          "name": "_to",
          "type": "address"
        },
        {
          "indexed": false,
          "name": "_value",
          "type": "uint256"
        }
      ],
      "name": "Minted",
      "type": "event"
    },
    {
      "anonymous": false,
      "inputs": [
        {
          "indexed": true,
          "name": "_by",
          "type": "address"
        },
        {
          "indexed": true,
          "name": "_from",
          "type": "address"
        },
        {
          "indexed": false,
          "name": "_value",
          "type": "uint256"
        }
      ],
      "name": "Burnt",
      "type": "event"
    },
    {
      "anonymous": false,
      "inputs": [
        {
          "indexed": true,
          "name": "_by",
          "type": "address"
        },
        {
          "indexed": true,
          "name": "_to",
          "type": "address"
        },
        {
          "indexed": false,
          "name": "_requested",
          "type": "uint256"
        },
        {
          "indexed": false,
          "name": "_actual",
          "type": "uint256"
        }
      ],
      "name": "RoleUpdated",
      "type": "event"
    },
    {
      "constant": true,
      "inputs": [],
      "name": "totalSupply",
      "outputs": [
        {
          "name": "",
          "type": "uint256"
        }
      ],
      "payable": false,
      "stateMutability": "view",
      "type": "function"
    },
    {
      "constant": true,
      "inputs": [
        {
          "name": "_owner",
          "type": "address"
        }
      ],
      "name": "balanceOf",
      "outputs": [
        {
          "name": "",
          "type": "uint256"
        }
      ],
      "payable": false,
      "stateMutability": "view",
      "type": "function"
    },
    {
      "constant": true,
      "inputs": [
        {
          "name": "_owner",
          "type": "address"
        },
        {
          "name": "_spender",
          "type": "address"
        }
      ],
      "name": "allowance",
      "outputs": [
        {
          "name": "",
          "type": "uint256"
        }
      ],
      "payable": false,
      "stateMutability": "view",
      "type": "function"
    },
    {
      "constant": false,
      "inputs": [
        {
          "name": "_to",
          "type": "address"
        },
        {
          "name": "_value",
          "type": "uint256"
        }
      ],
      "name": "transfer",
      "outputs": [
        {
          "name": "",
          "type": "bool"
        }
      ],
      "payable": false,
      "stateMutability": "nonpayable",
      "type": "function"
    },
    {
      "constant": false,
      "inputs": [
        {
          "name": "_from",
          "type": "address"
        },
        {
          "name": "_to",
          "type": "address"
        },
        {
          "name": "_value",
          "type": "uint256"
        }
      ],
      "name": "transferFrom",
      "outputs": [
        {
          "name": "",
          "type": "bool"
        }
      ],
      "payable": false,
      "stateMutability": "nonpayable",
      "type": "function"
    },
    {
      "constant": false,
      "inputs": [
        {
          "name": "_from",
          "type": "address"
        },
        {
          "name": "_to",
          "type": "address"
        },
        {
          "name": "_value",
          "type": "uint256"
        },
        {
          "name": "_data",
          "type": "bytes"
        }
      ],
      "name": "safeTransferFrom",
      "outputs": [],
      "payable": false,
      "stateMutability": "nonpayable",
      "type": "function"
    },
    {
      "constant": false,
      "inputs": [
        {
          "name": "_from",
          "type": "address"
        },
        {
          "name": "_to",
          "type": "address"
        },
        {
          "name": "_value",
          "type": "uint256"
        }
      ],
      "name": "unsafeTransferFrom",
      "outputs": [],
      "payable": false,
      "stateMutability": "nonpayable",
      "type": "function"
    },
    {
      "constant": false,
      "inputs": [
        {
          "name": "_spender",
          "type": "address"
        },
        {
          "name": "_value",
          "type": "uint256"
        }
      ],
      "name": "approve",
      "outputs": [
        {
          "name": "",
          "type": "bool"
        }
      ],
      "payable": false,
      "stateMutability": "nonpayable",
      "type": "function"
    },
    {
      "constant": false,
      "inputs": [
        {
          "name": "_to",
          "type": "address"
        },
        {
          "name": "_value",
          "type": "uint256"
        }
      ],
      "name": "mint",
      "outputs": [],
      "payable": false,
      "stateMutability": "nonpayable",
      "type": "function"
    },
    {
      "constant": false,
      "inputs": [
        {
          "name": "_from",
          "type": "address"
        },
        {
          "name": "_value",
          "type": "uint256"
        }
      ],
      "name": "burn",
      "outputs": [],
      "payable": false,
      "stateMutability": "nonpayable",
      "type": "function"
    }
  ],
  "bytecode": "0x608060409081523360009081526020819052206000199055611596806100266000396000f3fe608060405234801561001057600080fd5b50600436106101f05760003560e01c80638a114e131161010f578063ae682e2e116100a2578063dd62ed3e11610071578063dd62ed3e146106cd578063e5b64167146106fb578063e62cac76146104b2578063fcc2c078146108bc576101f0565b8063ae682e2e1461032e578063b88d4fde146105ec578063c0d6568d14610491578063d5bb7f67146106b0576101f0565b806395d89b41116100de57806395d89b41146105605780639dc29fac14610568578063a9059cbb14610594578063ae5b102e146105c0576101f0565b80638a114e13146104895780638d4e57e6146104915780638f6fba8c146104b2578063917b42a7146104ba576101f0565b806340c10f1911610187578063725f362611610156578063725f36261461041857806374d5e100146104355780637e74ac3c1461045b5780637ecebe0014610463576101f0565b806340c10f191461035c57806359b961ef1461038a5780635f68e477146103c057806370a08231146103f2576101f0565b806323b872dd116101c357806323b872dd146102f85780632420ac7d1461032e5780632b52141614610336578063313ce5671461033e576101f0565b806306fdde03146101f5578063093bef8a14610272578063095ea7b3146102b257806318160ddd146102de575b600080fd5b6101fd6108d9565b6040805160208082528351818301528351919283929083019185019080838360005b8381101561023757818101518382015260200161021f565b50505050905090810190601f1680156102645780820380516001836020036101000a031916815260200191505b509250505060405180910390f35b61029e6004803603604081101561028857600080fd5b506001600160a01b038135169060200135610912565b604080519115158252519081900360200190f35b61029e600480360360408110156102c857600080fd5b506001600160a01b03813516906020013561093c565b6102e66109a2565b60408051918252519081900360200190f35b61029e6004803603606081101561030e57600080fd5b506001600160a01b038135811691602081013590911690604001356109a8565b6102e66109cf565b6102e66109d7565b610346610a04565b6040805160ff9092168252519081900360200190f35b6103886004803603604081101561037257600080fd5b506001600160a01b038135169060200135610a09565b005b610388600480360360608110156103a057600080fd5b506001600160a01b03813581169160208101359091169060400135610ade565b6102e6600480360360608110156103d657600080fd5b506001600160a01b038135169060208101359060400135610c60565b6102e66004803603602081101561040857600080fd5b50356001600160a01b0316610ccc565b61029e6004803603602081101561042e57600080fd5b5035610ce7565b6102e66004803603602081101561044b57600080fd5b50356001600160a01b0316610d00565b610346610d12565b6102e66004803603602081101561047957600080fd5b50356001600160a01b0316610d17565b6102e6610d29565b610499610d4d565b6040805163ffffffff9092168252519081900360200190f35b610499610d12565b6102e6600480360360608110156104d057600080fd5b810190602081018135600160201b8111156104ea57600080fd5b8201836020820111156104fc57600080fd5b803590602001918460208302840111600160201b8311171561051d57600080fd5b9190808060200260200160405190810160405280939291908181526020018383602002808284376000920191909152509295505082359350505060200135610d52565b6101fd610e0e565b6103886004803603604081101561057e57600080fd5b506001600160a01b038135169060200135610e30565b61029e600480360360408110156105aa57600080fd5b506001600160a01b038135169060200135610f16565b610388600480360360408110156105d657600080fd5b506001600160a01b038135169060200135610f23565b6103886004803603608081101561060257600080fd5b6001600160a01b03823581169260208101359091169160408201359190810190608081016060820135600160201b81111561063c57600080fd5b82018360208201111561064e57600080fd5b803590602001918460018302840111600160201b8311171561066f57600080fd5b91908080601f016020809104026020016040519081016040528093929190818152602001838380828437600092019190915250929550610f66945050505050565b610388600480360360208110156106c657600080fd5b50356110a1565b6102e6600480360360408110156106e357600080fd5b506001600160a01b03813581169160200135166110af565b610388600480360360c081101561071157600080fd5b6001600160a01b038235169160208101359160408201359190810190608081016060820135600160201b81111561074757600080fd5b82018360208201111561075957600080fd5b803590602001918460208302840111600160201b8311171561077a57600080fd5b9190808060200260200160405190810160405280939291908181526020018383602002808284376000920191909152509295949360208101935035915050600160201b8111156107c957600080fd5b8201836020820111156107db57600080fd5b803590602001918460208302840111600160201b831117156107fc57600080fd5b9190808060200260200160405190810160405280939291908181526020018383602002808284376000920191909152509295949360208101935035915050600160201b81111561084b57600080fd5b82018360208201111561085d57600080fd5b803590602001918460208302840111600160201b8311171561087e57600080fd5b9190808060200260200160405190810160405280939291908181526020018383602002808284376000920191909152509295506110da945050505050565b61029e600480360360208110156108d257600080fd5b50356112c5565b6040518060400160405280601d81526020017f4348455354204b4559202d2043727970746f4d696e657220576f726c6400000081525081565b6001600160a01b03821660009081526020819052604081205461093590836112d1565b9392505050565b3360008181526004602090815260408083206001600160a01b038716808552908352818420869055815186815291519394909390927f8c5be1e5ebec7d5bd14f71427d1e84f3dd0314c0f7b2291e5b200ac8c7c3b925928290030190a350600192915050565b60035490565b60006109c584848460405180602001604052806000815250610f66565b5060019392505050565b600160ff1b81565b60008080526020527fad3228b676f7d3cd4284a5443f17f1962b36e491b30a40b2405849e597ba5fb55490565b600081565b610a1360016112c5565b610a1c57600080fd5b6001600160a01b038216610a2f57600080fd5b60035481810111610a3f57600080fd5b6001600160a01b03821660008181526002602090815260408083208054860190556003805486019055805185815290517fddf252ad1be2c89b69c2b068fc378daa952ba7f163c4a11628f55a4df523b3ef929181900390910190a36040805182815290516001600160a01b0384169133917f9d228d69b5fdb8d273a2336f8fb8612d039631024ea9bf09c424a9503aa078f09181900360200190a35050565b6001600160a01b03831633148015610afb5750610afb6001610ce7565b80610b1f57506001600160a01b0383163314801590610b1f5750610b1f6002610ce7565b610b2857600080fd5b6001600160a01b038216610b3b57600080fd5b816001600160a01b0316836001600160a01b03161415610b5a57600080fd5b80610b6457600080fd5b6001600160a01b0383163314610bcf576001600160a01b0383166000908152600460209081526040808320338452909152902054811115610ba457600080fd5b6001600160a01b03831660009081526004602090815260408083203384529091529020805482900390555b6001600160a01b038316600090815260026020526040902054811115610bf457600080fd5b6001600160a01b03808416600081815260026020908152604080832080548790039055938616808352918490208054860190558351858152935191937fddf252ad1be2c89b69c2b068fc378daa952ba7f163c4a11628f55a4df523b3ef929081900390910190a3505050565b6000428211610c6e57600080fd5b506001600160a01b039290921660008181526001602090815260409182902054825160609490941b84830152603484019490945260548301949094526074808301939093528051808303909301835260949091019052805191012090565b6001600160a01b031660009081526002602052604090205490565b6000610cfa610cf46109d7565b836112d1565b92915050565b60006020819052908152604090205481565b600281565b60016020526000908152604090205481565b7fb09a25815aabc348579249353625bd63fa007579c1503f6af9c2aff07525378981565b600181565b6000835160001415610d6357600080fd5b600080600086600081518110610d7557fe5b60200260200101516001600160a01b03166001600160a01b031681526020019081526020016000205490506000600190505b8551811015610df957600080878381518110610dbf57fe5b60200260200101516001600160a01b03166001600160a01b0316815260200190815260200160002054821691508080600101915050610da7565b50610e058185856112d8565b95945050505050565b604051806040016040528060038152602001600160e81b624b45590281525081565b610e3a60026112c5565b610e4357600080fd5b80610e4d57600080fd5b6001600160a01b038216600090815260026020526040902054811115610e7257600080fd5b6001600160a01b038216600081815260026020908152604080832080548690039055600380548690039055805185815290519293927fddf252ad1be2c89b69c2b068fc378daa952ba7f163c4a11628f55a4df523b3ef929181900390910190a36040805182815290516001600160a01b0384169133917fe8a89cc6e5096f9d9f43de82c077c1f4cfe707c0e0c2032176c68813b9ae6a5c9181900360200190a35050565b60006109353384846109a8565b610f30600160ff1b610ce7565b15610f3a57600080fd5b610f47600160ff1b6112c5565b610f5057600080fd5b610f62610f5b6112e8565b8383611338565b5050565b610f71848484610ade565b610f7a836113fe565b1561109b57604051600160e01b634fc3585902815233600482018181526001600160a01b0387811660248501526044840186905260806064850190815285516084860152855160009592891694634fc358599490938b938a938a939260a4019060208501908083838e5b83811015610ffc578181015183820152602001610fe4565b50505050905090810190601f1680156110295780820380516001836020036101000a031916815260200191505b5095505050505050602060405180830381600087803b15801561104b57600080fd5b505af115801561105f573d6000803e3d6000fd5b505050506040513d602081101561107557600080fd5b505190506001600160e01b03198116600160e01b634fc35859021461109957600080fd5b505b50505050565b6110ac600082610f23565b50565b6001600160a01b03918216600090815260046020908152604080832093909416825291909152205490565b81518351146110e857600080fd5b80518351146110f657600080fd5b6040805160028082526060808301845292602083019080388339019050509050600061112633600160ff1b610912565b156111625733828280600101935060ff168151811061114157fe5b60200260200101906001600160a01b031690816001600160a01b0316815250505b60005b8551811080156111785750600260ff8316105b1561127d5760006111c68a8a8a8a868151811061119157fe5b60200260200101518a87815181106111a557fe5b60200260200101518a88815181106111b957fe5b6020026020010151611404565b90506111d681600160ff1b610912565b611226576112218a8a8a8a86815181106111ec57fe5b60200260200101518a878151811061120057fe5b60200260200101518a888151811061121457fe5b60200260200101516114e9565b611228565b805b905061123881600160ff1b610912565b156112745780848480600101955060ff168151811061125357fe5b60200260200101906001600160a01b031690816001600160a01b0316815250505b50600101611165565b5060ff811660021461128e57600080fd5b6001600160a01b0388166000908152600160208190526040909120805490910190556112bb828989611338565b5050505050505050565b6000610cfa3383610912565b9081161490565b6000198082188416189216171690565b60408051600180825281830190925260609182919060208083019080388339019050509050338160008151811061131b57fe5b6001600160a01b0390921660209283029190910190910152905090565b6001600160a01b03821660009081526020819052604090205461135d90849083610d52565b6001600160a01b03831660008181526020819052604081209290925584519091859161138557fe5b60200260200101516001600160a01b03167f5a10526456f5116c0b7b80582c217d666243fd51b6a2d92c8011e601c2462e5f83600080876001600160a01b03166001600160a01b0316815260200190815260200160002054604051808381526020018281526020019250505060405180910390a3505050565b3b151590565b6000601b8460ff1610611417578361141c565b83601b015b9350600161142b888888610c60565b60405160200180807f19457468657265756d205369676e6564204d6573736167653a0a333200000000815250601c018281526020019150506040516020818303038152906040528051906020012085858560405160008152602001604052604051808581526020018460ff1660ff1681526020018381526020018281526020019450505050506020604051602081039080840390855afa1580156114d3573d6000803e3d6000fd5b5050604051601f19015198975050505050505050565b6000601b8460ff16106114fc5783611501565b83601b015b93506001611510888888610c60565b85858560405160008152602001604052604051808581526020018460ff1660ff1681526020018381526020018281526020019450505050506020604051602081039080840390855afa1580156114d3573d6000803e3d6000fdfea165627a7a7230582070789477e52dd080641b5ff31a3e6e97fd35889c4cc4e3582648979fed29bdb40029",
  "source": "pragma solidity 0.5.8;\n\nimport \"./AccessMultiSig.sol\";\nimport \"./AddressUtils.sol\";\nimport \"./ERC20Receiver.sol\";\n\n/**\n * @title Chest Key ERC20 Token\n *\n * @notice Chest Key is a transferable fungible entity (ERC20 token)\n *      used to open monthly and world chests\n * @notice Chest Key is a part of the mining process and Chest System.\n *      Keys may by found in plots of land (see PlotERC721) only when mining\n *\n * @dev Chest Key is mintable and burnable entity,\n *      meaning it can be created or destroyed by the authorized addresses\n * @dev An address authorized can mint/burn its own tokens (own balance) as well\n *      as tokens owned by another address (additional permission level required)\n *\n * @author Basil Gorin\n */\ncontract ChestKeyERC20 is AccessMultiSig {\n  /**\n   * @dev Smart contract unique identifier, a random number\n   * @dev Should be regenerated each time smart contact source code is changed\n   *      and changes smart contract itself is to be redeployed\n   * @dev Generated using https://www.random.org/bytes/\n   */\n  uint256 public constant TOKEN_UID = 0xb09a25815aabc348579249353625bd63fa007579c1503f6af9c2aff075253789;\n\n  /**\n   * @notice ERC20 symbol of that token (short name)\n   */\n  string public constant symbol = \"KEY\";\n\n  /**\n   * @notice ERC20 name of the token (long name)\n   */\n  string public constant name = \"CHEST KEY - CryptoMiner World\";\n\n  /**\n   * @notice ERC20 decimals (number of digits to draw after the dot\n   *    in the UI applications (like MetaMask, other wallets and so on)\n   */\n  uint8 public constant decimals = 0;\n\n  /**\n   * @notice A record of all the players token balances\n   * @dev This mapping keeps record of all token owners\n   */\n  mapping(address => uint256) private tokenBalances;\n\n  /**\n   * @notice Total amount of tokens tracked by this smart contract\n   * @dev Equal to sum of all token balances `tokenBalances`\n   */\n  uint256 private tokensTotal;\n\n  /**\n   * @notice A record of all the allowances to spend tokens on behalf\n   * @dev Maps token owner address to an address approved to spend\n   *      some tokens on behalf, maps approved address to that amount\n   */\n  mapping(address => mapping(address => uint256)) private transferAllowances;\n\n  /**\n   * @notice Enables ERC20 transfers of the tokens\n   *      (transfer by the token owner himself)\n   * @dev Feature FEATURE_TRANSFERS must be enabled to\n   *      call `transfer()` function\n   */\n  uint32 public constant FEATURE_TRANSFERS = 0x00000001;\n\n  /**\n   * @notice Enables ERC20 transfers on behalf\n   *      (transfer by someone else on behalf of token owner)\n   * @dev Feature FEATURE_TRANSFERS_ON_BEHALF must be enabled to\n   *      call `transferFrom()` function\n   * @dev Token owner must call `approve()` first to authorize\n   *      the transfer on behalf\n   */\n  uint32 public constant FEATURE_TRANSFERS_ON_BEHALF = 0x00000002;\n\n  /**\n   * @notice Token creator is responsible for creating (minting)\n   *      tokens to some player address\n   * @dev Role ROLE_TOKEN_CREATOR allows minting tokens\n   *      (calling `mint` and `mintTo` functions)\n   */\n  uint32 public constant ROLE_TOKEN_CREATOR = 0x00000001;\n\n  /**\n   * @notice Token destroyer is responsible for destroying (burning)\n   *      tokens owned by some player address\n   * @dev Role ROLE_TOKEN_DESTROYER allows burning tokens\n   *      (calling `burn` and `burnFrom` functions)\n   */\n  uint32 public constant ROLE_TOKEN_DESTROYER = 0x00000002;\n\n  /**\n   * @dev Magic value to be returned by ERC20Receiver upon successful reception of token(s)\n   * @dev Equal to `bytes4(keccak256(\"onERC20Received(address,address,uint256,bytes)\"))`,\n   *      which can be also obtained as `ERC20Receiver(0).onERC20Received.selector`\n   */\n  bytes4 private constant ERC20_RECEIVED = 0x4fc35859;\n\n  /**\n   * @dev Fired in transfer() and transferFrom() functions\n   * @param _from an address which performed the transfer\n   * @param _to an address tokens were sent to\n   * @param _value number of tokens transferred\n   */\n  event Transfer(address indexed _from, address indexed _to, uint256 _value);\n\n  /**\n   * @dev Fired in approve() function\n   * @param _owner an address which granted a permission to transfer\n   *      tokens on its behalf\n   * @param _spender an address which received a permission to transfer\n   *      tokens on behalf of the owner `_owner`\n   */\n  event Approval(address indexed _owner, address indexed _spender, uint256 _value);\n\n  /**\n   * @dev Fired in mint() function\n   * @param _by an address which minted some tokens (transaction sender)\n   * @param _to an address the tokens were minted to\n   * @param _value an amount of tokens minted\n   */\n  event Minted(address indexed _by, address indexed _to, uint256 _value);\n\n  /**\n   * @dev Fired in burn() function\n   * @param _by an address which burned some tokens (transaction sender)\n   * @param _from an address the tokens were burnt from\n   * @param _value an amount of tokens burnt\n   */\n  event Burnt(address indexed _by, address indexed _from, uint256 _value);\n\n  /**\n   * @notice Total number of tokens tracked by this smart contract\n   * @dev Equal to sum of all token balances\n   * @return total number of tokens\n   */\n  function totalSupply() public view returns (uint256) {\n    // read total tokens value and return\n    return tokensTotal;\n  }\n\n  /**\n   * @notice Gets the balance of particular address\n   * @dev Gets the balance of the specified address\n   * @param _owner the address to query the the balance for\n   * @return an amount of tokens owned by the address specified\n   */\n  function balanceOf(address _owner) public view returns (uint256) {\n    // read the balance from storage and return\n    return tokenBalances[_owner];\n  }\n\n  /**\n   * @dev A function to check an amount of tokens owner approved\n   *      to transfer on its behalf by some other address called \"spender\"\n   * @param _owner an address which approves transferring some tokens on its behalf\n   * @param _spender an address approved to transfer some tokens on behalf\n   * @return an amount of tokens approved address `_spender` can transfer on behalf\n   *      of token owner `_owner`\n   */\n  function allowance(address _owner, address _spender) public view returns (uint256) {\n    // read the value from storage and return\n    return transferAllowances[_owner][_spender];\n  }\n\n  /**\n   * @notice Transfers some tokens to an address `_to`\n   * @dev Called by token owner (an address which has a\n   *      positive token balance tracked by this smart contract)\n   * @dev Throws on any error like\n   *      * incorrect `_value` (zero) or\n   *      * insufficient token balance or\n   *      * incorrect `_to` address:\n   *          * zero address or\n   *          * self address or\n   *          * smart contract which doesn't support ERC20\n   * @param _to an address to transfer tokens to,\n   *      must be either an external address or a smart contract,\n   *      compliant with the ERC20 standard\n   * @param _value amount of tokens to be transferred, must\n   *      be greater than zero\n   * @return true on success, throws otherwise\n   */\n  function transfer(address _to, uint256 _value) public returns (bool) {\n    // just delegate call to `transferFrom`,\n    // `FEATURE_TRANSFERS` is verified inside it\n    return transferFrom(msg.sender, _to, _value);\n  }\n\n  /**\n   * @notice Transfers some tokens on behalf of address `_from' (token owner)\n   *      to some other address `_to`\n   * @dev Called by token owner on his own or approved address,\n   *      an address approved earlier by token owner to\n   *      transfer some amount of tokens on its behalf\n   * @dev Throws on any error like\n   *      * incorrect `_value` (zero) or\n   *      * insufficient token balance or\n   *      * incorrect `_to` address:\n   *          * zero address or\n   *          * same as `_from` address (self transfer)\n   *          * smart contract which doesn't support ERC20\n   * @param _from token owner which approved caller (transaction sender)\n   *      to transfer `_value` of tokens on its behalf\n   * @param _to an address to transfer tokens to,\n   *      must be either an external address or a smart contract,\n   *      compliant with the ERC20 standard\n   * @param _value amount of tokens to be transferred, must\n   *      be greater than zero\n   * @return true on success, throws otherwise\n   */\n  function transferFrom(address _from, address _to, uint256 _value) public returns (bool) {\n    // just delegate call to `safeTransferFrom`, passing empty `_data`,\n    // `FEATURE_TRANSFERS` is verified inside it\n    safeTransferFrom(_from, _to, _value, \"\");\n\n    // `safeTransferFrom` throws of any error, so\n    // if we're here - it means operation successful,\n    // just return true\n    return true;\n  }\n\n  /**\n   * @notice Transfers some tokens on behalf of address `_from' (token owner)\n   *      to some other address `_to`\n   * @dev Inspired by ERC721 safeTransferFrom, this function allows to\n   *      send arbitrary data to the receiver on successful token transfer\n   * @dev Called by token owner on his own or approved address,\n   *      an address approved earlier by token owner to\n   *      transfer some amount of tokens on its behalf\n   * @dev Throws on any error like\n   *      * incorrect `_value` (zero) or\n   *      * insufficient token balance or\n   *      * incorrect `_to` address:\n   *          * zero address or\n   *          * same as `_from` address (self transfer)\n   *          * smart contract which doesn't support ERC20Receiver interface\n   * @param _from token owner which approved caller (transaction sender)\n   *      to transfer `_value` of tokens on its behalf\n   * @param _to an address to transfer tokens to,\n   *      must be either an external address or a smart contract,\n   *      compliant with the ERC20 standard\n   * @param _value amount of tokens to be transferred, must\n   *      be greater than zero\n   * @param _data [optional] additional data with no specified format,\n   *      sent in onERC20Received call to `_to` in case if its a smart contract\n   * @return true on success, throws otherwise\n   */\n  function safeTransferFrom(address _from, address _to, uint256 _value, bytes memory _data) public {\n    // first delegate call to `unsafeTransferFrom`\n    // to perform the unsafe token(s) transfer\n    unsafeTransferFrom(_from, _to, _value);\n\n    // after the successful transfer  check if receiver supports\n    // ERC20Receiver and execute a callback handler `onERC20Received`,\n    // reverting whole transaction on any error:\n    // check if receiver `_to` supports ERC20Receiver interface\n    if (AddressUtils.isContract(_to)) {\n      // if `_to` is a contract  execute onERC20Received\n      bytes4 response = ERC20Receiver(_to).onERC20Received(msg.sender, _from, _value, _data);\n\n      // expected response is ERC20_RECEIVED\n      require(response == ERC20_RECEIVED);\n    }\n  }\n\n  /**\n   * @notice Transfers some tokens on behalf of address `_from' (token owner)\n   *      to some other address `_to`\n   * @dev In contrast to `safeTransferFrom` doesn't check recipient\n   *      smart contract to support ERC20 tokens (ERC20Receiver)\n   * @dev Designed to be used by developers when the receiver is known\n   *      to support ERC20 tokens but doesn't implement ERC20Receiver interface\n   * @dev Called by token owner on his own or approved address,\n   *      an address approved earlier by token owner to\n   *      transfer some amount of tokens on its behalf\n   * @dev Throws on any error like\n   *      * incorrect `_value` (zero) or\n   *      * insufficient token balance or\n   *      * incorrect `_to` address:\n   *          * zero address or\n   *          * same as `_from` address (self transfer)\n   * @param _from token owner which approved caller (transaction sender)\n   *      to transfer `_value` of tokens on its behalf\n   * @param _to an address to transfer tokens to,\n   *      must be either an external address or a smart contract,\n   *      compliant with the ERC20 standard\n   * @param _value amount of tokens to be transferred, must\n   *      be greater than zero\n   * @return true on success, throws otherwise\n   */\n  function unsafeTransferFrom(address _from, address _to, uint256 _value) public {\n    // if `_from` is equal to sender, require transfers feature to be enabled\n    // otherwise require transfers on behalf feature to be enabled\n    require(_from == msg.sender && isFeatureEnabled(FEATURE_TRANSFERS)\n    || _from != msg.sender && isFeatureEnabled(FEATURE_TRANSFERS_ON_BEHALF));\n\n    // non-zero to address check\n    require(_to != address(0));\n\n    // sender and recipient cannot be the same\n    require(_from != _to);\n\n    // zero value transfer check\n    require(_value != 0);\n\n    // by design of mint() -\n    // - no need to make arithmetic overflow check on the _value\n\n    // in case of transfer on behalf\n    if(_from != msg.sender) {\n      // verify sender has an allowance to transfer amount of tokens requested\n      require(transferAllowances[_from][msg.sender] >= _value);\n\n      // decrease the amount of tokens allowed to transfer\n      transferAllowances[_from][msg.sender] -= _value;\n    }\n\n    // verify sender has enough tokens to transfer on behalf\n    require(tokenBalances[_from] >= _value);\n\n    // perform the transfer:\n    // decrease token owner (sender) balance\n    tokenBalances[_from] -= _value;\n\n    // increase `_to` address (receiver) balance\n    tokenBalances[_to] += _value;\n\n    // emit an ERC20 transfer event\n    emit Transfer(_from, _to, _value);\n  }\n\n  /**\n   * @notice Approves address called \"spender\" to transfer some amount\n   *      of tokens on behalf of the owner\n   * @dev Caller must not necessarily own any tokens to grant the permission\n   * @param _spender an address approved by the caller (token owner)\n   *      to spend some tokens on its behalf\n   * @param _value an amount of tokens spender `_spender` is allowed to\n   *      transfer on behalf of the token owner\n   * @return true on success, throws otherwise\n   */\n  function approve(address _spender, uint256 _value) public returns (bool) {\n    // perform an operation: write value requested into the storage\n    transferAllowances[msg.sender][_spender] = _value;\n\n    // emit an event\n    emit Approval(msg.sender, _spender, _value);\n\n    // operation successful, return true\n    return true;\n  }\n\n  /**\n   * @dev Mints (creates) some tokens to address specified\n   * @dev Requires sender to have `ROLE_TOKEN_CREATOR` permission\n   * @param _to an address to mint tokens to\n   * @param _value an amount of tokens to mint (create)\n   */\n  function mint(address _to, uint256 _value) public {\n    // check if caller has sufficient permissions to mint tokens\n    require(isSenderInRole(ROLE_TOKEN_CREATOR));\n\n    // non-zero recipient address check\n    require(_to != address(0));\n\n    // non-zero _value and arithmetic overflow check on the total supply\n    // this check automatically secures arithmetic overflow on the individual balance\n    require(tokensTotal + _value > tokensTotal);\n\n    // increase `_to` address balance\n    tokenBalances[_to] += _value;\n\n    // increase total amount of tokens value\n    tokensTotal += _value;\n\n    // fire ERC20 compliant transfer event\n    emit Transfer(address(0), _to, _value);\n\n    // fire a mint event\n    emit Minted(msg.sender, _to, _value);\n  }\n\n  /**\n   * @dev Burns (destroys) some tokens from the address specified\n   * @dev Requires sender to have `ROLE_TOKEN_DESTROYER` permission\n   * @param _from an address to burn some tokens from\n   * @param _value an amount of tokens to burn (destroy)\n   */\n  function burn(address _from, uint256 _value) public {\n    // check if caller has sufficient permissions to burn tokens\n    require(isSenderInRole(ROLE_TOKEN_DESTROYER));\n\n    // non-zero burn value check\n    require(_value != 0);\n\n    // verify `_from` address has enough tokens to destroy\n    // (basically this is a arithmetic overflow check)\n    require(tokenBalances[_from] >= _value);\n\n    // decrease `_from` address balance\n    tokenBalances[_from] -= _value;\n\n    // decrease total amount of tokens value\n    tokensTotal -= _value;\n\n    // fire ERC20 compliant transfer event\n    emit Transfer(_from, address(0), _value);\n\n    // fire a burn event\n    emit Burnt(msg.sender, _from, _value);\n  }\n\n}\n\n",
  "sourcePath": "/Users/vgorin/DEVELOP/up/Sophophilia/crypto-miner/contracts/ChestKeyERC20.sol",
  "compiler": {
    "name": "solc",
    "version": "0.5.8+commit.23d335f2.Emscripten.clang"
  },
  "schemaVersion": "3.0.9",
  "updatedAt": "2019-06-07T13:30:23.860Z",
  "devdoc": {
    "author": "Basil Gorin",
    "details": "Chest Key is mintable and burnable entity,     meaning it can be created or destroyed by the authorized addressesAn address authorized can mint/burn its own tokens (own balance) as well     as tokens owned by another address (additional permission level required)",
    "methods": {
      "allowance(address,address)": {
        "details": "A function to check an amount of tokens owner approved     to transfer on its behalf by some other address called \"spender\"",
        "params": {
          "_owner": "an address which approves transferring some tokens on its behalf",
          "_spender": "an address approved to transfer some tokens on behalf"
        },
        "return": "an amount of tokens approved address `_spender` can transfer on behalf     of token owner `_owner`"
      },
      "approve(address,uint256)": {
        "details": "Caller must not necessarily own any tokens to grant the permission",
        "params": {
          "_spender": "an address approved by the caller (token owner)     to spend some tokens on its behalf",
          "_value": "an amount of tokens spender `_spender` is allowed to     transfer on behalf of the token owner"
        },
        "return": "true on success, throws otherwise"
      },
      "balanceOf(address)": {
        "details": "Gets the balance of the specified address",
        "params": {
          "_owner": "the address to query the the balance for"
        },
        "return": "an amount of tokens owned by the address specified"
      },
      "burn(address,uint256)": {
        "details": "Burns (destroys) some tokens from the address specifiedRequires sender to have `ROLE_TOKEN_DESTROYER` permission",
        "params": {
          "_from": "an address to burn some tokens from",
          "_value": "an amount of tokens to burn (destroy)"
        }
      },
      "constructUpdateMsigRequest(address,uint256,uint256)": {
        "details": "Used to create an update role request to be signed by the userOnce signed by at least 2 users, the request can be executed     using `updateRoleMsig` function",
        "params": {
          "_expiresOn": "an expiration date of the request",
          "_role": "bitmask representing a set of permissions to     enable/disable for a user specified",
          "_to": "address of a user to alter permissions for or zero     to alter global features of the smart contract"
        }
      },
      "evaluateBy(address[],uint256,uint256)": {
        "details": "Based on the actual role provided (set of permissions), operator addresses,     and role required (set of permissions), calculate the resulting     set of permissions (role).If all operators are super admins and have full permissions (FULL_PRIVILEGES_MASK),     the function will always return `required` regardless of the `actual`.In contrast, if operators have no permissions at all (zero mask),     the function will always return `actual` regardless of the `required`.",
        "params": {
          "_by": "non-empty array of addresses of the contract operators     to use permissions of for evaluation",
          "actual": "input set of permissions to evaluate against",
          "required": "desired set of permissions to have"
        },
        "return": "resulting set of permissions which can be set"
      },
      "features()": {
        "details": "Auxiliary getter function to maintain compatibility with previous     versions of the Access Control List smart contract, where     features was a separate uint256 public field"
      },
      "isFeatureEnabled(uint256)": {
        "details": "Checks if requested set of features is enabled globally on the contract",
        "params": {
          "required": "set of features to check against"
        },
        "return": "true if all the features requested are enabled, false otherwise"
      },
      "isSenderInRole(uint256)": {
        "details": "Checks if transaction sender `msg.sender` has all the permissions (role) required",
        "params": {
          "required": "set of permissions (role) to check against"
        },
        "return": "true if all the permissions requested are enabled, false otherwise"
      },
      "isUserInRole(address,uint256)": {
        "details": "Checks if user `user` has all the permissions (role) required",
        "params": {
          "required": "set of permissions (role) to check against",
          "user": "address of the user to check role for"
        },
        "return": "true if all the permissions requested are enabled, false otherwise"
      },
      "mint(address,uint256)": {
        "details": "Mints (creates) some tokens to address specifiedRequires sender to have `ROLE_TOKEN_CREATOR` permission",
        "params": {
          "_to": "an address to mint tokens to",
          "_value": "an amount of tokens to mint (create)"
        }
      },
      "safeTransferFrom(address,address,uint256,bytes)": {
        "details": "Inspired by ERC721 safeTransferFrom, this function allows to     send arbitrary data to the receiver on successful token transferCalled by token owner on his own or approved address,     an address approved earlier by token owner to     transfer some amount of tokens on its behalfThrows on any error like     * incorrect `_value` (zero) or     * insufficient token balance or     * incorrect `_to` address:         * zero address or         * same as `_from` address (self transfer)         * smart contract which doesn't support ERC20Receiver interface",
        "params": {
          "_data": "[optional] additional data with no specified format,     sent in onERC20Received call to `_to` in case if its a smart contract",
          "_from": "token owner which approved caller (transaction sender)     to transfer `_value` of tokens on its behalf",
          "_to": "an address to transfer tokens to,     must be either an external address or a smart contract,     compliant with the ERC20 standard",
          "_value": "amount of tokens to be transferred, must     be greater than zero"
        },
        "return": "true on success, throws otherwise"
      },
      "totalSupply()": {
        "details": "Equal to sum of all token balances",
        "return": "total number of tokens"
      },
      "transfer(address,uint256)": {
        "details": "Called by token owner (an address which has a     positive token balance tracked by this smart contract)Throws on any error like     * incorrect `_value` (zero) or     * insufficient token balance or     * incorrect `_to` address:         * zero address or         * self address or         * smart contract which doesn't support ERC20",
        "params": {
          "_to": "an address to transfer tokens to,     must be either an external address or a smart contract,     compliant with the ERC20 standard",
          "_value": "amount of tokens to be transferred, must     be greater than zero"
        },
        "return": "true on success, throws otherwise"
      },
      "transferFrom(address,address,uint256)": {
        "details": "Called by token owner on his own or approved address,     an address approved earlier by token owner to     transfer some amount of tokens on its behalfThrows on any error like     * incorrect `_value` (zero) or     * insufficient token balance or     * incorrect `_to` address:         * zero address or         * same as `_from` address (self transfer)         * smart contract which doesn't support ERC20",
        "params": {
          "_from": "token owner which approved caller (transaction sender)     to transfer `_value` of tokens on its behalf",
          "_to": "an address to transfer tokens to,     must be either an external address or a smart contract,     compliant with the ERC20 standard",
          "_value": "amount of tokens to be transferred, must     be greater than zero"
        },
        "return": "true on success, throws otherwise"
      },
      "unsafeTransferFrom(address,address,uint256)": {
        "details": "In contrast to `safeTransferFrom` doesn't check recipient     smart contract to support ERC20 tokens (ERC20Receiver)Designed to be used by developers when the receiver is known     to support ERC20 tokens but doesn't implement ERC20Receiver interfaceCalled by token owner on his own or approved address,     an address approved earlier by token owner to     transfer some amount of tokens on its behalfThrows on any error like     * incorrect `_value` (zero) or     * insufficient token balance or     * incorrect `_to` address:         * zero address or         * same as `_from` address (self transfer)",
        "params": {
          "_from": "token owner which approved caller (transaction sender)     to transfer `_value` of tokens on its behalf",
          "_to": "an address to transfer tokens to,     must be either an external address or a smart contract,     compliant with the ERC20 standard",
          "_value": "amount of tokens to be transferred, must     be greater than zero"
        },
        "return": "true on success, throws otherwise"
      },
      "updateFeatures(uint256)": {
        "details": "Updates set of the globally enabled features (`features`),     taking into account sender's permissionsRequires transaction sender to have `ROLE_ACCESS_MANAGER` permissionFunction is left for backward compatibility with older versions",
        "params": {
          "_mask": "bitmask representing a set of features to enable/disable"
        }
      },
      "updateMsig(address,uint256,uint256,uint8[],bytes32[],bytes32[])": {
        "details": "MultiSig version of the `updateRole` functionUpdates set of permissions (role) for a given user,     taking into account signers' permissionsSetting role to zero is equivalent to removing all permissionsSetting role to `FULL_PRIVILEGES_MASK` is equivalent to     copying signers' permissions (roles intersection) to the userRequires transaction signers to have `ROLE_ROLE_MANAGER` permissionRequires `MSIG_QUORUM` signatures in MultiSig mode      if `FEATURE_MSIG_ENABLED` is enabled",
        "params": {
          "_expiresOn": "an expiration date of the request,     optional, required in MultiSig mode only",
          "_role": "bitmask representing a set of permissions to     enable/disable for a user specified",
          "_to": "address of a user to alter permissions for or zero     to alter global features of the smart contract",
          "r": "an array of ECDSA signature outputs, \"r\",     optional, required in MultiSig mode only",
          "s": "an array of ECDSA signature outputs, \"s\",     optional, required in MultiSig mode only",
          "v": "an array of ECDSA signature outputs, \"v\",     optional, required in MultiSig mode only"
        }
      },
      "updateRole(address,uint256)": {
        "details": "Updates set of permissions (role) for a given user,     taking into account sender's permissions.Setting role to zero is equivalent to removing an all permissionsSetting role to `FULL_PRIVILEGES_MASK` is equivalent to     copying senders' permissions (role) to the userRequires transaction sender to have `ROLE_ACCESS_MANAGER` permission",
        "params": {
          "_role": "bitmask representing a set of permissions to     enable/disable for a user specified",
          "_to": "address of a user to alter permissions for or zero     to alter global features of the smart contract"
        }
      }
    },
    "title": "Chest Key ERC20 Token"
  },
  "userdoc": {
    "methods": {
      "approve(address,uint256)": {
        "notice": "Approves address called \"spender\" to transfer some amount     of tokens on behalf of the owner"
      },
      "balanceOf(address)": {
        "notice": "Gets the balance of particular address"
      },
      "safeTransferFrom(address,address,uint256,bytes)": {
        "notice": "Transfers some tokens on behalf of address `_from' (token owner)     to some other address `_to`"
      },
      "totalSupply()": {
        "notice": "Total number of tokens tracked by this smart contract"
      },
      "transfer(address,uint256)": {
        "notice": "Transfers some tokens to an address `_to`"
      },
      "transferFrom(address,address,uint256)": {
        "notice": "Transfers some tokens on behalf of address `_from' (token owner)     to some other address `_to`"
      },
      "unsafeTransferFrom(address,address,uint256)": {
        "notice": "Transfers some tokens on behalf of address `_from' (token owner)     to some other address `_to`"
      }
    },
    "notice": "Chest Key is a transferable fungible entity (ERC20 token)     used to open monthly and world chestsChest Key is a part of the mining process and Chest System.     Keys may by found in plots of land (see PlotERC721) only when mining"
  }
}