{
  "contractName": "CountryERC721",
  "abi": [
    {
      "constant": true,
      "inputs": [
        {
          "name": "_interfaceId",
          "type": "bytes4"
        }
      ],
      "name": "supportsInterface",
      "outputs": [
        {
          "name": "",
          "type": "bool"
        }
      ],
      "payable": false,
      "stateMutability": "view",
      "type": "function"
    },
    {
      "constant": true,
      "inputs": [],
      "name": "name",
      "outputs": [
        {
          "name": "",
          "type": "string"
        }
      ],
      "payable": false,
      "stateMutability": "view",
      "type": "function"
    },
    {
      "constant": true,
      "inputs": [
        {
          "name": "_tokenId",
          "type": "uint256"
        }
      ],
      "name": "getApproved",
      "outputs": [
        {
          "name": "",
          "type": "address"
        }
      ],
      "payable": false,
      "stateMutability": "view",
      "type": "function"
    },
    {
      "constant": false,
      "inputs": [
        {
          "name": "_approved",
          "type": "address"
        },
        {
          "name": "_tokenId",
          "type": "uint256"
        }
      ],
      "name": "approve",
      "outputs": [],
      "payable": false,
      "stateMutability": "nonpayable",
      "type": "function"
    },
    {
      "constant": true,
      "inputs": [],
      "name": "TOTAL_SUPPLY_MAX",
      "outputs": [
        {
          "name": "",
          "type": "uint8"
        }
      ],
      "payable": false,
      "stateMutability": "view",
      "type": "function"
    },
    {
      "constant": true,
      "inputs": [],
      "name": "ROLE_EXT_WRITER",
      "outputs": [
        {
          "name": "",
          "type": "uint32"
        }
      ],
      "payable": false,
      "stateMutability": "view",
      "type": "function"
    },
    {
      "constant": true,
      "inputs": [],
      "name": "InterfaceId_ERC165",
      "outputs": [
        {
          "name": "",
          "type": "bytes4"
        }
      ],
      "payable": false,
      "stateMutability": "view",
      "type": "function"
    },
    {
      "constant": false,
      "inputs": [
        {
          "name": "_from",
          "type": "address"
        },
        {
          "name": "_to",
          "type": "address"
        },
        {
          "name": "_tokenId",
          "type": "uint256"
        }
      ],
      "name": "transferFrom",
      "outputs": [],
      "payable": false,
      "stateMutability": "nonpayable",
      "type": "function"
    },
    {
      "constant": true,
      "inputs": [],
      "name": "features",
      "outputs": [
        {
          "name": "",
          "type": "uint256"
        }
      ],
      "payable": false,
      "stateMutability": "view",
      "type": "function"
    },
    {
      "constant": true,
      "inputs": [],
      "name": "decimals",
      "outputs": [
        {
          "name": "",
          "type": "uint8"
        }
      ],
      "payable": false,
      "stateMutability": "view",
      "type": "function"
    },
    {
      "constant": true,
      "inputs": [
        {
          "name": "",
          "type": "address"
        },
        {
          "name": "",
          "type": "address"
        }
      ],
      "name": "approvedOperators",
      "outputs": [
        {
          "name": "",
          "type": "bool"
        }
      ],
      "payable": false,
      "stateMutability": "view",
      "type": "function"
    },
    {
      "constant": false,
      "inputs": [
        {
          "name": "_from",
          "type": "address"
        },
        {
          "name": "_to",
          "type": "address"
        },
        {
          "name": "_tokenId",
          "type": "uint256"
        }
      ],
      "name": "safeTransferFrom",
      "outputs": [],
      "payable": false,
      "stateMutability": "nonpayable",
      "type": "function"
    },
    {
      "constant": false,
      "inputs": [
        {
          "name": "_tokenId",
          "type": "uint256"
        },
        {
          "name": "page",
          "type": "uint256"
        },
        {
          "name": "value",
          "type": "uint256"
        },
        {
          "name": "offset",
          "type": "uint8"
        },
        {
          "name": "length",
          "type": "uint8"
        }
      ],
      "name": "writePage",
      "outputs": [],
      "payable": false,
      "stateMutability": "nonpayable",
      "type": "function"
    },
    {
      "constant": true,
      "inputs": [
        {
          "name": "",
          "type": "address"
        },
        {
          "name": "",
          "type": "uint256"
        }
      ],
      "name": "collections",
      "outputs": [
        {
          "name": "",
          "type": "uint8"
        }
      ],
      "payable": false,
      "stateMutability": "view",
      "type": "function"
    },
    {
      "constant": true,
      "inputs": [
        {
          "name": "",
          "type": "uint256"
        }
      ],
      "name": "countryData",
      "outputs": [
        {
          "name": "",
          "type": "uint16"
        }
      ],
      "payable": false,
      "stateMutability": "view",
      "type": "function"
    },
    {
      "constant": true,
      "inputs": [
        {
          "name": "",
          "type": "uint256"
        }
      ],
      "name": "tokens",
      "outputs": [
        {
          "name": "plots",
          "type": "uint16"
        },
        {
          "name": "tax",
          "type": "uint8"
        },
        {
          "name": "taxModified",
          "type": "uint32"
        },
        {
          "name": "index",
          "type": "uint8"
        },
        {
          "name": "ownershipModified",
          "type": "uint32"
        },
        {
          "name": "owner",
          "type": "address"
        }
      ],
      "payable": false,
      "stateMutability": "view",
      "type": "function"
    },
    {
      "constant": false,
      "inputs": [
        {
          "name": "_tokenId",
          "type": "uint256"
        },
        {
          "name": "value",
          "type": "uint256"
        },
        {
          "name": "offset",
          "type": "uint8"
        },
        {
          "name": "length",
          "type": "uint8"
        }
      ],
      "name": "write",
      "outputs": [],
      "payable": false,
      "stateMutability": "nonpayable",
      "type": "function"
    },
    {
      "constant": true,
      "inputs": [],
      "name": "ROLE_TAX_MANAGER",
      "outputs": [
        {
          "name": "",
          "type": "uint32"
        }
      ],
      "payable": false,
      "stateMutability": "view",
      "type": "function"
    },
    {
      "constant": true,
      "inputs": [
        {
          "name": "",
          "type": "uint256"
        }
      ],
      "name": "approvals",
      "outputs": [
        {
          "name": "",
          "type": "address"
        }
      ],
      "payable": false,
      "stateMutability": "view",
      "type": "function"
    },
    {
      "constant": true,
      "inputs": [
        {
          "name": "",
          "type": "uint256"
        }
      ],
      "name": "allTokens",
      "outputs": [
        {
          "name": "",
          "type": "uint8"
        }
      ],
      "payable": false,
      "stateMutability": "view",
      "type": "function"
    },
    {
      "constant": true,
      "inputs": [
        {
          "name": "_tokenId",
          "type": "uint256"
        },
        {
          "name": "page",
          "type": "uint256"
        },
        {
          "name": "offset",
          "type": "uint8"
        },
        {
          "name": "length",
          "type": "uint8"
        }
      ],
      "name": "readPage",
      "outputs": [
        {
          "name": "value",
          "type": "uint256"
        }
      ],
      "payable": false,
      "stateMutability": "view",
      "type": "function"
    },
    {
      "constant": true,
      "inputs": [],
      "name": "MAX_TAX_INV",
      "outputs": [
        {
          "name": "",
          "type": "uint8"
        }
      ],
      "payable": false,
      "stateMutability": "view",
      "type": "function"
    },
    {
      "constant": true,
      "inputs": [
        {
          "name": "required",
          "type": "uint256"
        }
      ],
      "name": "isFeatureEnabled",
      "outputs": [
        {
          "name": "",
          "type": "bool"
        }
      ],
      "payable": false,
      "stateMutability": "view",
      "type": "function"
    },
    {
      "constant": true,
      "inputs": [
        {
          "name": "",
          "type": "address"
        }
      ],
      "name": "userRoles",
      "outputs": [
        {
          "name": "",
          "type": "uint256"
        }
      ],
      "payable": false,
      "stateMutability": "view",
      "type": "function"
    },
    {
      "constant": true,
      "inputs": [],
      "name": "TOKEN_UID",
      "outputs": [
        {
          "name": "",
          "type": "uint256"
        }
      ],
      "payable": false,
      "stateMutability": "view",
      "type": "function"
    },
    {
      "constant": true,
      "inputs": [],
      "name": "ROLE_TOKEN_CREATOR",
      "outputs": [
        {
          "name": "",
          "type": "uint32"
        }
      ],
      "payable": false,
      "stateMutability": "view",
      "type": "function"
    },
    {
      "constant": true,
      "inputs": [],
      "name": "FEATURE_TRANSFERS_ON_BEHALF",
      "outputs": [
        {
          "name": "",
          "type": "uint32"
        }
      ],
      "payable": false,
      "stateMutability": "view",
      "type": "function"
    },
    {
      "constant": true,
      "inputs": [],
      "name": "symbol",
      "outputs": [
        {
          "name": "",
          "type": "string"
        }
      ],
      "payable": false,
      "stateMutability": "view",
      "type": "function"
    },
    {
      "constant": false,
      "inputs": [
        {
          "name": "_operator",
          "type": "address"
        },
        {
          "name": "_approved",
          "type": "bool"
        }
      ],
      "name": "setApprovalForAll",
      "outputs": [],
      "payable": false,
      "stateMutability": "nonpayable",
      "type": "function"
    },
    {
      "constant": false,
      "inputs": [
        {
          "name": "_to",
          "type": "address"
        },
        {
          "name": "_tokenId",
          "type": "uint256"
        }
      ],
      "name": "transfer",
      "outputs": [],
      "payable": false,
      "stateMutability": "nonpayable",
      "type": "function"
    },
    {
      "constant": false,
      "inputs": [
        {
          "name": "operator",
          "type": "address"
        },
        {
          "name": "role",
          "type": "uint256"
        }
      ],
      "name": "updateRole",
      "outputs": [],
      "payable": false,
      "stateMutability": "nonpayable",
      "type": "function"
    },
    {
      "constant": true,
      "inputs": [],
      "name": "tokenMap",
      "outputs": [
        {
          "name": "",
          "type": "uint192"
        }
      ],
      "payable": false,
      "stateMutability": "view",
      "type": "function"
    },
    {
      "constant": false,
      "inputs": [
        {
          "name": "_tokenId",
          "type": "uint256"
        }
      ],
      "name": "revokeApproval",
      "outputs": [],
      "payable": false,
      "stateMutability": "nonpayable",
      "type": "function"
    },
    {
      "constant": true,
      "inputs": [
        {
          "name": "_tokenId",
          "type": "uint256"
        }
      ],
      "name": "isTransferable",
      "outputs": [
        {
          "name": "",
          "type": "bool"
        }
      ],
      "payable": false,
      "stateMutability": "view",
      "type": "function"
    },
    {
      "constant": false,
      "inputs": [
        {
          "name": "_from",
          "type": "address"
        },
        {
          "name": "_to",
          "type": "address"
        },
        {
          "name": "_tokenId",
          "type": "uint256"
        },
        {
          "name": "_data",
          "type": "bytes"
        }
      ],
      "name": "safeTransferFrom",
      "outputs": [],
      "payable": false,
      "stateMutability": "nonpayable",
      "type": "function"
    },
    {
      "constant": true,
      "inputs": [],
      "name": "FEATURE_TRANSFERS",
      "outputs": [
        {
          "name": "",
          "type": "uint32"
        }
      ],
      "payable": false,
      "stateMutability": "view",
      "type": "function"
    },
    {
      "constant": true,
      "inputs": [],
      "name": "DEFAULT_TAX_RATE",
      "outputs": [
        {
          "name": "",
          "type": "uint8"
        }
      ],
      "payable": false,
      "stateMutability": "view",
      "type": "function"
    },
    {
      "constant": true,
      "inputs": [
        {
          "name": "operator",
          "type": "address"
        },
        {
          "name": "required",
          "type": "uint256"
        }
      ],
      "name": "isOperatorInRole",
      "outputs": [
        {
          "name": "",
          "type": "bool"
        }
      ],
      "payable": false,
      "stateMutability": "view",
      "type": "function"
    },
    {
      "constant": true,
      "inputs": [
        {
          "name": "_tokenId",
          "type": "uint256"
        },
        {
          "name": "offset",
          "type": "uint8"
        },
        {
          "name": "length",
          "type": "uint8"
        }
      ],
      "name": "read",
      "outputs": [
        {
          "name": "value",
          "type": "uint256"
        }
      ],
      "payable": false,
      "stateMutability": "view",
      "type": "function"
    },
    {
      "constant": false,
      "inputs": [
        {
          "name": "mask",
          "type": "uint256"
        }
      ],
      "name": "updateFeatures",
      "outputs": [],
      "payable": false,
      "stateMutability": "nonpayable",
      "type": "function"
    },
    {
      "constant": true,
      "inputs": [],
      "name": "FEATURE_ALLOW_TAX_UPDATE",
      "outputs": [
        {
          "name": "",
          "type": "uint32"
        }
      ],
      "payable": false,
      "stateMutability": "view",
      "type": "function"
    },
    {
      "constant": true,
      "inputs": [],
      "name": "maxTaxChangeFreq",
      "outputs": [
        {
          "name": "",
          "type": "uint32"
        }
      ],
      "payable": false,
      "stateMutability": "view",
      "type": "function"
    },
    {
      "constant": true,
      "inputs": [],
      "name": "ROLE_TOKEN_DESTROYER",
      "outputs": [
        {
          "name": "",
          "type": "uint32"
        }
      ],
      "payable": false,
      "stateMutability": "view",
      "type": "function"
    },
    {
      "constant": true,
      "inputs": [
        {
          "name": "_owner",
          "type": "address"
        },
        {
          "name": "_operator",
          "type": "address"
        }
      ],
      "name": "isApprovedForAll",
      "outputs": [
        {
          "name": "",
          "type": "bool"
        }
      ],
      "payable": false,
      "stateMutability": "view",
      "type": "function"
    },
    {
      "constant": true,
      "inputs": [
        {
          "name": "operator",
          "type": "address"
        },
        {
          "name": "actual",
          "type": "uint256"
        },
        {
          "name": "required",
          "type": "uint256"
        }
      ],
      "name": "evaluateBy",
      "outputs": [
        {
          "name": "",
          "type": "uint256"
        }
      ],
      "payable": false,
      "stateMutability": "view",
      "type": "function"
    },
    {
      "constant": true,
      "inputs": [
        {
          "name": "required",
          "type": "uint256"
        }
      ],
      "name": "isSenderInRole",
      "outputs": [
        {
          "name": "",
          "type": "bool"
        }
      ],
      "payable": false,
      "stateMutability": "view",
      "type": "function"
    },
    {
      "inputs": [
        {
          "name": "_countryData",
          "type": "uint16[]"
        }
      ],
      "payable": false,
      "stateMutability": "nonpayable",
      "type": "constructor"
    },
    {
      "anonymous": false,
      "inputs": [
        {
          "indexed": true,
          "name": "_by",
          "type": "address"
        },
        {
          "indexed": true,
          "name": "_tokenId",
          "type": "uint256"
        },
        {
          "indexed": false,
          "name": "_from",
          "type": "uint8"
        },
        {
          "indexed": false,
          "name": "_to",
          "type": "uint8"
        }
      ],
      "name": "TaxRateUpdated",
      "type": "event"
    },
    {
      "anonymous": false,
      "inputs": [
        {
          "indexed": true,
          "name": "_by",
          "type": "address"
        },
        {
          "indexed": false,
          "name": "_from",
          "type": "uint32"
        },
        {
          "indexed": false,
          "name": "_to",
          "type": "uint32"
        }
      ],
      "name": "MaxTaxChangeFreqUpdated",
      "type": "event"
    },
    {
      "anonymous": false,
      "inputs": [
        {
          "indexed": true,
          "name": "_from",
          "type": "address"
        },
        {
          "indexed": true,
          "name": "_to",
          "type": "address"
        },
        {
          "indexed": true,
          "name": "_tokenId",
          "type": "uint256"
        }
      ],
      "name": "Transfer",
      "type": "event"
    },
    {
      "anonymous": false,
      "inputs": [
        {
          "indexed": true,
          "name": "_owner",
          "type": "address"
        },
        {
          "indexed": true,
          "name": "_approved",
          "type": "address"
        },
        {
          "indexed": true,
          "name": "_tokenId",
          "type": "uint256"
        }
      ],
      "name": "Approval",
      "type": "event"
    },
    {
      "anonymous": false,
      "inputs": [
        {
          "indexed": true,
          "name": "_owner",
          "type": "address"
        },
        {
          "indexed": true,
          "name": "_operator",
          "type": "address"
        },
        {
          "indexed": false,
          "name": "_value",
          "type": "bool"
        }
      ],
      "name": "ApprovalForAll",
      "type": "event"
    },
    {
      "anonymous": false,
      "inputs": [
        {
          "indexed": true,
          "name": "_by",
          "type": "address"
        },
        {
          "indexed": true,
          "name": "_to",
          "type": "address"
        },
        {
          "indexed": true,
          "name": "_tokenId",
          "type": "uint256"
        }
      ],
      "name": "Minted",
      "type": "event"
    },
    {
      "anonymous": false,
      "inputs": [
        {
          "indexed": true,
          "name": "_by",
          "type": "address"
        },
        {
          "indexed": false,
          "name": "_requested",
          "type": "uint256"
        },
        {
          "indexed": false,
          "name": "_actual",
          "type": "uint256"
        }
      ],
      "name": "FeaturesUpdated",
      "type": "event"
    },
    {
      "anonymous": false,
      "inputs": [
        {
          "indexed": true,
          "name": "_by",
          "type": "address"
        },
        {
          "indexed": true,
          "name": "_to",
          "type": "address"
        },
        {
          "indexed": false,
          "name": "_requested",
          "type": "uint256"
        },
        {
          "indexed": false,
          "name": "_actual",
          "type": "uint256"
        }
      ],
      "name": "RoleUpdated",
      "type": "event"
    },
    {
      "constant": true,
      "inputs": [],
      "name": "getAllCountriesPacked",
      "outputs": [
        {
          "name": "",
          "type": "uint184[]"
        }
      ],
      "payable": false,
      "stateMutability": "view",
      "type": "function"
    },
    {
      "constant": true,
      "inputs": [],
      "name": "getNumberOfCountries",
      "outputs": [
        {
          "name": "",
          "type": "uint8"
        }
      ],
      "payable": false,
      "stateMutability": "view",
      "type": "function"
    },
    {
      "constant": true,
      "inputs": [],
      "name": "getTotalNumberOfPlots",
      "outputs": [
        {
          "name": "",
          "type": "uint32"
        }
      ],
      "payable": false,
      "stateMutability": "view",
      "type": "function"
    },
    {
      "constant": true,
      "inputs": [
        {
          "name": "owner",
          "type": "address"
        }
      ],
      "name": "getNumberOfPlotsByCountryOwner",
      "outputs": [
        {
          "name": "",
          "type": "uint32"
        }
      ],
      "payable": false,
      "stateMutability": "view",
      "type": "function"
    },
    {
      "constant": true,
      "inputs": [
        {
          "name": "_tokenId",
          "type": "uint256"
        }
      ],
      "name": "getPacked",
      "outputs": [
        {
          "name": "",
          "type": "uint24"
        }
      ],
      "payable": false,
      "stateMutability": "view",
      "type": "function"
    },
    {
      "constant": true,
      "inputs": [
        {
          "name": "owner",
          "type": "address"
        }
      ],
      "name": "getCollection",
      "outputs": [
        {
          "name": "",
          "type": "uint8[]"
        }
      ],
      "payable": false,
      "stateMutability": "view",
      "type": "function"
    },
    {
      "constant": true,
      "inputs": [
        {
          "name": "owner",
          "type": "address"
        }
      ],
      "name": "getPackedCollection",
      "outputs": [
        {
          "name": "",
          "type": "uint32[]"
        }
      ],
      "payable": false,
      "stateMutability": "view",
      "type": "function"
    },
    {
      "constant": true,
      "inputs": [
        {
          "name": "_tokenId",
          "type": "uint256"
        }
      ],
      "name": "getNumberOfPlots",
      "outputs": [
        {
          "name": "",
          "type": "uint16"
        }
      ],
      "payable": false,
      "stateMutability": "view",
      "type": "function"
    },
    {
      "constant": true,
      "inputs": [
        {
          "name": "_tokenId",
          "type": "uint256"
        }
      ],
      "name": "getTax",
      "outputs": [
        {
          "name": "",
          "type": "uint8"
        },
        {
          "name": "",
          "type": "uint8"
        }
      ],
      "payable": false,
      "stateMutability": "view",
      "type": "function"
    },
    {
      "constant": true,
      "inputs": [
        {
          "name": "_tokenId",
          "type": "uint256"
        }
      ],
      "name": "getTaxPacked",
      "outputs": [
        {
          "name": "",
          "type": "uint8"
        }
      ],
      "payable": false,
      "stateMutability": "view",
      "type": "function"
    },
    {
      "constant": true,
      "inputs": [
        {
          "name": "_tokenId",
          "type": "uint256"
        }
      ],
      "name": "getTaxPercent",
      "outputs": [
        {
          "name": "",
          "type": "uint8"
        }
      ],
      "payable": false,
      "stateMutability": "view",
      "type": "function"
    },
    {
      "constant": true,
      "inputs": [
        {
          "name": "_tokenId",
          "type": "uint256"
        },
        {
          "name": "_value",
          "type": "uint256"
        }
      ],
      "name": "calculateTaxValueFor",
      "outputs": [
        {
          "name": "",
          "type": "uint256"
        }
      ],
      "payable": false,
      "stateMutability": "view",
      "type": "function"
    },
    {
      "constant": false,
      "inputs": [
        {
          "name": "_tokenId",
          "type": "uint256"
        },
        {
          "name": "nominator",
          "type": "uint8"
        },
        {
          "name": "denominator",
          "type": "uint8"
        }
      ],
      "name": "updateTaxRate",
      "outputs": [],
      "payable": false,
      "stateMutability": "nonpayable",
      "type": "function"
    },
    {
      "constant": false,
      "inputs": [
        {
          "name": "_maxTaxChangeFreq",
          "type": "uint32"
        }
      ],
      "name": "updateMaxTaxChangeFreq",
      "outputs": [],
      "payable": false,
      "stateMutability": "nonpayable",
      "type": "function"
    },
    {
      "constant": false,
      "inputs": [
        {
          "name": "_to",
          "type": "address"
        },
        {
          "name": "_tokenId",
          "type": "uint8"
        }
      ],
      "name": "mint",
      "outputs": [],
      "payable": false,
      "stateMutability": "nonpayable",
      "type": "function"
    },
    {
      "constant": true,
      "inputs": [],
      "name": "totalSupply",
      "outputs": [
        {
          "name": "",
          "type": "uint256"
        }
      ],
      "payable": false,
      "stateMutability": "view",
      "type": "function"
    },
    {
      "constant": true,
      "inputs": [
        {
          "name": "_index",
          "type": "uint256"
        }
      ],
      "name": "tokenByIndex",
      "outputs": [
        {
          "name": "",
          "type": "uint256"
        }
      ],
      "payable": false,
      "stateMutability": "view",
      "type": "function"
    },
    {
      "constant": true,
      "inputs": [
        {
          "name": "_owner",
          "type": "address"
        },
        {
          "name": "_index",
          "type": "uint256"
        }
      ],
      "name": "tokenOfOwnerByIndex",
      "outputs": [
        {
          "name": "",
          "type": "uint256"
        }
      ],
      "payable": false,
      "stateMutability": "view",
      "type": "function"
    },
    {
      "constant": true,
      "inputs": [
        {
          "name": "_owner",
          "type": "address"
        }
      ],
      "name": "balanceOf",
      "outputs": [
        {
          "name": "",
          "type": "uint256"
        }
      ],
      "payable": false,
      "stateMutability": "view",
      "type": "function"
    },
    {
      "constant": true,
      "inputs": [
        {
          "name": "_tokenId",
          "type": "uint256"
        }
      ],
      "name": "exists",
      "outputs": [
        {
          "name": "",
          "type": "bool"
        }
      ],
      "payable": false,
      "stateMutability": "view",
      "type": "function"
    },
    {
      "constant": true,
      "inputs": [
        {
          "name": "_tokenId",
          "type": "uint256"
        }
      ],
      "name": "ownerOf",
      "outputs": [
        {
          "name": "",
          "type": "address"
        }
      ],
      "payable": false,
      "stateMutability": "view",
      "type": "function"
    },
    {
      "constant": true,
      "inputs": [
        {
          "name": "_tokenId",
          "type": "uint256"
        }
      ],
      "name": "tokenURI",
      "outputs": [
        {
          "name": "",
          "type": "string"
        }
      ],
      "payable": false,
      "stateMutability": "view",
      "type": "function"
    }
  ],
  "bytecode": "0x6080604052600a8054600160c01b63ffffffff0219167a0151800000000000000000000000000000000000000000000000001790553480156200004157600080fd5b5060405162002d7d38038062002d7d833981018060405260208110156200006757600080fd5b8101908080516401000000008111156200008057600080fd5b820160208101848111156200009457600080fd5b8151856020820283011164010000000082111715620000b257600080fd5b505033600090815260016020908152604090912060001990559093506200010192507f01ffc9a70000000000000000000000000000000000000000000000000000000091506200018e811b901c565b620001196380ac58cd60e01b6200018e60201b60201c565b62000131634f558e7960e01b6200018e60201b60201c565b6200014963780e9d6360e01b6200018e60201b60201c565b62000161635b5e139f60e01b6200018e60201b60201c565b805160c010156200017157600080fd5b805162000186906006906020840190620001fb565b5050620002d0565b7fffffffff000000000000000000000000000000000000000000000000000000008082161415620001be57600080fd5b7fffffffff00000000000000000000000000000000000000000000000000000000166000908152600260205260409020805460ff19166001179055565b82805482825590600052602060002090600f01601090048101928215620002995791602002820160005b838211156200026757835183826101000a81548161ffff021916908361ffff160217905550926020019260020160208160010104928301926001030262000225565b8015620002975782816101000a81549061ffff021916905560020160208160010104928301926001030262000267565b505b50620002a7929150620002ab565b5090565b620002cd91905b80821115620002a757805461ffff19168155600101620002b2565b90565b612a9d80620002e06000396000f3fe608060405234801561001057600080fd5b50600436106103fc5760003560e01c80636e6f278411610215578063b88d4fde11610125578063e03a764d116100b8578063e760a50311610087578063e760a50314610d69578063e985e9c514610d71578063f822d5aa14610d9f578063fa8b361f14610dd1578063fcc2c07814610dff576103fc565b8063e03a764d146108c5578063e40de88714610d3b578063e48edf0514610d61578063e62cac7614610ab0576103fc565b8063c688d693116100f4578063c688d69314610ca7578063c87b56dd14610cd3578063d40fe67814610cf0578063d5bb7f6714610d1e576103fc565b8063b88d4fde14610ba4578063bdefce8c14610c6a578063c0d6568d14610aa8578063c151c7fa14610c9f576103fc565b80638d4e57e6116101a8578063a9059cbb11610177578063a9059cbb14610aee578063ae5b102e14610b1a578063b1ce7f2214610b46578063b1e130fc14610b6a578063b256456914610b87576103fc565b80638d4e57e614610aa85780638f6fba8c14610ab057806395d89b4114610ab8578063a22cb46514610ac0576103fc565b80637cea48ac116101e45780637cea48ac14610a555780637faae89a14610a725780638a114e1314610a985780638a95724d14610aa0576103fc565b80636e6f2784146109e457806370a08231146109ec578063725f362614610a1257806374d5e10014610a2f576103fc565b80634327f2eb116103105780635bd4fc5e116102a3578063634282af11610272578063634282af1461092a5780636352211e14610947578063661d9fd41461096457806368aeec3214610981578063691562a0146109b5576103fc565b80635bd4fc5e146108c55780635dbffbd1146108cd5780635ea8d877146108ea57806363035f661461090d576103fc565b80634f558e79116102df5780634f558e79146107ec5780634f64b2be146108095780634f6ccce7146108745780635196549014610891576103fc565b80634327f2eb1461070e5780634932488c1461076657806349a764cd1461078c5780634e6b0158146107b8576103fc565b8063199d9aa8116103935780632f745c59116103625780632f745c591461063c578063313ce5671461066857806334d822201461067057806342842e0e1461069e57806342e4eaa5146106d4576103fc565b8063199d9aa8146105b857806319fa8f50146105d957806323b872dd146105fe5780632b52141614610634576103fc565b8063099da37f116103cf578063099da37f146105205780630cc84e941461055d57806317114fdc1461059257806318160ddd146105b0576103fc565b806301ffc9a71461040157806306fdde031461043c578063081812fc146104b9578063095ea7b3146104f2575b600080fd5b6104286004803603602081101561041757600080fd5b50356001600160e01b031916610e1c565b604080519115158252519081900360200190f35b610444610e3f565b6040805160208082528351818301528351919283929083019185019080838360005b8381101561047e578181015183820152602001610466565b50505050905090810190601f1680156104ab5780820380516001836020036101000a031916815260200191505b509250505060405180910390f35b6104d6600480360360208110156104cf57600080fd5b5035610e78565b604080516001600160a01b039092168252519081900360200190f35b61051e6004803603604081101561050857600080fd5b506001600160a01b038135169060200135610ea8565b005b61053d6004803603602081101561053657600080fd5b5035610f79565b6040805160ff938416815291909216602082015281519081900390910190f35b6105806004803603604081101561057357600080fd5b5080359060200135610fa5565b60408051918252519081900360200190f35b61059a610fe4565b6040805160ff9092168252519081900360200190f35b610580610fe9565b6105c0610ff0565b6040805163ffffffff9092168252519081900360200190f35b6105e1610ff5565b604080516001600160e01b03199092168252519081900360200190f35b61051e6004803603606081101561061457600080fd5b506001600160a01b03813581169160208101359091169060400135611003565b6105806110d2565b6105806004803603604081101561065257600080fd5b506001600160a01b0381351690602001356110d8565b61059a611147565b6104286004803603604081101561068657600080fd5b506001600160a01b038135811691602001351661114c565b61051e600480360360608110156106b457600080fd5b506001600160a01b0381358116916020810135909116906040013561116c565b61051e600480360360a08110156106ea57600080fd5b5080359060208101359060408101359060ff6060820135811691608001351661118c565b6107166111fb565b60408051602080825283518183015283519192839290830191858101910280838360005b8381101561075257818101518382015260200161073a565b505050509050019250505060405180910390f35b6107166004803603602081101561077c57600080fd5b50356001600160a01b031661135f565b61059a600480360360408110156107a257600080fd5b506001600160a01b038135169060200135611419565b6107d5600480360360208110156107ce57600080fd5b5035611459565b6040805161ffff9092168252519081900360200190f35b6104286004803603602081101561080257600080fd5b503561148e565b6108266004803603602081101561081f57600080fd5b50356114b2565b6040805161ffff909716875260ff958616602088015263ffffffff9485168782015292909416606086015290911660808401526001600160a01b0390911660a0830152519081900360c00190f35b6105806004803603602081101561088a57600080fd5b5035611509565b61051e600480360360808110156108a757600080fd5b5080359060208101359060ff6040820135811691606001351661154d565b6105c0611561565b6107d5600480360360208110156108e357600080fd5b5035611566565b61051e6004803603602081101561090057600080fd5b503563ffffffff16611591565b6104d66004803603602081101561092357600080fd5b503561162f565b61059a6004803603602081101561094057600080fd5b503561164a565b6104d66004803603602081101561095d57600080fd5b503561167b565b61059a6004803603602081101561097a57600080fd5b50356116b2565b6105806004803603608081101561099757600080fd5b5080359060208101359060ff604082013581169160600135166116e2565b61051e600480360360408110156109cb57600080fd5b5080356001600160a01b0316906020013560ff16611752565b61059a611812565b61058060048036036020811015610a0257600080fd5b50356001600160a01b0316611817565b61042860048036036020811015610a2857600080fd5b5035611848565b61058060048036036020811015610a4557600080fd5b50356001600160a01b0316611856565b61059a60048036036020811015610a6b57600080fd5b5035611868565b6105c060048036036020811015610a8857600080fd5b50356001600160a01b031661189d565b61058061192f565b61059a611953565b6105c0611959565b6105c061195e565b610444611963565b61051e60048036036040811015610ad657600080fd5b506001600160a01b0381351690602001351515611985565b61051e60048036036040811015610b0457600080fd5b506001600160a01b038135169060200135611a26565b61051e60048036036040811015610b3057600080fd5b506001600160a01b038135169060200135611a48565b610b4e611ae3565b604080516001600160c01b039092168252519081900360200190f35b61051e60048036036020811015610b8057600080fd5b5035611af2565b61042860048036036020811015610b9d57600080fd5b5035611afd565b61051e60048036036080811015610bba57600080fd5b6001600160a01b03823581169260208101359091169160408201359190810190608081016060820135640100000000811115610bf557600080fd5b820183602082011115610c0757600080fd5b80359060200191846001830284011164010000000083111715610c2957600080fd5b91908080601f016020809104026020016040519081016040528093929190818152602001838380828437600092019190915250929550611b19945050505050565b610c8760048036036020811015610c8057600080fd5b5035611c4c565b6040805162ffffff9092168252519081900360200190f35b61059a611cf0565b61042860048036036040811015610cbd57600080fd5b506001600160a01b038135169060200135611cf5565b61044460048036036020811015610ce957600080fd5b5035611d18565b61058060048036036060811015610d0657600080fd5b5080359060ff60208201358116916040013516611d58565b61051e60048036036020811015610d3457600080fd5b5035611d6f565b61071660048036036020811015610d5157600080fd5b50356001600160a01b0316611dd6565b6105c0611e60565b6105c0611e73565b61042860048036036040811015610d8757600080fd5b506001600160a01b0381358116916020013516611ebe565b61058060048036036060811015610db557600080fd5b506001600160a01b038135169060208101359060400135611eec565b61051e60048036036060811015610de757600080fd5b5080359060ff60208201358116916040013516611f17565b61042860048036036020811015610e1557600080fd5b5035612052565b6001600160e01b0319811660009081526002602052604090205460ff165b919050565b6040518060400160405280601d81526020017f436f756e74727920e280932043727970746f4d696e657220576f726c6400000081525081565b6000610e838261148e565b610e8c57600080fd5b506000908152600460205260409020546001600160a01b031690565b6000610eb38261167b565b9050336001600160a01b03821614610eca57600080fd5b806001600160a01b0316836001600160a01b03161415610ee957600080fd5b6000828152600460205260409020546001600160a01b0316151580610f1657506001600160a01b03831615155b610f1f57600080fd5b60008281526004602052604080822080546001600160a01b0319166001600160a01b0387169081179091559051849233917f8c5be1e5ebec7d5bd14f71427d1e84f3dd0314c0f7b2291e5b200ac8c7c3b9259190a4505050565b6000806000610f87846116b2565b9050610f928161205e565b610f9b82612067565b9250925050915091565b6000610fb08361148e565b610fb957600080fd5b600083815260076020526040902054610fdb9062010000900460ff168361206d565b90505b92915050565b60c081565b6009545b90565b600481565b600160e01b6301ffc9a70281565b6001600160a01b0383163314801561102057506110206001611848565b8061104457506001600160a01b038316331480159061104457506110446002611848565b61104d57600080fd5b60008181526004602052604090205433906001600160a01b031680821480159061109d57506001600160a01b0380861660009081526005602090815260408083209386168352929052205460ff16155b156110c057816001600160a01b0316856001600160a01b0316146110c057600080fd5b6110cb8585856120f9565b5050505050565b60005481565b6001600160a01b03821660009081526008602052604081205482106110fc57600080fd5b6001600160a01b038316600090815260086020526040902080548390811061112057fe5b600091825260209182902091810490910154601f9091166101000a900460ff169392505050565b600081565b600560209081526000928352604080842090915290825290205460ff1681565b61118783838360405180602001604052806000815250611b19565b505050565b6111966004612052565b61119f57600080fd5b600060ff8216156111c0578260ff1660018360ff166001901b03901b6111c4565b6000195b600096875260036020908152604080892097895296905294909520805460001986181660ff939093169390931b9093161790555050565b60608060068054905060405190808252806020026020018201604052801561122d578160200160208202803883390190505b50905060005b60065460ff821610156113595761124f8160010160ff1661148e565b156112c2576112638160010160ff1661167b565b6001600160a01b031660a061127d8360010160ff16611c4c565b62ffffff166001600160b81b0316901b17828260ff168151811061129d57fe5b60200260200101906001600160b81b031690816001600160b81b031681525050611351565b60068054744a00000000000000000000000000000000000000009160a89160ff85169081106112ed57fe5b90600052602060002090601091828204019190066002029054906101000a900461ffff1661ffff166001600160b81b0316901b17828260ff168151811061133057fe5b60200260200101906001600160b81b031690816001600160b81b0316815250505b600101611233565b50905090565b60608061136b83611dd6565b90506060815160405190808252806020026020018201604052801561139a578160200160208202803883390190505b50905060005b82518110156114115760008382815181106113b757fe5b6020026020010151905060006113cf8260ff16611c4c565b90508062ffffff1660188360ff1663ffffffff16901b178484815181106113f257fe5b63ffffffff9092166020928302919091019091015250506001016113a0565b509392505050565b6008602052816000526040600020818154811061143257fe5b9060005260206000209060209182820401919006915091509054906101000a900460ff1681565b6006818154811061146657fe5b9060005260206000209060109182820401919006600202915054906101000a900461ffff1681565b600090815260076020526040902054600160601b90046001600160a01b0316151590565b60076020526000908152604090205461ffff81169060ff62010000820481169163ffffffff63010000008204811692600160381b83041691600160401b8104909116906001600160a01b03600160601b9091041686565b600954600090821061151a57600080fd5b6009828154811061152757fe5b600091825260209182902091810490910154601f9091166101000a900460ff1692915050565b61155b84600085858561118c565b50505050565b601081565b60006115718261148e565b61157a57600080fd5b5060009081526007602052604090205461ffff1690565b61159b6010612052565b6115a457600080fd5b600a5463ffffffff828116600160c01b909204161461162c57600a546040805163ffffffff600160c01b909304831681529183166020830152805133927fc9e5161f1c288bfaab07b57f2ab4c3c93a62e10bf16a366007d13e29b1c2a60a92908290030190a2600a8054600160c01b63ffffffff021916600160c01b63ffffffff8416021790555b50565b6004602052600090815260409020546001600160a01b031681565b6009818154811061165757fe5b9060005260206000209060209182820401919006915054906101000a900460ff1681565b60006116868261148e565b61168f57600080fd5b50600090815260076020526040902054600160601b90046001600160a01b031690565b60006116bd8261148e565b6116c657600080fd5b5060009081526007602052604090205462010000900460ff1690565b600060ff8216156117295760018260ff166001901b038360ff1660036000888152602001908152602001600020600087815260200190815260200160002054901c16611749565b600085815260036020908152604080832087845290915290205460ff84161c5b95945050505050565b6001600160a01b03821661176557600080fd5b6001600160a01b03821630141561177b57600080fd5b6117856001612052565b61178e57600080fd5b61179882826121df565b60405160ff8216906001600160a01b0384169033907f9d228d69b5fdb8d273a2336f8fb8612d039631024ea9bf09c424a9503aa078f090600090a460405160ff8216906001600160a01b038416906000907fddf252ad1be2c89b69c2b068fc378daa952ba7f163c4a11628f55a4df523b3ef908290a45050565b600581565b60006001600160a01b03821661182c57600080fd5b506001600160a01b031660009081526008602052604090205490565b6000610fde600054836124c8565b60016020526000908152604090205481565b60006118738261148e565b61187c57600080fd5b600082815260076020526040902054610fde9062010000900460ff166124cf565b600080805b6001600160a01b038416600090815260086020526040902054811015611928576001600160a01b038416600090815260086020526040812080546007929190849081106118eb57fe5b600091825260208083208183040154601f9092166101000a90910460ff16835282019290925260400190205461ffff1691909101906001016118a2565b5092915050565b7f487e7af2a810b59da545d840b09a1fa474d482fc2a7c22ed553d6f5a2030b53c81565b60065490565b600181565b600281565b604051806040016040528060038152602001600160e81b624354590281525081565b336001600160a01b03831661199957600080fd5b806001600160a01b0316836001600160a01b031614156119b857600080fd5b6001600160a01b03818116600081815260056020908152604080832094881680845294825291829020805460ff1916871515908117909155825190815291517f17307eab39ab6107e8899845ad3d59bd9653f200f220920489ca2b5937696c319281900390910190a3505050565b611a306001611848565b611a3957600080fd5b611a443383836120f9565b5050565b611a55600160ff1b612052565b611a5e57600080fd5b6001600160a01b038216600090815260016020526040902054611a8390339083611eec565b6001600160a01b0383166000818152600160209081526040918290208490558151858152908101939093528051919233927f5a10526456f5116c0b7b80582c217d666243fd51b6a2d92c8011e601c2462e5f929181900390910190a35050565b600a546001600160c01b031681565b61162c600082610ea8565b6000611b088261148e565b611b1157600080fd5b506001919050565b611b24848484611003565b611b2d83612534565b1561155b57604051600160e11b630a85bd0102815233600482018181526001600160a01b038781166024850152604484018690526080606485019081528551608486015285516000959289169463150b7a029490938b938a938a939260a4019060208501908083838e5b83811015611baf578181015183820152602001611b97565b50505050905090810190601f168015611bdc5780820380516001836020036101000a031916815260200191505b5095505050505050602060405180830381600087803b158015611bfe57600080fd5b505af1158015611c12573d6000803e3d6000fd5b505050506040513d6020811015611c2857600080fd5b505190506001600160e01b03198116600160e11b630a85bd0102146110cb57600080fd5b6000611c578261148e565b611c6057600080fd5b611c686129cb565b5050600090815260076020908152604091829020825160c081018452905461ffff811680835260ff620100008304811694840185905263ffffffff63010000008404811696850196909652600160381b8304166060840152600160401b820490941660808301526001600160a01b03600160601b9091041660a09091015260089190911b1790565b604a81565b6001600160a01b038216600090815260016020526040812054610fdb90836124c8565b6060611d238261148e565b611d2c57600080fd5b610fde604051806060016040528060248152602001612a4e60249139611d5384600a61253a565b6126b9565b6000611d6784600085856116e2565b949350505050565b611d7c600160fe1b612052565b611d8557600080fd5b611d923360005483611eec565b6000819055604080518381526020810192909252805133927fd7561eaef77f105dc0c307bfb23c571f603f07bb7db5766a68840742fde80b8992908290030190a250565b6001600160a01b038116600090815260086020908152604091829020805483518184028101840190945280845260609392830182828015611e5457602002820191906000526020600020906000905b825461010083900a900460ff16815260206001928301818104948501949093039092029101808411611e255790505b50505050509050919050565b600a54600160c01b900463ffffffff1681565b600080805b6006548110156113595760068181548110611e8f57fe5b60009182526020909120601082040154600f9091166002026101000a900461ffff169190910190600101611e78565b6001600160a01b03918216600090815260056020908152604080832093909416825291909152205460ff1690565b6001600160a01b03929092166000908152600160205260409020546000198084188216189216171690565b611f216010611848565b611f2a57600080fd5b611f338361167b565b6001600160a01b0316336001600160a01b031614611f5057600080fd5b600560ff82160460ff168260ff161115611f6957600080fd5b600a5460008481526007602052604090205442600160c01b90920463ffffffff9081166301000000909204811691909101161115611fa657600080fd5b60008381526007602052604090205462010000900460ff16611fc88383612774565b600085815260076020908152604091829020805462ff000019166201000060ff95861681029190911766ffffffff000000191663010000004263ffffffff16021791829055835186861681529104909316908301528051869233927f319622d6d9e0a971436bc6851ca01e26044a6bd5abca241c8bf2d605f8d1325a92918290030190a350505050565b6000610fde3383611cf5565b60ff1660061c90565b603f1690565b6000806120798461205e565b9050600061208685612067565b90508060ff168260ff1614156120a0578392505050610fde565b8060ff168260ff16106120b257600080fd5b836001600160f81b03168414156120de578060ff168260ff168502816120d457fe5b0492505050610fde565b8160ff168160ff1685816120ee57fe5b040295945050505050565b6001600160a01b03821661210c57600080fd5b826001600160a01b0316826001600160a01b0316141561212b57600080fd5b6001600160a01b03831661213b57fe5b6121448161148e565b61214d57600080fd5b826001600160a01b03166121608261167b565b6001600160a01b03161461217357600080fd5b61217c81611afd565b61218557600080fd5b61218e816127c2565b61219983838361282a565b80826001600160a01b0316846001600160a01b03167fddf252ad1be2c89b69c2b068fc378daa952ba7f163c4a11628f55a4df523b3ef60405160405180910390a4505050565b60008160ff161180156121f7575060065460ff821611155b61220057600080fd5b61220c8160ff1661148e565b1561221657600080fd5b61221e6129cb565b6040518060c0016040528060066001850360ff168154811061223c57fe5b90600052602060002090601091828204019190066002029054906101000a900461ffff1661ffff168152602001604a60ff168152602001600063ffffffff16815260200160086000866001600160a01b03166001600160a01b031681526020019081526020016000208054905060ff168152602001600063ffffffff168152602001846001600160a01b0316815250905060086000846001600160a01b03166001600160a01b0316815260200190815260200160002082908060018154018082558091505090600182039060005260206000209060209182820401919006909192909190916101000a81548160ff021916908360ff1602179055505080600760008460ff16815260200190815260200160002060008201518160000160006101000a81548161ffff021916908361ffff16021790555060208201518160000160026101000a81548160ff021916908360ff16021790555060408201518160000160036101000a81548163ffffffff021916908363ffffffff16021790555060608201518160000160076101000a81548160ff021916908360ff16021790555060808201518160000160086101000a81548163ffffffff021916908363ffffffff16021790555060a082015181600001600c6101000a8154816001600160a01b0302191690836001600160a01b03160217905550905050600982908060018154018082558091505090600182039060005260206000209060209182820401919006909192909190916101000a81548160ff021916908360ff160217905550506001820360ff166001901b600a60008282829054906101000a90046001600160c01b03161792506101000a8154816001600160c01b0302191690836001600160c01b03160217905550505050565b9081161490565b6000806124db8361205e565b905060006124e884612067565b90508060ff168260ff16141561250357606492505050610e3a565b8060ff168260ff161061251557600080fd5b8060ff168260ff1660640261ffff168161252b57fe5b04949350505050565b3b151590565b60608160ff166002148061255157508160ff166008145b8061255f57508160ff16600a145b8061256d57508160ff166010145b61257657600080fd5b8261259c57506040805180820190915260018152600160fc1b6003026020820152610fde565b60408051610100808252610120820190925260609160208201818038833901905050905060005b84156126305760008460ff1686816125d757fe5b06905060308101600a60ff8316106125ed576007015b8060f81b84848060010195508151811061260357fe5b60200101906001600160f81b031916908160001a9053508560ff16878161262657fe5b04965050506125c3565b6060816040519080825280601f01601f19166020018201604052801561265d576020820181803883390190505b509050600091505b80518210156117495782828151811061267a57fe5b602001015160f81c60f81b81600184845103038151811061269757fe5b60200101906001600160f81b031916908160001a905350600190910190612665565b606082826040516020018083805190602001908083835b602083106126ef5780518252601f1990920191602091820191016126d0565b51815160209384036101000a600019018019909216911617905285519190930192850191508083835b602083106127375780518252601f199092019160209182019101612718565b6001836020036101000a03801982511681845116808217855250505050505090500192505050604051602081830303815290604052905092915050565b600060048360ff1610801561278c575060408260ff16105b61279557600080fd5b60ff82166127a257600080fd5b8160ff168360ff16106127b457600080fd5b5060ff9190911660061b1790565b6000818152600460205260409020546001600160a01b03161561162c5760008181526004602052604080822080546001600160a01b03191690555182919033907f8c5be1e5ebec7d5bd14f71427d1e84f3dd0314c0f7b2291e5b200ac8c7c3b925908390a450565b8060ff8116811461283757fe5b60ff811660009081526007602090815260408083206001600160a01b038089168552600890935281842092871684529220815461287057fe5b82548254600160381b90910460ff16906000908490600019810190811061289357fe5b600091825260208083208183040154601f9092166101000a90910460ff90811680845260079092526040909220805467ff000000000000001916600160381b93861693840217905585549092508291869181106128ec57fe5b90600052602060002090602091828204019190066101000a81548160ff021916908360ff1602179055508380548091906001900361292a9190612a00565b50508154845467ff000000000000001916600160381b60ff92831602176bffffffffffffffffffffffff16600160601b6001600160a01b039990991698909802979097176bffffffff00000000000000001916600160401b4263ffffffff160217909355805460018101825560009182526020918290209181049091018054601f9092166101000a8088021990921694909616029290921790935550505050565b6040805160c081018252600080825260208201819052918101829052606081018290526080810182905260a081019190915290565b81548183558181111561118757601f016020900481601f016020900483600052602060002091820191016111879190610fed91905b80821115612a495760008155600101612a35565b509056fe687474703a2f2f63727970746f6d696e6572776f726c642e636f6d2f636f756e7472792fa165627a7a72305820dfe7b4a43118acd5317d5eb59a38ee56a01122b15bd1cd5018a77575cd92d0ab0029",
  "source": "pragma solidity 0.5.8;\n\nimport \"./AddressUtils.sol\";\nimport \"./StringUtils.sol\";\nimport \"./Fractions8.sol\";\nimport \"./ERC721Receiver.sol\";\nimport \"./ERC721Core.sol\";\n\n/**\n * @title Country ERC721 Token\n *\n * @notice Country is unique tradable entity. Non-fungible.\n * @dev A country is an ERC721 non-fungible token, which maps Token ID,\n *      a 8 bit number in range [1, 192] to a set of country properties -\n *      number of plots and owner's tax rate.\n * @dev Country token supports only minting of predefined countries,\n *      its not possible to destroy a country.\n * @dev Up to 192 countries are defined during contract deployment and initialization.\n */\ncontract CountryERC721 is ERC721Core {\n  /**\n   * @dev Smart contract unique identifier, a random number\n   * @dev Should be regenerated each time smart contact source code is changed\n   * @dev Generated using https://www.random.org/bytes/\n   */\n  uint256 public constant TOKEN_UID = 0x487e7af2a810b59da545d840b09a1fa474d482fc2a7c22ed553d6f5a2030b53c;\n\n  /**\n   * @dev ERC20 compliant token symbol\n   */\n  string public constant symbol = \"CTY\";\n\n  /**\n   * @dev ERC20 compliant token name\n   */\n  string public constant name = \"Country  CryptoMiner World\";\n\n  /**\n   * @dev ERC20 compliant token decimals\n   * @dev Equal to zero  since ERC721 token is non-fungible\n   *      and therefore non-divisible\n   */\n  uint8 public constant decimals = 0;\n\n  /**\n   * @dev Token data structure (Country Data Structure)\n   * @dev Occupies 1 storage slot (256 bits)\n   */\n  struct Country {\n    /**\n     * @dev Number of land plots country has,\n     *      proportional to the country area\n     * @dev Immutable\n     */\n    uint16 plots;\n\n    /**\n     * @dev Percentage country owner receives from\n     *      initial plot sale in owned country\n     * @dev Mutable\n     */\n    uint8 tax;\n\n    /**\n     * @dev Initially zero, changes when tax changes\n     * @dev Stored as unix timestamp - number of seconds passed since 1/1/1970\n     */\n    uint32 taxModified;\n\n    /**\n     * @dev Token index within an owner's collection of tokens\n     * @dev Changes when token is being transferred (token ownership changes)\n     * @dev May change if some other token of the same owner is transferred\n     */\n    uint8 index;\n\n    /**\n     * @dev Initially zero, changes when token ownership changes\n     *      (that is token is transferred)\n     * @dev Stored as unix timestamp - number of seconds passed since 1/1/1970\n     */\n    uint32 ownershipModified;\n\n    /**\n     * @dev Token owner, initialized upon token creation, cannot be zero\n     * @dev Changes when token is being transferred to a new owner\n     */\n    address owner;\n  }\n\n  /**\n   * @dev Country data array contains number of plots each country contains\n   */\n  uint16[] public countryData;\n\n  /**\n   * @notice All the emitted tokens\n   * @dev Core of the Country as ERC721 token\n   * @dev Maps Token ID => Country Data Structure\n   */\n  mapping(uint256 => Country) public tokens;\n\n  /**\n   * @notice Storage for a collections of tokens\n   * @notice A collection of tokens is an ordered list of token IDs,\n   *      owned by a particular address (owner)\n   * @dev A mapping from owner to a collection of his tokens (IDs)\n   * @dev ERC20 compliant structure for balances can be derived\n   *      as a length of each collection in the mapping\n   * @dev ERC20 balances[owner] is equal to collections[owner].length\n   */\n  mapping(address => uint8[]) public collections;\n\n  /**\n   * @dev Array with all token ids, used for enumeration\n   * @dev ERC20 compliant structure for totalSupply can be derived\n   *      as a length of this collection\n   * @dev ERC20 totalSupply() is equal to allTokens.length\n   */\n  uint8[] public allTokens;\n\n  /**\n   * @dev Token bitmap  bitmap of 192 elements indicating existing (minted) tokens\n   * @dev For any i  [0, 191] - tokenMap[i] (which is tokenMap >> i & 0x1)\n   *      is equal to one if token with ID i exists and to zero if it doesn't\n   */\n  uint192 public tokenMap;\n\n  /**\n   * @notice The maximum frequency at which tax rate for a token can be changed\n   * @dev Tax rate cannot be changed more frequently than once per `MAX_TAX_CHANGE_FREQ` seconds\n   */\n  uint32 public maxTaxChangeFreq = 86400; // seconds\n\n  /**\n   * @dev Maximum tokens allowed should comply with the `tokenMap` type\n   * @dev This setting is used only in contract constructor, actual\n   *      maximum supply is defined by `countryData` array length\n   */\n  uint8 public constant TOTAL_SUPPLY_MAX = 192;\n\n  /**\n   * @notice Maximum tax rate that can be set on the country\n   * @dev This is an inverted value of the maximum tax:\n   *      `MAX_TAX_RATE = 1 / MAX_TAX_INV`\n   */\n  uint8 public constant MAX_TAX_INV = 5; // 1/5 or 20%\n\n  /**\n   * @notice Default tax rate that is assigned to each country\n   * @dev This tax rate is set on each country when minting its token\n   */\n  uint8 public constant DEFAULT_TAX_RATE = 0x4A; // 1/10 or 10%\n\n  /**\n   * @dev Allows owners to update tax value\n   */\n  uint32 public constant FEATURE_ALLOW_TAX_UPDATE = 0x00000010;\n\n  /**\n   * @notice Tax manager is responsible for updating maximum\n   *     allowed frequency of tax rate change\n   * @dev Role ROLE_TAX_MANAGER allows updating `maxTaxChangeFreq`\n   */\n  uint32 public constant ROLE_TAX_MANAGER = 0x00000010;\n\n\n  /**\n   * @dev Fired in updateTaxRate()\n   * @param _by address which updated the tax (token owner)\n   * @param _tokenId token ID the tax was updated for\n   * @param _from old tax value\n   * @param _to new tax value\n   */\n  event TaxRateUpdated(address indexed _by, uint256 indexed _tokenId, uint8 _from, uint8 _to);\n\n  /**\n   * @dev Fired in updateMaxTaxChangeFreq()\n   * @param _by tax manager (an address having `ROLE_TAX_MANAGER` permission)\n   *      which changed the `maxTaxChangeFreq` value on the smart contract\n   * @param _from old maxTaxChangeFreq value\n   * @param _to new maxTaxChangeFreq value\n   */\n  event MaxTaxChangeFreqUpdated(address indexed _by, uint32 _from, uint32 _to);\n\n  /**\n   * @dev Creates a Country ERC721 instance,\n   * @dev Registers a ERC721 interface using ERC165\n   * @dev Initializes the contract with the country data provided\n   * @param _countryData array of packed data structures containing\n   *        number of plots for each country\n   */\n  constructor(uint16[] memory _countryData) public {\n    // register the supported interfaces to conform to ERC721 via ERC165\n    _registerInterface(InterfaceId_ERC721);\n    _registerInterface(InterfaceId_ERC721Exists);\n    _registerInterface(InterfaceId_ERC721Enumerable);\n    _registerInterface(InterfaceId_ERC721Metadata);\n\n    // maximum of 192 countries allowed\n    require(_countryData.length <= TOTAL_SUPPLY_MAX);\n\n    // init country data array\n    countryData = _countryData;\n  }\n\n  /**\n   * @dev Iterates over all 192 (max) possible countries defined in\n   *      CountryERC721 instance this smart contract is bound to,\n   *      fetching country owner, number of plots, tax and tax modified date,\n   *      and assembled result of the iteration into array\n   * @dev The resulting array is ordered by country id, meaning element at\n   *      index `i` contains country with an ID `i + 1`\n   * @dev The resulting array contains packed data structures for each country, containing:\n   *      * number of plots as an integer, 16 bits\n   *      * tax rate as a 8 bit fraction, 8 bits\n   *      * country owner address as an integer, 160 bits\n   * @dev note: country owner address may be zero meaning country is not owned\n   * @return an ordered array of countries as packed data structures\n   */\n  function getAllCountriesPacked() public view returns(uint184[] memory) {\n    // determine how many countries we may have minted\n    // and define resulting array in memory\n    uint184[] memory result = new uint184[](countryData.length);\n\n    // iterate over all possible countries we may have minted\n    for(uint8 i = 0; i < countryData.length; i++) {\n      // if country is already minted and belongs to someone\n      if(exists(i + 1)) {\n        // build the result from actual country data\n        result[i] = uint184(getPacked(i + 1)) << 160 | uint160(ownerOf(i + 1));\n      }\n      // otherwise, if country was not yet minted\n      else {\n        // build the result from country initialization data\n        result[i] = uint184(countryData[i]) << 168 | uint168(DEFAULT_TAX_RATE) << 160;\n      }\n    }\n\n    // return the resulting array\n    return result;\n  }\n\n  /**\n   * @notice Number of countries this contract can have\n   * @dev Maximum number of tokens that contract can mint\n   * @return length of country data array\n   */\n  function getNumberOfCountries() public view returns(uint8) {\n    // read country data array length and return\n    return uint8(countryData.length);\n  }\n\n  /**\n   * @dev Calculates cumulative number of plots all the countries have in total\n   * @return sum of the countries number of plots\n   */\n  function getTotalNumberOfPlots() public view returns(uint32) {\n    // variable to accumulate result into\n    uint32 result = 0;\n\n    // iterate over all the tokens and accumulate the result\n    for(uint i = 0; i < countryData.length; i++) {\n      // accumulate the result\n      result += countryData[i];\n    }\n\n    // return the result\n    return result;\n  }\n\n  /**\n   * @dev Calculates cumulative number of plots\n   *      all the countries belonging to given owner have in total\n   * @param owner address of the owner to query countries for\n   * @return sum of the countries number of plots owned by given address\n   */\n  function getNumberOfPlotsByCountryOwner(address owner) public view returns(uint32) {\n    // variable to accumulate result into\n    uint32 result = 0;\n\n    // iterate over all owner's tokens and accumulate the result\n    for(uint i = 0; i < collections[owner].length; i++) {\n      // accumulate the result\n      result += tokens[collections[owner][i]].plots;\n    }\n\n    // return the result\n    return result;\n  }\n\n  /**\n   * @dev Gets a country by ID, representing it as a single 32-bit integer.\n   *      The integer is tightly packed with the country data:\n   *        number of plots\n   *        tax nominator\n   *        tax denominator\n   * @dev Throws if country doesn't exist\n   * @param _tokenId ID of the country to fetch\n   * @return country as 32-bit unsigned integer\n   */\n  function getPacked(uint256 _tokenId) public view returns(uint24) {\n    // validate country existence\n    require(exists(_tokenId));\n\n    // load country from storage\n    Country memory country = tokens[_tokenId];\n\n    // pack the data and return\n    return uint24(country.plots) << 8 | country.tax;\n  }\n\n  /**\n   * @notice Retrieves a collection of tokens owned by a particular address\n   * @notice An order of token IDs is not guaranteed and may change\n   *      when a token from the list is transferred\n   * @param owner an address to query a collection for\n   * @return an unordered list of token IDs owned by given address\n   */\n  function getCollection(address owner) public view returns(uint8[] memory) {\n    // read a collection from mapping and return\n    return collections[owner];\n  }\n\n  /**\n   * @dev Allows to fetch collection of tokens, including internal token data\n   *      in a single function, useful when connecting to external node like INFURA\n   * @dev Each element of the array returned is a tightly packed integer, containing\n   *        token ID\n   *        number of plots\n   *        tax nominator\n   *        tax denominator\n   * @param owner an address to query a collection for\n   * @return an unordered list of country packed data owned by give address\n   */\n  function getPackedCollection(address owner) public view returns(uint32[] memory) {\n    // get the list of token IDs the owner owns\n    uint8[] memory ids = getCollection(owner);\n\n    // allocate correspondent array for packed data\n    uint32[] memory packedCollection = new uint32[](ids.length);\n\n    // fetch token info one by one and pack it into the structure\n    for(uint i = 0; i < ids.length; i++) {\n      // token ID\n      uint8 tokenId = ids[i];\n\n      // packed token data\n      uint24 packedData = getPacked(tokenId);\n\n      // pack the data and save it into result array\n      packedCollection[i] = uint32(tokenId) << 24 | packedData;\n    }\n\n    // return the result (it can be empty array as well)\n    return packedCollection;\n  }\n\n  /**\n   * @notice Returns number of plots for the given country, defined by `_tokenId`\n   * @param _tokenId country id to query number of plots for\n   * @return number of plots given country has\n   */\n  function getNumberOfPlots(uint256 _tokenId) public view returns(uint16) {\n    // validate token existence\n    require(exists(_tokenId));\n\n    // obtain token's number of plots from storage and return\n    return tokens[_tokenId].plots;\n  }\n\n  /**\n   * @notice Returns tax as a proper fraction for the given country, defined by `_tokenId`\n   * @param _tokenId country id to query tax for\n   * @return tax as a proper fraction (tuple containing nominator and denominator)\n   */\n  function getTax(uint256 _tokenId) public view returns(uint8, uint8) {\n    // obtain token's tax as packed fraction\n    uint8 tax = getTaxPacked(_tokenId);\n\n    // return tax as a proper fraction\n    return (Fractions8.getNominator(tax), Fractions8.getDenominator(tax));\n  }\n\n  /**\n   * @notice Returns tax as a proper fraction for the given country, defined by `_tokenId`\n   * @param _tokenId country id to query tax for\n   * @return tax as a proper fraction packed into uint16\n   */\n  function getTaxPacked(uint256 _tokenId) public view returns(uint8) {\n    // validate token existence\n    require(exists(_tokenId));\n\n    // obtain token's tax from storage and return tax\n    return tokens[_tokenId].tax;\n  }\n\n  /**\n   * @notice Returns tax percent for the given country, defined by `_tokenId`\n   * @dev Converts 16-bit fraction structure into 8-bit [0, 100] percent value\n   * @param _tokenId country id to query tax for\n   * @return tax percent value, [0, 100]\n   */\n  function getTaxPercent(uint256 _tokenId) public view returns (uint8) {\n    // validate token existence\n    require(exists(_tokenId));\n\n    // obtain token's tax percent from storage and return\n    return Fractions8.toPercent(tokens[_tokenId].tax);\n  }\n\n  /**\n   * @notice Calculates tax value for the given token and value\n   * @param _tokenId token id to use tax rate from\n   * @param _value an amount to apply tax to\n   * @return calculated tax value based on the tokens tax rate and value\n   */\n  function calculateTaxValueFor(uint256 _tokenId, uint256 _value) public view returns (uint256) {\n    // validate token existence\n    require(exists(_tokenId));\n\n    // obtain token's tax percent from storage, multiply by value and return\n    return Fractions8.multiplyByInteger(tokens[_tokenId].tax, _value);\n  }\n\n  /**\n   * @notice Allows token owner to update tax rate of the country this token represents\n   * @dev Requires tax update feature to be enabled on the contract\n   * @dev Requires message sender to be owner of the token\n   * @dev Requires previous tax change to be more then `maxTaxChangeFreq` blocks ago\n   * @param _tokenId country id to update tax for\n   * @param nominator tax rate nominator, 4 bits unsigned integer [0, 32)\n   * @param denominator tax rate denominator, 4 bits unsigned integer (0, 32)\n   */\n  function updateTaxRate(uint256 _tokenId, uint8 nominator, uint8 denominator) public {\n    // check if tax updating is enabled\n    require(isFeatureEnabled(FEATURE_ALLOW_TAX_UPDATE));\n\n    // check that sender is token owner, ensures also that token exists\n    require(msg.sender == ownerOf(_tokenId));\n\n    // check that tax rate doesn't exceed MAX_TAX_RATE\n    require(nominator <= denominator / MAX_TAX_INV);\n\n    // check that enough time has passed since last tax update\n    require(tokens[_tokenId].taxModified + maxTaxChangeFreq <= now);\n\n    // save old tax value to log\n    uint8 oldTax = tokens[_tokenId].tax;\n\n    // update the tax rate\n    tokens[_tokenId].tax = Fractions8.createProperFraction8(nominator, denominator);\n\n    // update tax rate updated timestamp\n    tokens[_tokenId].taxModified = uint32(now);\n\n    // emit an event\n    emit TaxRateUpdated(msg.sender, _tokenId, oldTax, tokens[_tokenId].tax);\n  }\n\n  /**\n   * @dev Allows setting the `maxTaxChangeFreq` parameter of the contract,\n   *      which specifies how frequently the tax rate can be changed\n   * @dev Requires sender to have `ROLE_TAX_MANAGER` permission.\n   * @param _maxTaxChangeFreq a value to set `maxTaxChangeFreq` to\n   */\n  function updateMaxTaxChangeFreq(uint32 _maxTaxChangeFreq) public {\n    // check if caller has sufficient permissions to update tax change frequency\n    require(isSenderInRole(ROLE_TAX_MANAGER));\n\n    // perform the update only in case of frequency change\n    if(maxTaxChangeFreq != _maxTaxChangeFreq) {\n      // emit an event first not to use additional variable to store old frequency\n      emit MaxTaxChangeFreqUpdated(msg.sender, maxTaxChangeFreq, _maxTaxChangeFreq);\n\n      // update the tax change frequency\n      maxTaxChangeFreq = _maxTaxChangeFreq;\n    }\n  }\n\n\n  /**\n   * @dev Creates new token with `tokenId` ID specified and\n   *      assigns an ownership `to` for that token\n   * @dev Initial token's properties are predefined by its ID\n   * @param _to an address to assign created token ownership to\n   * @param _tokenId ID of the token to create\n   */\n  function mint(address _to, uint8 _tokenId) public {\n    // validate destination address\n    require(_to != address(0));\n    require(_to != address(this));\n\n    // check if caller has sufficient permissions to mint a token\n    require(isSenderInRole(ROLE_TOKEN_CREATOR));\n\n    // delegate call to `__mint`\n    __mint(_to, _tokenId);\n\n    // fire Minted event\n    emit Minted(msg.sender, _to, _tokenId);\n\n    // fire ERC721 transfer event\n    emit Transfer(address(0), _to, _tokenId);\n  }\n\n\n  /**\n   * @notice Total number of existing tokens (tracked by this contract)\n   * @return A count of valid tokens tracked by this contract,\n   *    where each one of them has an assigned and\n   *    queryable owner not equal to the zero address\n   */\n  function totalSupply() public view returns (uint256) {\n    // read the length of the `allTokens` collection\n    return allTokens.length;\n  }\n\n  /**\n   * @notice Enumerate valid tokens\n   * @dev Throws if `_index` >= `totalSupply()`.\n   * @param _index a counter less than `totalSupply()`\n   * @return The token ID for the `_index`th token, unsorted\n   */\n  function tokenByIndex(uint256 _index) public view returns (uint256) {\n    // out of bounds check\n    require(_index < allTokens.length);\n\n    // get the token ID and return\n    return allTokens[_index];\n  }\n\n  /**\n   * @notice Enumerate tokens assigned to an owner\n   * @dev Throws if `_index` >= `balanceOf(_owner)`.\n   * @param _owner an address of the owner to query token from\n   * @param _index a counter less than `balanceOf(_owner)`\n   * @return the token ID for the `_index`th token assigned to `_owner`, unsorted\n   */\n  function tokenOfOwnerByIndex(address _owner, uint256 _index) public view returns (uint256) {\n    // out of bounds check\n    require(_index < collections[_owner].length);\n\n    // get the token ID from owner collection and return\n    return collections[_owner][_index];\n  }\n\n  /**\n   * @notice Gets an amount of token owned by the given address\n   * @dev Gets the balance of the specified address\n   * @param _owner address to query the balance for\n   * @return an amount owned by the address passed as an input parameter\n   */\n  function balanceOf(address _owner) public view returns (uint256) {\n    // validate an owner address\n    require(_owner != address(0));\n\n    // read the length of the `who`s collection of tokens\n    return collections[_owner].length;\n  }\n\n  /**\n   * @notice Checks if specified token exists\n   * @dev Returns whether the specified token ID exists\n   * @param _tokenId ID of the token to query the existence for\n   * @return whether the token exists (true - exists)\n   */\n  function exists(uint256 _tokenId) public view returns (bool) {\n    // check if this token exists (owner is not zero)\n    return tokens[_tokenId].owner != address(0);\n  }\n\n  /**\n   * @notice Finds an owner address for a token specified\n   * @dev Gets the owner of the specified token from the `countries` mapping\n   * @dev Throws if a token with the ID specified doesn't exist\n   * @param _tokenId ID of the token to query the owner for\n   * @return owner address currently marked as the owner of the given token\n   */\n  function ownerOf(uint256 _tokenId) public view returns (address) {\n    // check if this token exists\n    require(exists(_tokenId));\n\n    // return owner's address\n    return tokens[_tokenId].owner;\n  }\n\n  /**\n   * @notice A distinct Uniform Resource Identifier (URI) for a given asset.\n   * @dev Throws if `_tokenId` is not a valid token ID.\n   *      URIs are defined in RFC 3986.\n   * @param _tokenId uint256 ID of the token to query\n   * @return token URI\n   */\n  function tokenURI(uint256 _tokenId) public view returns (string memory) {\n    // validate token existence\n    require(exists(_tokenId));\n\n    // token URL consists of base URL part (domain) and token ID\n    return StringUtils.concat(\"http://cryptominerworld.com/country/\", StringUtils.itoa(_tokenId, 10));\n  }\n\n  /**\n   * @dev Moves token from owner `_from` to a new owner `_to`:\n   *      modifies token owner, moves token ID from `_from` collection\n   *      to `_to` collection\n   * @dev Unsafe, doesn't check for data structures consistency\n   *      (token existence, token ID presence in `collections`, etc.)\n   * @dev Must be kept private at all times\n   * @param _from an address to take token from\n   * @param _to an address to put token into\n   * @param _tokenId ID of the token to move\n   */\n  function __move(address _from, address _to, uint256 _tokenId) internal {\n    // cast token ID to uint8 space\n    uint8 tokenId = uint8(_tokenId);\n\n    // overflow check, failure impossible by design of mint()\n    assert(tokenId == _tokenId);\n\n    // get the token structure pointer to the storage\n    Country storage token = tokens[tokenId];\n\n    // get a reference to the collection where token is now\n    uint8[] storage source = collections[_from];\n\n    // get a reference to the collection where token goes to\n    uint8[] storage destination = collections[_to];\n\n    // collection `source` cannot be empty, by design of transfer functions\n    assert(source.length != 0);\n\n    // index of the token within collection `source`\n    uint8 i = uint8(token.index);\n\n    // we put the last token in the collection `source` to the position released\n    // get an ID of the last token in `source`\n    uint8 sourceId = source[source.length - 1];\n\n    // update last token index to point to proper place in the collection `source`\n    tokens[sourceId].index = i;\n\n    // put it into the position `i` within `source`\n    source[i] = sourceId;\n\n    // trim the collection `source` by removing last element\n    source.length--;\n\n    // update token index according to position in new collection `destination`\n    token.index = uint8(destination.length);\n\n    // update token owner\n    token.owner = _to;\n\n    // update token ownership transfer date\n    token.ownershipModified = uint32(now);\n\n    // push token into destination collection\n    destination.push(tokenId);\n  }\n\n  /**\n   * @dev Creates new token with token ID specified and\n   *      and assigns an ownership `_to` for this token\n   * @dev Unsafe: doesn't check if caller has enough permissions to execute the call,\n   *      checks only that the token doesn't exist yet\n   * @dev Must be kept private at all times\n   * @param _to an address to mint token to (first owner of the token)\n   * @param _tokenId ID of the token to mint\n   */\n  function __mint(address _to, uint8 _tokenId) private {\n    // check that `tokenId` is inside valid bounds\n    require(_tokenId > 0 && _tokenId <= countryData.length);\n\n    // ensure that token with such ID doesn't exist\n    require(!exists(_tokenId));\n\n    // create new country in memory\n    Country memory country = Country({\n      plots: countryData[_tokenId - 1],\n      tax: DEFAULT_TAX_RATE,\n      taxModified: 0,\n      index: uint8(collections[_to].length),\n      ownershipModified: 0,\n      owner: _to\n    });\n\n    // push newly created `tokenId` to the owner's collection of tokens\n    collections[_to].push(_tokenId);\n\n    // persist country to the storage\n    tokens[_tokenId] = country;\n\n    // add token ID to the `allTokens` collection,\n    // automatically updates total supply\n    allTokens.push(_tokenId);\n\n    // update token bitmap\n    tokenMap |= uint192(1 << uint256(_tokenId - 1));\n  }\n\n}\n",
  "sourcePath": "/Users/vgorin/DEVELOP/up/Sophophilia/crypto-miner/contracts/CountryERC721.sol",
  "compiler": {
    "name": "solc",
    "version": "0.5.8+commit.23d335f2.Emscripten.clang"
  },
  "schemaVersion": "3.0.9",
  "updatedAt": "2019-05-31T07:44:14.231Z",
  "devdoc": {
    "details": "A country is an ERC721 non-fungible token, which maps Token ID,     a 8 bit number in range [1, 192] to a set of country properties -     number of plots and owner's tax rate.Country token supports only minting of predefined countries,     its not possible to destroy a country.Up to 192 countries are defined during contract deployment and initialization.",
    "methods": {
      "approve(address,uint256)": {
        "details": "The zero approved address revokes an approval for a given tokenThere can only be one approved address per token at a given timeThis function can only be called by the token owner",
        "params": {
          "_approved": "address to be approved to transfer the token on behalf of its owner",
          "_tokenId": "ID of the token to be approved for transfer on behalf"
        }
      },
      "balanceOf(address)": {
        "details": "Gets the balance of the specified address",
        "params": {
          "_owner": "address to query the balance for"
        },
        "return": "an amount owned by the address passed as an input parameter"
      },
      "calculateTaxValueFor(uint256,uint256)": {
        "params": {
          "_tokenId": "token id to use tax rate from",
          "_value": "an amount to apply tax to"
        },
        "return": "calculated tax value based on the tokens tax rate and value"
      },
      "constructor": {
        "details": "Creates a Country ERC721 instance,Registers a ERC721 interface using ERC165Initializes the contract with the country data provided",
        "params": {
          "_countryData": "array of packed data structures containing       number of plots for each country"
        }
      },
      "evaluateBy(address,uint256,uint256)": {
        "details": "Based on the actual role provided (set of permissions), operator address,     and role required (set of permissions), calculate the resulting     set of permissions (role).If operator is super admin and has full permissions (FULL_PRIVILEGES_MASK),     the function will always return `required` regardless of the `actual`.In contrast, if operator has no permissions at all (zero mask),     the function will always return `actual` regardless of the `required`.",
        "params": {
          "actual": "input set of permissions to modify",
          "operator": "address of the contract operator to use permissions of",
          "required": "desired set of permissions operator would like to have"
        },
        "return": "resulting set of permissions this operator can set"
      },
      "exists(uint256)": {
        "details": "Returns whether the specified token ID exists",
        "params": {
          "_tokenId": "ID of the token to query the existence for"
        },
        "return": "whether the token exists (true - exists)"
      },
      "getAllCountriesPacked()": {
        "details": "Iterates over all 192 (max) possible countries defined in     CountryERC721 instance this smart contract is bound to,     fetching country owner, number of plots, tax and tax modified date,     and assembled result of the iteration into arrayThe resulting array is ordered by country id, meaning element at     index `i` contains country with an ID `i + 1`The resulting array contains packed data structures for each country, containing:     * number of plots as an integer, 16 bits     * tax rate as a 8 bit fraction, 8 bits     * country owner address as an integer, 160 bitsnote: country owner address may be zero meaning country is not owned",
        "return": "an ordered array of countries as packed data structures"
      },
      "getApproved(uint256)": {
        "details": "Throws if `_tokenId` is not a valid token ID.",
        "params": {
          "_tokenId": "ID of the token to find the approved address for"
        },
        "return": "the approved address for this token,     or the zero address if there is no approved address"
      },
      "getCollection(address)": {
        "params": {
          "owner": "an address to query a collection for"
        },
        "return": "an unordered list of token IDs owned by given address"
      },
      "getNumberOfCountries()": {
        "details": "Maximum number of tokens that contract can mint",
        "return": "length of country data array"
      },
      "getNumberOfPlots(uint256)": {
        "params": {
          "_tokenId": "country id to query number of plots for"
        },
        "return": "number of plots given country has"
      },
      "getNumberOfPlotsByCountryOwner(address)": {
        "details": "Calculates cumulative number of plots     all the countries belonging to given owner have in total",
        "params": {
          "owner": "address of the owner to query countries for"
        },
        "return": "sum of the countries number of plots owned by given address"
      },
      "getPacked(uint256)": {
        "details": "Gets a country by ID, representing it as a single 32-bit integer.     The integer is tightly packed with the country data:       number of plots       tax nominator       tax denominatorThrows if country doesn't exist",
        "params": {
          "_tokenId": "ID of the country to fetch"
        },
        "return": "country as 32-bit unsigned integer"
      },
      "getPackedCollection(address)": {
        "details": "Allows to fetch collection of tokens, including internal token data     in a single function, useful when connecting to external node like INFURAEach element of the array returned is a tightly packed integer, containing       token ID       number of plots       tax nominator       tax denominator",
        "params": {
          "owner": "an address to query a collection for"
        },
        "return": "an unordered list of country packed data owned by give address"
      },
      "getTax(uint256)": {
        "params": {
          "_tokenId": "country id to query tax for"
        },
        "return": "tax as a proper fraction (tuple containing nominator and denominator)"
      },
      "getTaxPacked(uint256)": {
        "params": {
          "_tokenId": "country id to query tax for"
        },
        "return": "tax as a proper fraction packed into uint16"
      },
      "getTaxPercent(uint256)": {
        "details": "Converts 16-bit fraction structure into 8-bit [0, 100] percent value",
        "params": {
          "_tokenId": "country id to query tax for"
        },
        "return": "tax percent value, [0, 100]"
      },
      "getTotalNumberOfPlots()": {
        "details": "Calculates cumulative number of plots all the countries have in total",
        "return": "sum of the countries number of plots"
      },
      "isApprovedForAll(address,address)": {
        "params": {
          "_operator": "the address that acts on behalf of the owner",
          "_owner": "the address which may have another address acting     on their behalf (operator address)"
        },
        "return": "true if `_operator` is allowed to transfer `_owner`s tokens, false otherwise"
      },
      "isFeatureEnabled(uint256)": {
        "details": "Checks if requested set of features is enabled globally on the contract",
        "params": {
          "required": "set of features to check"
        },
        "return": "true if all the features requested are enabled, false otherwise"
      },
      "isOperatorInRole(address,uint256)": {
        "details": "Checks if operator `operator` has all the permissions (role) required",
        "params": {
          "required": "set of permissions (role) to check"
        },
        "return": "true if all the permissions requested are enabled, false otherwise"
      },
      "isSenderInRole(uint256)": {
        "details": "Checks if transaction sender `msg.sender` has all the permissions (role) required",
        "params": {
          "required": "set of permissions (role) to check"
        },
        "return": "true if all the permissions requested are enabled, false otherwise"
      },
      "isTransferable(uint256)": {
        "details": "Verifies if token is transferable (can change ownership)",
        "params": {
          "_tokenId": "ID of the token to check transferable state for"
        },
        "return": "true if token is transferable, false otherwise"
      },
      "mint(address,uint8)": {
        "details": "Creates new token with `tokenId` ID specified and     assigns an ownership `to` for that tokenInitial token's properties are predefined by its ID",
        "params": {
          "_to": "an address to assign created token ownership to",
          "_tokenId": "ID of the token to create"
        }
      },
      "ownerOf(uint256)": {
        "details": "Gets the owner of the specified token from the `countries` mappingThrows if a token with the ID specified doesn't exist",
        "params": {
          "_tokenId": "ID of the token to query the owner for"
        },
        "return": "owner address currently marked as the owner of the given token"
      },
      "read(uint256,uint8,uint8)": {
        "details": "Reads token dataTo read whole 256 bits, set offset and length to zero",
        "params": {
          "_tokenId": "token ID to read data from",
          "length": "how many bits to read",
          "offset": "position in memory to read from (bits)"
        }
      },
      "readPage(uint256,uint256,uint8,uint8)": {
        "details": "Reads token data, allows to access up to 2^256 pages of 256-bit memory slotsTo read whole 256 bits, set offset and length to zero",
        "params": {
          "_tokenId": "token ID to read data from",
          "length": "how many bits to read",
          "offset": "position in memory to read from (bits)",
          "page": "index of the page to read from"
        }
      },
      "revokeApproval(uint256)": {
        "details": "Equal to calling `approve(0, _tokenId)`",
        "params": {
          "_tokenId": "ID of the token to remove approved address for"
        }
      },
      "safeTransferFrom(address,address,uint256)": {
        "details": "Safely transfers the ownership of a given token ID to another address     by verifying if the receiver is an external address or     by calling onERC721Received() function on the receiver if its a smart contractRequires the transaction sender to be one of:     owner of a token - then its similar to `transfer()` but with       ERC721 support check on the receiver     approved  an address explicitly approved earlier by       the owner of a token to transfer this particular token ID     operator - an address explicitly approved earlier by       the owner to transfer all his tokens on behalfWhen transfer is complete, this function     checks if `_to` is a smart contract (code size > 0).     If so - it calls `onERC721Received()` and throws if the return value is not     `bytes4(keccak256(\"onERC721Received(address,address,uint256,bytes)\"))`.     The whole transaction is reverted in case of this error.This works identically to the other function with an extra data parameter,     except this function just sets data to \"\".",
        "params": {
          "_from": "current owner of the token",
          "_to": "address to receive the ownership of the token",
          "_tokenId": "ID of the token to be transferred     in the onERC721Received() call to `_to`;     ignored if the receiver is an external address"
        }
      },
      "safeTransferFrom(address,address,uint256,bytes)": {
        "details": "Safely transfers the ownership of a given token ID to another address     by verifying if the receiver is an external address or     by calling onERC721Received() function on the receiver if its a smart contractRequires the transaction sender to be one of:     owner of a token - then its similar to `transfer()` but with       ERC721 support check on the receiver     approved  an address explicitly approved earlier by       the owner of a token to transfer this particular token ID     operator - an address explicitly approved earlier by       the owner to transfer all his tokens on behalfWhen transfer is complete, this function     checks if `_to` is a smart contract (code size > 0).     If so - it calls `onERC721Received()` and throws if the return value is not     `bytes4(keccak256(\"onERC721Received(address,address,uint256,bytes)\"))`.     The whole transaction is reverted in case of this error.",
        "params": {
          "_data": "Additional data with no specified format, sent     in the onERC721Received() call to `_to`;     ignored if the receiver is an external address",
          "_from": "current owner of the token",
          "_to": "address to receive the ownership of the token",
          "_tokenId": "ID of the token to be transferred"
        }
      },
      "setApprovalForAll(address,bool)": {
        "details": "Sets or unsets the approval state of a given operatorAn operator is allowed to transfer ALL tokens of the sender on their behalf",
        "params": {
          "_approved": "representing the status of the approval to be set:     true  grants an approval     false - revokes an approval",
          "_operator": "operator address to set the approval for"
        }
      },
      "supportsInterface(bytes4)": {
        "details": "Interface identification is specified in ERC-165.     This function uses less than 30,000 gas.",
        "params": {
          "_interfaceId": "The interface identifier, as specified in ERC-165"
        },
        "return": "`true` if the contract implements `interfaceID` and     `interfaceID` is not 0xffffffff, `false` otherwise"
      },
      "tokenByIndex(uint256)": {
        "details": "Throws if `_index` >= `totalSupply()`.",
        "params": {
          "_index": "a counter less than `totalSupply()`"
        },
        "return": "The token ID for the `_index`th token, unsorted"
      },
      "tokenOfOwnerByIndex(address,uint256)": {
        "details": "Throws if `_index` >= `balanceOf(_owner)`.",
        "params": {
          "_index": "a counter less than `balanceOf(_owner)`",
          "_owner": "an address of the owner to query token from"
        },
        "return": "the token ID for the `_index`th token assigned to `_owner`, unsorted"
      },
      "tokenURI(uint256)": {
        "details": "Throws if `_tokenId` is not a valid token ID.     URIs are defined in RFC 3986.",
        "params": {
          "_tokenId": "uint256 ID of the token to query"
        },
        "return": "token URI"
      },
      "totalSupply()": {
        "return": "A count of valid tokens tracked by this contract,   where each one of them has an assigned and   queryable owner not equal to the zero address"
      },
      "transfer(address,uint256)": {
        "details": "Transfers the ownership of a given token ID to another addressThis function is maintained to be used by developers to reduce gas costsRequires the transaction sender to be an owner of the token specified",
        "params": {
          "_to": "new owner address",
          "_tokenId": "ID of the token to transfer ownership rights for"
        }
      },
      "transferFrom(address,address,uint256)": {
        "details": "Transfers the ownership of a given token ID to another addressThis function is maintained to be used by developers to reduce gas costsRequires the transaction sender to be one of:     owner of a token - then its just a usual `transfer()` (aka unsafe transfer)     approved  an address explicitly approved earlier by       the owner of a token to transfer this particular token ID     operator - an address explicitly approved earlier by       the owner to transfer all his tokens on behalf",
        "params": {
          "_from": "current owner of the token",
          "_to": "address to receive the ownership of the token",
          "_tokenId": "ID of the token to be transferred"
        }
      },
      "updateFeatures(uint256)": {
        "details": "Updates set of the globally enabled features (`features`),     taking into account sender's permissions.=Requires transaction sender to have `ROLE_FEATURE_MANAGER` permission.",
        "params": {
          "mask": "bitmask representing a set of features to enable/disable"
        }
      },
      "updateMaxTaxChangeFreq(uint32)": {
        "details": "Allows setting the `maxTaxChangeFreq` parameter of the contract,     which specifies how frequently the tax rate can be changedRequires sender to have `ROLE_TAX_MANAGER` permission.",
        "params": {
          "_maxTaxChangeFreq": "a value to set `maxTaxChangeFreq` to"
        }
      },
      "updateRole(address,uint256)": {
        "details": "Updates set of permissions (role) for a given operator,     taking into account sender's permissions.Setting role to zero is equivalent to removing an operator.Setting role to `FULL_PRIVILEGES_MASK` is equivalent to     copying senders permissions (role) to an operator.Requires transaction sender to have `ROLE_ROLE_MANAGER` permission.",
        "params": {
          "operator": "address of an operator to alter permissions for",
          "role": "bitmask representing a set of permissions to     enable/disable for an operator specified"
        }
      },
      "updateTaxRate(uint256,uint8,uint8)": {
        "details": "Requires tax update feature to be enabled on the contractRequires message sender to be owner of the tokenRequires previous tax change to be more then `maxTaxChangeFreq` blocks ago",
        "params": {
          "_tokenId": "country id to update tax for",
          "denominator": "tax rate denominator, 4 bits unsigned integer (0, 32)",
          "nominator": "tax rate nominator, 4 bits unsigned integer [0, 32)"
        }
      },
      "write(uint256,uint256,uint8,uint8)": {
        "details": "Writes token data",
        "params": {
          "_tokenId": "token ID to write data into",
          "length": "how many bits to write",
          "offset": "position in memory to write to (bits)",
          "value": "a value to write;     to write value as is, set offset and length to zero"
        }
      },
      "writePage(uint256,uint256,uint256,uint8,uint8)": {
        "details": "Writes token data, allows to access up to 2^256 pages of 256-bit memory slots",
        "params": {
          "_tokenId": "token ID to write data into",
          "length": "how many bits to write",
          "offset": "position in memory to write to (bits)",
          "page": "index of the page to write to",
          "value": "a value to write;     to write value as is, set offset and length to zero"
        }
      }
    },
    "title": "Country ERC721 Token"
  },
  "userdoc": {
    "methods": {
      "approve(address,uint256)": {
        "notice": "Approves an address to transfer the given token on behalf of its ownerCan also be used to revoke an approval by setting approved address to zero"
      },
      "balanceOf(address)": {
        "notice": "Gets an amount of token owned by the given address"
      },
      "calculateTaxValueFor(uint256,uint256)": {
        "notice": "Calculates tax value for the given token and value"
      },
      "exists(uint256)": {
        "notice": "Checks if specified token exists"
      },
      "getApproved(uint256)": {
        "notice": "Gets the approved address for a single token"
      },
      "getCollection(address)": {
        "notice": "Retrieves a collection of tokens owned by a particular addressAn order of token IDs is not guaranteed and may change     when a token from the list is transferred"
      },
      "getNumberOfCountries()": {
        "notice": "Number of countries this contract can have"
      },
      "getNumberOfPlots(uint256)": {
        "notice": "Returns number of plots for the given country, defined by `_tokenId`"
      },
      "getTax(uint256)": {
        "notice": "Returns tax as a proper fraction for the given country, defined by `_tokenId`"
      },
      "getTaxPacked(uint256)": {
        "notice": "Returns tax as a proper fraction for the given country, defined by `_tokenId`"
      },
      "getTaxPercent(uint256)": {
        "notice": "Returns tax percent for the given country, defined by `_tokenId`"
      },
      "isApprovedForAll(address,address)": {
        "notice": "Query if an address is an authorized operator for another address"
      },
      "ownerOf(uint256)": {
        "notice": "Finds an owner address for a token specified"
      },
      "revokeApproval(uint256)": {
        "notice": "Removes an approved address, which was previously added by `approve()`     for the given token. Equivalent to calling `approve(0, _tokenId)`."
      },
      "safeTransferFrom(address,address,uint256)": {
        "notice": "A.k.a \"safe transfer on behalf\"Transfers ownership rights of a token defined     by the token ID to a new owner specified by its addressAllows transferring ownership rights by a trading operator     on behalf of token owner. Allows building an exchange of tokens.Validates if destination address supports ERC721"
      },
      "safeTransferFrom(address,address,uint256,bytes)": {
        "notice": "A.k.a \"safe transfer on behalf\"Transfers ownership rights of a token defined     by the token ID to a new owner specified by its addressAllows transferring ownership rights by a trading operator     on behalf of token owner. Allows building an exchange of tokens.Validates if destination address supports ERC721"
      },
      "supportsInterface(bytes4)": {
        "notice": "Query if a contract implements an interface"
      },
      "tokenByIndex(uint256)": {
        "notice": "Enumerate valid tokens"
      },
      "tokenOfOwnerByIndex(address,uint256)": {
        "notice": "Enumerate tokens assigned to an owner"
      },
      "tokenURI(uint256)": {
        "notice": "A distinct Uniform Resource Identifier (URI) for a given asset."
      },
      "totalSupply()": {
        "notice": "Total number of existing tokens (tracked by this contract)"
      },
      "transfer(address,uint256)": {
        "notice": "A.k.a \"unsafe transfer\"Transfers ownership rights of the token defined     by the token ID to a new owner specified by its addressDoesn't validate if destination address supports ERC721 tokens!     The token may be LOST if destination address doesn't support ERC721 tokens."
      },
      "transferFrom(address,address,uint256)": {
        "notice": "A.k.a \"unsafe transfer on behalf\"Transfers ownership rights of a token defined     by the token ID to a new owner specified by its addressAllows transferring ownership rights by a trading operator     on behalf of token owner. Allows building an exchange of tokens.Doesn't validate if destination address supports ERC721 tokens!     The token may be LOST if destination address doesn't support ERC721 tokens."
      },
      "updateTaxRate(uint256,uint8,uint8)": {
        "notice": "Allows token owner to update tax rate of the country this token represents"
      }
    },
    "notice": "Country is unique tradable entity. Non-fungible."
  }
}