{
  "contractName": "GemERC721",
  "abi": [
    {
      "constant": true,
      "inputs": [],
      "name": "ROLE_GRADE_PROVIDER",
      "outputs": [
        {
          "name": "",
          "type": "uint32"
        }
      ],
      "payable": false,
      "stateMutability": "view",
      "type": "function"
    },
    {
      "constant": true,
      "inputs": [],
      "name": "name",
      "outputs": [
        {
          "name": "",
          "type": "string"
        }
      ],
      "payable": false,
      "stateMutability": "view",
      "type": "function"
    },
    {
      "constant": false,
      "inputs": [
        {
          "name": "operator",
          "type": "address"
        },
        {
          "name": "role",
          "type": "uint256"
        }
      ],
      "name": "addOperator",
      "outputs": [],
      "payable": false,
      "stateMutability": "nonpayable",
      "type": "function"
    },
    {
      "constant": true,
      "inputs": [],
      "name": "ROLE_STATE_LOCK_PROVIDER",
      "outputs": [
        {
          "name": "",
          "type": "uint32"
        }
      ],
      "payable": false,
      "stateMutability": "view",
      "type": "function"
    },
    {
      "constant": true,
      "inputs": [],
      "name": "totalSupply",
      "outputs": [
        {
          "name": "",
          "type": "uint32"
        }
      ],
      "payable": false,
      "stateMutability": "view",
      "type": "function"
    },
    {
      "constant": true,
      "inputs": [],
      "name": "features",
      "outputs": [
        {
          "name": "",
          "type": "uint256"
        }
      ],
      "payable": false,
      "stateMutability": "view",
      "type": "function"
    },
    {
      "constant": true,
      "inputs": [],
      "name": "decimals",
      "outputs": [
        {
          "name": "",
          "type": "uint8"
        }
      ],
      "payable": false,
      "stateMutability": "view",
      "type": "function"
    },
    {
      "constant": true,
      "inputs": [],
      "name": "TOKEN_VERSION",
      "outputs": [
        {
          "name": "",
          "type": "uint32"
        }
      ],
      "payable": false,
      "stateMutability": "view",
      "type": "function"
    },
    {
      "constant": true,
      "inputs": [],
      "name": "RESERVED_TOKEN_ID_SPACE",
      "outputs": [
        {
          "name": "",
          "type": "uint32"
        }
      ],
      "payable": false,
      "stateMutability": "view",
      "type": "function"
    },
    {
      "constant": true,
      "inputs": [],
      "name": "lockedBitmask",
      "outputs": [
        {
          "name": "",
          "type": "uint64"
        }
      ],
      "payable": false,
      "stateMutability": "view",
      "type": "function"
    },
    {
      "constant": true,
      "inputs": [
        {
          "name": "",
          "type": "address"
        },
        {
          "name": "",
          "type": "uint256"
        }
      ],
      "name": "collections",
      "outputs": [
        {
          "name": "",
          "type": "uint32"
        }
      ],
      "payable": false,
      "stateMutability": "view",
      "type": "function"
    },
    {
      "constant": true,
      "inputs": [],
      "name": "UNLIMITED_APPROVALS",
      "outputs": [
        {
          "name": "",
          "type": "uint256"
        }
      ],
      "payable": false,
      "stateMutability": "view",
      "type": "function"
    },
    {
      "constant": true,
      "inputs": [
        {
          "name": "",
          "type": "uint32"
        }
      ],
      "name": "gems",
      "outputs": [
        {
          "name": "coordinates",
          "type": "uint64"
        },
        {
          "name": "color",
          "type": "uint8"
        },
        {
          "name": "levelModified",
          "type": "uint32"
        },
        {
          "name": "level",
          "type": "uint8"
        },
        {
          "name": "gradeModified",
          "type": "uint32"
        },
        {
          "name": "grade",
          "type": "uint16"
        },
        {
          "name": "stateModified",
          "type": "uint32"
        },
        {
          "name": "state",
          "type": "uint64"
        },
        {
          "name": "creationTime",
          "type": "uint32"
        },
        {
          "name": "index",
          "type": "uint32"
        },
        {
          "name": "ownershipModified",
          "type": "uint32"
        },
        {
          "name": "owner",
          "type": "address"
        }
      ],
      "payable": false,
      "stateMutability": "view",
      "type": "function"
    },
    {
      "constant": true,
      "inputs": [
        {
          "name": "",
          "type": "address"
        }
      ],
      "name": "userRoles",
      "outputs": [
        {
          "name": "",
          "type": "uint256"
        }
      ],
      "payable": false,
      "stateMutability": "view",
      "type": "function"
    },
    {
      "constant": true,
      "inputs": [],
      "name": "DEFAULT_MINING_BIT",
      "outputs": [
        {
          "name": "",
          "type": "uint64"
        }
      ],
      "payable": false,
      "stateMutability": "view",
      "type": "function"
    },
    {
      "constant": false,
      "inputs": [
        {
          "name": "operator",
          "type": "address"
        },
        {
          "name": "role",
          "type": "uint256"
        }
      ],
      "name": "removeRole",
      "outputs": [],
      "payable": false,
      "stateMutability": "nonpayable",
      "type": "function"
    },
    {
      "constant": false,
      "inputs": [
        {
          "name": "operator",
          "type": "address"
        },
        {
          "name": "role",
          "type": "uint256"
        }
      ],
      "name": "addRole",
      "outputs": [],
      "payable": false,
      "stateMutability": "nonpayable",
      "type": "function"
    },
    {
      "constant": true,
      "inputs": [],
      "name": "ROLE_STATE_PROVIDER",
      "outputs": [
        {
          "name": "",
          "type": "uint32"
        }
      ],
      "payable": false,
      "stateMutability": "view",
      "type": "function"
    },
    {
      "constant": true,
      "inputs": [],
      "name": "ROLE_LEVEL_PROVIDER",
      "outputs": [
        {
          "name": "",
          "type": "uint32"
        }
      ],
      "payable": false,
      "stateMutability": "view",
      "type": "function"
    },
    {
      "constant": true,
      "inputs": [],
      "name": "ROLE_TOKEN_CREATOR",
      "outputs": [
        {
          "name": "",
          "type": "uint32"
        }
      ],
      "payable": false,
      "stateMutability": "view",
      "type": "function"
    },
    {
      "constant": true,
      "inputs": [],
      "name": "FEATURE_TRANSFERS_ON_BEHALF",
      "outputs": [
        {
          "name": "",
          "type": "uint32"
        }
      ],
      "payable": false,
      "stateMutability": "view",
      "type": "function"
    },
    {
      "constant": true,
      "inputs": [],
      "name": "symbol",
      "outputs": [
        {
          "name": "",
          "type": "string"
        }
      ],
      "payable": false,
      "stateMutability": "view",
      "type": "function"
    },
    {
      "constant": true,
      "inputs": [
        {
          "name": "",
          "type": "uint32"
        }
      ],
      "name": "approvals",
      "outputs": [
        {
          "name": "",
          "type": "address"
        }
      ],
      "payable": false,
      "stateMutability": "view",
      "type": "function"
    },
    {
      "constant": false,
      "inputs": [
        {
          "name": "operator",
          "type": "address"
        }
      ],
      "name": "removeOperator",
      "outputs": [],
      "payable": false,
      "stateMutability": "nonpayable",
      "type": "function"
    },
    {
      "constant": true,
      "inputs": [],
      "name": "FEATURE_TRANSFERS",
      "outputs": [
        {
          "name": "",
          "type": "uint32"
        }
      ],
      "payable": false,
      "stateMutability": "view",
      "type": "function"
    },
    {
      "constant": false,
      "inputs": [
        {
          "name": "mask",
          "type": "uint256"
        }
      ],
      "name": "updateFeatures",
      "outputs": [],
      "payable": false,
      "stateMutability": "nonpayable",
      "type": "function"
    },
    {
      "constant": true,
      "inputs": [
        {
          "name": "",
          "type": "address"
        },
        {
          "name": "",
          "type": "address"
        }
      ],
      "name": "allowance",
      "outputs": [
        {
          "name": "",
          "type": "uint256"
        }
      ],
      "payable": false,
      "stateMutability": "view",
      "type": "function"
    },
    {
      "anonymous": false,
      "inputs": [
        {
          "indexed": true,
          "name": "_by",
          "type": "address"
        },
        {
          "indexed": true,
          "name": "_to",
          "type": "address"
        },
        {
          "indexed": true,
          "name": "_tokenId",
          "type": "uint32"
        }
      ],
      "name": "Minted",
      "type": "event"
    },
    {
      "anonymous": false,
      "inputs": [
        {
          "indexed": true,
          "name": "_from",
          "type": "address"
        },
        {
          "indexed": true,
          "name": "_to",
          "type": "address"
        },
        {
          "indexed": true,
          "name": "_tokenId",
          "type": "uint32"
        }
      ],
      "name": "TokenTransfer",
      "type": "event"
    },
    {
      "anonymous": false,
      "inputs": [
        {
          "indexed": true,
          "name": "_from",
          "type": "address"
        },
        {
          "indexed": true,
          "name": "_to",
          "type": "address"
        },
        {
          "indexed": false,
          "name": "_value",
          "type": "uint256"
        }
      ],
      "name": "Transfer",
      "type": "event"
    },
    {
      "anonymous": false,
      "inputs": [
        {
          "indexed": true,
          "name": "_owner",
          "type": "address"
        },
        {
          "indexed": true,
          "name": "_approved",
          "type": "address"
        },
        {
          "indexed": true,
          "name": "_tokenId",
          "type": "uint32"
        }
      ],
      "name": "TokenApproval",
      "type": "event"
    },
    {
      "anonymous": false,
      "inputs": [
        {
          "indexed": true,
          "name": "_owner",
          "type": "address"
        },
        {
          "indexed": true,
          "name": "_spender",
          "type": "address"
        },
        {
          "indexed": false,
          "name": "_value",
          "type": "uint256"
        }
      ],
      "name": "Approval",
      "type": "event"
    },
    {
      "anonymous": false,
      "inputs": [
        {
          "indexed": true,
          "name": "_by",
          "type": "address"
        },
        {
          "indexed": true,
          "name": "_owner",
          "type": "address"
        },
        {
          "indexed": true,
          "name": "_tokenId",
          "type": "uint32"
        },
        {
          "indexed": false,
          "name": "_levelReached",
          "type": "uint8"
        }
      ],
      "name": "LevelUp",
      "type": "event"
    },
    {
      "anonymous": false,
      "inputs": [
        {
          "indexed": true,
          "name": "_by",
          "type": "address"
        },
        {
          "indexed": true,
          "name": "_owner",
          "type": "address"
        },
        {
          "indexed": true,
          "name": "_tokenId",
          "type": "uint32"
        },
        {
          "indexed": false,
          "name": "_gradeReached",
          "type": "uint16"
        }
      ],
      "name": "UpgradeComplete",
      "type": "event"
    },
    {
      "anonymous": false,
      "inputs": [
        {
          "indexed": true,
          "name": "_by",
          "type": "address"
        },
        {
          "indexed": true,
          "name": "_owner",
          "type": "address"
        },
        {
          "indexed": true,
          "name": "_tokenId",
          "type": "uint32"
        },
        {
          "indexed": false,
          "name": "_newState",
          "type": "uint64"
        }
      ],
      "name": "StateModified",
      "type": "event"
    },
    {
      "anonymous": false,
      "inputs": [
        {
          "indexed": true,
          "name": "_by",
          "type": "address"
        },
        {
          "indexed": false,
          "name": "_requested",
          "type": "uint256"
        },
        {
          "indexed": false,
          "name": "_actual",
          "type": "uint256"
        }
      ],
      "name": "FeaturesUpdated",
      "type": "event"
    },
    {
      "anonymous": false,
      "inputs": [
        {
          "indexed": true,
          "name": "_by",
          "type": "address"
        },
        {
          "indexed": true,
          "name": "_to",
          "type": "address"
        },
        {
          "indexed": false,
          "name": "_role",
          "type": "uint256"
        }
      ],
      "name": "RoleUpdated",
      "type": "event"
    },
    {
      "constant": true,
      "inputs": [
        {
          "name": "tokenId",
          "type": "uint32"
        }
      ],
      "name": "getPacked",
      "outputs": [
        {
          "name": "",
          "type": "uint256"
        },
        {
          "name": "",
          "type": "uint256"
        }
      ],
      "payable": false,
      "stateMutability": "view",
      "type": "function"
    },
    {
      "constant": true,
      "inputs": [
        {
          "name": "owner",
          "type": "address"
        }
      ],
      "name": "getPackedCollection",
      "outputs": [
        {
          "name": "",
          "type": "uint64[]"
        }
      ],
      "payable": false,
      "stateMutability": "view",
      "type": "function"
    },
    {
      "constant": true,
      "inputs": [
        {
          "name": "owner",
          "type": "address"
        }
      ],
      "name": "getCollection",
      "outputs": [
        {
          "name": "",
          "type": "uint32[]"
        }
      ],
      "payable": false,
      "stateMutability": "view",
      "type": "function"
    },
    {
      "constant": false,
      "inputs": [
        {
          "name": "bitmask",
          "type": "uint64"
        }
      ],
      "name": "setLockedBitmask",
      "outputs": [],
      "payable": false,
      "stateMutability": "nonpayable",
      "type": "function"
    },
    {
      "constant": true,
      "inputs": [
        {
          "name": "tokenId",
          "type": "uint32"
        }
      ],
      "name": "getCoordinates",
      "outputs": [
        {
          "name": "",
          "type": "uint64"
        }
      ],
      "payable": false,
      "stateMutability": "view",
      "type": "function"
    },
    {
      "constant": true,
      "inputs": [
        {
          "name": "tokenId",
          "type": "uint32"
        }
      ],
      "name": "getPlotId",
      "outputs": [
        {
          "name": "",
          "type": "uint32"
        }
      ],
      "payable": false,
      "stateMutability": "view",
      "type": "function"
    },
    {
      "constant": true,
      "inputs": [
        {
          "name": "tokenId",
          "type": "uint32"
        }
      ],
      "name": "getDepth",
      "outputs": [
        {
          "name": "",
          "type": "uint16"
        }
      ],
      "payable": false,
      "stateMutability": "view",
      "type": "function"
    },
    {
      "constant": true,
      "inputs": [
        {
          "name": "tokenId",
          "type": "uint32"
        }
      ],
      "name": "getGemNum",
      "outputs": [
        {
          "name": "",
          "type": "uint16"
        }
      ],
      "payable": false,
      "stateMutability": "view",
      "type": "function"
    },
    {
      "constant": true,
      "inputs": [
        {
          "name": "tokenId",
          "type": "uint32"
        }
      ],
      "name": "getProperties",
      "outputs": [
        {
          "name": "",
          "type": "uint32"
        }
      ],
      "payable": false,
      "stateMutability": "view",
      "type": "function"
    },
    {
      "constant": true,
      "inputs": [
        {
          "name": "tokenId",
          "type": "uint32"
        }
      ],
      "name": "getColor",
      "outputs": [
        {
          "name": "",
          "type": "uint8"
        }
      ],
      "payable": false,
      "stateMutability": "view",
      "type": "function"
    },
    {
      "constant": true,
      "inputs": [
        {
          "name": "tokenId",
          "type": "uint32"
        }
      ],
      "name": "getLevelModified",
      "outputs": [
        {
          "name": "",
          "type": "uint32"
        }
      ],
      "payable": false,
      "stateMutability": "view",
      "type": "function"
    },
    {
      "constant": true,
      "inputs": [
        {
          "name": "tokenId",
          "type": "uint32"
        }
      ],
      "name": "getLevel",
      "outputs": [
        {
          "name": "",
          "type": "uint8"
        }
      ],
      "payable": false,
      "stateMutability": "view",
      "type": "function"
    },
    {
      "constant": false,
      "inputs": [
        {
          "name": "tokenId",
          "type": "uint32"
        }
      ],
      "name": "levelUp",
      "outputs": [],
      "payable": false,
      "stateMutability": "nonpayable",
      "type": "function"
    },
    {
      "constant": true,
      "inputs": [
        {
          "name": "tokenId",
          "type": "uint32"
        }
      ],
      "name": "getGradeModified",
      "outputs": [
        {
          "name": "",
          "type": "uint32"
        }
      ],
      "payable": false,
      "stateMutability": "view",
      "type": "function"
    },
    {
      "constant": true,
      "inputs": [
        {
          "name": "tokenId",
          "type": "uint32"
        }
      ],
      "name": "getGrade",
      "outputs": [
        {
          "name": "",
          "type": "uint16"
        }
      ],
      "payable": false,
      "stateMutability": "view",
      "type": "function"
    },
    {
      "constant": true,
      "inputs": [
        {
          "name": "tokenId",
          "type": "uint32"
        }
      ],
      "name": "getGradeType",
      "outputs": [
        {
          "name": "",
          "type": "uint8"
        }
      ],
      "payable": false,
      "stateMutability": "view",
      "type": "function"
    },
    {
      "constant": true,
      "inputs": [
        {
          "name": "tokenId",
          "type": "uint32"
        }
      ],
      "name": "getGradeValue",
      "outputs": [
        {
          "name": "",
          "type": "uint8"
        }
      ],
      "payable": false,
      "stateMutability": "view",
      "type": "function"
    },
    {
      "constant": false,
      "inputs": [
        {
          "name": "tokenId",
          "type": "uint32"
        },
        {
          "name": "grade",
          "type": "uint16"
        }
      ],
      "name": "upgradeGrade",
      "outputs": [],
      "payable": false,
      "stateMutability": "nonpayable",
      "type": "function"
    },
    {
      "constant": true,
      "inputs": [
        {
          "name": "tokenId",
          "type": "uint32"
        }
      ],
      "name": "getStateModified",
      "outputs": [
        {
          "name": "",
          "type": "uint32"
        }
      ],
      "payable": false,
      "stateMutability": "view",
      "type": "function"
    },
    {
      "constant": true,
      "inputs": [
        {
          "name": "tokenId",
          "type": "uint32"
        }
      ],
      "name": "getState",
      "outputs": [
        {
          "name": "",
          "type": "uint64"
        }
      ],
      "payable": false,
      "stateMutability": "view",
      "type": "function"
    },
    {
      "constant": false,
      "inputs": [
        {
          "name": "tokenId",
          "type": "uint32"
        },
        {
          "name": "state",
          "type": "uint64"
        }
      ],
      "name": "setState",
      "outputs": [],
      "payable": false,
      "stateMutability": "nonpayable",
      "type": "function"
    },
    {
      "constant": true,
      "inputs": [
        {
          "name": "tokenId",
          "type": "uint32"
        }
      ],
      "name": "getCreationTime",
      "outputs": [
        {
          "name": "",
          "type": "uint32"
        }
      ],
      "payable": false,
      "stateMutability": "view",
      "type": "function"
    },
    {
      "constant": true,
      "inputs": [
        {
          "name": "tokenId",
          "type": "uint32"
        }
      ],
      "name": "getOwnershipModified",
      "outputs": [
        {
          "name": "",
          "type": "uint32"
        }
      ],
      "payable": false,
      "stateMutability": "view",
      "type": "function"
    },
    {
      "constant": true,
      "inputs": [
        {
          "name": "who",
          "type": "address"
        }
      ],
      "name": "balanceOf",
      "outputs": [
        {
          "name": "",
          "type": "uint32"
        }
      ],
      "payable": false,
      "stateMutability": "view",
      "type": "function"
    },
    {
      "constant": true,
      "inputs": [
        {
          "name": "tokenId",
          "type": "uint32"
        }
      ],
      "name": "exists",
      "outputs": [
        {
          "name": "",
          "type": "bool"
        }
      ],
      "payable": false,
      "stateMutability": "view",
      "type": "function"
    },
    {
      "constant": true,
      "inputs": [
        {
          "name": "tokenId",
          "type": "uint32"
        }
      ],
      "name": "ownerOf",
      "outputs": [
        {
          "name": "",
          "type": "address"
        }
      ],
      "payable": false,
      "stateMutability": "view",
      "type": "function"
    },
    {
      "constant": false,
      "inputs": [
        {
          "name": "to",
          "type": "address"
        },
        {
          "name": "tokenId",
          "type": "uint32"
        },
        {
          "name": "plotId",
          "type": "uint32"
        },
        {
          "name": "depth",
          "type": "uint16"
        },
        {
          "name": "gemNum",
          "type": "uint16"
        },
        {
          "name": "color",
          "type": "uint8"
        },
        {
          "name": "level",
          "type": "uint8"
        },
        {
          "name": "gradeType",
          "type": "uint8"
        },
        {
          "name": "gradeValue",
          "type": "uint8"
        }
      ],
      "name": "mint",
      "outputs": [],
      "payable": false,
      "stateMutability": "nonpayable",
      "type": "function"
    },
    {
      "constant": false,
      "inputs": [
        {
          "name": "to",
          "type": "address"
        },
        {
          "name": "tokenId",
          "type": "uint32"
        }
      ],
      "name": "transferToken",
      "outputs": [],
      "payable": false,
      "stateMutability": "nonpayable",
      "type": "function"
    },
    {
      "constant": false,
      "inputs": [
        {
          "name": "from",
          "type": "address"
        },
        {
          "name": "to",
          "type": "address"
        },
        {
          "name": "tokenId",
          "type": "uint32"
        }
      ],
      "name": "transferTokenFrom",
      "outputs": [],
      "payable": false,
      "stateMutability": "nonpayable",
      "type": "function"
    },
    {
      "constant": false,
      "inputs": [
        {
          "name": "to",
          "type": "address"
        },
        {
          "name": "tokenId",
          "type": "uint32"
        }
      ],
      "name": "approveToken",
      "outputs": [],
      "payable": false,
      "stateMutability": "nonpayable",
      "type": "function"
    },
    {
      "constant": false,
      "inputs": [
        {
          "name": "tokenId",
          "type": "uint32"
        }
      ],
      "name": "revokeApproval",
      "outputs": [],
      "payable": false,
      "stateMutability": "nonpayable",
      "type": "function"
    },
    {
      "constant": false,
      "inputs": [
        {
          "name": "to",
          "type": "address"
        },
        {
          "name": "approved",
          "type": "bool"
        }
      ],
      "name": "setApprovalForAll",
      "outputs": [],
      "payable": false,
      "stateMutability": "nonpayable",
      "type": "function"
    },
    {
      "constant": false,
      "inputs": [
        {
          "name": "to",
          "type": "address"
        },
        {
          "name": "approved",
          "type": "uint256"
        }
      ],
      "name": "approve",
      "outputs": [],
      "payable": false,
      "stateMutability": "nonpayable",
      "type": "function"
    }
  ],
  "bytecode": "0x60806040526001600660046101000a81548167ffffffffffffffff021916908367ffffffffffffffff1602179055507fffffffffffffffffffffffffffffffffffffffffffffffffffffffffffffffff600160003373ffffffffffffffffffffffffffffffffffffffff1673ffffffffffffffffffffffffffffffffffffffff168152602001908152602001600020819055506148b7806100a16000396000f3006080604052600436106102ca576000357c0100000000000000000000000000000000000000000000000000000000900463ffffffff168063034ac7a3146102cf57806306fdde0314610306578063095ea7b3146103965780630f7fa72f146103e3578063126f7e9f1461043057806313c369ed1461048357806317c163e9146104ce57806318160ddd1461050557806323b7ec3b1461053c5780632b521416146105af578063313ce567146105da578063328921771461060b5780633302bbf31461064257806337300c85146106795780633862ea9d146106ba578063482cd35a146106f95780634932488c1461074657806349a764cd146107de5780634cc41f021461084b578063557f0b481461089e578063604a7095146108c957806366b7bc1014610a0d578063676c10c414610a5c57806367e24b1014610aaf57806370a0823114610b0257806371c6fb5114610b6557806374d5e10014610bb2578063761e0d2d14610c0957806379db5f6714610c485780637e86169014610c955780637fde1c8a14610cf05780638353bb5114610d3d578063843458ca14610d7457806387d3764b14610dc35780638d4e57e614610dfa5780638e02cc1514610e315780638f6fba8c14610ea457806395d89b4114610edb57806399ea4fb214610f6b578063a0b6e6491461101e578063a22cb46514611091578063a4cfab85146110e0578063a592c02f14611133578063a8194a381461117a578063a9a4136c146111cd578063aa4d4cfd1461121a578063ac8a584a14611268578063b24834fb146112ab578063b2cad9b7146112fe578063c01ec7a91461134b578063c0d6568d1461139e578063d5bb7f67146113d5578063dd62ed3e14611402578063de9bf5dd14611479578063e1e1e135146114ac578063e40de88714611507578063ebc82b471461159f578063f5327aa9146115ee578063f83c001414611641578063f8a2449f14611674575b600080fd5b3480156102db57600080fd5b506102e46116ab565b604051808263ffffffff1663ffffffff16815260200191505060405180910390f35b34801561031257600080fd5b5061031b6116b2565b6040518080602001828103825283818151815260200191508051906020019080838360005b8381101561035b578082015181840152602081019050610340565b50505050905090810190601f1680156103885780820380516001836020036101000a031916815260200191505b509250505060405180910390f35b3480156103a257600080fd5b506103e1600480360381019080803573ffffffffffffffffffffffffffffffffffffffff169060200190929190803590602001909291905050506116eb565b005b3480156103ef57600080fd5b5061042e600480360381019080803573ffffffffffffffffffffffffffffffffffffffff16906020019092919080359060200190929190505050611852565b005b34801561043c57600080fd5b50610461600480360381019080803563ffffffff169060200190929190505050611a07565b604051808263ffffffff1663ffffffff16815260200191505060405180910390f35b34801561048f57600080fd5b506104b4600480360381019080803563ffffffff169060200190929190505050611a57565b604051808215151515815260200191505060405180910390f35b3480156104da57600080fd5b506104e3611ad2565b604051808263ffffffff1663ffffffff16815260200191505060405180910390f35b34801561051157600080fd5b5061051a611ad9565b604051808263ffffffff1663ffffffff16815260200191505060405180910390f35b34801561054857600080fd5b5061056d600480360381019080803563ffffffff169060200190929190505050611aef565b604051808273ffffffffffffffffffffffffffffffffffffffff1673ffffffffffffffffffffffffffffffffffffffff16815260200191505060405180910390f35b3480156105bb57600080fd5b506105c4611b4f565b6040518082815260200191505060405180910390f35b3480156105e657600080fd5b506105ef611b55565b604051808260ff1660ff16815260200191505060405180910390f35b34801561061757600080fd5b50610620611b5a565b604051808263ffffffff1663ffffffff16815260200191505060405180910390f35b34801561064e57600080fd5b50610657611b5f565b604051808263ffffffff1663ffffffff16815260200191505060405180910390f35b34801561068557600080fd5b506106b8600480360381019080803563ffffffff169060200190929190803561ffff169060200190929190505050611b65565b005b3480156106c657600080fd5b506106cf611cda565b604051808267ffffffffffffffff1667ffffffffffffffff16815260200191505060405180910390f35b34801561070557600080fd5b5061072a600480360381019080803563ffffffff169060200190929190505050611cf4565b604051808260ff1660ff16815260200191505060405180910390f35b34801561075257600080fd5b50610787600480360381019080803573ffffffffffffffffffffffffffffffffffffffff169060200190929190505050611d06565b6040518080602001828103825283818151815260200191508051906020019060200280838360005b838110156107ca5780820151818401526020810190506107af565b505050509050019250505060405180910390f35b3480156107ea57600080fd5b50610829600480360381019080803573ffffffffffffffffffffffffffffffffffffffff16906020019092919080359060200190929190505050611e10565b604051808263ffffffff1663ffffffff16815260200191505060405180910390f35b34801561085757600080fd5b5061089c600480360381019080803573ffffffffffffffffffffffffffffffffffffffff169060200190929190803563ffffffff169060200190929190505050611e58565b005b3480156108aa57600080fd5b506108b3612056565b6040518082815260200191505060405180910390f35b3480156108d557600080fd5b506108fa600480360381019080803563ffffffff16906020019092919050505061207a565b604051808d67ffffffffffffffff1667ffffffffffffffff1681526020018c60ff1660ff1681526020018b63ffffffff1663ffffffff1681526020018a60ff1660ff1681526020018963ffffffff1663ffffffff1681526020018861ffff1661ffff1681526020018763ffffffff1663ffffffff1681526020018667ffffffffffffffff1667ffffffffffffffff1681526020018563ffffffff1663ffffffff1681526020018463ffffffff1663ffffffff1681526020018363ffffffff1663ffffffff1681526020018273ffffffffffffffffffffffffffffffffffffffff1673ffffffffffffffffffffffffffffffffffffffff1681526020019c5050505050505050505050505060405180910390f35b348015610a1957600080fd5b50610a3e600480360381019080803563ffffffff1690602001909291905050506121aa565b604051808261ffff1661ffff16815260200191505060405180910390f35b348015610a6857600080fd5b50610a8d600480360381019080803563ffffffff1690602001909291905050506121bc565b604051808263ffffffff1663ffffffff16815260200191505060405180910390f35b348015610abb57600080fd5b50610ae0600480360381019080803563ffffffff16906020019092919050505061220c565b604051808263ffffffff1663ffffffff16815260200191505060405180910390f35b348015610b0e57600080fd5b50610b43600480360381019080803573ffffffffffffffffffffffffffffffffffffffff169060200190929190505050612491565b604051808263ffffffff1663ffffffff16815260200191505060405180910390f35b348015610b7157600080fd5b50610b96600480360381019080803563ffffffff1690602001909291905050506124dd565b604051808260ff1660ff16815260200191505060405180910390f35b348015610bbe57600080fd5b50610bf3600480360381019080803573ffffffffffffffffffffffffffffffffffffffff16906020019092919050505061252a565b6040518082815260200191505060405180910390f35b348015610c1557600080fd5b50610c1e612542565b604051808267ffffffffffffffff1667ffffffffffffffff16815260200191505060405180910390f35b348015610c5457600080fd5b50610c93600480360381019080803573ffffffffffffffffffffffffffffffffffffffff16906020019092919080359060200190929190505050612547565b005b348015610ca157600080fd5b50610cc6600480360381019080803563ffffffff1690602001909291905050506126d9565b604051808267ffffffffffffffff1667ffffffffffffffff16815260200191505060405180910390f35b348015610cfc57600080fd5b50610d3b600480360381019080803573ffffffffffffffffffffffffffffffffffffffff1690602001909291908035906020019092919050505061272d565b005b348015610d4957600080fd5b50610d526128ec565b604051808263ffffffff1663ffffffff16815260200191505060405180910390f35b348015610d8057600080fd5b50610da5600480360381019080803563ffffffff1690602001909291905050506128f3565b604051808261ffff1661ffff16815260200191505060405180910390f35b348015610dcf57600080fd5b50610dd8612941565b604051808263ffffffff1663ffffffff16815260200191505060405180910390f35b348015610e0657600080fd5b50610e0f612948565b604051808263ffffffff1663ffffffff16815260200191505060405180910390f35b348015610e3d57600080fd5b50610ea2600480360381019080803573ffffffffffffffffffffffffffffffffffffffff169060200190929190803573ffffffffffffffffffffffffffffffffffffffff169060200190929190803563ffffffff16906020019092919050505061294f565b005b348015610eb057600080fd5b50610eb9612aed565b604051808263ffffffff1663ffffffff16815260200191505060405180910390f35b348015610ee757600080fd5b50610ef0612af2565b6040518080602001828103825283818151815260200191508051906020019080838360005b83811015610f30578082015181840152602081019050610f15565b50505050905090810190601f168015610f5d5780820380516001836020036101000a031916815260200191505b509250505060405180910390f35b348015610f7757600080fd5b5061101c600480360381019080803573ffffffffffffffffffffffffffffffffffffffff169060200190929190803563ffffffff169060200190929190803563ffffffff169060200190929190803561ffff169060200190929190803561ffff169060200190929190803560ff169060200190929190803560ff169060200190929190803560ff169060200190929190803560ff169060200190929190505050612b2b565b005b34801561102a57600080fd5b5061104f600480360381019080803563ffffffff169060200190929190505050612c42565b604051808273ffffffffffffffffffffffffffffffffffffffff1673ffffffffffffffffffffffffffffffffffffffff16815260200191505060405180910390f35b34801561109d57600080fd5b506110de600480360381019080803573ffffffffffffffffffffffffffffffffffffffff169060200190929190803515159060200190929190505050612c75565b005b3480156110ec57600080fd5b50611111600480360381019080803563ffffffff169060200190929190505050612cb0565b604051808263ffffffff1663ffffffff16815260200191505060405180910390f35b34801561113f57600080fd5b50611178600480360381019080803563ffffffff169060200190929190803567ffffffffffffffff169060200190929190505050612d00565b005b34801561118657600080fd5b506111ab600480360381019080803563ffffffff169060200190929190505050612e47565b604051808263ffffffff1663ffffffff16815260200191505060405180910390f35b3480156111d957600080fd5b506111fe600480360381019080803563ffffffff169060200190929190505050612e6b565b604051808260ff1660ff16815260200191505060405180910390f35b34801561122657600080fd5b5061124b600480360381019080803563ffffffff169060200190929190505050612e89565b604051808381526020018281526020019250505060405180910390f35b34801561127457600080fd5b506112a9600480360381019080803573ffffffffffffffffffffffffffffffffffffffff16906020019092919050505061332f565b005b3480156112b757600080fd5b506112dc600480360381019080803563ffffffff169060200190929190505050613504565b604051808263ffffffff1663ffffffff16815260200191505060405180910390f35b34801561130a57600080fd5b5061132f600480360381019080803563ffffffff169060200190929190505050613554565b604051808260ff1660ff16815260200191505060405180910390f35b34801561135757600080fd5b5061139c600480360381019080803573ffffffffffffffffffffffffffffffffffffffff169060200190929190803563ffffffff1690602001909291905050506135a1565b005b3480156113aa57600080fd5b506113b36135d1565b604051808263ffffffff1663ffffffff16815260200191505060405180910390f35b3480156113e157600080fd5b50611400600480360381019080803590602001909291905050506135d6565b005b34801561140e57600080fd5b50611463600480360381019080803573ffffffffffffffffffffffffffffffffffffffff169060200190929190803573ffffffffffffffffffffffffffffffffffffffff1690602001909291905050506136fa565b6040518082815260200191505060405180910390f35b34801561148557600080fd5b506114aa600480360381019080803563ffffffff16906020019092919050505061371f565b005b3480156114b857600080fd5b506114dd600480360381019080803563ffffffff16906020019092919050505061388f565b604051808267ffffffffffffffff1667ffffffffffffffff16815260200191505060405180910390f35b34801561151357600080fd5b50611548600480360381019080803573ffffffffffffffffffffffffffffffffffffffff1690602001909291905050506138e3565b6040518080602001828103825283818151815260200191508051906020019060200280838360005b8381101561158b578082015181840152602081019050611570565b505050509050019250505060405180910390f35b3480156115ab57600080fd5b506115d0600480360381019080803563ffffffff1690602001909291905050506139a6565b604051808261ffff1661ffff16815260200191505060405180910390f35b3480156115fa57600080fd5b5061161f600480360381019080803563ffffffff1690602001909291905050506139ca565b604051808263ffffffff1663ffffffff16815260200191505060405180910390f35b34801561164d57600080fd5b50611672600480360381019080803563ffffffff169060200190929190505050613a1a565b005b34801561168057600080fd5b506116a9600480360381019080803567ffffffffffffffff169060200190929190505050613a28565b005b6220000081565b6040805190810160405280601981526020017f47454d20e280932043727970746f4d696e657220576f726c640000000000000081525081565b6000339050600073ffffffffffffffffffffffffffffffffffffffff168373ffffffffffffffffffffffffffffffffffffffff161415151561172c57600080fd5b8073ffffffffffffffffffffffffffffffffffffffff168373ffffffffffffffffffffffffffffffffffffffff161415151561176757600080fd5b81600460008373ffffffffffffffffffffffffffffffffffffffff1673ffffffffffffffffffffffffffffffffffffffff16815260200190815260200160002060008573ffffffffffffffffffffffffffffffffffffffff1673ffffffffffffffffffffffffffffffffffffffff168152602001908152602001600020819055508273ffffffffffffffffffffffffffffffffffffffff168173ffffffffffffffffffffffffffffffffffffffff167f8c5be1e5ebec7d5bd14f71427d1e84f3dd0314c0f7b2291e5b200ac8c7c3b925846040518082815260200191505060405180910390a3505050565b6000806000339250600160008473ffffffffffffffffffffffffffffffffffffffff1673ffffffffffffffffffffffffffffffffffffffff1681526020019081526020016000205491506000600160008773ffffffffffffffffffffffffffffffffffffffff1673ffffffffffffffffffffffffffffffffffffffff168152602001908152602001600020541415156118ea57600080fd5b6118f8826310000000613a71565b151561190357600080fd5b81841690506000811415151561191857600080fd5b80600160008773ffffffffffffffffffffffffffffffffffffffff1673ffffffffffffffffffffffffffffffffffffffff168152602001908152602001600020819055508473ffffffffffffffffffffffffffffffffffffffff168373ffffffffffffffffffffffffffffffffffffffff167fde4cd40876c200276a5c070f12c8512913143450b14c88bfaa4245b24a5092af600160008973ffffffffffffffffffffffffffffffffffffffff1673ffffffffffffffffffffffffffffffffffffffff168152602001908152602001600020546040518082815260200191505060405180910390a35050505050565b6000611a1282611a57565b1515611a1d57600080fd5b600260008363ffffffff1663ffffffff168152602001908152602001600020600001600e9054906101000a900463ffffffff169050919050565b60008073ffffffffffffffffffffffffffffffffffffffff16600260008463ffffffff1663ffffffff168152602001908152602001600020600101600c9054906101000a900473ffffffffffffffffffffffffffffffffffffffff1673ffffffffffffffffffffffffffffffffffffffff1614159050919050565b6280000081565b600660009054906101000a900463ffffffff1681565b6000611afa82611a57565b1515611b0557600080fd5b600260008363ffffffff1663ffffffff168152602001908152602001600020600101600c9054906101000a900473ffffffffffffffffffffffffffffffffffffffff169050919050565b60005481565b600081565b600181565b61040081565b611b776220000063ffffffff16613a80565b1515611b8257600080fd5b611b8b82611a57565b1515611b9657600080fd5b43600260008463ffffffff1663ffffffff168152602001908152602001600020600001600e6101000a81548163ffffffff021916908363ffffffff1602179055508061ffff16600260008463ffffffff1663ffffffff16815260200190815260200160002060000160129054906101000a900461ffff1661ffff16101515611c1d57600080fd5b80600260008463ffffffff1663ffffffff16815260200190815260200160002060000160126101000a81548161ffff021916908361ffff1602179055508163ffffffff16611c6a83611aef565b73ffffffffffffffffffffffffffffffffffffffff163373ffffffffffffffffffffffffffffffffffffffff167f34d43830ebfc611083edd0904a9bc4ef5d4d3cefb30773016162239f1ec8e63484604051808261ffff1661ffff16815260200191505060405180910390a45050565b600660049054906101000a900467ffffffffffffffff1681565b6000611cff826128f3565b9050919050565b606080600060606000806000611d1b886138e3565b9550855194508463ffffffff16604051908082528060200260200182016040528015611d565781602001602082028038833980820191505090505b509350600092505b8463ffffffff168363ffffffff161015611e0257858363ffffffff16815181101515611d8657fe5b906020019060200201519150611d9b8261220c565b90508063ffffffff1660208363ffffffff1667ffffffffffffffff169060020a0217848463ffffffff16815181101515611dd157fe5b9060200190602002019067ffffffffffffffff16908167ffffffffffffffff16815250508280600101935050611d5e565b839650505050505050919050565b600560205281600052604060002081815481101515611e2b57fe5b9060005260206000209060089182820401919006600402915091509054906101000a900463ffffffff1681565b600080339150611e6783611aef565b90508073ffffffffffffffffffffffffffffffffffffffff168273ffffffffffffffffffffffffffffffffffffffff16141515611ea357600080fd5b8073ffffffffffffffffffffffffffffffffffffffff168473ffffffffffffffffffffffffffffffffffffffff1614151515611ede57600080fd5b600073ffffffffffffffffffffffffffffffffffffffff16600360008563ffffffff1663ffffffff16815260200190815260200160002060009054906101000a900473ffffffffffffffffffffffffffffffffffffffff1673ffffffffffffffffffffffffffffffffffffffff16141580611f865750600073ffffffffffffffffffffffffffffffffffffffff168473ffffffffffffffffffffffffffffffffffffffff1614155b1515611f9157600080fd5b83600360008563ffffffff1663ffffffff16815260200190815260200160002060006101000a81548173ffffffffffffffffffffffffffffffffffffffff021916908373ffffffffffffffffffffffffffffffffffffffff1602179055508263ffffffff168473ffffffffffffffffffffffffffffffffffffffff168373ffffffffffffffffffffffffffffffffffffffff167f0d6e5c76723051d2dc8dd38619342e816d6324b8effa1b78c4052edfcbabfd2260405160405180910390a450505050565b7fffffffffffffffffffffffffffffffffffffffffffffffffffffffffffffffff81565b60026020528060005260406000206000915090508060000160009054906101000a900467ffffffffffffffff16908060000160089054906101000a900460ff16908060000160099054906101000a900463ffffffff169080600001600d9054906101000a900460ff169080600001600e9054906101000a900463ffffffff16908060000160129054906101000a900461ffff16908060000160149054906101000a900463ffffffff16908060000160189054906101000a900467ffffffffffffffff16908060010160009054906101000a900463ffffffff16908060010160049054906101000a900463ffffffff16908060010160089054906101000a900463ffffffff169080600101600c9054906101000a900473ffffffffffffffffffffffffffffffffffffffff1690508c565b60006121b58261388f565b9050919050565b60006121c782611a57565b15156121d257600080fd5b600260008363ffffffff1663ffffffff16815260200190815260200160002060010160009054906101000a900463ffffffff169050919050565b6000612216614772565b61221f83611a57565b151561222a57600080fd5b600260008463ffffffff1663ffffffff16815260200190815260200160002061018060405190810160405290816000820160009054906101000a900467ffffffffffffffff1667ffffffffffffffff1667ffffffffffffffff1681526020016000820160089054906101000a900460ff1660ff1660ff1681526020016000820160099054906101000a900463ffffffff1663ffffffff1663ffffffff16815260200160008201600d9054906101000a900460ff1660ff1660ff16815260200160008201600e9054906101000a900463ffffffff1663ffffffff1663ffffffff1681526020016000820160129054906101000a900461ffff1661ffff1661ffff1681526020016000820160149054906101000a900463ffffffff1663ffffffff1663ffffffff1681526020016000820160189054906101000a900467ffffffffffffffff1667ffffffffffffffff1667ffffffffffffffff1681526020016001820160009054906101000a900463ffffffff1663ffffffff1663ffffffff1681526020016001820160049054906101000a900463ffffffff1663ffffffff1663ffffffff1681526020016001820160089054906101000a900463ffffffff1663ffffffff1663ffffffff16815260200160018201600c9054906101000a900473ffffffffffffffffffffffffffffffffffffffff1673ffffffffffffffffffffffffffffffffffffffff1673ffffffffffffffffffffffffffffffffffffffff168152505090508060a0015161ffff166010826060015160ff1662ffffff169060020a0262ffffff166018836020015160ff1663ffffffff169060020a021717915050919050565b6000600560008373ffffffffffffffffffffffffffffffffffffffff1673ffffffffffffffffffffffffffffffffffffffff168152602001908152602001600020805490509050919050565b60006124e882611a57565b15156124f357600080fd5b600260008363ffffffff1663ffffffff16815260200190815260200160002060000160089054906101000a900460ff169050919050565b60016020528060005260406000206000915090505481565b600181565b6000806000339250600160008473ffffffffffffffffffffffffffffffffffffffff1673ffffffffffffffffffffffffffffffffffffffff16815260200190815260200160002054915061259f826310000000613a71565b15156125aa57600080fd5b8184169050600081141515156125bf57600080fd5b807fffffffffffffffffffffffffffffffffffffffffffffffffffffffffffffffff18600160008773ffffffffffffffffffffffffffffffffffffffff1673ffffffffffffffffffffffffffffffffffffffff168152602001908152602001600020600082825416925050819055508473ffffffffffffffffffffffffffffffffffffffff168373ffffffffffffffffffffffffffffffffffffffff167fde4cd40876c200276a5c070f12c8512913143450b14c88bfaa4245b24a5092af600160008973ffffffffffffffffffffffffffffffffffffffff1673ffffffffffffffffffffffffffffffffffffffff168152602001908152602001600020546040518082815260200191505060405180910390a35050505050565b60006126e482611a57565b15156126ef57600080fd5b600260008363ffffffff1663ffffffff16815260200190815260200160002060000160189054906101000a900467ffffffffffffffff169050919050565b6000806000339250600160008473ffffffffffffffffffffffffffffffffffffffff1673ffffffffffffffffffffffffffffffffffffffff1681526020019081526020016000205491506000600160008773ffffffffffffffffffffffffffffffffffffffff1673ffffffffffffffffffffffffffffffffffffffff16815260200190815260200160002054141515156127c657600080fd5b6127d4826310000000613a71565b15156127df57600080fd5b8184169050600081141515156127f457600080fd5b80600160008773ffffffffffffffffffffffffffffffffffffffff1673ffffffffffffffffffffffffffffffffffffffff168152602001908152602001600020600082825417925050819055508473ffffffffffffffffffffffffffffffffffffffff168373ffffffffffffffffffffffffffffffffffffffff167fde4cd40876c200276a5c070f12c8512913143450b14c88bfaa4245b24a5092af600160008973ffffffffffffffffffffffffffffffffffffffff1673ffffffffffffffffffffffffffffffffffffffff168152602001908152602001600020546040518082815260200191505060405180910390a35050505050565b6240000081565b60006128fe82611a57565b151561290957600080fd5b600260008363ffffffff1663ffffffff16815260200190815260200160002060000160129054906101000a900461ffff169050919050565b6210000081565b6204000081565b6000806000612964600263ffffffff16613ad7565b151561296f57600080fd5b339250600360008563ffffffff1663ffffffff16815260200190815260200160002060009054906101000a900473ffffffffffffffffffffffffffffffffffffffff169150600460008773ffffffffffffffffffffffffffffffffffffffff1673ffffffffffffffffffffffffffffffffffffffff16815260200190815260200160002060008473ffffffffffffffffffffffffffffffffffffffff1673ffffffffffffffffffffffffffffffffffffffff1681526020019081526020016000205490508173ffffffffffffffffffffffffffffffffffffffff168373ffffffffffffffffffffffffffffffffffffffff161480612a6e575060008114155b15612a8457612a7f86846001613aec565b612ada565b8273ffffffffffffffffffffffffffffffffffffffff168673ffffffffffffffffffffffffffffffffffffffff16141515612abe57600080fd5b612ace600163ffffffff16613ad7565b1515612ad957600080fd5b5b612ae5868686613c78565b505050505050565b600281565b6040805190810160405280600381526020017f47454d000000000000000000000000000000000000000000000000000000000081525081565b600073ffffffffffffffffffffffffffffffffffffffff168973ffffffffffffffffffffffffffffffffffffffff1614151515612b6757600080fd5b3073ffffffffffffffffffffffffffffffffffffffff168973ffffffffffffffffffffffffffffffffffffffff1614151515612ba257600080fd5b612bb46204000063ffffffff16613a80565b1515612bbf57600080fd5b612bd0898989898989898989613e97565b8873ffffffffffffffffffffffffffffffffffffffff16600073ffffffffffffffffffffffffffffffffffffffff167fddf252ad1be2c89b69c2b068fc378daa952ba7f163c4a11628f55a4df523b3ef60016040518082815260200191505060405180910390a3505050505050505050565b60036020528060005260406000206000915054906101000a900473ffffffffffffffffffffffffffffffffffffffff1681565b612cac8282612c85576000612ca7565b7fffffffffffffffffffffffffffffffffffffffffffffffffffffffffffffffff5b6116eb565b5050565b6000612cbb82611a57565b1515612cc657600080fd5b600260008363ffffffff1663ffffffff16815260200190815260200160002060010160089054906101000a900463ffffffff169050919050565b612d126240000063ffffffff16613a80565b1515612d1d57600080fd5b612d2682611a57565b1515612d3157600080fd5b43600260008463ffffffff1663ffffffff16815260200190815260200160002060000160146101000a81548163ffffffff021916908363ffffffff16021790555080600260008463ffffffff1663ffffffff16815260200190815260200160002060000160186101000a81548167ffffffffffffffff021916908367ffffffffffffffff1602179055508163ffffffff16612dcb83611aef565b73ffffffffffffffffffffffffffffffffffffffff163373ffffffffffffffffffffffffffffffffffffffff167f41cb89a81ad22e9b039518d0accca32711b2fcb9854dc83a70f296082f85dfb584604051808267ffffffffffffffff1667ffffffffffffffff16815260200191505060405180910390a45050565b60006020612e548361388f565b67ffffffffffffffff169060020a90049050919050565b60006008612e78836128f3565b61ffff169060020a90049050919050565b600080612e94614772565b600080612ea086611a57565b1515612eab57600080fd5b600260008763ffffffff1663ffffffff16815260200190815260200160002061018060405190810160405290816000820160009054906101000a900467ffffffffffffffff1667ffffffffffffffff1667ffffffffffffffff1681526020016000820160089054906101000a900460ff1660ff1660ff1681526020016000820160099054906101000a900463ffffffff1663ffffffff1663ffffffff16815260200160008201600d9054906101000a900460ff1660ff1660ff16815260200160008201600e9054906101000a900463ffffffff1663ffffffff1663ffffffff1681526020016000820160129054906101000a900461ffff1661ffff1661ffff1681526020016000820160149054906101000a900463ffffffff1663ffffffff1663ffffffff1681526020016000820160189054906101000a900467ffffffffffffffff1667ffffffffffffffff1667ffffffffffffffff1681526020016001820160009054906101000a900463ffffffff1663ffffffff1663ffffffff1681526020016001820160049054906101000a900463ffffffff1663ffffffff1663ffffffff1681526020016001820160089054906101000a900463ffffffff1663ffffffff1663ffffffff16815260200160018201600c9054906101000a900473ffffffffffffffffffffffffffffffffffffffff1673ffffffffffffffffffffffffffffffffffffffff1673ffffffffffffffffffffffffffffffffffffffff168152505092508260e0015167ffffffffffffffff1660408460c0015163ffffffff166bffffffffffffffffffffffff169060020a026bffffffffffffffffffffffff1660608560a0015161ffff166dffffffffffffffffffffffffffff169060020a026dffffffffffffffffffffffffffff166070866080015163ffffffff1671ffffffffffffffffffffffffffffffffffff169060020a0271ffffffffffffffffffffffffffffffffffff166090876060015160ff1672ffffffffffffffffffffffffffffffffffffff169060020a0272ffffffffffffffffffffffffffffffffffffff166098886040015163ffffffff1676ffffffffffffffffffffffffffffffffffffffffffffff169060020a0276ffffffffffffffffffffffffffffffffffffffffffffff1660b8896020015160ff1677ffffffffffffffffffffffffffffffffffffffffffffffff169060020a0277ffffffffffffffffffffffffffffffffffffffffffffffff1660c08a6000015167ffffffffffffffff169060020a0217171717171717915082610160015173ffffffffffffffffffffffffffffffffffffffff1660a084610140015163ffffffff1677ffffffffffffffffffffffffffffffffffffffffffffffff169060020a0277ffffffffffffffffffffffffffffffffffffffffffffffff1660c085610120015163ffffffff167bffffffffffffffffffffffffffffffffffffffffffffffffffffffff169060020a027bffffffffffffffffffffffffffffffffffffffffffffffffffffffff1660e086610100015163ffffffff169060020a021717179050818194509450505050915091565b60003390506000600160008473ffffffffffffffffffffffffffffffffffffffff1673ffffffffffffffffffffffffffffffffffffffff168152602001908152602001600020541415151561338357600080fd5b8073ffffffffffffffffffffffffffffffffffffffff168273ffffffffffffffffffffffffffffffffffffffff16141515156133be57600080fd5b61344c600160008373ffffffffffffffffffffffffffffffffffffffff1673ffffffffffffffffffffffffffffffffffffffff16815260200190815260200160002054600160008573ffffffffffffffffffffffffffffffffffffffff1673ffffffffffffffffffffffffffffffffffffffff16815260200190815260200160002054631000000017613a71565b151561345757600080fd5b600160008373ffffffffffffffffffffffffffffffffffffffff1673ffffffffffffffffffffffffffffffffffffffff168152602001908152602001600020600090558173ffffffffffffffffffffffffffffffffffffffff168173ffffffffffffffffffffffffffffffffffffffff167fde4cd40876c200276a5c070f12c8512913143450b14c88bfaa4245b24a5092af60006040518082815260200191505060405180910390a35050565b600061350f82611a57565b151561351a57600080fd5b600260008363ffffffff1663ffffffff16815260200190815260200160002060000160149054906101000a900463ffffffff169050919050565b600061355f82611a57565b151561356a57600080fd5b600260008363ffffffff1663ffffffff168152602001908152602001600020600001600d9054906101000a900460ff169050919050565b60006135b3600163ffffffff16613ad7565b15156135be57600080fd5b3390506135cc818484613c78565b505050565b600181565b600080339150600160008373ffffffffffffffffffffffffffffffffffffffff1673ffffffffffffffffffffffffffffffffffffffff16815260200190815260200160002054905061362c816320000000613a71565b151561363757600080fd5b8281166000808282541792505081905550827fffffffffffffffffffffffffffffffffffffffffffffffffffffffffffffffff1881167fffffffffffffffffffffffffffffffffffffffffffffffffffffffffffffffff1860008082825416925050819055508173ffffffffffffffffffffffffffffffffffffffff167fd7561eaef77f105dc0c307bfb23c571f603f07bb7db5766a68840742fde80b8984600054604051808381526020018281526020019250505060405180910390a2505050565b6004602052816000526040600020602052806000526040600020600091509150505481565b6137316210000063ffffffff16613a80565b151561373c57600080fd5b61374581611a57565b151561375057600080fd5b43600260008363ffffffff1663ffffffff16815260200190815260200160002060000160096101000a81548163ffffffff021916908363ffffffff160217905550600260008263ffffffff1663ffffffff168152602001908152602001600020600001600d81819054906101000a900460ff168092919060010191906101000a81548160ff021916908360ff160217905550508063ffffffff166137f382611aef565b73ffffffffffffffffffffffffffffffffffffffff163373ffffffffffffffffffffffffffffffffffffffff167fd69544f7e666bb80a654326c87982a15e07c933e375d8f4c457f9bfcd12e5835600260008663ffffffff1663ffffffff168152602001908152602001600020600001600d9054906101000a900460ff16604051808260ff1660ff16815260200191505060405180910390a450565b600061389a82611a57565b15156138a557600080fd5b600260008363ffffffff1663ffffffff16815260200190815260200160002060000160009054906101000a900467ffffffffffffffff169050919050565b6060600560008373ffffffffffffffffffffffffffffffffffffffff1673ffffffffffffffffffffffffffffffffffffffff16815260200190815260200160002080548060200260200160405190810160405280929190818152602001828054801561399a57602002820191906000526020600020906000905b82829054906101000a900463ffffffff1663ffffffff168152602001906004019060208260030104928301926001038202915080841161395d5790505b50505050509050919050565b600060106139b38361388f565b67ffffffffffffffff169060020a90049050919050565b60006139d582611a57565b15156139e057600080fd5b600260008363ffffffff1663ffffffff16815260200190815260200160002060000160099054906101000a900463ffffffff169050919050565b613a25600082611e58565b50565b613a3a6280000063ffffffff16613a80565b1515613a4557600080fd5b80600660046101000a81548167ffffffffffffffff021916908367ffffffffffffffff16021790555050565b60008182841614905092915050565b600080600160003373ffffffffffffffffffffffffffffffffffffffff1673ffffffffffffffffffffffffffffffffffffffff168152602001908152602001600020549050613acf8184613a71565b915050919050565b6000613ae560005483613a71565b9050919050565b6000600460008573ffffffffffffffffffffffffffffffffffffffff1673ffffffffffffffffffffffffffffffffffffffff16815260200190815260200160002060008473ffffffffffffffffffffffffffffffffffffffff1673ffffffffffffffffffffffffffffffffffffffff168152602001908152602001600020549050600081141515613c7257818111613b85576000613b89565b8181035b905080600460008673ffffffffffffffffffffffffffffffffffffffff1673ffffffffffffffffffffffffffffffffffffffff16815260200190815260200160002060008573ffffffffffffffffffffffffffffffffffffffff1673ffffffffffffffffffffffffffffffffffffffff168152602001908152602001600020819055508273ffffffffffffffffffffffffffffffffffffffff168473ffffffffffffffffffffffffffffffffffffffff167f8c5be1e5ebec7d5bd14f71427d1e84f3dd0314c0f7b2291e5b200ac8c7c3b925836040518082815260200191505060405180910390a35b50505050565b600073ffffffffffffffffffffffffffffffffffffffff168273ffffffffffffffffffffffffffffffffffffffff1614151515613cb457600080fd5b8273ffffffffffffffffffffffffffffffffffffffff168273ffffffffffffffffffffffffffffffffffffffff1614151515613cef57600080fd5b600073ffffffffffffffffffffffffffffffffffffffff168373ffffffffffffffffffffffffffffffffffffffff1614151515613d2857fe5b613d3181611a57565b1515613d3c57600080fd5b8273ffffffffffffffffffffffffffffffffffffffff16613d5c82611aef565b73ffffffffffffffffffffffffffffffffffffffff16141515613d7e57600080fd5b6000600660049054906101000a900467ffffffffffffffff16613da0836126d9565b1667ffffffffffffffff16141515613db757600080fd5b613dc0816143c0565b613dcb8383836144dd565b8063ffffffff168273ffffffffffffffffffffffffffffffffffffffff168473ffffffffffffffffffffffffffffffffffffffff167f3447ed4a2acc1f1ad4259b092855cefe879fca8179416802f42ac4a1231a5eb360405160405180910390a48173ffffffffffffffffffffffffffffffffffffffff168373ffffffffffffffffffffffffffffffffffffffff167fddf252ad1be2c89b69c2b068fc378daa952ba7f163c4a11628f55a4df523b3ef60016040518082815260200191505060405180910390a3505050565b613e9f614772565b61040063ffffffff168963ffffffff16111515613ebb57600080fd5b613ec489611a57565b151515613ed057600080fd5b610180604051908101604052808761ffff1660108a61ffff1663ffffffff169060020a0263ffffffff1660208c63ffffffff1667ffffffffffffffff169060020a02171767ffffffffffffffff1681526020018660ff168152602001600063ffffffff1681526020018560ff168152602001600063ffffffff1681526020018360ff1660088660ff1661ffff169060020a021761ffff168152602001600063ffffffff168152602001600067ffffffffffffffff1681526020014363ffffffff168152602001600560008d73ffffffffffffffffffffffffffffffffffffffff1673ffffffffffffffffffffffffffffffffffffffff1681526020019081526020016000208054905063ffffffff168152602001600063ffffffff1681526020018b73ffffffffffffffffffffffffffffffffffffffff168152509050600560008b73ffffffffffffffffffffffffffffffffffffffff1673ffffffffffffffffffffffffffffffffffffffff16815260200190815260200160002089908060018154018082558091505090600182039060005260206000209060089182820401919006600402909192909190916101000a81548163ffffffff021916908363ffffffff1602179055505080600260008b63ffffffff1663ffffffff16815260200190815260200160002060008201518160000160006101000a81548167ffffffffffffffff021916908367ffffffffffffffff16021790555060208201518160000160086101000a81548160ff021916908360ff16021790555060408201518160000160096101000a81548163ffffffff021916908363ffffffff160217905550606082015181600001600d6101000a81548160ff021916908360ff160217905550608082015181600001600e6101000a81548163ffffffff021916908363ffffffff16021790555060a08201518160000160126101000a81548161ffff021916908361ffff16021790555060c08201518160000160146101000a81548163ffffffff021916908363ffffffff16021790555060e08201518160000160186101000a81548167ffffffffffffffff021916908367ffffffffffffffff1602179055506101008201518160010160006101000a81548163ffffffff021916908363ffffffff1602179055506101208201518160010160046101000a81548163ffffffff021916908363ffffffff1602179055506101408201518160010160086101000a81548163ffffffff021916908363ffffffff16021790555061016082015181600101600c6101000a81548173ffffffffffffffffffffffffffffffffffffffff021916908373ffffffffffffffffffffffffffffffffffffffff1602179055509050506006600081819054906101000a900463ffffffff168092919060010191906101000a81548163ffffffff021916908363ffffffff160217905550508863ffffffff168a73ffffffffffffffffffffffffffffffffffffffff163373ffffffffffffffffffffffffffffffffffffffff167fad1f152c061f6e528e6e53a190e109d8a7f4c5206a07f973fcf65428c0df566260405160405180910390a48863ffffffff168a73ffffffffffffffffffffffffffffffffffffffff16600073ffffffffffffffffffffffffffffffffffffffff167f3447ed4a2acc1f1ad4259b092855cefe879fca8179416802f42ac4a1231a5eb360405160405180910390a450505050505050505050565b600073ffffffffffffffffffffffffffffffffffffffff16600360008363ffffffff1663ffffffff16815260200190815260200160002060009054906101000a900473ffffffffffffffffffffffffffffffffffffffff1673ffffffffffffffffffffffffffffffffffffffff161415156144da57600360008263ffffffff1663ffffffff16815260200190815260200160002060006101000a81549073ffffffffffffffffffffffffffffffffffffffff02191690558063ffffffff16600073ffffffffffffffffffffffffffffffffffffffff163373ffffffffffffffffffffffffffffffffffffffff167f0d6e5c76723051d2dc8dd38619342e816d6324b8effa1b78c4052edfcbabfd2260405160405180910390a45b50565b6000806000806000600260008763ffffffff1663ffffffff1681526020019081526020016000209450600560008973ffffffffffffffffffffffffffffffffffffffff1673ffffffffffffffffffffffffffffffffffffffff1681526020019081526020016000209350600560008873ffffffffffffffffffffffffffffffffffffffff1673ffffffffffffffffffffffffffffffffffffffff1681526020019081526020016000209250600084805490501415151561459957fe5b8460010160049054906101000a900463ffffffff1691508360018580549050038154811015156145c557fe5b90600052602060002090600891828204019190066004029054906101000a900463ffffffff16905081600260008363ffffffff1663ffffffff16815260200190815260200160002060010160046101000a81548163ffffffff021916908363ffffffff16021790555080848363ffffffff1681548110151561464357fe5b90600052602060002090600891828204019190066004026101000a81548163ffffffff021916908363ffffffff1602179055508380548091906001900361468a919061482c565b5082805490508560010160046101000a81548163ffffffff021916908363ffffffff1602179055508685600101600c6101000a81548173ffffffffffffffffffffffffffffffffffffffff021916908373ffffffffffffffffffffffffffffffffffffffff160217905550438560010160086101000a81548163ffffffff021916908363ffffffff1602179055508286908060018154018082558091505090600182039060005260206000209060089182820401919006600402909192909190916101000a81548163ffffffff021916908363ffffffff160217905550505050505050505050565b61018060405190810160405280600067ffffffffffffffff168152602001600060ff168152602001600063ffffffff168152602001600060ff168152602001600063ffffffff168152602001600061ffff168152602001600063ffffffff168152602001600067ffffffffffffffff168152602001600063ffffffff168152602001600063ffffffff168152602001600063ffffffff168152602001600073ffffffffffffffffffffffffffffffffffffffff1681525090565b8154818355818111156148615760070160089004816007016008900483600052602060002091820191016148609190614866565b5b505050565b61488891905b8082111561488457600081600090555060010161486c565b5090565b905600a165627a7a72305820459c0a1f7ef7dbfd273926bf2899b0c815bbc2598cf4a4562affe607b424af260029",
  "source": "pragma solidity 0.4.23;\n\nimport \"./AccessControl.sol\";\n\n/**\n * @notice Gem is unique tradable entity. Non-fungible.\n * @dev A gem is an ERC721 non-fungible token, which maps Token ID,\n *      a 32 bit number to a set of gem properties -\n *      attributes (mostly immutable by their nature) and state variables (mutable)\n * @dev A gem token supports only minting, it can be only created\n */\ncontract GemERC721 is AccessControl {\n  /// @dev Smart contract version\n  /// @dev Should be incremented manually in this source code\n  ///      each time smart contact source code is changed\n  uint32 public constant TOKEN_VERSION = 0x1;\n\n  /// @dev Tokens within the reserved space cannot be issued/minted\n  /// @dev This limitation is required to support ERC20 compatible transfers:\n  ///      numbers outside this space are treated as token IDs, while\n  ///      numbers inside this space are treated to be token amounts\n  uint32 public constant RESERVED_TOKEN_ID_SPACE = 0x400;\n\n  /// @dev ERC20 compliant token symbol\n  string public constant symbol = \"GEM\";\n  /// @dev ERC20 compliant token name\n  string public constant name = \"GEM  CryptoMiner World\";\n  /// @dev ERC20 compliant token decimals\n  /// @dev this can be only zero, since ERC721 token is non-fungible\n  uint8 public constant decimals = 0;\n\n  /// @dev A gem data structure\n  /// @dev Occupies 64 bytes of storage (512 bits)\n  struct Gem {\n    /// High 256 bits\n    /// @dev Where gem was found: land plot ID,\n    ///      land block within a plot,\n    ///      gem number (id) within a block of land, immutable\n    uint64 coordinates;\n\n    /// @dev Gem color, one of 12 values, immutable\n    uint8 color;\n\n    /// @dev Level modified time\n    /// @dev Stored as Ethereum Block Number of the transaction\n    ///      when the gem was created\n    uint32 levelModified;\n\n    /// @dev Level value (mutable), one of 1, 2, 3, 4, 5\n    uint8 level;\n\n    /// @dev Grade modified time\n    /// @dev Stored as Ethereum Block Number of the transaction\n    ///      when the gem was created\n    uint32 gradeModified;\n\n    /// @dev High 8 bits store grade type and low 8 bits grade value\n    /// @dev Grade type is one of D (1), C (2), B (3), A (4), AA (5) and AAA (6)\n    uint16 grade;\n\n    /// @dev Store state modified time\n    /// @dev Stored as Ethereum Block Number of the transaction\n    ///      when the gem was created\n    uint32 stateModified;\n\n    /// @dev State value, mutable\n    uint64 state;\n\n\n    /// Low 256 bits\n    /// @dev Gem creation time, immutable, cannot be zero\n    /// @dev Stored as Ethereum Block Number of the transaction\n    ///      when the gem was created\n    uint32 creationTime;\n\n    /// @dev Gem index within an owner's collection of gems, mutable\n    uint32 index;\n\n    /// @dev Initially zero, changes when ownership is transferred\n    /// @dev Stored as Ethereum Block Number of the transaction\n    ///      when the gem's ownership was changed, mutable\n    uint32 ownershipModified;\n\n    /// @dev Gem's owner, initialized upon gem creation, mutable\n    address owner;\n  }\n\n  /// @notice All the emitted gems\n  /// @dev Core of the Gem as ERC721 token\n  /// @dev Maps Gem ID => Gem Data Structure\n  mapping(uint32 => Gem) public gems;\n\n  /// @dev Mapping from a gem ID to an address approved to\n  ///      transfer ownership rights for this gem\n  mapping(uint32 => address) public approvals;\n\n  /// @dev Mapping from owner to operator approvals\n  ///      token owner => approved token operator => approvals left (zero means no approval)\n  /// @dev ERC20 compliant structure for\n  ///      function allowance(address owner, address spender) public constant returns (uint256 remaining)\n  mapping(address => mapping(address => uint256)) public allowance;\n\n  /// @notice Storage for a collections of tokens\n  /// @notice A collection of tokens is an ordered list of token IDs,\n  ///      owned by a particular address (owner)\n  /// @dev A mapping from owner to a collection of his tokens (IDs)\n  /// @dev ERC20 compliant structure for balances can be derived\n  ///      as a length of each collection in the mapping\n  /// @dev ERC20 balances[owner] is equal to collections[owner].length\n  mapping(address => uint32[]) public collections;\n\n  /// @notice Total number of existing tokens\n  /// @dev ERC20 compliant field for totalSupply()\n  uint32 public totalSupply;\n\n  /// @dev The data in token's state may contain lock(s)\n  ///      (ex.: is gem currently mining or not)\n  /// @dev A locked token cannot be transferred or upgraded\n  /// @dev The token is locked if it contains any bits\n  ///      from the `lockedBitmask` in its `state` set\n  uint64 public lockedBitmask = DEFAULT_MINING_BIT;\n\n  /// @dev Enables ERC721 transfers of the tokens\n  uint32 public constant FEATURE_TRANSFERS = 0x00000001;\n\n  /// @dev Enables ERC721 transfers on behalf\n  uint32 public constant FEATURE_TRANSFERS_ON_BEHALF = 0x00000002;\n\n  /// @dev Enables partial support of ERC20 transfers of the tokens,\n  ///      allowing to transfer only all owned tokens at once\n  //uint32 public constant ERC20_TRANSFERS = 0x00000004;\n\n  /// @dev Enables partial support of ERC20 transfers on behalf\n  ///      allowing to transfer only all owned tokens at once\n  //uint32 public constant ERC20_TRANSFERS_ON_BEHALF = 0x00000008;\n\n  /// @dev Enables full support of ERC20 transfers of the tokens,\n  ///      allowing to transfer arbitrary amount of the tokens at once\n  //uint32 public constant ERC20_INSECURE_TRANSFERS = 0x00000010;\n\n  /// @dev Default bitmask indicating that the gem is `mining`\n  /// @dev Consists of a single bit at position 1  binary 1\n  /// @dev This bit is cleared by `miningComplete`\n  /// @dev The bit meaning in gem's `state` is as follows:\n  ///      0: not mining\n  ///      1: mining\n  uint64 public constant DEFAULT_MINING_BIT = 0x1; // bit number 1\n  \n  /// @notice Exchange is responsible for trading tokens on behalf of token holders\n  /// @dev Role ROLE_EXCHANGE allows executing transfer on behalf of token holders\n  /// @dev Not used\n  //uint32 public constant ROLE_EXCHANGE = 0x00010000;\n\n  /// @notice Level provider is responsible for enabling the workshop\n  /// @dev Role ROLE_LEVEL_PROVIDER allows leveling up the gem\n  uint32 public constant ROLE_LEVEL_PROVIDER = 0x00100000;\n\n  /// @notice Grade provider is responsible for enabling the workshop\n  /// @dev Role ROLE_GRADE_PROVIDER allows modifying gem's grade\n  uint32 public constant ROLE_GRADE_PROVIDER = 0x00200000;\n\n  /// @notice Token state provider is responsible for enabling the mining protocol\n  /// @dev Role ROLE_STATE_PROVIDER allows modifying token's state\n  uint32 public constant ROLE_STATE_PROVIDER = 0x00400000;\n\n  /// @notice Token state provider is responsible for enabling the mining protocol\n  /// @dev Role ROLE_STATE_LOCK_PROVIDER allows modifying token's locked bitmask\n  uint32 public constant ROLE_STATE_LOCK_PROVIDER = 0x00800000;\n\n  /// @notice Token creator is responsible for creating tokens\n  /// @dev Role ROLE_TOKEN_CREATOR allows minting tokens\n  uint32 public constant ROLE_TOKEN_CREATOR = 0x00040000;\n\n  /// @notice Token destroyer is responsible for destroying tokens\n  /// @dev Role ROLE_TOKEN_DESTROYER allows burning tokens\n  //uint32 public constant ROLE_TOKEN_DESTROYER = 0x00080000;\n\n  /// @dev The number is used as unlimited approvals number\n  uint256 public constant UNLIMITED_APPROVALS = 0xFFFFFFFFFFFFFFFFFFFFFFFFFFFFFFFFFFFFFFFFFFFFFFFFFFFFFFFFFFFFFFFF;\n\n  /// @dev Event names are self-explanatory:\n  /// @dev Fired in mint()\n  /// @dev Address `_by` allows to track who created a token\n  event Minted(address indexed _by, address indexed _to, uint32 indexed _tokenId);\n\n  /// @dev Fired in burn()\n  /// @dev Address `_by` allows to track who destroyed a token\n  //event Burnt(address indexed _from, address _by, uint32 indexed _tokenId);\n\n  /// @dev Fired in transfer(), transferFor(), mint()\n  /// @dev When minting a token, address `_from` is zero\n  event TokenTransfer(address indexed _from, address indexed _to, uint32 indexed _tokenId);\n\n  /// @dev Fired in transfer(), transferFor(), mint()\n  /// @dev When minting a token, address `_from` is zero\n  /// @dev ERC20 compliant event\n  event Transfer(address indexed _from, address indexed _to, uint256 _value);\n\n  /// @dev Fired in approveToken()\n  event TokenApproval(address indexed _owner, address indexed _approved, uint32 indexed _tokenId);\n\n  /// @dev Fired in approve()\n  /// @dev ERC20 compliant event\n  event Approval(address indexed _owner, address indexed _spender, uint256 _value);\n\n  /// @dev Fired in levelUp()\n  event LevelUp(address indexed _by, address indexed _owner, uint32 indexed _tokenId, uint8 _levelReached);\n\n  /// @dev Fired in upgradeGrade()\n  event UpgradeComplete(address indexed _by, address indexed _owner, uint32 indexed _tokenId, uint16 _gradeReached);\n\n  /// @dev Fired in setState()\n  event StateModified(address indexed _by, address indexed _owner, uint32 indexed _tokenId, uint64 _newState);\n\n  /**\n   * @dev Gets a gem by ID, representing it as two integers.\n   *      The two integers are tightly packed with a gem data:\n   *      First integer (high bits) contains (from higher to lower bits order):\n   *          coordinates:\n   *            plotId,\n   *            depth (block ID),\n   *            gemNum (gem ID within a block)\n   *          color,\n   *          levelModified,\n   *          level,\n   *          gradeModified,\n   *          grade,\n   *          stateModified,\n   *          state,\n   *      Second integer (low bits) contains (from higher to lower bits order):\n   *          creationTime,\n   *          index,\n   *          ownershipModified,\n   *          owner\n   * @dev Throws if gem doesn't exist\n   * @param tokenId ID of the gem to fetch\n   */\n  function getPacked(uint32 tokenId) public constant returns(uint256, uint256) {\n    // validate gem existence\n    require(exists(tokenId));\n\n    // load the gem from storage\n    Gem memory gem = gems[tokenId];\n\n    // pack high 256 bits of the result\n    uint256 high = uint256(gem.coordinates) << 192\n                 | uint192(gem.color) << 184\n                 | uint184(gem.levelModified) << 152\n                 | uint152(gem.level) << 144\n                 | uint144(gem.gradeModified) << 112\n                 | uint112(gem.grade) << 96\n                 | uint96(gem.stateModified) << 64\n                 | uint64(gem.state);\n\n    // pack low 256 bits of the result\n    uint256 low  = uint256(gem.creationTime) << 224\n                 | uint224(gem.index) << 192\n                 | uint192(gem.ownershipModified) << 160\n                 | uint160(gem.owner);\n\n    // return the whole 512 bits of result\n    return (high, low);\n  }\n\n  /**\n   *  @dev Allows to fetch collection of gems, including internal gems data\n   *       in a single function, useful when connecting to external node like INFURA\n   * @param owner an address to query a collection for\n   */\n  function getPackedCollection(address owner) public constant returns (uint64[]) {\n    // get an array of Gem IDs owned by an `owner` address\n    uint32[] memory tokenIds = getCollection(owner);\n\n    // how many gems are there in a collection\n    uint32 balance = uint32(tokenIds.length);\n\n    // data container to store the result\n    uint64[] memory result = new uint64[](balance);\n\n    // fetch gem info one by one and pack into structure\n    for(uint32 i = 0; i < balance; i++) {\n      // gem ID to work with\n      uint32 tokenId = tokenIds[i];\n      // get the gem properties and pack them together with tokenId\n      uint32 properties = getProperties(tokenId);\n\n      // pack the data\n      result[i] = uint64(tokenId) << 32 | properties;\n    }\n\n    // return the packed data structure\n    return result;\n  }\n\n  /**\n   * @notice Retrieves a collection of tokens owned by a particular address\n   * @notice An order of token IDs is not guaranteed and may change\n   *      when a token from the list is transferred\n   * @param owner an address to query a collection for\n   * @return an ordered list of tokens\n   */\n  function getCollection(address owner) public constant returns(uint32[]) {\n    // read a collection from mapping and return\n    return collections[owner];\n  }\n\n  /**\n   * @dev Allows setting the `lockedBitmask` parameter of the contract,\n   *      which is used to determine if a particular token is locked or not\n   * @dev A locked token cannot be transferred, upgraded or burnt\n   * @dev The token is locked if it contains any bits\n   *      from the `lockedBitmask` in its `state` set\n   * @dev Requires sender to have `ROLE_STATE_PROVIDER` permission.\n   * @param bitmask a value to set `lockedBitmask` to\n   */\n  function setLockedBitmask(uint64 bitmask) public {\n    // check that the call is made by a state lock provider\n    require(__isSenderInRole(ROLE_STATE_LOCK_PROVIDER));\n\n    // update the locked bitmask\n    lockedBitmask = bitmask;\n  }\n\n  /**\n   * @dev Gets the coordinates of a token\n   * @param tokenId ID of the token to get coordinates for\n   * @return a token coordinates\n   */\n  function getCoordinates(uint32 tokenId) public constant returns(uint64) {\n    // validate token existence\n    require(exists(tokenId));\n\n    // obtain token's coordinates from storage and return\n    return gems[tokenId].coordinates;\n  }\n\n  /**\n   * @dev Gets the land plot ID of a gem\n   * @param tokenId ID of the gem to get land plot ID value for\n   * @return a token land plot ID\n   */\n  function getPlotId(uint32 tokenId) public constant returns(uint32) {\n    // extract high 32 bits of the coordinates and return\n    return uint32(getCoordinates(tokenId) >> 32);\n  }\n\n  /**\n   * @dev Gets the depth (block ID) within plot of land of a gem\n   * @param tokenId ID of the gem to get depth value for\n   * @return a token depth\n   */\n  function getDepth(uint32 tokenId) public constant returns(uint16) {\n    // extract middle 16 bits of the coordinates and return\n    return uint16(getCoordinates(tokenId) >> 16);\n  }\n\n  /**\n   * @dev Gets the gem's number within land block\n   * @param tokenId ID of the gem to get depth value for\n   * @return a gem number within a land block\n   */\n  function getGemNum(uint32 tokenId) public constant returns(uint16) {\n    // extract low 16 bits of the coordinates and return\n    return uint16(getCoordinates(tokenId));\n  }\n\n  /**\n   * @dev Gets the gem's properties  color, level and\n   *      grade - as packed uint32 number\n   * @param tokenId ID of the gem to get properties for\n   * @return gem's properties - color, level, grade as packed uint32\n   */\n  function getProperties(uint32 tokenId) public constant returns(uint32) {\n    // validate token existence\n    require(exists(tokenId));\n\n    // read gem from storage\n    Gem memory gem = gems[tokenId];\n\n    // pack data structure and return\n    return uint32(gem.color) << 24 | uint24(gem.level) << 16 | gem.grade;\n  }\n\n  /**\n   * @dev Gets the color of a token\n   * @param tokenId ID of the token to get color for\n   * @return a token color\n   */\n  function getColor(uint32 tokenId) public constant returns(uint8) {\n    // validate token existence\n    require(exists(tokenId));\n\n    // obtain token's color from storage and return\n    return gems[tokenId].color;\n  }\n\n  /**\n   * @dev Gets the level modified date of a token\n   * @param tokenId ID of the token to get level modification date for\n   * @return a token level modification date\n   */\n  function getLevelModified(uint32 tokenId) public constant returns(uint32) {\n    // validate token existence\n    require(exists(tokenId));\n\n    // obtain token's level modified date from storage and return\n    return gems[tokenId].levelModified;\n  }\n\n  /**\n   * @dev Gets the level of a token\n   * @param tokenId ID of the token to get level for\n   * @return a token level\n   */\n  function getLevel(uint32 tokenId) public constant returns(uint8) {\n    // validate token existence\n    require(exists(tokenId));\n\n    // obtain token's level from storage and return\n    return gems[tokenId].level;\n  }\n\n  /**\n   * @dev Levels up a gem\n   * @dev Requires sender to have `ROLE_STATE_PROVIDER` permission\n   * @param tokenId ID of the gem to level up\n   */\n  function levelUp(uint32 tokenId) public {\n    // check that the call is made by a level provider\n    require(__isSenderInRole(ROLE_LEVEL_PROVIDER));\n\n    // check that token to set state for exists\n    require(exists(tokenId));\n\n    // update the level modified date\n    gems[tokenId].levelModified = uint32(block.number);\n\n    // increment the level required\n    gems[tokenId].level++;\n\n    // emit an event\n    emit LevelUp(msg.sender, ownerOf(tokenId), tokenId, gems[tokenId].level);\n  }\n\n  /**\n   * @dev Gets the grade modified date of a gem\n   * @param tokenId ID of the gem to get grade modified date for\n   * @return a token grade modified date\n   */\n  function getGradeModified(uint32 tokenId) public constant returns(uint32) {\n    // validate token existence\n    require(exists(tokenId));\n\n    // obtain token's grade modified date from storage and return\n    return gems[tokenId].gradeModified;\n  }\n\n  /**\n   * @dev Gets the grade of a gem\n   * @param tokenId ID of the gem to get grade for\n   * @return a token grade\n   */\n  function getGrade(uint32 tokenId) public constant returns(uint16) {\n    // validate token existence\n    require(exists(tokenId));\n\n    // obtain token's grade from storage and return\n    return gems[tokenId].grade;\n  }\n\n  /**\n   * @dev Gets the grade type of a gem\n   * @param tokenId ID of the gem to get grade type for\n   * @return a token grade type\n   */\n  function getGradeType(uint32 tokenId) public constant returns(uint8) {\n    // extract high 8 bits of the grade and return\n    return uint8(getGrade(tokenId) >> 8);\n  }\n\n  /**\n   * @dev Gets the grade value of a gem\n   * @param tokenId ID of the gem to get grade value for\n   * @return a token grade value\n   */\n  function getGradeValue(uint32 tokenId) public constant returns(uint8) {\n    // extract low 8 bits of the grade and return\n    return uint8(getGrade(tokenId));\n  }\n\n  /**\n   * @dev Upgrades the grade of the gem\n   * @dev Requires new grade to be higher than an old one\n   * @dev Requires sender to have `ROLE_GRADE_PROVIDER` permission\n   * @param tokenId ID of the gem to modify the grade for\n   * @param grade new grade to set for the token, should be higher then current state\n   */\n  function upgradeGrade(uint32 tokenId, uint16 grade) public {\n    // check that the call is made by a grade provider\n    require(__isSenderInRole(ROLE_GRADE_PROVIDER));\n\n    // check that token to set grade for exists\n    require(exists(tokenId));\n\n    // update the grade modified date\n    gems[tokenId].gradeModified = uint32(block.number);\n\n    // check if we're not downgrading the gem\n    require(gems[tokenId].grade < grade);\n\n    // set the grade required\n    gems[tokenId].grade = grade;\n\n    // emit an event\n    emit UpgradeComplete(msg.sender, ownerOf(tokenId), tokenId, grade);\n  }\n\n  /**\n   * @dev Gets the state modified date of a token\n   * @param tokenId ID of the token to get state modified date for\n   * @return a token state modification date\n   */\n  function getStateModified(uint32 tokenId) public constant returns(uint32) {\n    // validate token existence\n    require(exists(tokenId));\n\n    // obtain token's state modified date from storage and return\n    return gems[tokenId].stateModified;\n  }\n\n  /**\n   * @dev Gets the state of a token\n   * @param tokenId ID of the token to get state for\n   * @return a token state\n   */\n  function getState(uint32 tokenId) public constant returns(uint64) {\n    // validate token existence\n    require(exists(tokenId));\n\n    // obtain token's state from storage and return\n    return gems[tokenId].state;\n  }\n\n  /**\n   * @dev Sets the state of a token\n   * @dev Requires sender to have `ROLE_STATE_PROVIDER` permission\n   * @param tokenId ID of the token to set state for\n   * @param state new state to set for the token\n   */\n  function setState(uint32 tokenId, uint64 state) public {\n    // check that the call is made by a state provider\n    require(__isSenderInRole(ROLE_STATE_PROVIDER));\n\n    // check that token to set state for exists\n    require(exists(tokenId));\n\n    // update the state modified date\n    gems[tokenId].stateModified = uint32(block.number);\n\n    // set the state required\n    gems[tokenId].state = state;\n\n    // emit an event\n    emit StateModified(msg.sender, ownerOf(tokenId), tokenId, state);\n  }\n\n  /**\n   * @dev Gets the creation time of a token\n   * @param tokenId ID of the token to get creation time for\n   * @return a token creation time\n   */\n  function getCreationTime(uint32 tokenId) public constant returns(uint32) {\n    // validate token existence\n    require(exists(tokenId));\n\n    // obtain token's creation time from storage and return\n    return gems[tokenId].creationTime;\n  }\n\n  /**\n   * @dev Gets the ownership modified time of a token\n   * @param tokenId ID of the token to get ownership modified time for\n   * @return a token ownership modified time\n   */\n  function getOwnershipModified(uint32 tokenId) public constant returns(uint32) {\n    // validate token existence\n    require(exists(tokenId));\n\n    // obtain token's ownership modified time from storage and return\n    return gems[tokenId].ownershipModified;\n  }\n\n  /**\n   * @notice Gets an amount of token owned by the given address\n   * @dev Gets the balance of the specified address\n   * @param who address to query the balance for\n   * @return an amount owned by the address passed as an input parameter\n   */\n  function balanceOf(address who) public constant returns (uint32) {\n    // read the length of the `who`s collection of tokens\n    return uint32(collections[who].length);\n  }\n\n  /**\n   * @notice Checks if specified token exists\n   * @dev Returns whether the specified token ID exists\n   * @param tokenId ID of the token to query the existence for\n   * @return whether the token exists (true - exists)\n   */\n  function exists(uint32 tokenId) public constant returns (bool) {\n    // check if this token exists (owner is not zero)\n    return gems[tokenId].owner != address(0);\n  }\n\n  /**\n   * @notice Finds an owner address for a token specified\n   * @dev Gets the owner of the specified token from the `gems` mapping\n   * @dev Throws if a token with the ID specified doesn't exist\n   * @param tokenId ID of the token to query the owner for\n   * @return owner address currently marked as the owner of the given token\n   */\n  function ownerOf(uint32 tokenId) public constant returns (address) {\n    // check if this token exists\n    require(exists(tokenId));\n\n    // return owner's address\n    return gems[tokenId].owner;\n  }\n\n  /**\n   * @dev Creates new token with `tokenId` ID specified and\n   *      assigns an ownership `to` for that token\n   * @dev Allows setting initial token's properties\n   * @param to an address to assign created token ownership to\n   * @param tokenId ID of the token to create\n   */\n  function mint(\n    address to,\n    uint32 tokenId,\n    uint32 plotId,\n    uint16 depth,\n    uint16 gemNum,\n    uint8 color,\n    uint8 level,\n    uint8 gradeType,\n    uint8 gradeValue\n  ) public {\n    // validate destination address\n    require(to != address(0));\n    require(to != address(this));\n\n    // check if caller has sufficient permissions to mint a token\n    // and if feature is enabled globally\n    require(__isSenderInRole(ROLE_TOKEN_CREATOR));\n\n    // delegate call to `__mint`\n    __mint(to, tokenId, plotId, depth, gemNum, color, level, gradeType, gradeValue);\n\n    // fire ERC20 transfer event\n    emit Transfer(address(0), to, 1);\n  }\n\n  /**\n   * @notice Transfers ownership rights of a token defined\n   *      by the `tokenId` to a new owner specified by address `to`\n   * @dev Requires the sender of the transaction to be an owner\n   *      of the token specified (`tokenId`)\n   * @param to new owner address\n   * @param tokenId ID of the token to transfer ownership rights for\n   */\n  function transferToken(address to, uint32 tokenId) public {\n    // check if token transfers feature is enabled\n    require(__isFeatureEnabled(FEATURE_TRANSFERS));\n\n    // call sender gracefully - `from`\n    address from = msg.sender;\n\n    // delegate call to unsafe `__transferToken`\n    __transferToken(from, to, tokenId);\n  }\n\n  /**\n   * @notice A.k.a \"transfer a token on behalf\"\n   * @notice Transfers ownership rights of a token defined\n   *      by the `tokenId` to a new owner specified by address `to`\n   * @notice Allows transferring ownership rights by a trading operator\n   *      on behalf of token owner. Allows building an exchange of tokens.\n   * @dev Transfers the ownership of a given token ID to another address\n   * @dev Requires the transaction sender to be one of:\n   *      owner of a gem - then its just a usual `transferToken`\n   *      approved  an address explicitly approved earlier by\n   *        the owner of a token to transfer this particular token `tokenId`\n   *      operator - an address explicitly approved earlier by\n   *        the owner to transfer all his tokens on behalf\n   * @param from current owner of the token\n   * @param to address to receive the ownership of the token\n   * @param tokenId ID of the token to be transferred\n   */\n  function transferTokenFrom(address from, address to, uint32 tokenId) public {\n    // check if transfers on behalf feature is enabled\n    require(__isFeatureEnabled(FEATURE_TRANSFERS_ON_BEHALF));\n\n    // call sender gracefully - `operator`\n    address operator = msg.sender;\n\n    // find if an approved address exists for this token\n    address approved = approvals[tokenId];\n\n    // we assume `from` is an owner of the token,\n    // this will be explicitly checked in `__transferToken`\n\n    // fetch how much approvals left for an operator\n    uint256 approvalsLeft = allowance[from][operator];\n\n    // operator must have an approval to transfer this particular token\n    // or operator must be approved to transfer all the tokens\n    // or, if nothing satisfies, this is equal to regular transfer,\n    // where `from` is basically a transaction sender and owner of the token\n    if(operator == approved || approvalsLeft != 0) {\n      // update operator's approvals left + emit an event\n      __decreaseOperatorApprovalsLeft(from, operator, 1);\n    }\n    else {\n      // transaction sender doesn't have any special permissions\n      // we will treat him as a token owner and sender and try to perform\n      // a regular transfer:\n      // check `from` to be `operator` (transaction sender):\n      require(from == operator);\n\n      // additionally check if token transfers feature is enabled\n      require(__isFeatureEnabled(FEATURE_TRANSFERS));\n    }\n\n    // delegate call to unsafe `__transferToken`\n    __transferToken(from, to, tokenId);\n  }\n\n  /**\n   * @notice Approves an address to transfer the given token on behalf of its owner\n   *      Can also be used to revoke an approval by setting `to` address to zero\n   * @dev The zero `to` address revokes an approval for a given token\n   * @dev There can only be one approved address per token at a given time\n   * @dev This function can only be called by the token owner\n   * @param to address to be approved to transfer the token on behalf of its owner\n   * @param tokenId ID of the token to be approved for transfer on behalf\n   */\n  function approveToken(address to, uint32 tokenId) public {\n    // call sender nicely - `from`\n    address from = msg.sender;\n\n    // get token owner address (also ensures that token exists)\n    address owner = ownerOf(tokenId);\n\n    // caller must own this token\n    require(from == owner);\n    // approval for owner himself is pointless, do not allow\n    require(to != owner);\n    // either we're removing approval, or setting it\n    require(approvals[tokenId] != address(0) || to != address(0));\n\n    // set an approval (deletes an approval if to == 0)\n    approvals[tokenId] = to;\n\n    // emit an ERC721 event\n    emit TokenApproval(from, to, tokenId);\n  }\n\n  /**\n   * @notice Removes an approved address, which was previously added by `approve`\n   *      for the given token. Equivalent to calling approve(0, tokenId)\n   * @dev Same as calling approve(0, tokenId)\n   * @param tokenId ID of the token to remove approved address for\n   */\n  function revokeApproval(uint32 tokenId) public {\n    // delegate call to `approve`\n    approveToken(address(0), tokenId);\n  }\n\n  /**\n   * @dev Sets or unsets the approval of a given operator\n   * @dev An operator is allowed to transfer *all* tokens of the sender on their behalf\n   * @param to operator address to set the approval for\n   * @param approved representing the status of the approval to be set\n   */\n  function setApprovalForAll(address to, bool approved) public {\n    // set maximum possible approval, 2^256  1, unlimited de facto\n    approve(to, approved ? UNLIMITED_APPROVALS : 0);\n  }\n\n  /**\n   * @dev Sets or unsets the approval of a given operator\n   * @dev An operator is allowed to transfer *all* tokens of the sender on their behalf\n   * @dev ERC20 compliant approve(address, uint256) function\n   * @param to operator address to set the approval\n   * @param approved representing the number of approvals left to be set\n   */\n  function approve(address to, uint256 approved) public {\n    // call sender nicely - `from`\n    address from = msg.sender;\n\n    // validate destination address\n    require(to != address(0));\n\n    // approval for owner himself is pointless, do not allow\n    require(to != from);\n\n    // set an approval\n    allowance[from][to] = approved;\n\n    // emit an ERC20 compliant event\n    emit Approval(from, to, approved);\n  }\n\n  /// @dev Creates new token with `tokenId` ID specified and\n  ///      assigns an ownership `to` for this token\n  /// @dev Unsafe: doesn't check if caller has enough permissions to execute the call\n  ///      checks only that the token doesn't exist yet\n  /// @dev Must be kept private at all times\n  function __mint(\n    address to,\n    uint32 tokenId,\n    uint32 plotId,\n    uint16 depth,\n    uint16 gemNum,\n    uint8 color,\n    uint8 level,\n    uint8 gradeType,\n    uint8 gradeValue\n  ) private {\n    // check that token ID is not in the reserved space\n    require(tokenId > RESERVED_TOKEN_ID_SPACE);\n\n    // ensure that token with such ID doesn't exist\n    require(!exists(tokenId));\n\n    // create new gem in memory\n    Gem memory gem = Gem({\n      coordinates: uint64(plotId) << 32 | uint32(depth) << 16 | gemNum,\n      color: color,\n      levelModified: 0,\n      level: level,\n      gradeModified: 0,\n      grade: uint16(gradeType) << 8 | gradeValue,\n      stateModified: 0,\n      state: 0,\n\n      creationTime: uint32(block.number),\n      // token index within the owner's collection of token\n      // points to the place where the token will be placed to\n      index: uint32(collections[to].length),\n      ownershipModified: 0,\n      owner: to\n    });\n\n    // push newly created `tokenId` to the owner's collection of tokens\n    collections[to].push(tokenId);\n\n    // persist gem to the storage\n    gems[tokenId] = gem;\n\n    // update total supply\n    totalSupply++;\n\n    // fire Minted event\n    emit Minted(msg.sender, to, tokenId);\n    // fire ERC721 transfer event\n    emit TokenTransfer(address(0), to, tokenId);\n  }\n\n  /// @dev Performs a transfer of a token `tokenId` from address `from` to address `to`\n  /// @dev Unsafe: doesn't check if caller has enough permissions to execute the call;\n  ///      checks only for token existence and that ownership belongs to `from`\n  /// @dev Is save to call from `transferToken(to, tokenId)` since it doesn't need any additional checks\n  /// @dev Must be kept private at all times\n  function __transferToken(address from, address to, uint32 tokenId) private {\n    // validate source and destination address\n    require(to != address(0));\n    require(to != from);\n    // impossible by design of transferToken(), transferTokenFrom(),\n    // approveToken() and approve()\n    assert(from != address(0));\n\n    // validate token existence\n    require(exists(tokenId));\n\n    // validate token ownership\n    require(ownerOf(tokenId) == from);\n\n    // transfer is not allowed for a locked gem\n    // (ex.: if ge is currently mining)\n    require(getState(tokenId) & lockedBitmask == 0);\n\n    // clear approved address for this particular token + emit event\n    __clearApprovalFor(tokenId);\n\n    // move gem ownership,\n    // update old and new owner's gem collections accordingly\n    __move(from, to, tokenId);\n\n    // persist gem back into the storage\n    // this may be required only if gems structure is loaded into memory, like\n    // `Gem memory gem = gems[tokenId];`\n    //gems[tokenId] = gem; // uncomment if gem is in memory (will increase gas usage!)\n\n    // fire ERC721 transfer event\n    emit TokenTransfer(from, to, tokenId);\n\n    // fire a ERC20 transfer event\n    emit Transfer(from, to, 1);\n  }\n\n  /// @dev Clears approved address for a particular token\n  function __clearApprovalFor(uint32 tokenId) private {\n    // check if approval exists - we don't want to fire an event in vain\n    if(approvals[tokenId] != address(0)) {\n      // clear approval\n      delete approvals[tokenId];\n\n      // emit an ERC721 event\n      emit TokenApproval(msg.sender, address(0), tokenId);\n    }\n  }\n\n  /// @dev Decreases operator's approvals left\n  /// @dev Unsafe, doesn't throw if there is not enough approvals left\n  function __decreaseOperatorApprovalsLeft(address owner, address operator, uint256 n) private {\n    // read how much approvals this operator has\n    uint256 approvalsLeft = allowance[owner][operator];\n\n    // check if approvals exist  we don't want to fire an event in vain\n    if (approvalsLeft != 0) {\n      // recalculate the approvals left\n      approvalsLeft = approvalsLeft > n ? approvalsLeft - n : 0;\n\n      // update approvals left\n      allowance[owner][operator] = approvalsLeft;\n\n      // emit an ERC20 compliant event\n      emit Approval(owner, operator, approvalsLeft);\n    }\n  }\n\n  /// @dev Move a `gem` from owner `from` to a new owner `to`\n  /// @dev Unsafe, doesn't check for consistence\n  /// @dev Must be kept private at all times\n  function __move(address from, address to, uint32 gemId) private {\n    // get the gem pointer to the storage\n    Gem storage gem = gems[gemId];\n\n    // get a reference to the collection where gem is now\n    uint32[] storage source = collections[from];\n\n    // get a reference to the collection where gem goes to\n    uint32[] storage destination = collections[to];\n\n    // collection `source` cannot be empty, if it is - it's a bug\n    assert(source.length != 0);\n\n    // index of the gem within collection `source`\n    uint32 i = gem.index;\n\n    // we put the last gem in the collection `source` to the position released\n    // get an ID of the last gem in `source`\n    uint32 tokenId = source[source.length - 1];\n\n    // update gem index to point to proper place in the collection `source`\n    gems[tokenId].index = i;\n\n    // put it into the position i within `source`\n    source[i] = tokenId;\n\n    // trim the collection `source` by removing last element\n    source.length--;\n\n    // update gem index according to position in new collection `destination`\n    gem.index = uint32(destination.length);\n\n    // update gem owner\n    gem.owner = to;\n\n    // update ownership transfer date\n    gem.ownershipModified = uint32(block.number);\n\n    // push gem into collection\n    destination.push(gemId);\n  }\n\n}\n",
  "sourcePath": "/Users/vgorin/DEVELOP/upwork/Sophophilia/crypto-miner/contracts/GemERC721.sol",
  "compiler": {
    "name": "solc",
    "version": "0.4.23+commit.124ca40d.Emscripten.clang"
  },
  "schemaVersion": "2.0.0",
  "updatedAt": "2018-06-01T15:18:54.164Z"
}