{
  "contractName": "Presale",
  "abi": [
    {
      "constant": true,
      "inputs": [],
      "name": "beneficiary",
      "outputs": [
        {
          "name": "",
          "type": "address"
        }
      ],
      "payable": false,
      "stateMutability": "view",
      "type": "function"
    },
    {
      "constant": true,
      "inputs": [],
      "name": "nextGem",
      "outputs": [
        {
          "name": "",
          "type": "uint32"
        }
      ],
      "payable": false,
      "stateMutability": "view",
      "type": "function"
    },
    {
      "constant": true,
      "inputs": [],
      "name": "TOKEN_VERSION_REQUIRED",
      "outputs": [
        {
          "name": "",
          "type": "uint32"
        }
      ],
      "payable": false,
      "stateMutability": "view",
      "type": "function"
    },
    {
      "constant": true,
      "inputs": [],
      "name": "COLORS",
      "outputs": [
        {
          "name": "",
          "type": "uint8"
        }
      ],
      "payable": false,
      "stateMutability": "view",
      "type": "function"
    },
    {
      "constant": true,
      "inputs": [],
      "name": "GRADE_VALUES",
      "outputs": [
        {
          "name": "",
          "type": "uint8"
        }
      ],
      "payable": false,
      "stateMutability": "view",
      "type": "function"
    },
    {
      "constant": true,
      "inputs": [],
      "name": "geodesSold",
      "outputs": [
        {
          "name": "",
          "type": "uint16"
        }
      ],
      "payable": false,
      "stateMutability": "view",
      "type": "function"
    },
    {
      "constant": true,
      "inputs": [],
      "name": "gemContract",
      "outputs": [
        {
          "name": "",
          "type": "address"
        }
      ],
      "payable": false,
      "stateMutability": "view",
      "type": "function"
    },
    {
      "constant": true,
      "inputs": [
        {
          "name": "",
          "type": "address"
        }
      ],
      "name": "geodeBalances",
      "outputs": [
        {
          "name": "",
          "type": "uint16"
        }
      ],
      "payable": false,
      "stateMutability": "view",
      "type": "function"
    },
    {
      "constant": true,
      "inputs": [
        {
          "name": "",
          "type": "uint16"
        }
      ],
      "name": "geodeOwners",
      "outputs": [
        {
          "name": "",
          "type": "address"
        }
      ],
      "payable": false,
      "stateMutability": "view",
      "type": "function"
    },
    {
      "constant": true,
      "inputs": [],
      "name": "GEMS_IN_GEODE",
      "outputs": [
        {
          "name": "",
          "type": "uint8"
        }
      ],
      "payable": false,
      "stateMutability": "view",
      "type": "function"
    },
    {
      "constant": true,
      "inputs": [],
      "name": "GEODES_TO_SELL",
      "outputs": [
        {
          "name": "",
          "type": "uint16"
        }
      ],
      "payable": false,
      "stateMutability": "view",
      "type": "function"
    },
    {
      "constant": true,
      "inputs": [],
      "name": "PRESALE_VERSION",
      "outputs": [
        {
          "name": "",
          "type": "uint32"
        }
      ],
      "payable": false,
      "stateMutability": "view",
      "type": "function"
    },
    {
      "constant": true,
      "inputs": [],
      "name": "nextGeode",
      "outputs": [
        {
          "name": "",
          "type": "uint16"
        }
      ],
      "payable": false,
      "stateMutability": "view",
      "type": "function"
    },
    {
      "inputs": [
        {
          "name": "gemAddress",
          "type": "address"
        },
        {
          "name": "_beneficiary",
          "type": "address"
        }
      ],
      "payable": false,
      "stateMutability": "nonpayable",
      "type": "constructor"
    },
    {
      "anonymous": false,
      "inputs": [
        {
          "indexed": true,
          "name": "from",
          "type": "address"
        },
        {
          "indexed": true,
          "name": "to",
          "type": "address"
        },
        {
          "indexed": false,
          "name": "geodes",
          "type": "uint16"
        },
        {
          "indexed": false,
          "name": "gems",
          "type": "uint16"
        },
        {
          "indexed": false,
          "name": "totalPrice",
          "type": "uint64"
        }
      ],
      "name": "PurchaseComplete",
      "type": "event"
    },
    {
      "anonymous": false,
      "inputs": [
        {
          "indexed": false,
          "name": "sold",
          "type": "uint16"
        },
        {
          "indexed": false,
          "name": "left",
          "type": "uint16"
        },
        {
          "indexed": false,
          "name": "lastPrice",
          "type": "uint64"
        },
        {
          "indexed": false,
          "name": "currentPrice",
          "type": "uint64"
        }
      ],
      "name": "PresaleStateChanged",
      "type": "event"
    },
    {
      "constant": true,
      "inputs": [],
      "name": "getPacked",
      "outputs": [
        {
          "name": "",
          "type": "uint96"
        }
      ],
      "payable": false,
      "stateMutability": "view",
      "type": "function"
    },
    {
      "constant": false,
      "inputs": [],
      "name": "getGeodes",
      "outputs": [],
      "payable": true,
      "stateMutability": "payable",
      "type": "function"
    },
    {
      "constant": true,
      "inputs": [],
      "name": "currentPrice",
      "outputs": [
        {
          "name": "",
          "type": "uint64"
        }
      ],
      "payable": false,
      "stateMutability": "view",
      "type": "function"
    },
    {
      "constant": true,
      "inputs": [],
      "name": "geodesLeft",
      "outputs": [
        {
          "name": "",
          "type": "uint16"
        }
      ],
      "payable": false,
      "stateMutability": "view",
      "type": "function"
    }
  ],
  "bytecode": "0x608060405260008060006101000a81548161ffff021916908361ffff1602179055506001600060026101000a81548161ffff021916908361ffff160217905550610401600060046101000a81548163ffffffff021916908363ffffffff16021790555034801561006e57600080fd5b506040516040806116078339810180604052810190808051906020019092919080519060200190929190505050600073ffffffffffffffffffffffffffffffffffffffff168273ffffffffffffffffffffffffffffffffffffffff16141515156100d757600080fd5b600073ffffffffffffffffffffffffffffffffffffffff168173ffffffffffffffffffffffffffffffffffffffff161415151561011357600080fd5b8073ffffffffffffffffffffffffffffffffffffffff168273ffffffffffffffffffffffffffffffffffffffff161415151561014e57600080fd5b81600060086101000a81548173ffffffffffffffffffffffffffffffffffffffff021916908373ffffffffffffffffffffffffffffffffffffffff160217905550600060089054906101000a900473ffffffffffffffffffffffffffffffffffffffff1673ffffffffffffffffffffffffffffffffffffffff1663328921776040518163ffffffff167c0100000000000000000000000000000000000000000000000000000000028152600401602060405180830381600087803b15801561021557600080fd5b505af1158015610229573d6000803e3d6000fd5b505050506040513d602081101561023f57600080fd5b810190808051906020019092919050505063ffffffff16600163ffffffff1614151561026a57600080fd5b80600160006101000a81548173ffffffffffffffffffffffffffffffffffffffff021916908373ffffffffffffffffffffffffffffffffffffffff160217905550505061134b806102bc6000396000f3006080604052600436106100f1576000357c0100000000000000000000000000000000000000000000000000000000900463ffffffff16806338af3eed146100f657806339d3c9f41461014d5780634c7a59ec146101845780635022b5e9146101bb5780635b5b21ad146101ec578063600ff88a1461021d5780636a998f77146102505780636d234fb3146102a757806376e29f6e1461030657806391e36d51146103775780639d1b464a146103a8578063a589f5cf146103e7578063addb1fa11461041a578063bff48cde14610451578063c4ae76b614610484578063c832df111461048e578063ffbfc1d4146104c1575b600080fd5b34801561010257600080fd5b5061010b610508565b604051808273ffffffffffffffffffffffffffffffffffffffff1673ffffffffffffffffffffffffffffffffffffffff16815260200191505060405180910390f35b34801561015957600080fd5b5061016261052e565b604051808263ffffffff1663ffffffff16815260200191505060405180910390f35b34801561019057600080fd5b50610199610544565b604051808263ffffffff1663ffffffff16815260200191505060405180910390f35b3480156101c757600080fd5b506101d0610549565b604051808260ff1660ff16815260200191505060405180910390f35b3480156101f857600080fd5b5061020161054e565b604051808260ff1660ff16815260200191505060405180910390f35b34801561022957600080fd5b50610232610553565b604051808261ffff1661ffff16815260200191505060405180910390f35b34801561025c57600080fd5b50610265610566565b604051808273ffffffffffffffffffffffffffffffffffffffff1673ffffffffffffffffffffffffffffffffffffffff16815260200191505060405180910390f35b3480156102b357600080fd5b506102e8600480360381019080803573ffffffffffffffffffffffffffffffffffffffff16906020019092919050505061058c565b604051808261ffff1661ffff16815260200191505060405180910390f35b34801561031257600080fd5b50610335600480360381019080803561ffff1690602001909291905050506105ad565b604051808273ffffffffffffffffffffffffffffffffffffffff1673ffffffffffffffffffffffffffffffffffffffff16815260200191505060405180910390f35b34801561038357600080fd5b5061038c6105e0565b604051808260ff1660ff16815260200191505060405180910390f35b3480156103b457600080fd5b506103bd6105e5565b604051808267ffffffffffffffff1667ffffffffffffffff16815260200191505060405180910390f35b3480156103f357600080fd5b506103fc61061f565b604051808261ffff1661ffff16815260200191505060405180910390f35b34801561042657600080fd5b5061042f610625565b604051808263ffffffff1663ffffffff16815260200191505060405180910390f35b34801561045d57600080fd5b5061046661062a565b604051808261ffff1661ffff16815260200191505060405180910390f35b61048c61066a565b005b34801561049a57600080fd5b506104a3610ae1565b604051808261ffff1661ffff16815260200191505060405180910390f35b3480156104cd57600080fd5b506104d6610af5565b60405180826bffffffffffffffffffffffff166bffffffffffffffffffffffff16815260200191505060405180910390f35b600160009054906101000a900473ffffffffffffffffffffffffffffffffffffffff1681565b600060049054906101000a900463ffffffff1681565b600181565b600681565b606481565b6000809054906101000a900461ffff1681565b600060089054906101000a900473ffffffffffffffffffffffffffffffffffffffff1681565b60036020528060005260406000206000915054906101000a900461ffff1681565b60026020528060005260406000206000915054906101000a900473ffffffffffffffffffffffffffffffffffffffff1681565b600481565b60006101f46000809054906101000a900461ffff1661ffff16106106115767011c37937e08000061061a565b668e1bc9bf0400005b905090565b61157c81565b600381565b600061157c61ffff166000809054906101000a900461ffff1661ffff161115151561065157fe5b6000809054906101000a900461ffff1661157c03905090565b60008060008060008061157c61ffff166000809054906101000a900461ffff1661ffff1610151561069a57600080fd5b3395503494506106a86105e5565b93508367ffffffffffffffff1685101515156106c357600080fd5b8367ffffffffffffffff16858115156106d857fe5b04925061157c61ffff16836000809054906101000a900461ffff1661ffff16011115610719576000809054906101000a900461ffff1661157c0361ffff1692505b8367ffffffffffffffff168302945034851115151561073757600080fd5b8434039150600a8310158015610767575061157c61ffff16836000809054906101000a900461ffff1661ffff1601105b156107755782806001019350505b826000808282829054906101000a900461ffff160192506101000a81548161ffff021916908361ffff16021790555082600360008873ffffffffffffffffffffffffffffffffffffffff1673ffffffffffffffffffffffffffffffffffffffff16815260200190815260200160002060008282829054906101000a900461ffff160192506101000a81548161ffff021916908361ffff160217905550600090505b828161ffff1610156108645761085781600060029054906101000a900461ffff16018760048461ffff161461084c57600061084f565b60015b600401610b64565b8080600101915050610816565b82600060028282829054906101000a900461ffff160192506101000a81548161ffff021916908361ffff160217905550600160009054906101000a900473ffffffffffffffffffffffffffffffffffffffff1673ffffffffffffffffffffffffffffffffffffffff166108fc869081150290604051600060405180830381858888f193505050501580156108fc573d6000803e3d6000fd5b50600082111561094e578573ffffffffffffffffffffffffffffffffffffffff166108fc839081150290604051600060405180830381858888f1935050505015801561094c573d6000803e3d6000fd5b505b8573ffffffffffffffffffffffffffffffffffffffff168673ffffffffffffffffffffffffffffffffffffffff167f78941cb24572367143f606ec317925a9577ee08f4adde0f9b322559939485f896000809054906101000a900461ffff1660056000809054906101000a900461ffff1661ffff1610156109d05760006109d3565b60015b60ff166000809054906101000a900461ffff16600460ff16020189604051808461ffff1661ffff1681526020018361ffff1661ffff1681526020018267ffffffffffffffff1667ffffffffffffffff168152602001935050505060405180910390a37f50289979f6279908542e627820d0794d2be815ee132e3b5fca7deb3abae6a4a66000809054906101000a900461ffff16610a6e61062a565b86610a776105e5565b604051808561ffff1661ffff1681526020018461ffff1661ffff1681526020018367ffffffffffffffff1667ffffffffffffffff1681526020018267ffffffffffffffff1667ffffffffffffffff16815260200194505050505060405180910390a1505050505050565b600060029054906101000a900461ffff1681565b6000610aff6105e5565b67ffffffffffffffff166040610b1361062a565b61ffff1669ffffffffffffffffffff169060020a0269ffffffffffffffffffff1660506000809054906101000a900461ffff1661ffff166bffffffffffffffffffffffff169060020a021717905090565b60606000610b728584610e67565b915083600260008761ffff1661ffff16815260200190815260200160002060006101000a81548173ffffffffffffffffffffffffffffffffffffffff021916908373ffffffffffffffffffffffffffffffffffffffff160217905550600090505b81518163ffffffff161015610e6057600060089054906101000a900473ffffffffffffffffffffffffffffffffffffffff1673ffffffffffffffffffffffffffffffffffffffff166399ea4fb2856000600481819054906101000a900463ffffffff168092919060010191906101000a81548163ffffffff021916908363ffffffff160217905550858563ffffffff16815181101515610c6f57fe5b9060200190602002015160000151868663ffffffff16815181101515610c9157fe5b9060200190602002015160200151878763ffffffff16815181101515610cb357fe5b9060200190602002015160400151888863ffffffff16815181101515610cd557fe5b9060200190602002015160600151898963ffffffff16815181101515610cf757fe5b90602001906020020151608001518a8a63ffffffff16815181101515610d1957fe5b9060200190602002015160a001518b8b63ffffffff16815181101515610d3b57fe5b9060200190602002015160c001516040518a63ffffffff167c0100000000000000000000000000000000000000000000000000000000028152600401808a73ffffffffffffffffffffffffffffffffffffffff1673ffffffffffffffffffffffffffffffffffffffff1681526020018963ffffffff1663ffffffff1681526020018861ffff1663ffffffff1681526020018760ff1661ffff1681526020018660ff1661ffff1681526020018560ff1660ff1681526020018460ff1660ff1681526020018360ff1660ff1681526020018260ff1660ff1681526020019950505050505050505050600060405180830381600087803b158015610e3b57600080fd5b505af1158015610e4f573d6000803e3d6000fd5b505050508080600101915050610bd3565b5050505050565b60608060008060008060008760ff16604051908082528060200260200182016040528015610eaf57816020015b610e9c6112cb565b815260200190600190039081610e945790505b509550600193505b8760ff168460ff1611151561107c57435a33328c88604051808781526020018681526020018573ffffffffffffffffffffffffffffffffffffffff1673ffffffffffffffffffffffffffffffffffffffff166c010000000000000000000000000281526014018473ffffffffffffffffffffffffffffffffffffffff1673ffffffffffffffffffffffffffffffffffffffff166c010000000000000000000000000281526014018361ffff1661ffff167e010000000000000000000000000000000000000000000000000000000000000281526002018260ff1660ff167f010000000000000000000000000000000000000000000000000000000000000002815260010196505050505050506040518091039020600190049450610fda856110b7565b9250610fed6020869060020a90046110ea565b91506110006040869060020a900461110b565b905060e0604051908101604052808a61ffff168152602001600060ff1681526020018560ff1681526020018460ff168152602001600160ff1681526020018260ff1681526020018360ff16815250866001860360ff1681518110151561106257fe5b906020019060200201819052508380600101945050610eb7565b61109286600160026060899060020a90046111a1565b6110a886600160046080899060020a9004611228565b85965050505050505092915050565b60006001600c6110d58461ffff166008600660ff16620100006112af565b60ff168115156110e157fe5b06019050919050565b60006111048261ffff166000606460ff16620100006112af565b9050919050565b600062ffffff82169150623333348263ffffffff16101561112f576001905061119c565b627ae1488263ffffffff161015611149576002905061119c565b62e147ae8263ffffffff161015611163576003905061119c565b62fd4fdf8263ffffffff16101561117d576004905061119c565b62ffdf3c8263ffffffff161015611197576005905061119c565b600690505b919050565b6000808460ff168651101515156111b757600080fd5b6111d18361ffff1660008760ff16895103620100006112af565b91508190505b84820160ff168160ff1610156112205783868260ff168151811015156111f957fe5b906020019060200201516080019060ff16908160ff168152505080806001019150506111d7565b505050505050565b6000808460ff1686511015151561123e57600080fd5b6112588361ffff1660008760ff16895103620100006112af565b91508190505b84820160ff168160ff1610156112a75783868260ff1681518110151561128057fe5b9060200190602002015160a0019060ff16908160ff1681525050808060010191505061125e565b505050505050565b6000818386028115156112be57fe5b0484019050949350505050565b60e060405190810160405280600061ffff168152602001600060ff168152602001600060ff168152602001600060ff168152602001600060ff168152602001600060ff168152602001600060ff16815250905600a165627a7a72305820df5b282ad7283cd2ecbf11e125e7c304d2c6339af247e302f318d5e72673b1fb0029",
  "source": "pragma solidity 0.4.23;\n\nimport \"./GemERC721.sol\";\n\n/**\n * @notice GeodeSale sells the Gems (as Geodes)\n */\ncontract Presale {\n  /// @dev Smart contract version\n  /// @dev Should be incremented manually in this source code\n  ///      each time smart contact source code is changed\n  uint32 public constant PRESALE_VERSION = 0x3;\n\n  /// @dev Version of the Gem smart contract to work with\n  /// @dev See `GemERC721.TOKEN_VERSION`\n  uint32 public constant TOKEN_VERSION_REQUIRED = 0x1;\n\n  /// @dev Structure used as temporary storage for gem data\n  struct Gem {\n    uint16 plotId;\n    uint8 depth;\n    uint8 gemNum;\n    uint8 color;\n    uint8 level;\n    uint8 gradeType;\n    uint8 gradeValue;\n  }\n\n  /// @notice Number of geodes to sell\n  uint16 public constant GEODES_TO_SELL = 5500;\n\n  /// @notice Amount of gems in a geode\n  uint8 public constant GEMS_IN_GEODE = 4;\n\n  /// @notice Number of different colors defined for a gem\n  uint8 public constant COLORS = 6;\n\n  /// @notice Number of different grade values defined for a gem\n  uint8 public constant GRADE_VALUES = 100;\n\n  /// @notice Current value of geodes sold, initially zero\n  uint16 public geodesSold = 0;\n\n  /// @dev Pointer to a next geode to be sold\n  uint16 public nextGeode = 1;\n\n  /// @dev Pointer to a next gem do be minted\n  uint32 public nextGem = 0x401;\n\n  /// @dev A gem to sell, should be set in constructor\n  GemERC721 public gemContract;\n\n  /// @dev Address to send all the incoming funds\n  address public beneficiary;\n\n  /// @dev Mapping for the geode owners, will be used to issue land plots\n  mapping(uint16 => address) public geodeOwners;\n\n  /// @dev A mapping storing geode / land plot balances\n  mapping(address => uint16) public geodeBalances;\n\n  /**\n   * @dev event names are self-explanatory\n   */\n  /// @dev fired in buyGeodes()\n  event PurchaseComplete(address indexed from, address indexed to, uint16 geodes, uint16 gems, uint64 totalPrice);\n  /// @dev fired in buyGeodes()\n  event PresaleStateChanged(uint16 sold, uint16 left, uint64 lastPrice, uint64 currentPrice);\n\n  /// @dev Creates a GeodeSale attached to an already deployed Gem smart contract\n  constructor(address gemAddress, address _beneficiary) public {\n    // validate inputs\n    require(gemAddress != address(0));\n    require(_beneficiary != address(0));\n    require(gemAddress != _beneficiary);\n\n    // bind the Gem smart contract\n    gemContract = GemERC721(gemAddress);\n\n    // validate if character card instance is valid\n    // by validating smart contract version\n    require(TOKEN_VERSION_REQUIRED == gemContract.TOKEN_VERSION());\n\n    // set the beneficiary\n    beneficiary = _beneficiary;\n  }\n\n  /// @dev Returns the presale state data as a packed uint96 tuple structure\n  function getPacked() public constant returns (uint96) {\n    // pack and return\n    return uint96(geodesSold) << 80 | uint80(geodesLeft()) << 64 | currentPrice();\n  }\n\n  /**\n   * @notice Calculates number of geodes to sell and sells them by\n   * minting correspondent number of gems to the sender\n   */\n  function getGeodes() public payable {\n    // check if there are still geodes to sell\n    require(geodesSold < GEODES_TO_SELL);\n\n    // call sender nicely - player\n    address player = msg.sender;\n\n    // amount of ether sent with the transaction\n    uint256 value = msg.value;\n\n    // current price value\n    uint64 _currentPrice = currentPrice();\n\n    // value should be enough to buy at least one geode\n    require(value >= _currentPrice);\n\n    // calculate number of geodes to sell\n    uint256 geodesToSell = value / _currentPrice;\n\n    // we cannot sell more then GEODES_TO_SELL\n    if(geodesSold + geodesToSell > GEODES_TO_SELL) {\n      geodesToSell = GEODES_TO_SELL - geodesSold;\n    }\n\n    // recalculate how much value we have to take from player\n    value = geodesToSell * _currentPrice;\n\n    // overflow check\n    require(value <= msg.value);\n\n    // calculate how much we have to send back to player\n    uint256 change = msg.value - value;\n\n    // if player buys 10 geodes and there are still additional geodes to sell\n    if(geodesToSell >= 10 && geodesSold + geodesToSell < GEODES_TO_SELL) {\n      // - he receives one free geode\n      geodesToSell++;\n    }\n\n    // update counters\n    geodesSold += uint16(geodesToSell);\n\n    // update owner geode balance\n    geodeBalances[player] += uint16(geodesToSell);\n\n    // create geodes – actually create gems\n    for(uint16 i = 0; i < geodesToSell; i++) {\n      // open created geode + emit an event, geode number 5 (4) contains additional gem\n      __openGeode(nextGeode + i, player, GEMS_IN_GEODE + (i == 4? 1: 0));\n    }\n\n    // update next geode to sell pointer\n    nextGeode += uint16(geodesToSell);\n\n    // send the value to the beneficiary\n    beneficiary.transfer(value);\n\n    // send change back to player\n    if(change > 0) {\n      player.transfer(change);\n    }\n\n    // fire required events:\n    // purchase complete (used to display success message to player)\n    emit PurchaseComplete(player, player, geodesSold, GEMS_IN_GEODE * geodesSold + (geodesSold >= 5? 1: 0), uint64(value));\n\n    // presale state changed (used for UI updates)\n    emit PresaleStateChanged(geodesSold, geodesLeft(), _currentPrice, currentPrice());\n  }\n\n  /// @dev current geode price, implements early bid feature\n  function currentPrice() public constant returns (uint64) {\n    // first 500 geodes price is 0.04 ETH, then 0.08 ETH\n    return geodesSold < 500? 40 finney: 80 finney;\n  }\n\n  /// @dev number of geodes available for sale\n  function geodesLeft() public constant returns (uint16) {\n    // overflow check, should not happend by design\n    assert(geodesSold <= GEODES_TO_SELL);\n\n    // calculate based on `geodesSold` value\n    return GEODES_TO_SELL - geodesSold;\n  }\n\n/*\n  /// @dev calculates a price to buy several geodes\n  function calculateGeodesPrice(uint256 geodesToSell) public pure returns (uint256) {\n    // minimum amount of geodes to buy is one, return price of one on zero input\n    if(geodesToSell == 0) {\n      return GEODE_PRICE;\n    }\n    // up to 5 geodes (exclusive) - no discount\n    else if(geodesToSell < 5) {\n      return geodesToSell * GEODE_PRICE;\n    }\n    // up to 10 geodes (exclusive) - discount 4%\n    else if(geodesToSell < 10) {\n      return geodesToSell * GEODE_PRICE_5;\n    }\n    // 10 geodes or more - discount 10%\n    else {\n      return geodesToSell * GEODE_PRICE_10;\n    }\n  }\n\n  /// @dev calculates number of geodes to sell by the value sent\n  function calculateGeodesToSell(uint256 value) public pure returns (uint256) {\n    // not enough value to buy even one geode\n    if(value < GEODE_PRICE) {\n      return 0;\n    }\n    // no discount\n    else if(value < 5 * GEODE_PRICE_5) {\n      return value / GEODE_PRICE;\n    }\n    // 4% discount\n    else if(value < 10 * GEODE_PRICE_10) {\n      return value / GEODE_PRICE_5;\n    }\n    // 10% discount\n    else {\n      return value / GEODE_PRICE_10;\n    }\n  }\n*/\n\n  // private function to create geode and send all\n  // the gems inside it to a player\n  function __openGeode(uint16 geodeId, address player, uint8 n) private {\n    // generate the gems (geode content)\n    Gem[] memory gems = __randomGeode(geodeId, n);\n\n    // store geode owner\n    geodeOwners[geodeId] = player;\n\n    // iterate and mint gems required\n    for(uint32 i = 0; i < gems.length; i++) {\n      gemContract.mint(\n        player,\n        nextGem++,\n        gems[i].plotId,\n        gems[i].depth,\n        gems[i].gemNum,\n        gems[i].color,\n        gems[i].level,\n        gems[i].gradeType,\n        gems[i].gradeValue\n      );\n    }\n  }\n\n  // generates 5 gems for a given geode ID randomly\n  function __randomGeode(uint16 geodeId, uint8 n) private constant returns (Gem[]) {\n    // define an array of gems to return as a result of opening the geode specified\n    Gem[] memory gems = new Gem[](n);\n\n    // variable for randomness\n    uint256 randomness;\n\n    // create the gems\n    for(uint8 i = 1; i <= n; i++) {\n      // get some randomness to work with – 256 bits should be more then enough\n      // and.. yeah! – this is heavily influenceable by miners!\n      randomness = uint256(keccak256(block.number, gasleft(), msg.sender, tx.origin, geodeId, i));\n\n      // use lower 16 bits to determine gem color\n      uint8 colorId = __colorId(uint16(randomness));\n\n      // use next 16 bits to determine grade value\n      uint8 gradeValue = __gradeValue(uint16(randomness >> 32));\n\n      // use next 32 bits to determine grade type\n      uint8 gradeType = __gradeType(uint32(randomness >> 64));\n\n      // add into array (plotId, depth, gemNum, color, level, grade)\n      gems[i - 1] = Gem(geodeId, 0, i, colorId, 1, gradeType, gradeValue);\n    }\n\n    // enforce 1 level 2 gem\n    __enforceLevelConstraint(gems, 1, 2, uint16(randomness >> 96));\n    // enforce 1 gem of the grade A\n    __enforceGradeConstraint(gems, 1, 4, uint16(randomness >> 128));\n\n    // return created gems array back\n    return gems;\n  }\n\n  // determines color ID randomly\n  function __colorId(uint16 randomness) private pure returns (uint8) {\n    // normalize 0x10000 random range into 12, starting from 1\n    // we need to ensure only colors 9, 10, 11, 12, 1, 2 are allowed\n    return (uint8(__randomValue(randomness, 8, COLORS, 0x10000)) % 12) + 1;\n  }\n\n  // determines grade value randomly\n  function __gradeValue(uint16 randomness) private pure returns (uint8) {\n    // normalize 0x10000 random range into 100\n    return uint8(__randomValue(randomness, 0, GRADE_VALUES, 0x10000));\n  }\n\n  // determines grade type randomly\n  function __gradeType(uint32 randomness) private pure returns (uint8) {\n    // use only low 24 bits of randomness\n    randomness &= 0xFFFFFF;\n\n    // Grade D: 20% probability of 16777216 total values\n    if(randomness < 3355444) {\n     return 1;\n    }\n    // Grade C: 28% probability\n    else if(randomness < 8053064) {\n      return 2;\n    }\n    // Grade B: 40% probability\n    else if(randomness < 14763950) {\n      return 3;\n    }\n    // Grade A: 10.95% probability\n    else if(randomness < 16601055) {\n      return 4;\n    }\n    // Grade AA: 1% probability\n    else if(randomness < 16768828) {\n      return 5;\n    }\n    // Grade AAA: 0.05% probability\n    else {\n      return 6;\n    }\n  }\n\n  // assembled the gradeId from type and value\n  function __createGradeId(uint8 gradeType, uint8 gradeValue) private pure returns (uint16) {\n    // enforce valid grades: D, C, B, A, AA, AAA – 1, 2, 3, 4, 5, 6 accordingly\n    assert(gradeType >= 1 && gradeType <= 6);\n\n    // pack the grade ID and return\n    return uint16(gradeType) << 8 | gradeValue;\n  }\n\n  // enforce at least `n` gem(s) of level `levelId`\n  function __enforceLevelConstraint(Gem[] gems, uint8 n, uint8 levelId, uint16 randomness) private pure {\n    // n must not be greater then number of gems in the array\n    require(gems.length >= n);\n\n    // generate a random index in range [0, length - n) to rewrite color\n    uint8 index = uint8(__randomValue(randomness, 0, gems.length - n, 0x10000)); // use low 16 bits\n\n    // rewrite the color in the gems array\n    for(uint8 i = index; i < index + n; i++) {\n      // set the new level\n      gems[i].level = levelId;\n    }\n  }\n\n  // enforce at least `n` gem(s) of grade type `gradeType`\n  function __enforceGradeConstraint(Gem[] gems, uint8 n, uint8 gradeType, uint16 randomness) private pure {\n    // n must not be greater then number of gems in the array\n    require(gems.length >= n);\n\n    // generate a random index in range [0, length - n) to rewrite grade type\n    uint8 index = uint8(__randomValue(randomness, 0, gems.length - n, 0x10000)); // use low 16 bits\n\n    // rewrite the grade type in the gems array\n    for(uint8 i = index; i < index + n; i++) {\n      // set the new grade type\n      gems[i].gradeType = gradeType;\n    }\n  }\n\n  // gives a random value, normalizing the given one (randomness)\n  function __randomValue(uint256 randomness, uint256 offset, uint256 length, uint256 n) private pure returns (uint256) {\n    // return random in range [offset, offset + length)\n    return offset + randomness * length / n;\n  }\n\n}\n",
  "sourcePath": "/Users/vgorin/DEVELOP/upwork/Sophophilia/crypto-miner/contracts/Presale.sol",
  "compiler": {
    "name": "solc",
    "version": "0.4.23+commit.124ca40d.Emscripten.clang"
  },
  "schemaVersion": "2.0.0",
  "updatedAt": "2018-06-01T15:16:58.090Z"
}