{
  "contractName": "Gem",
  "abi": [
    {
      "constant": false,
      "inputs": [
        {
          "name": "tokenId",
          "type": "uint80"
        }
      ],
      "name": "burn",
      "outputs": [],
      "payable": false,
      "stateMutability": "nonpayable",
      "type": "function"
    },
    {
      "constant": true,
      "inputs": [],
      "name": "MASK_CLEAR_STATE",
      "outputs": [
        {
          "name": "",
          "type": "uint256"
        }
      ],
      "payable": false,
      "stateMutability": "view",
      "type": "function"
    },
    {
      "constant": true,
      "inputs": [],
      "name": "name",
      "outputs": [
        {
          "name": "",
          "type": "string"
        }
      ],
      "payable": false,
      "stateMutability": "view",
      "type": "function"
    },
    {
      "constant": true,
      "inputs": [],
      "name": "totalSupply",
      "outputs": [
        {
          "name": "",
          "type": "uint80"
        }
      ],
      "payable": false,
      "stateMutability": "view",
      "type": "function"
    },
    {
      "constant": true,
      "inputs": [],
      "name": "ROLE_FEATURE_MANAGER",
      "outputs": [
        {
          "name": "",
          "type": "uint32"
        }
      ],
      "payable": false,
      "stateMutability": "view",
      "type": "function"
    },
    {
      "constant": true,
      "inputs": [],
      "name": "FULL_PRIVILEGES_MASK",
      "outputs": [
        {
          "name": "",
          "type": "uint32"
        }
      ],
      "payable": false,
      "stateMutability": "view",
      "type": "function"
    },
    {
      "constant": true,
      "inputs": [],
      "name": "f",
      "outputs": [
        {
          "name": "",
          "type": "uint32"
        }
      ],
      "payable": false,
      "stateMutability": "view",
      "type": "function"
    },
    {
      "constant": true,
      "inputs": [
        {
          "name": "",
          "type": "address"
        },
        {
          "name": "",
          "type": "address"
        }
      ],
      "name": "operators",
      "outputs": [
        {
          "name": "",
          "type": "uint256"
        }
      ],
      "payable": false,
      "stateMutability": "view",
      "type": "function"
    },
    {
      "constant": true,
      "inputs": [
        {
          "name": "tokenId",
          "type": "uint80"
        }
      ],
      "name": "getLastLockingBlock",
      "outputs": [
        {
          "name": "",
          "type": "uint32"
        }
      ],
      "payable": false,
      "stateMutability": "view",
      "type": "function"
    },
    {
      "constant": false,
      "inputs": [
        {
          "name": "to",
          "type": "address"
        },
        {
          "name": "approved",
          "type": "uint256"
        }
      ],
      "name": "approveForAll",
      "outputs": [],
      "payable": false,
      "stateMutability": "nonpayable",
      "type": "function"
    },
    {
      "constant": true,
      "inputs": [],
      "name": "decimals",
      "outputs": [
        {
          "name": "",
          "type": "uint8"
        }
      ],
      "payable": false,
      "stateMutability": "view",
      "type": "function"
    },
    {
      "constant": true,
      "inputs": [
        {
          "name": "",
          "type": "uint80"
        }
      ],
      "name": "tokens",
      "outputs": [
        {
          "name": "",
          "type": "uint256"
        }
      ],
      "payable": false,
      "stateMutability": "view",
      "type": "function"
    },
    {
      "constant": false,
      "inputs": [
        {
          "name": "operator",
          "type": "address"
        },
        {
          "name": "permissions",
          "type": "uint32"
        }
      ],
      "name": "updateOperator",
      "outputs": [],
      "payable": false,
      "stateMutability": "nonpayable",
      "type": "function"
    },
    {
      "constant": true,
      "inputs": [],
      "name": "lockedBitmask",
      "outputs": [
        {
          "name": "",
          "type": "uint32"
        }
      ],
      "payable": false,
      "stateMutability": "view",
      "type": "function"
    },
    {
      "constant": false,
      "inputs": [
        {
          "name": "ids",
          "type": "uint80[]"
        }
      ],
      "name": "burnTokens",
      "outputs": [],
      "payable": false,
      "stateMutability": "nonpayable",
      "type": "function"
    },
    {
      "constant": false,
      "inputs": [
        {
          "name": "to",
          "type": "address"
        },
        {
          "name": "ids",
          "type": "uint80[]"
        }
      ],
      "name": "mintTokens",
      "outputs": [],
      "payable": false,
      "stateMutability": "nonpayable",
      "type": "function"
    },
    {
      "constant": true,
      "inputs": [
        {
          "name": "",
          "type": "uint80"
        }
      ],
      "name": "approvals",
      "outputs": [
        {
          "name": "",
          "type": "address"
        }
      ],
      "payable": false,
      "stateMutability": "view",
      "type": "function"
    },
    {
      "constant": true,
      "inputs": [
        {
          "name": "tokenId",
          "type": "uint80"
        }
      ],
      "name": "getToken",
      "outputs": [
        {
          "name": "",
          "type": "uint96"
        }
      ],
      "payable": false,
      "stateMutability": "view",
      "type": "function"
    },
    {
      "constant": true,
      "inputs": [
        {
          "name": "",
          "type": "address"
        },
        {
          "name": "",
          "type": "uint256"
        }
      ],
      "name": "collections",
      "outputs": [
        {
          "name": "",
          "type": "uint80"
        }
      ],
      "payable": false,
      "stateMutability": "view",
      "type": "function"
    },
    {
      "constant": true,
      "inputs": [],
      "name": "UNLIMITED_APPROVALS",
      "outputs": [
        {
          "name": "",
          "type": "uint256"
        }
      ],
      "payable": false,
      "stateMutability": "view",
      "type": "function"
    },
    {
      "constant": true,
      "inputs": [
        {
          "name": "tokenId",
          "type": "uint80"
        }
      ],
      "name": "getState",
      "outputs": [
        {
          "name": "",
          "type": "uint32"
        }
      ],
      "payable": false,
      "stateMutability": "view",
      "type": "function"
    },
    {
      "constant": false,
      "inputs": [
        {
          "name": "to",
          "type": "address"
        },
        {
          "name": "tokenId",
          "type": "uint80"
        }
      ],
      "name": "mint",
      "outputs": [],
      "payable": false,
      "stateMutability": "nonpayable",
      "type": "function"
    },
    {
      "constant": true,
      "inputs": [
        {
          "name": "who",
          "type": "address"
        }
      ],
      "name": "balanceOf",
      "outputs": [
        {
          "name": "",
          "type": "uint80"
        }
      ],
      "payable": false,
      "stateMutability": "view",
      "type": "function"
    },
    {
      "constant": true,
      "inputs": [
        {
          "name": "",
          "type": "address"
        }
      ],
      "name": "userRoles",
      "outputs": [
        {
          "name": "",
          "type": "uint32"
        }
      ],
      "payable": false,
      "stateMutability": "view",
      "type": "function"
    },
    {
      "constant": true,
      "inputs": [
        {
          "name": "feature",
          "type": "uint32"
        }
      ],
      "name": "isFeatureEnabled",
      "outputs": [
        {
          "name": "",
          "type": "bool"
        }
      ],
      "payable": false,
      "stateMutability": "view",
      "type": "function"
    },
    {
      "constant": false,
      "inputs": [
        {
          "name": "bitmask",
          "type": "uint32"
        }
      ],
      "name": "setLockedBitmask",
      "outputs": [],
      "payable": false,
      "stateMutability": "nonpayable",
      "type": "function"
    },
    {
      "constant": true,
      "inputs": [],
      "name": "MASK_CLEAR_TRANSFER",
      "outputs": [
        {
          "name": "",
          "type": "uint256"
        }
      ],
      "payable": false,
      "stateMutability": "view",
      "type": "function"
    },
    {
      "constant": true,
      "inputs": [],
      "name": "ROLE_STATE_PROVIDER",
      "outputs": [
        {
          "name": "",
          "type": "uint32"
        }
      ],
      "payable": false,
      "stateMutability": "view",
      "type": "function"
    },
    {
      "constant": false,
      "inputs": [
        {
          "name": "operator",
          "type": "address"
        },
        {
          "name": "permissions",
          "type": "uint32"
        }
      ],
      "name": "createOperator",
      "outputs": [],
      "payable": false,
      "stateMutability": "nonpayable",
      "type": "function"
    },
    {
      "constant": true,
      "inputs": [],
      "name": "ROLE_TOKEN_CREATOR",
      "outputs": [
        {
          "name": "",
          "type": "uint32"
        }
      ],
      "payable": false,
      "stateMutability": "view",
      "type": "function"
    },
    {
      "constant": true,
      "inputs": [],
      "name": "FEATURE_TRANSFERS_ON_BEHALF",
      "outputs": [
        {
          "name": "",
          "type": "uint32"
        }
      ],
      "payable": false,
      "stateMutability": "view",
      "type": "function"
    },
    {
      "constant": false,
      "inputs": [
        {
          "name": "to",
          "type": "address"
        },
        {
          "name": "tokenId",
          "type": "uint80"
        }
      ],
      "name": "transfer",
      "outputs": [],
      "payable": false,
      "stateMutability": "nonpayable",
      "type": "function"
    },
    {
      "constant": true,
      "inputs": [],
      "name": "symbol",
      "outputs": [
        {
          "name": "",
          "type": "string"
        }
      ],
      "payable": false,
      "stateMutability": "view",
      "type": "function"
    },
    {
      "constant": true,
      "inputs": [],
      "name": "ROLE_ROLE_MANAGER",
      "outputs": [
        {
          "name": "",
          "type": "uint32"
        }
      ],
      "payable": false,
      "stateMutability": "view",
      "type": "function"
    },
    {
      "constant": true,
      "inputs": [
        {
          "name": "actualRole",
          "type": "uint32"
        },
        {
          "name": "roleRequired",
          "type": "uint32"
        }
      ],
      "name": "hasRole",
      "outputs": [
        {
          "name": "",
          "type": "bool"
        }
      ],
      "payable": false,
      "stateMutability": "pure",
      "type": "function"
    },
    {
      "constant": false,
      "inputs": [
        {
          "name": "operator",
          "type": "address"
        }
      ],
      "name": "deleteOperator",
      "outputs": [],
      "payable": false,
      "stateMutability": "nonpayable",
      "type": "function"
    },
    {
      "constant": true,
      "inputs": [
        {
          "name": "tokenId",
          "type": "uint80"
        }
      ],
      "name": "exists",
      "outputs": [
        {
          "name": "",
          "type": "bool"
        }
      ],
      "payable": false,
      "stateMutability": "view",
      "type": "function"
    },
    {
      "constant": false,
      "inputs": [
        {
          "name": "mask",
          "type": "uint32"
        }
      ],
      "name": "updateFeatures",
      "outputs": [],
      "payable": false,
      "stateMutability": "nonpayable",
      "type": "function"
    },
    {
      "constant": true,
      "inputs": [
        {
          "name": "tokenId",
          "type": "uint80"
        }
      ],
      "name": "getOwnershipModified",
      "outputs": [
        {
          "name": "",
          "type": "uint32"
        }
      ],
      "payable": false,
      "stateMutability": "view",
      "type": "function"
    },
    {
      "constant": true,
      "inputs": [],
      "name": "FEATURE_TRANSFERS",
      "outputs": [
        {
          "name": "",
          "type": "uint32"
        }
      ],
      "payable": false,
      "stateMutability": "view",
      "type": "function"
    },
    {
      "constant": true,
      "inputs": [],
      "name": "MASK_RIGHT_31BITS",
      "outputs": [
        {
          "name": "",
          "type": "uint256"
        }
      ],
      "payable": false,
      "stateMutability": "view",
      "type": "function"
    },
    {
      "constant": false,
      "inputs": [
        {
          "name": "to",
          "type": "address"
        },
        {
          "name": "tokenId",
          "type": "uint80"
        }
      ],
      "name": "approve",
      "outputs": [],
      "payable": false,
      "stateMutability": "nonpayable",
      "type": "function"
    },
    {
      "constant": true,
      "inputs": [
        {
          "name": "tokenId",
          "type": "uint80"
        }
      ],
      "name": "isLocked",
      "outputs": [
        {
          "name": "",
          "type": "bool"
        }
      ],
      "payable": false,
      "stateMutability": "view",
      "type": "function"
    },
    {
      "constant": true,
      "inputs": [
        {
          "name": "roleRequired",
          "type": "uint32"
        }
      ],
      "name": "isFeatureEnabledAndSenderInRole",
      "outputs": [
        {
          "name": "",
          "type": "bool"
        }
      ],
      "payable": false,
      "stateMutability": "view",
      "type": "function"
    },
    {
      "constant": false,
      "inputs": [
        {
          "name": "tokenId",
          "type": "uint80"
        },
        {
          "name": "state",
          "type": "uint32"
        }
      ],
      "name": "setState",
      "outputs": [],
      "payable": false,
      "stateMutability": "nonpayable",
      "type": "function"
    },
    {
      "constant": true,
      "inputs": [
        {
          "name": "tokenId",
          "type": "uint80"
        }
      ],
      "name": "ownerOf",
      "outputs": [
        {
          "name": "",
          "type": "address"
        }
      ],
      "payable": false,
      "stateMutability": "view",
      "type": "function"
    },
    {
      "constant": true,
      "inputs": [
        {
          "name": "tokenId",
          "type": "uint80"
        }
      ],
      "name": "getCreationTime",
      "outputs": [
        {
          "name": "",
          "type": "uint32"
        }
      ],
      "payable": false,
      "stateMutability": "view",
      "type": "function"
    },
    {
      "constant": false,
      "inputs": [
        {
          "name": "to",
          "type": "address"
        },
        {
          "name": "approved",
          "type": "bool"
        }
      ],
      "name": "approveForAll",
      "outputs": [],
      "payable": false,
      "stateMutability": "nonpayable",
      "type": "function"
    },
    {
      "constant": false,
      "inputs": [
        {
          "name": "from",
          "type": "address"
        },
        {
          "name": "to",
          "type": "address"
        },
        {
          "name": "tokenId",
          "type": "uint80"
        }
      ],
      "name": "transferFrom",
      "outputs": [],
      "payable": false,
      "stateMutability": "nonpayable",
      "type": "function"
    },
    {
      "constant": true,
      "inputs": [
        {
          "name": "",
          "type": "uint80"
        }
      ],
      "name": "indexes",
      "outputs": [
        {
          "name": "",
          "type": "uint80"
        }
      ],
      "payable": false,
      "stateMutability": "view",
      "type": "function"
    },
    {
      "constant": true,
      "inputs": [
        {
          "name": "actualRole",
          "type": "uint32"
        },
        {
          "name": "roleRequired",
          "type": "uint32"
        }
      ],
      "name": "isFeatureEnabledAndHasRole",
      "outputs": [
        {
          "name": "",
          "type": "bool"
        }
      ],
      "payable": false,
      "stateMutability": "view",
      "type": "function"
    },
    {
      "anonymous": false,
      "inputs": [
        {
          "indexed": true,
          "name": "tokenId",
          "type": "uint80"
        },
        {
          "indexed": true,
          "name": "to",
          "type": "address"
        },
        {
          "indexed": false,
          "name": "by",
          "type": "address"
        }
      ],
      "name": "Minted",
      "type": "event"
    },
    {
      "anonymous": false,
      "inputs": [
        {
          "indexed": true,
          "name": "tokenId",
          "type": "uint80"
        },
        {
          "indexed": true,
          "name": "from",
          "type": "address"
        },
        {
          "indexed": false,
          "name": "by",
          "type": "address"
        }
      ],
      "name": "Burnt",
      "type": "event"
    },
    {
      "anonymous": false,
      "inputs": [
        {
          "indexed": true,
          "name": "from",
          "type": "address"
        },
        {
          "indexed": true,
          "name": "to",
          "type": "address"
        },
        {
          "indexed": false,
          "name": "tokenId",
          "type": "uint80"
        }
      ],
      "name": "Transfer",
      "type": "event"
    },
    {
      "anonymous": false,
      "inputs": [
        {
          "indexed": true,
          "name": "owner",
          "type": "address"
        },
        {
          "indexed": true,
          "name": "approved",
          "type": "address"
        },
        {
          "indexed": false,
          "name": "tokenId",
          "type": "uint80"
        }
      ],
      "name": "Approval",
      "type": "event"
    },
    {
      "anonymous": false,
      "inputs": [
        {
          "indexed": true,
          "name": "owner",
          "type": "address"
        },
        {
          "indexed": true,
          "name": "operator",
          "type": "address"
        },
        {
          "indexed": false,
          "name": "approved",
          "type": "uint256"
        }
      ],
      "name": "ApprovalForAll",
      "type": "event"
    }
  ],
  "bytecode": "0x6080604052600033905063ffffffff600360008373ffffffffffffffffffffffffffffffffffffffff1673ffffffffffffffffffffffffffffffffffffffff16815260200190815260200160002060006101000a81548163ffffffff021916908363ffffffff16021790555050612f8c8061007b6000396000f300608060405260043610610267576000357c0100000000000000000000000000000000000000000000000000000000900463ffffffff16806301170e021461026c57806302965607146102a557806306fdde03146102d057806318160ddd146103605780631cb0816d146103a35780632022cc75146103da57806326121ff0146104115780632637588e146104485780632aa0e3aa146104bf57806330cf6f6814610518578063313ce5671461056557806331523dbc1461059657806333ccc217146105e35780633862ea9d1461063657806341c65d141461066d57806343a7ab5f146106d3578063441fc52e14610759578063456cea59146107d257806349a764cd1461083b578063557f0b48146108b4578063565f6fec146108df5780635e0a016e1461093857806370a082311461099157806374d5e10014610a005780637ad241ea14610a63578063818f4f3014610aae57806383408e3914610ae15780638353bb5114610b0c57806383a5cf9814610b435780638d4e57e614610b965780638f6fba8c14610bcd578063908e04f714610c0457806395d89b4114610c5d578063a670cb2d14610ced578063af26dc8914610d24578063b40992a114610d7f578063b893b6f114610dc2578063bdf01a7614610e13578063be5542bf14610e46578063c0d6568d14610e9f578063c0f2ba3e14610ed6578063d17219ec14610f01578063d24f0a5d14610f5a578063d8ffc4d714610fab578063dab9a31114610ff6578063de8482671461103f578063e18b5bdf146110b8578063e584b65414611111578063ee7684b214611160578063f0540b58146111d9578063f48261e41461123e575b600080fd5b34801561027857600080fd5b506102a3600480360381019080803569ffffffffffffffffffff169060200190929190505050611299565b005b3480156102b157600080fd5b506102ba6112bc565b6040518082815260200191505060405180910390f35b3480156102dc57600080fd5b506102e56112dc565b6040518080602001828103825283818151815260200191508051906020019080838360005b8381101561032557808201518184015260208101905061030a565b50505050905090810190601f1680156103525780820380516001836020036101000a031916815260200191505b509250505060405180910390f35b34801561036c57600080fd5b50610375611315565b604051808269ffffffffffffffffffff1669ffffffffffffffffffff16815260200191505060405180910390f35b3480156103af57600080fd5b506103b8611331565b604051808263ffffffff1663ffffffff16815260200191505060405180910390f35b3480156103e657600080fd5b506103ef611338565b604051808263ffffffff1663ffffffff16815260200191505060405180910390f35b34801561041d57600080fd5b50610426611340565b604051808263ffffffff1663ffffffff16815260200191505060405180910390f35b34801561045457600080fd5b506104a9600480360381019080803573ffffffffffffffffffffffffffffffffffffffff169060200190929190803573ffffffffffffffffffffffffffffffffffffffff169060200190929190505050611356565b6040518082815260200191505060405180910390f35b3480156104cb57600080fd5b506104f6600480360381019080803569ffffffffffffffffffff16906020019092919050505061137b565b604051808263ffffffff1663ffffffff16815260200191505060405180910390f35b34801561052457600080fd5b50610563600480360381019080803573ffffffffffffffffffffffffffffffffffffffff16906020019092919080359060200190929190505050611398565b005b34801561057157600080fd5b5061057a6113fd565b604051808260ff1660ff16815260200191505060405180910390f35b3480156105a257600080fd5b506105cd600480360381019080803569ffffffffffffffffffff169060200190929190505050611402565b6040518082815260200191505060405180910390f35b3480156105ef57600080fd5b50610634600480360381019080803573ffffffffffffffffffffffffffffffffffffffff169060200190929190803563ffffffff16906020019092919050505061141a565b005b34801561064257600080fd5b5061064b6115de565b604051808263ffffffff1663ffffffff16815260200191505060405180910390f35b34801561067957600080fd5b506106d1600480360381019080803590602001908201803590602001908080602002602001604051908101604052809392919081815260200183836020028082843782019150505050505091929192905050506115f4565b005b3480156106df57600080fd5b50610757600480360381019080803573ffffffffffffffffffffffffffffffffffffffff1690602001909291908035906020019082018035906020019080806020026020016040519081016040528093929190818152602001838360200280828437820191505050505050919291929050505061164c565b005b34801561076557600080fd5b50610790600480360381019080803569ffffffffffffffffffff16906020019092919050505061171c565b604051808273ffffffffffffffffffffffffffffffffffffffff1673ffffffffffffffffffffffffffffffffffffffff16815260200191505060405180910390f35b3480156107de57600080fd5b50610809600480360381019080803569ffffffffffffffffffff16906020019092919050505061174f565b60405180826bffffffffffffffffffffffff166bffffffffffffffffffffffff16815260200191505060405180910390f35b34801561084757600080fd5b50610886600480360381019080803573ffffffffffffffffffffffffffffffffffffffff1690602001909291908035906020019092919050505061179f565b604051808269ffffffffffffffffffff1669ffffffffffffffffffff16815260200191505060405180910390f35b3480156108c057600080fd5b506108c96117ed565b6040518082815260200191505060405180910390f35b3480156108eb57600080fd5b50610916600480360381019080803569ffffffffffffffffffff169060200190929190505050611811565b604051808263ffffffff1663ffffffff16815260200191505060405180910390f35b34801561094457600080fd5b5061098f600480360381019080803573ffffffffffffffffffffffffffffffffffffffff169060200190929190803569ffffffffffffffffffff16906020019092919050505061183e565b005b34801561099d57600080fd5b506109d2600480360381019080803573ffffffffffffffffffffffffffffffffffffffff1690602001909291905050506118da565b604051808269ffffffffffffffffffff1669ffffffffffffffffffff16815260200191505060405180910390f35b348015610a0c57600080fd5b50610a41600480360381019080803573ffffffffffffffffffffffffffffffffffffffff169060200190929190505050611926565b604051808263ffffffff1663ffffffff16815260200191505060405180910390f35b348015610a6f57600080fd5b50610a94600480360381019080803563ffffffff169060200190929190505050611949565b604051808215151515815260200191505060405180910390f35b348015610aba57600080fd5b50610adf600480360381019080803563ffffffff16906020019092919050505061196e565b005b348015610aed57600080fd5b50610af66119a9565b6040518082815260200191505060405180910390f35b348015610b1857600080fd5b50610b216119cd565b604051808263ffffffff1663ffffffff16815260200191505060405180910390f35b348015610b4f57600080fd5b50610b94600480360381019080803573ffffffffffffffffffffffffffffffffffffffff169060200190929190803563ffffffff1690602001909291905050506119d4565b005b348015610ba257600080fd5b50610bab611b28565b604051808263ffffffff1663ffffffff16815260200191505060405180910390f35b348015610bd957600080fd5b50610be2611b2f565b604051808263ffffffff1663ffffffff16815260200191505060405180910390f35b348015610c1057600080fd5b50610c5b600480360381019080803573ffffffffffffffffffffffffffffffffffffffff169060200190929190803569ffffffffffffffffffff169060200190929190505050611b34565b005b348015610c6957600080fd5b50610c72611b5e565b6040518080602001828103825283818151815260200191508051906020019080838360005b83811015610cb2578082015181840152602081019050610c97565b50505050905090810190601f168015610cdf5780820380516001836020036101000a031916815260200191505b509250505060405180910390f35b348015610cf957600080fd5b50610d02611b97565b604051808263ffffffff1663ffffffff16815260200191505060405180910390f35b348015610d3057600080fd5b50610d65600480360381019080803563ffffffff169060200190929190803563ffffffff169060200190929190505050611b9e565b604051808215151515815260200191505060405180910390f35b348015610d8b57600080fd5b50610dc0600480360381019080803573ffffffffffffffffffffffffffffffffffffffff169060200190929190505050611bb9565b005b348015610dce57600080fd5b50610df9600480360381019080803569ffffffffffffffffffff169060200190929190505050611c25565b604051808215151515815260200191505060405180910390f35b348015610e1f57600080fd5b50610e44600480360381019080803563ffffffff169060200190929190505050611c61565b005b348015610e5257600080fd5b50610e7d600480360381019080803569ffffffffffffffffffff169060200190929190505050611d52565b604051808263ffffffff1663ffffffff16815260200191505060405180910390f35b348015610eab57600080fd5b50610eb4611d69565b604051808263ffffffff1663ffffffff16815260200191505060405180910390f35b348015610ee257600080fd5b50610eeb611d6e565b6040518082815260200191505060405180910390f35b348015610f0d57600080fd5b50610f58600480360381019080803573ffffffffffffffffffffffffffffffffffffffff169060200190929190803569ffffffffffffffffffff169060200190929190505050611d76565b005b348015610f6657600080fd5b50610f91600480360381019080803569ffffffffffffffffffff169060200190929190505050611ecb565b604051808215151515815260200191505060405180910390f35b348015610fb757600080fd5b50610fdc600480360381019080803563ffffffff169060200190929190505050611eff565b604051808215151515815260200191505060405180910390f35b34801561100257600080fd5b5061103d600480360381019080803569ffffffffffffffffffff169060200190929190803563ffffffff169060200190929190505050611f6c565b005b34801561104b57600080fd5b50611076600480360381019080803569ffffffffffffffffffff169060200190929190505050612022565b604051808273ffffffffffffffffffffffffffffffffffffffff1673ffffffffffffffffffffffffffffffffffffffff16815260200191505060405180910390f35b3480156110c457600080fd5b506110ef600480360381019080803569ffffffffffffffffffff16906020019092919050505061206a565b604051808263ffffffff1663ffffffff16815260200191505060405180910390f35b34801561111d57600080fd5b5061115e600480360381019080803573ffffffffffffffffffffffffffffffffffffffff169060200190929190803515159060200190929190505050612097565b005b34801561116c57600080fd5b506111d7600480360381019080803573ffffffffffffffffffffffffffffffffffffffff169060200190929190803573ffffffffffffffffffffffffffffffffffffffff169060200190929190803569ffffffffffffffffffff1690602001909291905050506120d2565b005b3480156111e557600080fd5b50611210600480360381019080803569ffffffffffffffffffff1690602001909291905050506122b0565b604051808269ffffffffffffffffffff1669ffffffffffffffffffff16815260200191505060405180910390f35b34801561124a57600080fd5b5061127f600480360381019080803563ffffffff169060200190929190803563ffffffff1690602001909291905050506122d9565b604051808215151515815260200191505060405180910390f35b6112a562010000611eff565b15156112b057600080fd5b6112b981612301565b50565b7bffffffffffffffffffffffffffffffffffffffffffffffffffffffff81565b6040805190810160405280601a81526020017f47454d20e280932043727970746f204d696e657220576f726c6400000000000081525081565b600660009054906101000a900469ffffffffffffffffffff1681565b6208000081565b63ffffffff81565b6006600e9054906101000a900463ffffffff1681565b6002602052816000526040600020602052806000526040600020600091509150505481565b60008061138783611811565b9050637fffffff8116915050919050565b60006113a46002611949565b15156113af57600080fd5b3390508073ffffffffffffffffffffffffffffffffffffffff168373ffffffffffffffffffffffffffffffffffffffff16141515156113ed57600080fd5b6113f88184846124e5565b505050565b600081565b60006020528060005260406000206000915090505481565b6000806000339250600360008473ffffffffffffffffffffffffffffffffffffffff1673ffffffffffffffffffffffffffffffffffffffff16815260200190815260200160002060009054906101000a900463ffffffff16915061148182620400006122d9565b151561148c57600080fd5b8163ffffffff1684831763ffffffff161415156114a857600080fd5b6000600360008773ffffffffffffffffffffffffffffffffffffffff1673ffffffffffffffffffffffffffffffffffffffff16815260200190815260200160002060009054906101000a900463ffffffff1663ffffffff161415151561150d57600080fd5b600360008673ffffffffffffffffffffffffffffffffffffffff1673ffffffffffffffffffffffffffffffffffffffff16815260200190815260200160002060009054906101000a900463ffffffff169050838216811790508363ffffffff18821663ffffffff188116905080600360008773ffffffffffffffffffffffffffffffffffffffff1673ffffffffffffffffffffffffffffffffffffffff16815260200190815260200160002060006101000a81548163ffffffff021916908363ffffffff1602179055505050505050565b6006600a9054906101000a900463ffffffff1681565b600061160262010000611eff565b151561160d57600080fd5b600090505b81518110156116485761163b828281518110151561162c57fe5b90602001906020020151612301565b8080600101915050611612565b5050565b60008073ffffffffffffffffffffffffffffffffffffffff168373ffffffffffffffffffffffffffffffffffffffff161415151561168957600080fd5b3073ffffffffffffffffffffffffffffffffffffffff168373ffffffffffffffffffffffffffffffffffffffff16141515156116c457600080fd5b6116d062010000611eff565b15156116db57600080fd5b600090505b81518110156117175761170a8383838151811015156116fb57fe5b906020019060200201516125d0565b80806001019150506116e0565b505050565b60016020528060005260406000206000915054906101000a900473ffffffffffffffffffffffffffffffffffffffff1681565b6000806000808469ffffffffffffffffffff1669ffffffffffffffffffff16815260200190815260200160002054905060008111151561178e57600080fd5b60a0819060020a9004915050919050565b6004602052816000526040600020818154811015156117ba57fe5b9060005260206000209060039182820401919006600a02915091509054906101000a900469ffffffffffffffffffff1681565b7fffffffffffffffffffffffffffffffffffffffffffffffffffffffffffffffff81565b60008061181d8361174f565b90506040816bffffffffffffffffffffffff169060020a9004915050919050565b600073ffffffffffffffffffffffffffffffffffffffff168273ffffffffffffffffffffffffffffffffffffffff161415151561187a57600080fd5b3073ffffffffffffffffffffffffffffffffffffffff168273ffffffffffffffffffffffffffffffffffffffff16141515156118b557600080fd5b6118c162010000611eff565b15156118cc57600080fd5b6118d682826125d0565b5050565b6000600460008373ffffffffffffffffffffffffffffffffffffffff1673ffffffffffffffffffffffffffffffffffffffff168152602001908152602001600020805490509050919050565b60036020528060005260406000206000915054906101000a900463ffffffff1681565b60006119676006600e9054906101000a900463ffffffff1683611b9e565b9050919050565b61197a62020000611eff565b151561198557600080fd5b806006600a6101000a81548163ffffffff021916908363ffffffff16021790555050565b7fffffffffffffffff00000000000000000000000000000000000000000000000081565b6202000081565b600080339150600360008373ffffffffffffffffffffffffffffffffffffffff1673ffffffffffffffffffffffffffffffffffffffff16815260200190815260200160002060009054906101000a900463ffffffff169050611a3981620400006122d9565b1515611a4457600080fd5b8063ffffffff1683821763ffffffff16141515611a6057600080fd5b6000600360008673ffffffffffffffffffffffffffffffffffffffff1673ffffffffffffffffffffffffffffffffffffffff16815260200190815260200160002060009054906101000a900463ffffffff1663ffffffff16141515611ac457600080fd5b82600360008673ffffffffffffffffffffffffffffffffffffffff1673ffffffffffffffffffffffffffffffffffffffff16815260200190815260200160002060006101000a81548163ffffffff021916908363ffffffff16021790555050505050565b6201000081565b600281565b6000611b406001611949565b1515611b4b57600080fd5b339050611b59818484612907565b505050565b6040805190810160405280600381526020017f47454d000000000000000000000000000000000000000000000000000000000081525081565b6204000081565b60008163ffffffff1682841663ffffffff1614905092915050565b611bc562040000611eff565b1515611bd057600080fd5b600360008273ffffffffffffffffffffffffffffffffffffffff1673ffffffffffffffffffffffffffffffffffffffff16815260200190815260200160002060006101000a81549063ffffffff021916905550565b6000806000808469ffffffffffffffffffff1669ffffffffffffffffffff16815260200190815260200160002054905060008111915050919050565b600080339150600360008373ffffffffffffffffffffffffffffffffffffffff1673ffffffffffffffffffffffffffffffffffffffff16815260200190815260200160002060009054906101000a900463ffffffff169050611cc68162080000611b9e565b1515611cd157600080fd5b8281166006600e8282829054906101000a900463ffffffff161792506101000a81548163ffffffff021916908363ffffffff1602179055508263ffffffff18811663ffffffff186006600e8282829054906101000a900463ffffffff161692506101000a81548163ffffffff021916908363ffffffff160217905550505050565b600080611d5e8361174f565b905080915050919050565b600181565b637fffffff81565b600080611d836002611949565b1515611d8e57600080fd5b339150611d9a83612022565b90508073ffffffffffffffffffffffffffffffffffffffff168273ffffffffffffffffffffffffffffffffffffffff16141515611dd657600080fd5b8073ffffffffffffffffffffffffffffffffffffffff168473ffffffffffffffffffffffffffffffffffffffff1614151515611e1157600080fd5b6000600160008569ffffffffffffffffffff1669ffffffffffffffffffff16815260200190815260200160002060009054906101000a900473ffffffffffffffffffffffffffffffffffffffff1673ffffffffffffffffffffffffffffffffffffffff16141580611eaf5750600073ffffffffffffffffffffffffffffffffffffffff168473ffffffffffffffffffffffffffffffffffffffff1614155b1515611eba57600080fd5b611ec5828585612b46565b50505050565b600080611ed783611811565b905060006006600a9054906101000a900463ffffffff16821663ffffffff1611915050919050565b6000806000339150600360008373ffffffffffffffffffffffffffffffffffffffff1673ffffffffffffffffffffffffffffffffffffffff16815260200190815260200160002060009054906101000a900463ffffffff169050611f6381856122d9565b92505050919050565b6000611f7a62020000611eff565b1515611f8557600080fd5b6000808469ffffffffffffffffffff1669ffffffffffffffffffff168152602001908152602001600020549050600081111515611fc157600080fd5b60e08263ffffffff169060020a027bffffffffffffffffffffffffffffffffffffffffffffffffffffffff8216176000808569ffffffffffffffffffff1669ffffffffffffffffffff16815260200190815260200160002081905550505050565b6000806000808469ffffffffffffffffffff1669ffffffffffffffffffff16815260200190815260200160002054905060008111151561206157600080fd5b80915050919050565b6000806120768361174f565b90506020816bffffffffffffffffffffffff169060020a9004915050919050565b6120ce82826120a75760006120c9565b7fffffffffffffffffffffffffffffffffffffffffffffffffffffffffffffffff5b611398565b5050565b6000806000806120e26002611949565b15156120ed57600080fd5b339350600160008669ffffffffffffffffffff1669ffffffffffffffffffff16815260200190815260200160002060009054906101000a900473ffffffffffffffffffffffffffffffffffffffff16925061214785612022565b9150600260008373ffffffffffffffffffffffffffffffffffffffff1673ffffffffffffffffffffffffffffffffffffffff16815260200190815260200160002060008573ffffffffffffffffffffffffffffffffffffffff1673ffffffffffffffffffffffffffffffffffffffff1681526020019081526020016000205490508673ffffffffffffffffffffffffffffffffffffffff168473ffffffffffffffffffffffffffffffffffffffff16148061222d57508273ffffffffffffffffffffffffffffffffffffffff168473ffffffffffffffffffffffffffffffffffffffff16145b806122385750600081115b151561224357600080fd5b8273ffffffffffffffffffffffffffffffffffffffff168473ffffffffffffffffffffffffffffffffffffffff1614156122845761228387600087612b46565b5b600081111561229c5761229b8787600184036124e5565b5b6122a7878787612907565b50505050505050565b60056020528060005260406000206000915054906101000a900469ffffffffffffffffffff1681565b60006122f9836006600e9054906101000a900463ffffffff161683611b9e565b905092915050565b60008061230d83611ecb565b15151561231957600080fd5b6000808469ffffffffffffffffffff1669ffffffffffffffffffff1681526020019081526020016000205491508190506123538184612c32565b6006600081819054906101000a900469ffffffffffffffffffff16809291906001900391906101000a81548169ffffffffffffffffffff021916908369ffffffffffffffffffff160217905550506123ad81600085612b46565b6000808469ffffffffffffffffffff1669ffffffffffffffffffff168152602001908152602001600020600090558073ffffffffffffffffffffffffffffffffffffffff168369ffffffffffffffffffff167fb369589e4d228db5b2331979fb19b9e13db939b671605a45ee8faf93114bf83a33604051808273ffffffffffffffffffffffffffffffffffffffff1673ffffffffffffffffffffffffffffffffffffffff16815260200191505060405180910390a3600073ffffffffffffffffffffffffffffffffffffffff168173ffffffffffffffffffffffffffffffffffffffff167fa0f2d9d810b7227d93b1d65511f1321d5331a7a323e6d357130dda4aa99690a085604051808269ffffffffffffffffffff1669ffffffffffffffffffff16815260200191505060405180910390a3505050565b80600260008573ffffffffffffffffffffffffffffffffffffffff1673ffffffffffffffffffffffffffffffffffffffff16815260200190815260200160002060008473ffffffffffffffffffffffffffffffffffffffff1673ffffffffffffffffffffffffffffffffffffffff168152602001908152602001600020819055508173ffffffffffffffffffffffffffffffffffffffff168373ffffffffffffffffffffffffffffffffffffffff167f935230e68d0344049b3ab530b10aa82a70705c7069af8b4cb5f52671eb13d120836040518082815260200191505060405180910390a3505050565b6000808269ffffffffffffffffffff16141515156125ed57600080fd5b60008060008469ffffffffffffffffffff1669ffffffffffffffffffff1681526020019081526020016000205414151561262657600080fd5b8273ffffffffffffffffffffffffffffffffffffffff1660c0612647612ddc565b9060020a02179050600460008473ffffffffffffffffffffffffffffffffffffffff1673ffffffffffffffffffffffffffffffffffffffff16815260200190815260200160002080549050600560008469ffffffffffffffffffff1669ffffffffffffffffffff16815260200190815260200160002060006101000a81548169ffffffffffffffffffff021916908369ffffffffffffffffffff160217905550600460008473ffffffffffffffffffffffffffffffffffffffff1673ffffffffffffffffffffffffffffffffffffffff16815260200190815260200160002082908060018154018082558091505090600182039060005260206000209060039182820401919006600a02909192909190916101000a81548169ffffffffffffffffffff021916908369ffffffffffffffffffff16021790555050806000808469ffffffffffffffffffff1669ffffffffffffffffffff168152602001908152602001600020819055506006600081819054906101000a900469ffffffffffffffffffff168092919060010191906101000a81548169ffffffffffffffffffff021916908369ffffffffffffffffffff160217905550508273ffffffffffffffffffffffffffffffffffffffff168269ffffffffffffffffffff167fc1b4aa2dcfeb8b1a00a5857e6e94dc4218414da2c7b0ce7bfa0aa277d2f449a933604051808273ffffffffffffffffffffffffffffffffffffffff1673ffffffffffffffffffffffffffffffffffffffff16815260200191505060405180910390a38273ffffffffffffffffffffffffffffffffffffffff16600073ffffffffffffffffffffffffffffffffffffffff167fa0f2d9d810b7227d93b1d65511f1321d5331a7a323e6d357130dda4aa99690a084604051808269ffffffffffffffffffff1669ffffffffffffffffffff16815260200191505060405180910390a3505050565b60008073ffffffffffffffffffffffffffffffffffffffff168473ffffffffffffffffffffffffffffffffffffffff161415151561294457600080fd5b600073ffffffffffffffffffffffffffffffffffffffff168373ffffffffffffffffffffffffffffffffffffffff161415151561298057600080fd5b8373ffffffffffffffffffffffffffffffffffffffff168373ffffffffffffffffffffffffffffffffffffffff16141515156129bb57600080fd5b6000808369ffffffffffffffffffff1669ffffffffffffffffffff1681526020019081526020016000205490506129f182612022565b73ffffffffffffffffffffffffffffffffffffffff168473ffffffffffffffffffffffffffffffffffffffff16141515612a2a57600080fd5b612a3382611ecb565b151515612a3f57600080fd5b612a4a848484612dea565b8273ffffffffffffffffffffffffffffffffffffffff1660a0612a6b612ddc565b9060020a027fffffffffffffffff000000000000000000000000000000000000000000000000831617176000808469ffffffffffffffffffff1669ffffffffffffffffffff168152602001908152602001600020819055508273ffffffffffffffffffffffffffffffffffffffff168473ffffffffffffffffffffffffffffffffffffffff167fa0f2d9d810b7227d93b1d65511f1321d5331a7a323e6d357130dda4aa99690a084604051808269ffffffffffffffffffff1669ffffffffffffffffffff16815260200191505060405180910390a350505050565b81600160008369ffffffffffffffffffff1669ffffffffffffffffffff16815260200190815260200160002060006101000a81548173ffffffffffffffffffffffffffffffffffffffff021916908373ffffffffffffffffffffffffffffffffffffffff1602179055508173ffffffffffffffffffffffffffffffffffffffff168373ffffffffffffffffffffffffffffffffffffffff167f3212f41ec92f177d999db7467a64faeb241827d867f4f176dc2be61581122d1a83604051808269ffffffffffffffffffff1669ffffffffffffffffffff16815260200191505060405180910390a3505050565b6000806000600460008673ffffffffffffffffffffffffffffffffffffffff1673ffffffffffffffffffffffffffffffffffffffff16815260200190815260200160002092506000838054905014151515612c8957fe5b600560008569ffffffffffffffffffff1669ffffffffffffffffffff16815260200190815260200160002060009054906101000a900469ffffffffffffffffffff169150826001848054905003815481101515612ce257fe5b9060005260206000209060039182820401919006600a029054906101000a900469ffffffffffffffffffff16905081600560008369ffffffffffffffffffff1669ffffffffffffffffffff16815260200190815260200160002060006101000a81548169ffffffffffffffffffff021916908369ffffffffffffffffffff16021790555080838369ffffffffffffffffffff16815481101515612d8157fe5b9060005260206000209060039182820401919006600a026101000a81548169ffffffffffffffffffff021916908369ffffffffffffffffffff16021790555082805480919060019003612dd49190612f01565b505050505050565b600043637fffffff16905090565b612df48382612c32565b612dfe8282612e03565b505050565b6000600460008473ffffffffffffffffffffffffffffffffffffffff1673ffffffffffffffffffffffffffffffffffffffff16815260200190815260200160002090508080549050600560008469ffffffffffffffffffff1669ffffffffffffffffffff16815260200190815260200160002060006101000a81548169ffffffffffffffffffff021916908369ffffffffffffffffffff1602179055508082908060018154018082558091505090600182039060005260206000209060039182820401919006600a02909192909190916101000a81548169ffffffffffffffffffff021916908369ffffffffffffffffffff16021790555050505050565b815481835581811115612f36576002016003900481600201600390048360005260206000209182019101612f359190612f3b565b5b505050565b612f5d91905b80821115612f59576000816000905550600101612f41565b5090565b905600a165627a7a72305820294a32d6905698b18643d8d1dddc18dff332299b0b6e0d1d3de540adcc85d9ac0029",
  "source": "pragma solidity 0.4.23;\n\nimport \"./Token.sol\";\n\n/// @dev extends Token by adding ERC20 compliant token symbol, name and decimals\ncontract Gem is Token {\n  string public constant symbol = \"GEM\";\n  string public constant name = \"GEM  Crypto Miner World\";\n  uint8 public constant decimals = 0;\n}\n",
  "sourcePath": "/Users/vgorin/DEVELOP/upwork/Sophophilia/crypto-miner/contracts/Gem.sol",
  "compiler": {
    "name": "solc",
    "version": "0.4.23+commit.124ca40d.Emscripten.clang"
  },
  "schemaVersion": "2.0.0",
  "updatedAt": "2018-05-06T07:02:50.202Z"
}