{
  "contractName": "Gem",
  "abi": [
    {
      "constant": false,
      "inputs": [
        {
          "name": "tokenId",
          "type": "uint80"
        }
      ],
      "name": "burn",
      "outputs": [],
      "payable": false,
      "stateMutability": "nonpayable",
      "type": "function"
    },
    {
      "constant": true,
      "inputs": [],
      "name": "MASK_CLEAR_STATE",
      "outputs": [
        {
          "name": "",
          "type": "uint256"
        }
      ],
      "payable": false,
      "stateMutability": "view",
      "type": "function"
    },
    {
      "constant": true,
      "inputs": [],
      "name": "name",
      "outputs": [
        {
          "name": "",
          "type": "string"
        }
      ],
      "payable": false,
      "stateMutability": "view",
      "type": "function"
    },
    {
      "constant": true,
      "inputs": [],
      "name": "totalSupply",
      "outputs": [
        {
          "name": "",
          "type": "uint80"
        }
      ],
      "payable": false,
      "stateMutability": "view",
      "type": "function"
    },
    {
      "constant": true,
      "inputs": [],
      "name": "ROLE_FEATURE_MANAGER",
      "outputs": [
        {
          "name": "",
          "type": "uint32"
        }
      ],
      "payable": false,
      "stateMutability": "view",
      "type": "function"
    },
    {
      "constant": true,
      "inputs": [],
      "name": "FULL_PRIVILEGES_MASK",
      "outputs": [
        {
          "name": "",
          "type": "uint32"
        }
      ],
      "payable": false,
      "stateMutability": "view",
      "type": "function"
    },
    {
      "constant": true,
      "inputs": [],
      "name": "f",
      "outputs": [
        {
          "name": "",
          "type": "uint32"
        }
      ],
      "payable": false,
      "stateMutability": "view",
      "type": "function"
    },
    {
      "constant": true,
      "inputs": [
        {
          "name": "",
          "type": "address"
        },
        {
          "name": "",
          "type": "address"
        }
      ],
      "name": "operators",
      "outputs": [
        {
          "name": "",
          "type": "uint256"
        }
      ],
      "payable": false,
      "stateMutability": "view",
      "type": "function"
    },
    {
      "constant": true,
      "inputs": [
        {
          "name": "tokenId",
          "type": "uint80"
        }
      ],
      "name": "getLastLockingBlock",
      "outputs": [
        {
          "name": "",
          "type": "uint32"
        }
      ],
      "payable": false,
      "stateMutability": "view",
      "type": "function"
    },
    {
      "constant": false,
      "inputs": [
        {
          "name": "to",
          "type": "address"
        },
        {
          "name": "approved",
          "type": "uint256"
        }
      ],
      "name": "approveForAll",
      "outputs": [],
      "payable": false,
      "stateMutability": "nonpayable",
      "type": "function"
    },
    {
      "constant": true,
      "inputs": [],
      "name": "decimals",
      "outputs": [
        {
          "name": "",
          "type": "uint8"
        }
      ],
      "payable": false,
      "stateMutability": "view",
      "type": "function"
    },
    {
      "constant": true,
      "inputs": [
        {
          "name": "",
          "type": "uint80"
        }
      ],
      "name": "tokens",
      "outputs": [
        {
          "name": "",
          "type": "uint256"
        }
      ],
      "payable": false,
      "stateMutability": "view",
      "type": "function"
    },
    {
      "constant": false,
      "inputs": [
        {
          "name": "operator",
          "type": "address"
        },
        {
          "name": "permissions",
          "type": "uint32"
        }
      ],
      "name": "updateOperator",
      "outputs": [],
      "payable": false,
      "stateMutability": "nonpayable",
      "type": "function"
    },
    {
      "constant": true,
      "inputs": [],
      "name": "lockedBitmask",
      "outputs": [
        {
          "name": "",
          "type": "uint32"
        }
      ],
      "payable": false,
      "stateMutability": "view",
      "type": "function"
    },
    {
      "constant": false,
      "inputs": [
        {
          "name": "to",
          "type": "address"
        },
        {
          "name": "data",
          "type": "uint80[]"
        }
      ],
      "name": "mintTokens",
      "outputs": [],
      "payable": false,
      "stateMutability": "nonpayable",
      "type": "function"
    },
    {
      "constant": true,
      "inputs": [
        {
          "name": "",
          "type": "uint80"
        }
      ],
      "name": "approvals",
      "outputs": [
        {
          "name": "",
          "type": "address"
        }
      ],
      "payable": false,
      "stateMutability": "view",
      "type": "function"
    },
    {
      "constant": true,
      "inputs": [
        {
          "name": "tokenId",
          "type": "uint80"
        }
      ],
      "name": "getToken",
      "outputs": [
        {
          "name": "",
          "type": "uint96"
        }
      ],
      "payable": false,
      "stateMutability": "view",
      "type": "function"
    },
    {
      "constant": true,
      "inputs": [
        {
          "name": "",
          "type": "address"
        },
        {
          "name": "",
          "type": "uint256"
        }
      ],
      "name": "collections",
      "outputs": [
        {
          "name": "",
          "type": "uint80"
        }
      ],
      "payable": false,
      "stateMutability": "view",
      "type": "function"
    },
    {
      "constant": true,
      "inputs": [],
      "name": "UNLIMITED_APPROVALS",
      "outputs": [
        {
          "name": "",
          "type": "uint256"
        }
      ],
      "payable": false,
      "stateMutability": "view",
      "type": "function"
    },
    {
      "constant": true,
      "inputs": [
        {
          "name": "tokenId",
          "type": "uint80"
        }
      ],
      "name": "getState",
      "outputs": [
        {
          "name": "",
          "type": "uint32"
        }
      ],
      "payable": false,
      "stateMutability": "view",
      "type": "function"
    },
    {
      "constant": false,
      "inputs": [
        {
          "name": "to",
          "type": "address"
        },
        {
          "name": "tokenId",
          "type": "uint80"
        }
      ],
      "name": "mint",
      "outputs": [],
      "payable": false,
      "stateMutability": "nonpayable",
      "type": "function"
    },
    {
      "constant": true,
      "inputs": [
        {
          "name": "who",
          "type": "address"
        }
      ],
      "name": "balanceOf",
      "outputs": [
        {
          "name": "",
          "type": "uint80"
        }
      ],
      "payable": false,
      "stateMutability": "view",
      "type": "function"
    },
    {
      "constant": true,
      "inputs": [
        {
          "name": "",
          "type": "address"
        }
      ],
      "name": "userRoles",
      "outputs": [
        {
          "name": "",
          "type": "uint32"
        }
      ],
      "payable": false,
      "stateMutability": "view",
      "type": "function"
    },
    {
      "constant": true,
      "inputs": [
        {
          "name": "feature",
          "type": "uint32"
        }
      ],
      "name": "isFeatureEnabled",
      "outputs": [
        {
          "name": "",
          "type": "bool"
        }
      ],
      "payable": false,
      "stateMutability": "view",
      "type": "function"
    },
    {
      "constant": false,
      "inputs": [
        {
          "name": "bitmask",
          "type": "uint32"
        }
      ],
      "name": "setLockedBitmask",
      "outputs": [],
      "payable": false,
      "stateMutability": "nonpayable",
      "type": "function"
    },
    {
      "constant": true,
      "inputs": [],
      "name": "MASK_CLEAR_TRANSFER",
      "outputs": [
        {
          "name": "",
          "type": "uint256"
        }
      ],
      "payable": false,
      "stateMutability": "view",
      "type": "function"
    },
    {
      "constant": true,
      "inputs": [],
      "name": "ROLE_STATE_PROVIDER",
      "outputs": [
        {
          "name": "",
          "type": "uint32"
        }
      ],
      "payable": false,
      "stateMutability": "view",
      "type": "function"
    },
    {
      "constant": false,
      "inputs": [
        {
          "name": "operator",
          "type": "address"
        },
        {
          "name": "permissions",
          "type": "uint32"
        }
      ],
      "name": "createOperator",
      "outputs": [],
      "payable": false,
      "stateMutability": "nonpayable",
      "type": "function"
    },
    {
      "constant": true,
      "inputs": [],
      "name": "ROLE_TOKEN_CREATOR",
      "outputs": [
        {
          "name": "",
          "type": "uint32"
        }
      ],
      "payable": false,
      "stateMutability": "view",
      "type": "function"
    },
    {
      "constant": true,
      "inputs": [],
      "name": "FEATURE_TRANSFERS_ON_BEHALF",
      "outputs": [
        {
          "name": "",
          "type": "uint32"
        }
      ],
      "payable": false,
      "stateMutability": "view",
      "type": "function"
    },
    {
      "constant": false,
      "inputs": [
        {
          "name": "to",
          "type": "address"
        },
        {
          "name": "tokenId",
          "type": "uint80"
        }
      ],
      "name": "transfer",
      "outputs": [],
      "payable": false,
      "stateMutability": "nonpayable",
      "type": "function"
    },
    {
      "constant": true,
      "inputs": [],
      "name": "symbol",
      "outputs": [
        {
          "name": "",
          "type": "string"
        }
      ],
      "payable": false,
      "stateMutability": "view",
      "type": "function"
    },
    {
      "constant": true,
      "inputs": [],
      "name": "ROLE_ROLE_MANAGER",
      "outputs": [
        {
          "name": "",
          "type": "uint32"
        }
      ],
      "payable": false,
      "stateMutability": "view",
      "type": "function"
    },
    {
      "constant": true,
      "inputs": [
        {
          "name": "actualRole",
          "type": "uint32"
        },
        {
          "name": "roleRequired",
          "type": "uint32"
        }
      ],
      "name": "hasRole",
      "outputs": [
        {
          "name": "",
          "type": "bool"
        }
      ],
      "payable": false,
      "stateMutability": "pure",
      "type": "function"
    },
    {
      "constant": false,
      "inputs": [
        {
          "name": "operator",
          "type": "address"
        }
      ],
      "name": "deleteOperator",
      "outputs": [],
      "payable": false,
      "stateMutability": "nonpayable",
      "type": "function"
    },
    {
      "constant": true,
      "inputs": [
        {
          "name": "tokenId",
          "type": "uint80"
        }
      ],
      "name": "exists",
      "outputs": [
        {
          "name": "",
          "type": "bool"
        }
      ],
      "payable": false,
      "stateMutability": "view",
      "type": "function"
    },
    {
      "constant": false,
      "inputs": [
        {
          "name": "mask",
          "type": "uint32"
        }
      ],
      "name": "updateFeatures",
      "outputs": [],
      "payable": false,
      "stateMutability": "nonpayable",
      "type": "function"
    },
    {
      "constant": true,
      "inputs": [
        {
          "name": "tokenId",
          "type": "uint80"
        }
      ],
      "name": "getOwnershipModified",
      "outputs": [
        {
          "name": "",
          "type": "uint32"
        }
      ],
      "payable": false,
      "stateMutability": "view",
      "type": "function"
    },
    {
      "constant": true,
      "inputs": [],
      "name": "FEATURE_TRANSFERS",
      "outputs": [
        {
          "name": "",
          "type": "uint32"
        }
      ],
      "payable": false,
      "stateMutability": "view",
      "type": "function"
    },
    {
      "constant": true,
      "inputs": [],
      "name": "MASK_RIGHT_31BITS",
      "outputs": [
        {
          "name": "",
          "type": "uint256"
        }
      ],
      "payable": false,
      "stateMutability": "view",
      "type": "function"
    },
    {
      "constant": false,
      "inputs": [
        {
          "name": "to",
          "type": "address"
        },
        {
          "name": "tokenId",
          "type": "uint80"
        }
      ],
      "name": "approve",
      "outputs": [],
      "payable": false,
      "stateMutability": "nonpayable",
      "type": "function"
    },
    {
      "constant": true,
      "inputs": [
        {
          "name": "tokenId",
          "type": "uint80"
        }
      ],
      "name": "isLocked",
      "outputs": [
        {
          "name": "",
          "type": "bool"
        }
      ],
      "payable": false,
      "stateMutability": "view",
      "type": "function"
    },
    {
      "constant": true,
      "inputs": [
        {
          "name": "roleRequired",
          "type": "uint32"
        }
      ],
      "name": "isFeatureEnabledAndSenderInRole",
      "outputs": [
        {
          "name": "",
          "type": "bool"
        }
      ],
      "payable": false,
      "stateMutability": "view",
      "type": "function"
    },
    {
      "constant": false,
      "inputs": [
        {
          "name": "tokenId",
          "type": "uint80"
        },
        {
          "name": "state",
          "type": "uint32"
        }
      ],
      "name": "setState",
      "outputs": [],
      "payable": false,
      "stateMutability": "nonpayable",
      "type": "function"
    },
    {
      "constant": true,
      "inputs": [
        {
          "name": "tokenId",
          "type": "uint80"
        }
      ],
      "name": "ownerOf",
      "outputs": [
        {
          "name": "",
          "type": "address"
        }
      ],
      "payable": false,
      "stateMutability": "view",
      "type": "function"
    },
    {
      "constant": true,
      "inputs": [
        {
          "name": "tokenId",
          "type": "uint80"
        }
      ],
      "name": "getCreationTime",
      "outputs": [
        {
          "name": "",
          "type": "uint32"
        }
      ],
      "payable": false,
      "stateMutability": "view",
      "type": "function"
    },
    {
      "constant": false,
      "inputs": [
        {
          "name": "to",
          "type": "address"
        },
        {
          "name": "approved",
          "type": "bool"
        }
      ],
      "name": "approveForAll",
      "outputs": [],
      "payable": false,
      "stateMutability": "nonpayable",
      "type": "function"
    },
    {
      "constant": false,
      "inputs": [
        {
          "name": "from",
          "type": "address"
        },
        {
          "name": "to",
          "type": "address"
        },
        {
          "name": "tokenId",
          "type": "uint80"
        }
      ],
      "name": "transferFrom",
      "outputs": [],
      "payable": false,
      "stateMutability": "nonpayable",
      "type": "function"
    },
    {
      "constant": true,
      "inputs": [
        {
          "name": "",
          "type": "uint80"
        }
      ],
      "name": "indexes",
      "outputs": [
        {
          "name": "",
          "type": "uint80"
        }
      ],
      "payable": false,
      "stateMutability": "view",
      "type": "function"
    },
    {
      "constant": true,
      "inputs": [
        {
          "name": "actualRole",
          "type": "uint32"
        },
        {
          "name": "roleRequired",
          "type": "uint32"
        }
      ],
      "name": "isFeatureEnabledAndHasRole",
      "outputs": [
        {
          "name": "",
          "type": "bool"
        }
      ],
      "payable": false,
      "stateMutability": "view",
      "type": "function"
    },
    {
      "anonymous": false,
      "inputs": [
        {
          "indexed": true,
          "name": "tokenId",
          "type": "uint80"
        },
        {
          "indexed": true,
          "name": "to",
          "type": "address"
        },
        {
          "indexed": false,
          "name": "by",
          "type": "address"
        }
      ],
      "name": "Minted",
      "type": "event"
    },
    {
      "anonymous": false,
      "inputs": [
        {
          "indexed": true,
          "name": "tokenId",
          "type": "uint80"
        },
        {
          "indexed": true,
          "name": "from",
          "type": "address"
        },
        {
          "indexed": false,
          "name": "by",
          "type": "address"
        }
      ],
      "name": "Burnt",
      "type": "event"
    },
    {
      "anonymous": false,
      "inputs": [
        {
          "indexed": true,
          "name": "from",
          "type": "address"
        },
        {
          "indexed": true,
          "name": "to",
          "type": "address"
        },
        {
          "indexed": false,
          "name": "tokenId",
          "type": "uint80"
        }
      ],
      "name": "Transfer",
      "type": "event"
    },
    {
      "anonymous": false,
      "inputs": [
        {
          "indexed": true,
          "name": "owner",
          "type": "address"
        },
        {
          "indexed": true,
          "name": "approved",
          "type": "address"
        },
        {
          "indexed": false,
          "name": "tokenId",
          "type": "uint80"
        }
      ],
      "name": "Approval",
      "type": "event"
    },
    {
      "anonymous": false,
      "inputs": [
        {
          "indexed": true,
          "name": "owner",
          "type": "address"
        },
        {
          "indexed": true,
          "name": "operator",
          "type": "address"
        },
        {
          "indexed": false,
          "name": "approved",
          "type": "uint256"
        }
      ],
      "name": "ApprovalForAll",
      "type": "event"
    }
  ],
  "bytecode": "0x6080604052600033905063ffffffff600360008373ffffffffffffffffffffffffffffffffffffffff1673ffffffffffffffffffffffffffffffffffffffff16815260200190815260200160002060006101000a81548163ffffffff021916908363ffffffff16021790555050612cea8061007b6000396000f30060806040526004361061025c576000357c0100000000000000000000000000000000000000000000000000000000900463ffffffff16806301170e0214610261578063029656071461029a57806306fdde03146102c557806318160ddd146103555780631cb0816d146103985780632022cc75146103cf57806326121ff0146104065780632637588e1461043d5780632aa0e3aa146104b457806330cf6f681461050d578063313ce5671461055a57806331523dbc1461058b57806333ccc217146105d85780633862ea9d1461062b57806343a7ab5f14610662578063441fc52e146106e8578063456cea591461076157806349a764cd146107ca578063557f0b4814610843578063565f6fec1461086e5780635e0a016e146108c757806370a082311461092057806374d5e1001461098f5780637ad241ea146109f2578063818f4f3014610a3d57806383408e3914610a705780638353bb5114610a9b57806383a5cf9814610ad25780638d4e57e614610b255780638f6fba8c14610b5c578063908e04f714610b9357806395d89b4114610bec578063a670cb2d14610c7c578063af26dc8914610cb3578063b40992a114610d0e578063b893b6f114610d51578063bdf01a7614610da2578063be5542bf14610dd5578063c0d6568d14610e2e578063c0f2ba3e14610e65578063d17219ec14610e90578063d24f0a5d14610ee9578063d8ffc4d714610f3a578063dab9a31114610f85578063de84826714610fce578063e18b5bdf14611047578063e584b654146110a0578063ee7684b2146110ef578063f0540b5814611168578063f48261e4146111cd575b600080fd5b34801561026d57600080fd5b50610298600480360381019080803569ffffffffffffffffffff169060200190929190505050611228565b005b3480156102a657600080fd5b506102af611423565b6040518082815260200191505060405180910390f35b3480156102d157600080fd5b506102da611443565b6040518080602001828103825283818151815260200191508051906020019080838360005b8381101561031a5780820151818401526020810190506102ff565b50505050905090810190601f1680156103475780820380516001836020036101000a031916815260200191505b509250505060405180910390f35b34801561036157600080fd5b5061036a61147c565b604051808269ffffffffffffffffffff1669ffffffffffffffffffff16815260200191505060405180910390f35b3480156103a457600080fd5b506103ad611498565b604051808263ffffffff1663ffffffff16815260200191505060405180910390f35b3480156103db57600080fd5b506103e461149f565b604051808263ffffffff1663ffffffff16815260200191505060405180910390f35b34801561041257600080fd5b5061041b6114a7565b604051808263ffffffff1663ffffffff16815260200191505060405180910390f35b34801561044957600080fd5b5061049e600480360381019080803573ffffffffffffffffffffffffffffffffffffffff169060200190929190803573ffffffffffffffffffffffffffffffffffffffff1690602001909291905050506114bd565b6040518082815260200191505060405180910390f35b3480156104c057600080fd5b506104eb600480360381019080803569ffffffffffffffffffff1690602001909291905050506114e2565b604051808263ffffffff1663ffffffff16815260200191505060405180910390f35b34801561051957600080fd5b50610558600480360381019080803573ffffffffffffffffffffffffffffffffffffffff169060200190929190803590602001909291905050506114ff565b005b34801561056657600080fd5b5061056f611564565b604051808260ff1660ff16815260200191505060405180910390f35b34801561059757600080fd5b506105c2600480360381019080803569ffffffffffffffffffff169060200190929190505050611569565b6040518082815260200191505060405180910390f35b3480156105e457600080fd5b50610629600480360381019080803573ffffffffffffffffffffffffffffffffffffffff169060200190929190803563ffffffff169060200190929190505050611581565b005b34801561063757600080fd5b506106406116c8565b604051808263ffffffff1663ffffffff16815260200191505060405180910390f35b34801561066e57600080fd5b506106e6600480360381019080803573ffffffffffffffffffffffffffffffffffffffff169060200190929190803590602001908201803590602001908080602002602001604051908101604052809392919081815260200183836020028082843782019150505050505091929192905050506116de565b005b3480156106f457600080fd5b5061071f600480360381019080803569ffffffffffffffffffff1690602001909291905050506116e2565b604051808273ffffffffffffffffffffffffffffffffffffffff1673ffffffffffffffffffffffffffffffffffffffff16815260200191505060405180910390f35b34801561076d57600080fd5b50610798600480360381019080803569ffffffffffffffffffff169060200190929190505050611715565b60405180826bffffffffffffffffffffffff166bffffffffffffffffffffffff16815260200191505060405180910390f35b3480156107d657600080fd5b50610815600480360381019080803573ffffffffffffffffffffffffffffffffffffffff16906020019092919080359060200190929190505050611765565b604051808269ffffffffffffffffffff1669ffffffffffffffffffff16815260200191505060405180910390f35b34801561084f57600080fd5b506108586117b3565b6040518082815260200191505060405180910390f35b34801561087a57600080fd5b506108a5600480360381019080803569ffffffffffffffffffff1690602001909291905050506117d7565b604051808263ffffffff1663ffffffff16815260200191505060405180910390f35b3480156108d357600080fd5b5061091e600480360381019080803573ffffffffffffffffffffffffffffffffffffffff169060200190929190803569ffffffffffffffffffff169060200190929190505050611804565b005b34801561092c57600080fd5b50610961600480360381019080803573ffffffffffffffffffffffffffffffffffffffff169060200190929190505050611b53565b604051808269ffffffffffffffffffff1669ffffffffffffffffffff16815260200191505060405180910390f35b34801561099b57600080fd5b506109d0600480360381019080803573ffffffffffffffffffffffffffffffffffffffff169060200190929190505050611b9f565b604051808263ffffffff1663ffffffff16815260200191505060405180910390f35b3480156109fe57600080fd5b50610a23600480360381019080803563ffffffff169060200190929190505050611bc2565b604051808215151515815260200191505060405180910390f35b348015610a4957600080fd5b50610a6e600480360381019080803563ffffffff169060200190929190505050611be7565b005b348015610a7c57600080fd5b50610a85611c22565b6040518082815260200191505060405180910390f35b348015610aa757600080fd5b50610ab0611c46565b604051808263ffffffff1663ffffffff16815260200191505060405180910390f35b348015610ade57600080fd5b50610b23600480360381019080803573ffffffffffffffffffffffffffffffffffffffff169060200190929190803563ffffffff169060200190929190505050611c4d565b005b348015610b3157600080fd5b50610b3a611da1565b604051808263ffffffff1663ffffffff16815260200191505060405180910390f35b348015610b6857600080fd5b50610b71611da8565b604051808263ffffffff1663ffffffff16815260200191505060405180910390f35b348015610b9f57600080fd5b50610bea600480360381019080803573ffffffffffffffffffffffffffffffffffffffff169060200190929190803569ffffffffffffffffffff169060200190929190505050611dad565b005b348015610bf857600080fd5b50610c01611dd7565b6040518080602001828103825283818151815260200191508051906020019080838360005b83811015610c41578082015181840152602081019050610c26565b50505050905090810190601f168015610c6e5780820380516001836020036101000a031916815260200191505b509250505060405180910390f35b348015610c8857600080fd5b50610c91611e10565b604051808263ffffffff1663ffffffff16815260200191505060405180910390f35b348015610cbf57600080fd5b50610cf4600480360381019080803563ffffffff169060200190929190803563ffffffff169060200190929190505050611e17565b604051808215151515815260200191505060405180910390f35b348015610d1a57600080fd5b50610d4f600480360381019080803573ffffffffffffffffffffffffffffffffffffffff169060200190929190505050611e32565b005b348015610d5d57600080fd5b50610d88600480360381019080803569ffffffffffffffffffff169060200190929190505050611e9e565b604051808215151515815260200191505060405180910390f35b348015610dae57600080fd5b50610dd3600480360381019080803563ffffffff169060200190929190505050611eda565b005b348015610de157600080fd5b50610e0c600480360381019080803569ffffffffffffffffffff169060200190929190505050611fcb565b604051808263ffffffff1663ffffffff16815260200191505060405180910390f35b348015610e3a57600080fd5b50610e43611fe2565b604051808263ffffffff1663ffffffff16815260200191505060405180910390f35b348015610e7157600080fd5b50610e7a611fe7565b6040518082815260200191505060405180910390f35b348015610e9c57600080fd5b50610ee7600480360381019080803573ffffffffffffffffffffffffffffffffffffffff169060200190929190803569ffffffffffffffffffff169060200190929190505050611fef565b005b348015610ef557600080fd5b50610f20600480360381019080803569ffffffffffffffffffff169060200190929190505050612144565b604051808215151515815260200191505060405180910390f35b348015610f4657600080fd5b50610f6b600480360381019080803563ffffffff169060200190929190505050612178565b604051808215151515815260200191505060405180910390f35b348015610f9157600080fd5b50610fcc600480360381019080803569ffffffffffffffffffff169060200190929190803563ffffffff1690602001909291905050506121e5565b005b348015610fda57600080fd5b50611005600480360381019080803569ffffffffffffffffffff16906020019092919050505061229b565b604051808273ffffffffffffffffffffffffffffffffffffffff1673ffffffffffffffffffffffffffffffffffffffff16815260200191505060405180910390f35b34801561105357600080fd5b5061107e600480360381019080803569ffffffffffffffffffff1690602001909291905050506122e3565b604051808263ffffffff1663ffffffff16815260200191505060405180910390f35b3480156110ac57600080fd5b506110ed600480360381019080803573ffffffffffffffffffffffffffffffffffffffff169060200190929190803515159060200190929190505050612310565b005b3480156110fb57600080fd5b50611166600480360381019080803573ffffffffffffffffffffffffffffffffffffffff169060200190929190803573ffffffffffffffffffffffffffffffffffffffff169060200190929190803569ffffffffffffffffffff16906020019092919050505061234b565b005b34801561117457600080fd5b5061119f600480360381019080803569ffffffffffffffffffff169060200190929190505050612529565b604051808269ffffffffffffffffffff1669ffffffffffffffffffff16815260200191505060405180910390f35b3480156111d957600080fd5b5061120e600480360381019080803563ffffffff169060200190929190803563ffffffff169060200190929190505050612552565b604051808215151515815260200191505060405180910390f35b60008061123762010000612178565b151561124257600080fd5b61124b83612144565b15151561125757600080fd5b6000808469ffffffffffffffffffff1669ffffffffffffffffffff168152602001908152602001600020549150819050611291818461257a565b6006600081819054906101000a900469ffffffffffffffffffff16809291906001900391906101000a81548169ffffffffffffffffffff021916908369ffffffffffffffffffff160217905550506112eb81600085612724565b6000808469ffffffffffffffffffff1669ffffffffffffffffffff168152602001908152602001600020600090558073ffffffffffffffffffffffffffffffffffffffff168369ffffffffffffffffffff167fb369589e4d228db5b2331979fb19b9e13db939b671605a45ee8faf93114bf83a33604051808273ffffffffffffffffffffffffffffffffffffffff1673ffffffffffffffffffffffffffffffffffffffff16815260200191505060405180910390a3600073ffffffffffffffffffffffffffffffffffffffff168173ffffffffffffffffffffffffffffffffffffffff167fa0f2d9d810b7227d93b1d65511f1321d5331a7a323e6d357130dda4aa99690a085604051808269ffffffffffffffffffff1669ffffffffffffffffffff16815260200191505060405180910390a3505050565b7bffffffffffffffffffffffffffffffffffffffffffffffffffffffff81565b6040805190810160405280601a81526020017f47454d20e280932043727970746f204d696e657220576f726c6400000000000081525081565b600660009054906101000a900469ffffffffffffffffffff1681565b6208000081565b63ffffffff81565b6006600e9054906101000a900463ffffffff1681565b6002602052816000526040600020602052806000526040600020600091509150505481565b6000806114ee836117d7565b9050637fffffff8116915050919050565b600061150b6002611bc2565b151561151657600080fd5b3390508073ffffffffffffffffffffffffffffffffffffffff168373ffffffffffffffffffffffffffffffffffffffff161415151561155457600080fd5b61155f818484612810565b505050565b600081565b60006020528060005260406000206000915090505481565b6000806000339250600360008473ffffffffffffffffffffffffffffffffffffffff1673ffffffffffffffffffffffffffffffffffffffff16815260200190815260200160002060009054906101000a900463ffffffff1691506115e88262040000612552565b15156115f357600080fd5b8163ffffffff1684831763ffffffff1614151561160f57600080fd5b600360008673ffffffffffffffffffffffffffffffffffffffff1673ffffffffffffffffffffffffffffffffffffffff16815260200190815260200160002060009054906101000a900463ffffffff169050838117600360008773ffffffffffffffffffffffffffffffffffffffff1673ffffffffffffffffffffffffffffffffffffffff16815260200190815260200160002060006101000a81548163ffffffff021916908363ffffffff1602179055505050505050565b6006600a9054906101000a900463ffffffff1681565b5050565b60016020528060005260406000206000915054906101000a900473ffffffffffffffffffffffffffffffffffffffff1681565b6000806000808469ffffffffffffffffffff1669ffffffffffffffffffff16815260200190815260200160002054905060008111151561175457600080fd5b60a0819060020a9004915050919050565b60046020528160005260406000208181548110151561178057fe5b9060005260206000209060039182820401919006600a02915091509054906101000a900469ffffffffffffffffffff1681565b7fffffffffffffffffffffffffffffffffffffffffffffffffffffffffffffffff81565b6000806117e383611715565b90506040816bffffffffffffffffffffffff169060020a9004915050919050565b600061181262010000612178565b151561181d57600080fd5b60008060008469ffffffffffffffffffff1669ffffffffffffffffffff1681526020019081526020016000205414151561185657600080fd5b60008269ffffffffffffffffffff161415151561187257600080fd5b8273ffffffffffffffffffffffffffffffffffffffff1660c06118936128fb565b9060020a02179050600460008473ffffffffffffffffffffffffffffffffffffffff1673ffffffffffffffffffffffffffffffffffffffff16815260200190815260200160002080549050600560008469ffffffffffffffffffff1669ffffffffffffffffffff16815260200190815260200160002060006101000a81548169ffffffffffffffffffff021916908369ffffffffffffffffffff160217905550600460008473ffffffffffffffffffffffffffffffffffffffff1673ffffffffffffffffffffffffffffffffffffffff16815260200190815260200160002082908060018154018082558091505090600182039060005260206000209060039182820401919006600a02909192909190916101000a81548169ffffffffffffffffffff021916908369ffffffffffffffffffff16021790555050806000808469ffffffffffffffffffff1669ffffffffffffffffffff168152602001908152602001600020819055506006600081819054906101000a900469ffffffffffffffffffff168092919060010191906101000a81548169ffffffffffffffffffff021916908369ffffffffffffffffffff160217905550508273ffffffffffffffffffffffffffffffffffffffff168269ffffffffffffffffffff167fc1b4aa2dcfeb8b1a00a5857e6e94dc4218414da2c7b0ce7bfa0aa277d2f449a933604051808273ffffffffffffffffffffffffffffffffffffffff1673ffffffffffffffffffffffffffffffffffffffff16815260200191505060405180910390a38273ffffffffffffffffffffffffffffffffffffffff16600073ffffffffffffffffffffffffffffffffffffffff167fa0f2d9d810b7227d93b1d65511f1321d5331a7a323e6d357130dda4aa99690a084604051808269ffffffffffffffffffff1669ffffffffffffffffffff16815260200191505060405180910390a3505050565b6000600460008373ffffffffffffffffffffffffffffffffffffffff1673ffffffffffffffffffffffffffffffffffffffff168152602001908152602001600020805490509050919050565b60036020528060005260406000206000915054906101000a900463ffffffff1681565b6000611be06006600e9054906101000a900463ffffffff1683611e17565b9050919050565b611bf362020000612178565b1515611bfe57600080fd5b806006600a6101000a81548163ffffffff021916908363ffffffff16021790555050565b7fffffffffffffffff00000000000000000000000000000000000000000000000081565b6202000081565b600080339150600360008373ffffffffffffffffffffffffffffffffffffffff1673ffffffffffffffffffffffffffffffffffffffff16815260200190815260200160002060009054906101000a900463ffffffff169050611cb28162040000612552565b1515611cbd57600080fd5b8063ffffffff1683821763ffffffff16141515611cd957600080fd5b6000600360008673ffffffffffffffffffffffffffffffffffffffff1673ffffffffffffffffffffffffffffffffffffffff16815260200190815260200160002060009054906101000a900463ffffffff1663ffffffff16141515611d3d57600080fd5b82600360008673ffffffffffffffffffffffffffffffffffffffff1673ffffffffffffffffffffffffffffffffffffffff16815260200190815260200160002060006101000a81548163ffffffff021916908363ffffffff16021790555050505050565b6201000081565b600281565b6000611db96001611bc2565b1515611dc457600080fd5b339050611dd2818484612909565b505050565b6040805190810160405280600381526020017f47454d000000000000000000000000000000000000000000000000000000000081525081565b6204000081565b60008163ffffffff1682841663ffffffff1614905092915050565b611e3e62040000612178565b1515611e4957600080fd5b600360008273ffffffffffffffffffffffffffffffffffffffff1673ffffffffffffffffffffffffffffffffffffffff16815260200190815260200160002060006101000a81549063ffffffff021916905550565b6000806000808469ffffffffffffffffffff1669ffffffffffffffffffff16815260200190815260200160002054905060008111915050919050565b600080339150600360008373ffffffffffffffffffffffffffffffffffffffff1673ffffffffffffffffffffffffffffffffffffffff16815260200190815260200160002060009054906101000a900463ffffffff169050611f3f8162080000611e17565b1515611f4a57600080fd5b8281166006600e8282829054906101000a900463ffffffff161792506101000a81548163ffffffff021916908363ffffffff1602179055508263ffffffff18811663ffffffff186006600e8282829054906101000a900463ffffffff161692506101000a81548163ffffffff021916908363ffffffff160217905550505050565b600080611fd783611715565b905080915050919050565b600181565b637fffffff81565b600080611ffc6002611bc2565b151561200757600080fd5b3391506120138361229b565b90508073ffffffffffffffffffffffffffffffffffffffff168273ffffffffffffffffffffffffffffffffffffffff1614151561204f57600080fd5b8073ffffffffffffffffffffffffffffffffffffffff168473ffffffffffffffffffffffffffffffffffffffff161415151561208a57600080fd5b6000600160008569ffffffffffffffffffff1669ffffffffffffffffffff16815260200190815260200160002060009054906101000a900473ffffffffffffffffffffffffffffffffffffffff1673ffffffffffffffffffffffffffffffffffffffff161415806121285750600073ffffffffffffffffffffffffffffffffffffffff168473ffffffffffffffffffffffffffffffffffffffff1614155b151561213357600080fd5b61213e828585612724565b50505050565b600080612150836117d7565b905060006006600a9054906101000a900463ffffffff16821663ffffffff1611915050919050565b6000806000339150600360008373ffffffffffffffffffffffffffffffffffffffff1673ffffffffffffffffffffffffffffffffffffffff16815260200190815260200160002060009054906101000a900463ffffffff1690506121dc8185612552565b92505050919050565b60006121f362020000612178565b15156121fe57600080fd5b6000808469ffffffffffffffffffff1669ffffffffffffffffffff16815260200190815260200160002054905060008111151561223a57600080fd5b60e08263ffffffff169060020a027bffffffffffffffffffffffffffffffffffffffffffffffffffffffff8216176000808569ffffffffffffffffffff1669ffffffffffffffffffff16815260200190815260200160002081905550505050565b6000806000808469ffffffffffffffffffff1669ffffffffffffffffffff1681526020019081526020016000205490506000811115156122da57600080fd5b80915050919050565b6000806122ef83611715565b90506020816bffffffffffffffffffffffff169060020a9004915050919050565b6123478282612320576000612342565b7fffffffffffffffffffffffffffffffffffffffffffffffffffffffffffffffff5b6114ff565b5050565b60008060008061235b6002611bc2565b151561236657600080fd5b339350600160008669ffffffffffffffffffff1669ffffffffffffffffffff16815260200190815260200160002060009054906101000a900473ffffffffffffffffffffffffffffffffffffffff1692506123c08561229b565b9150600260008373ffffffffffffffffffffffffffffffffffffffff1673ffffffffffffffffffffffffffffffffffffffff16815260200190815260200160002060008573ffffffffffffffffffffffffffffffffffffffff1673ffffffffffffffffffffffffffffffffffffffff1681526020019081526020016000205490508673ffffffffffffffffffffffffffffffffffffffff168473ffffffffffffffffffffffffffffffffffffffff1614806124a657508273ffffffffffffffffffffffffffffffffffffffff168473ffffffffffffffffffffffffffffffffffffffff16145b806124b15750600081115b15156124bc57600080fd5b8273ffffffffffffffffffffffffffffffffffffffff168473ffffffffffffffffffffffffffffffffffffffff1614156124fd576124fc87600087612724565b5b600081111561251557612514878760018403612810565b5b612520878787612909565b50505050505050565b60056020528060005260406000206000915054906101000a900469ffffffffffffffffffff1681565b6000612572836006600e9054906101000a900463ffffffff161683611e17565b905092915050565b6000806000600460008673ffffffffffffffffffffffffffffffffffffffff1673ffffffffffffffffffffffffffffffffffffffff168152602001908152602001600020925060008380549050141515156125d157fe5b600560008569ffffffffffffffffffff1669ffffffffffffffffffff16815260200190815260200160002060009054906101000a900469ffffffffffffffffffff16915082600184805490500381548110151561262a57fe5b9060005260206000209060039182820401919006600a029054906101000a900469ffffffffffffffffffff16905081600560008369ffffffffffffffffffff1669ffffffffffffffffffff16815260200190815260200160002060006101000a81548169ffffffffffffffffffff021916908369ffffffffffffffffffff16021790555080838369ffffffffffffffffffff168154811015156126c957fe5b9060005260206000209060039182820401919006600a026101000a81548169ffffffffffffffffffff021916908369ffffffffffffffffffff1602179055508280548091906001900361271c9190612c5f565b505050505050565b81600160008369ffffffffffffffffffff1669ffffffffffffffffffff16815260200190815260200160002060006101000a81548173ffffffffffffffffffffffffffffffffffffffff021916908373ffffffffffffffffffffffffffffffffffffffff1602179055508173ffffffffffffffffffffffffffffffffffffffff168373ffffffffffffffffffffffffffffffffffffffff167f3212f41ec92f177d999db7467a64faeb241827d867f4f176dc2be61581122d1a83604051808269ffffffffffffffffffff1669ffffffffffffffffffff16815260200191505060405180910390a3505050565b80600260008573ffffffffffffffffffffffffffffffffffffffff1673ffffffffffffffffffffffffffffffffffffffff16815260200190815260200160002060008473ffffffffffffffffffffffffffffffffffffffff1673ffffffffffffffffffffffffffffffffffffffff168152602001908152602001600020819055508173ffffffffffffffffffffffffffffffffffffffff168373ffffffffffffffffffffffffffffffffffffffff167f935230e68d0344049b3ab530b10aa82a70705c7069af8b4cb5f52671eb13d120836040518082815260200191505060405180910390a3505050565b600043637fffffff16905090565b60008073ffffffffffffffffffffffffffffffffffffffff168473ffffffffffffffffffffffffffffffffffffffff161415151561294657600080fd5b600073ffffffffffffffffffffffffffffffffffffffff168373ffffffffffffffffffffffffffffffffffffffff161415151561298257600080fd5b8373ffffffffffffffffffffffffffffffffffffffff168373ffffffffffffffffffffffffffffffffffffffff16141515156129bd57600080fd5b6000808369ffffffffffffffffffff1669ffffffffffffffffffff1681526020019081526020016000205490506129f38261229b565b73ffffffffffffffffffffffffffffffffffffffff168473ffffffffffffffffffffffffffffffffffffffff16141515612a2c57600080fd5b612a3582612144565b151515612a4157600080fd5b612a4c848484612b48565b8273ffffffffffffffffffffffffffffffffffffffff1660a0612a6d6128fb565b9060020a027fffffffffffffffff000000000000000000000000000000000000000000000000831617176000808469ffffffffffffffffffff1669ffffffffffffffffffff168152602001908152602001600020819055508273ffffffffffffffffffffffffffffffffffffffff168473ffffffffffffffffffffffffffffffffffffffff167fa0f2d9d810b7227d93b1d65511f1321d5331a7a323e6d357130dda4aa99690a084604051808269ffffffffffffffffffff1669ffffffffffffffffffff16815260200191505060405180910390a350505050565b612b52838261257a565b612b5c8282612b61565b505050565b6000600460008473ffffffffffffffffffffffffffffffffffffffff1673ffffffffffffffffffffffffffffffffffffffff16815260200190815260200160002090508080549050600560008469ffffffffffffffffffff1669ffffffffffffffffffff16815260200190815260200160002060006101000a81548169ffffffffffffffffffff021916908369ffffffffffffffffffff1602179055508082908060018154018082558091505090600182039060005260206000209060039182820401919006600a02909192909190916101000a81548169ffffffffffffffffffff021916908369ffffffffffffffffffff16021790555050505050565b815481835581811115612c94576002016003900481600201600390048360005260206000209182019101612c939190612c99565b5b505050565b612cbb91905b80821115612cb7576000816000905550600101612c9f565b5090565b905600a165627a7a723058207a1ce5b300fa019bcd7daf725581d474ffb2b1965be4bf470ab12c59398209660029",
  "source": "pragma solidity 0.4.23;\n\nimport \"./Token.sol\";\n\n/// @dev extends Token by adding ERC20 compliant token symbol, name and decimals\ncontract Gem is Token {\n  string public constant symbol = \"GEM\";\n  string public constant name = \"GEM  Crypto Miner World\";\n  uint8 public constant decimals = 0;\n}\n",
  "sourcePath": "/Users/vgorin/DEVELOP/upwork/Sophophilia/crypto-miner/contracts/Gem.sol",
  "compiler": {
    "name": "solc",
    "version": "0.4.23+commit.124ca40d.Emscripten.clang"
  },
  "schemaVersion": "2.0.0",
  "updatedAt": "2018-05-02T12:27:46.459Z"
}