{
  "contractName": "GeodeSale",
  "abi": [
    {
      "constant": true,
      "inputs": [],
      "name": "GEODE_PRICE",
      "outputs": [
        {
          "name": "",
          "type": "uint256"
        }
      ],
      "payable": false,
      "stateMutability": "view",
      "type": "function"
    },
    {
      "constant": true,
      "inputs": [],
      "name": "beneficiary",
      "outputs": [
        {
          "name": "",
          "type": "address"
        }
      ],
      "payable": false,
      "stateMutability": "view",
      "type": "function"
    },
    {
      "constant": true,
      "inputs": [],
      "name": "COLORS",
      "outputs": [
        {
          "name": "",
          "type": "uint8"
        }
      ],
      "payable": false,
      "stateMutability": "view",
      "type": "function"
    },
    {
      "constant": true,
      "inputs": [],
      "name": "GRADE_VALUES",
      "outputs": [
        {
          "name": "",
          "type": "uint8"
        }
      ],
      "payable": false,
      "stateMutability": "view",
      "type": "function"
    },
    {
      "constant": true,
      "inputs": [],
      "name": "geodesSold",
      "outputs": [
        {
          "name": "",
          "type": "uint16"
        }
      ],
      "payable": false,
      "stateMutability": "view",
      "type": "function"
    },
    {
      "constant": true,
      "inputs": [],
      "name": "gemContract",
      "outputs": [
        {
          "name": "",
          "type": "address"
        }
      ],
      "payable": false,
      "stateMutability": "view",
      "type": "function"
    },
    {
      "constant": true,
      "inputs": [
        {
          "name": "",
          "type": "uint16"
        }
      ],
      "name": "geodeOwners",
      "outputs": [
        {
          "name": "",
          "type": "address"
        }
      ],
      "payable": false,
      "stateMutability": "view",
      "type": "function"
    },
    {
      "constant": true,
      "inputs": [],
      "name": "GEMS_IN_GEODE",
      "outputs": [
        {
          "name": "",
          "type": "uint8"
        }
      ],
      "payable": false,
      "stateMutability": "view",
      "type": "function"
    },
    {
      "constant": true,
      "inputs": [],
      "name": "GEODES_TO_SELL",
      "outputs": [
        {
          "name": "",
          "type": "uint16"
        }
      ],
      "payable": false,
      "stateMutability": "view",
      "type": "function"
    },
    {
      "constant": true,
      "inputs": [],
      "name": "nextGeode",
      "outputs": [
        {
          "name": "",
          "type": "uint16"
        }
      ],
      "payable": false,
      "stateMutability": "view",
      "type": "function"
    },
    {
      "inputs": [
        {
          "name": "gemAddress",
          "type": "address"
        },
        {
          "name": "_beneficiary",
          "type": "address"
        }
      ],
      "payable": false,
      "stateMutability": "nonpayable",
      "type": "constructor"
    },
    {
      "anonymous": false,
      "inputs": [
        {
          "indexed": true,
          "name": "plotId",
          "type": "uint16"
        },
        {
          "indexed": true,
          "name": "owner",
          "type": "address"
        }
      ],
      "name": "GeodeSold",
      "type": "event"
    },
    {
      "constant": false,
      "inputs": [],
      "name": "getGeodes",
      "outputs": [],
      "payable": true,
      "stateMutability": "payable",
      "type": "function"
    }
  ],
  "bytecode": "0x608060405260008060006101000a81548161ffff021916908361ffff1602179055506001600060026101000a81548161ffff021916908361ffff16021790555034801561004b57600080fd5b506040516040806110778339810180604052810190808051906020019092919080519060200190929190505050600073ffffffffffffffffffffffffffffffffffffffff168273ffffffffffffffffffffffffffffffffffffffff16141515156100b457600080fd5b600073ffffffffffffffffffffffffffffffffffffffff168173ffffffffffffffffffffffffffffffffffffffff16141515156100f057600080fd5b8073ffffffffffffffffffffffffffffffffffffffff168273ffffffffffffffffffffffffffffffffffffffff161415151561012b57600080fd5b81600260006101000a81548173ffffffffffffffffffffffffffffffffffffffff021916908373ffffffffffffffffffffffffffffffffffffffff16021790555080600360006101000a81548173ffffffffffffffffffffffffffffffffffffffff021916908373ffffffffffffffffffffffffffffffffffffffff1602179055505050610eb9806101be6000396000f3006080604052600436106100af576000357c0100000000000000000000000000000000000000000000000000000000900463ffffffff1680631cefefaf146100b457806338af3eed146100df5780635022b5e9146101365780635b5b21ad14610167578063600ff88a146101985780636a998f77146101cb57806376e29f6e1461022257806391e36d5114610293578063a589f5cf146102c4578063c4ae76b6146102f7578063c832df1114610301575b600080fd5b3480156100c057600080fd5b506100c9610334565b6040518082815260200191505060405180910390f35b3480156100eb57600080fd5b506100f4610340565b604051808273ffffffffffffffffffffffffffffffffffffffff1673ffffffffffffffffffffffffffffffffffffffff16815260200191505060405180910390f35b34801561014257600080fd5b5061014b610366565b604051808260ff1660ff16815260200191505060405180910390f35b34801561017357600080fd5b5061017c61036b565b604051808260ff1660ff16815260200191505060405180910390f35b3480156101a457600080fd5b506101ad610370565b604051808261ffff1661ffff16815260200191505060405180910390f35b3480156101d757600080fd5b506101e0610383565b604051808273ffffffffffffffffffffffffffffffffffffffff1673ffffffffffffffffffffffffffffffffffffffff16815260200191505060405180910390f35b34801561022e57600080fd5b50610251600480360381019080803561ffff1690602001909291905050506103a9565b604051808273ffffffffffffffffffffffffffffffffffffffff1673ffffffffffffffffffffffffffffffffffffffff16815260200191505060405180910390f35b34801561029f57600080fd5b506102a86103dc565b604051808260ff1660ff16815260200191505060405180910390f35b3480156102d057600080fd5b506102d96103e1565b604051808261ffff1661ffff16815260200191505060405180910390f35b6102ff6103e7565b005b34801561030d57600080fd5b50610316610602565b604051808261ffff1661ffff16815260200191505060405180910390f35b67016345785d8a000081565b600360009054906101000a900473ffffffffffffffffffffffffffffffffffffffff1681565b600c81565b606481565b6000809054906101000a900461ffff1681565b600260009054906101000a900473ffffffffffffffffffffffffffffffffffffffff1681565b60016020528060005260406000206000915054906101000a900473ffffffffffffffffffffffffffffffffffffffff1681565b600581565b61138881565b600080600080600061138861ffff166000809054906101000a900461ffff1661ffff1610151561041657600080fd5b33945034935067016345785d8a0000841015151561043357600080fd5b67016345785d8a00008481151561044657fe5b04925061138861ffff16836000809054906101000a900461ffff1661ffff16011115610487576000809054906101000a900461ffff166113880361ffff1692505b67016345785d8a0000830293503484111515156104a357600080fd5b8334039150826000808282829054906101000a900461ffff160192506101000a81548161ffff021916908361ffff160217905550600090505b828161ffff1610156105115761050481600060029054906101000a900461ffff160186610616565b80806001019150506104dc565b82600060028282829054906101000a900461ffff160192506101000a81548161ffff021916908361ffff160217905550600360009054906101000a900473ffffffffffffffffffffffffffffffffffffffff1673ffffffffffffffffffffffffffffffffffffffff166108fc859081150290604051600060405180830381858888f193505050501580156105a9573d6000803e3d6000fd5b5060008211156105fb578473ffffffffffffffffffffffffffffffffffffffff166108fc839081150290604051600060405180830381858888f193505050501580156105f9573d6000803e3d6000fd5b505b5050505050565b600060029054906101000a900461ffff1681565b6060610621836107e8565b905081600160008561ffff1661ffff16815260200190815260200160002060006101000a81548173ffffffffffffffffffffffffffffffffffffffff021916908373ffffffffffffffffffffffffffffffffffffffff160217905550600260009054906101000a900473ffffffffffffffffffffffffffffffffffffffff1673ffffffffffffffffffffffffffffffffffffffff166343a7ab5f83836040518363ffffffff167c0100000000000000000000000000000000000000000000000000000000028152600401808373ffffffffffffffffffffffffffffffffffffffff1673ffffffffffffffffffffffffffffffffffffffff16815260200180602001828103825283818151815260200191508051906020019060200280838360005b8381101561075d578082015181840152602081019050610742565b505050509050019350505050600060405180830381600087803b15801561078357600080fd5b505af1158015610797573d6000803e3d6000fd5b505050508173ffffffffffffffffffffffffffffffffffffffff168361ffff167f917e18d8b0939cdbe641210b46b2b80f479251e8d9385fe4c0a2e7d7f36c8c5e60405160405180910390a3505050565b606080600080600080600080600560ff166040519080825280602002602001820160405280156108275781602001602082028038833980820191505090505b509650600195505b600560ff168660ff161115156109d857435a33328c8a604051808781526020018681526020018573ffffffffffffffffffffffffffffffffffffffff1673ffffffffffffffffffffffffffffffffffffffff166c010000000000000000000000000281526014018473ffffffffffffffffffffffffffffffffffffffff1673ffffffffffffffffffffffffffffffffffffffff166c010000000000000000000000000281526014018361ffff1661ffff167e010000000000000000000000000000000000000000000000000000000000000281526002018260ff1660ff167f01000000000000000000000000000000000000000000000000000000000000000281526001019650505050505050604051809103902060019004945061095385610a13565b93506109666020869060020a9004610a34565b92506109796040869060020a9004610a55565b915061098c60018584868d60008c610aec565b905080876001880360ff168151811015156109a357fe5b9060200190602002019069ffffffffffffffffffff16908169ffffffffffffffffffff1681525050858060010196505061082f565b6109ee87600160026060899060020a9004610c33565b610a0487600160046080899060020a9004610d2d565b86975050505050505050919050565b6000610a2d8261ffff166001600c60ff1662010000610e30565b9050919050565b6000610a4e8261ffff166000606460ff1662010000610e30565b9050919050565b600063ffffffff82169150623333348263ffffffff161015610a7a5760019050610ae7565b627ae1488263ffffffff161015610a945760029050610ae7565b62e147ae8263ffffffff161015610aae5760039050610ae7565b62fc28f68263ffffffff161015610ac85760049050610ae7565b62ffdf3c8263ffffffff161015610ae25760059050610ae7565b600690505b919050565b60008060018960ff16141515610b0157600080fd5b60018860ff1610158015610b1c5750600c60ff168860ff1611155b1515610b2757600080fd5b610b318787610e4c565b9050600060029054906101000a900461ffff1661ffff168561ffff1610158015610b65575061138861ffff168561ffff1611155b1515610b7057600080fd5b60008461ffff16141515610b8357600080fd5b60018360ff1610158015610b9e5750600560ff168360ff1611155b1515610ba957600080fd5b8260ff1660188661ffff1665ffffffffffff169060020a0265ffffffffffff1660308361ffff1667ffffffffffffffff169060020a0267ffffffffffffffff1660408b60ff1668ffffffffffffffffff169060020a0268ffffffffffffffffff1660488d60ff1669ffffffffffffffffffff169060020a0217171717915050979650505050505050565b6000808460ff16865110151515610c4957600080fd5b610c638361ffff1660008760ff1689510362010000610e30565b91508190505b84820160ff168160ff161015610d255768ffffffffffffffffff868260ff16815181101515610c9457fe5b9060200190602002018181511691509069ffffffffffffffffffff16908169ffffffffffffffffffff168152505060488460ff1669ffffffffffffffffffff169060020a02868260ff16815181101515610cea57fe5b9060200190602002018181511791509069ffffffffffffffffffff16908169ffffffffffffffffffff16815250508080600101915050610c69565b505050505050565b6000808460ff16865110151515610d4357600080fd5b610d5d8361ffff1660008760ff1689510362010000610e30565b91508190505b84820160ff168160ff161015610e285769ffff00ffffffffffffff868260ff16815181101515610d8f57fe5b9060200190602002018181511691509069ffffffffffffffffffff16908169ffffffffffffffffffff168152505060388460ff1667ffffffffffffffff169060020a0267ffffffffffffffff16868260ff16815181101515610ded57fe5b9060200190602002018181511791509069ffffffffffffffffffff16908169ffffffffffffffffffff16815250508080600101915050610d63565b505050505050565b600081838602811515610e3f57fe5b0484019050949350505050565b600060018360ff1610158015610e66575060068360ff1611155b1515610e7157600080fd5b8160ff1660088460ff1661ffff169060020a02179050929150505600a165627a7a72305820f8c91de23fe8e72d03ab0110848c62591adaf131385f93640514a4a199daf0860029",
  "source": "pragma solidity 0.4.23;\n\nimport \"./Gem.sol\";\n\n/**\n * @notice GeodeSale sells the Gems (as Geodes)\n */\ncontract GeodeSale {\n  /// @notice Number of geodes to sell\n  uint16 public constant GEODES_TO_SELL = 5000;\n\n  /// @notice Price of a single geode\n  uint256 public constant GEODE_PRICE = 100 finney;\n\n  /// @notice Amount of gems in a geode\n  uint8 public constant GEMS_IN_GEODE = 5;\n\n  /// @notice Number of different colors defined for a gem\n  uint8 public constant COLORS = 12;\n\n  /// @notice Number of different grade values defined for a gem\n  uint8 public constant GRADE_VALUES = 100;\n\n  /// @notice Current value of geodes sold, initially zero\n  uint16 public geodesSold = 0;\n\n  /// @dev Pointer to a next geode to be sold\n  uint16 public nextGeode = 1;\n\n  /// @dev Mapping for the geode owners, will be used to issue land plots\n  mapping(uint16 => address) public geodeOwners;\n\n  /// @dev A gem to sell, should be set in constructor\n  Gem public gemContract;\n\n  /// @dev Address to send all the incoming funds\n  address public beneficiary;\n\n  /**\n   * @dev event names are self-explanatory\n   */\n  /// @dev fired in buyGeodes()\n  event GeodeSold(uint16 indexed plotId, address indexed owner);\n\n  /// @dev Creates a GeodeSale attached to an already deployed Gem smart contract\n  constructor(address gemAddress, address _beneficiary) public {\n    // validate inputs\n    require(gemAddress != address(0));\n    require(_beneficiary != address(0));\n    require(gemAddress != _beneficiary);\n\n    // bind the Gem smart contract\n    gemContract = Gem(gemAddress);\n\n    // set the beneficiary\n    beneficiary = _beneficiary;\n  }\n\n  /**\n   * @notice Calculates number of geodes to sell and sells them by\n   * minting correspondent number of gems to the sender\n   */\n  function getGeodes() public payable {\n    // check if there are still geodes to sell\n    require(geodesSold < GEODES_TO_SELL);\n\n    // call sender nicely - player\n    address player = msg.sender;\n\n    // amount of ether sent with the transaction\n    uint256 value = msg.value;\n\n    // value should be enough to buy at least one geode\n    require(value >= GEODE_PRICE);\n\n    // calculate number of geodes to sell\n    uint256 geodesToSell = value / GEODE_PRICE;\n\n    // we cannot sell more then GEODES_TO_SELL\n    if(geodesSold + geodesToSell > GEODES_TO_SELL) {\n      geodesToSell = GEODES_TO_SELL - geodesSold;\n    }\n\n    // recalculate how much value we have to take from player\n    value = geodesToSell * GEODE_PRICE;\n\n    // overflow check\n    require(value <= msg.value);\n\n    // calculate how much we have to send back to player\n    uint256 change = msg.value - value;\n\n    // update counters\n    geodesSold += uint16(geodesToSell);\n\n    // create geodes – actually create gems\n    for(uint16 i = 0; i < geodesToSell; i++) {\n      // open created geode + emit an event\n      __openGeode(nextGeode + i, player);\n    }\n\n    // update next geode to sell pointer\n    nextGeode += uint16(geodesToSell);\n\n    // send the value to the beneficiary\n    beneficiary.transfer(value);\n\n    // send change back to player\n    if(change > 0) {\n      player.transfer(change);\n    }\n  }\n\n  // private function to create geode and send all\n  // the gems inside it to a player\n  function __openGeode(uint16 geodeId, address player) private {\n    // generate the gems (geode content)\n    uint80[] memory gems = __randomGeode(geodeId);\n\n    // store geode owner\n    geodeOwners[geodeId] = player;\n\n    // mint the gems generated\n    gemContract.mintTokens(player, gems);\n\n    // emit an event\n    emit GeodeSold(geodeId, player);\n  }\n\n  // generates 5 gems for a given geode ID randomly\n  function __randomGeode(uint16 geodeId) private constant returns(uint80[]) {\n    // define an array of gems to return as a result of opening the geode specified\n    uint80[] memory gems = new uint80[](GEMS_IN_GEODE);\n\n    // create the gems\n    for(uint8 i = 1; i <= GEMS_IN_GEODE; i++) {\n      // get some randomness to work with – 256 bits should be more then enough\n      // and.. yeah! – this is heavily influenceable by miners!\n      uint256 randomness = uint256(keccak256(block.number, gasleft(), msg.sender, tx.origin, geodeId, i));\n\n      // use lower 16 bits to determine gem color\n      uint8 colorId = __colorId(uint16(randomness));\n\n      // use next 16 bits to determine grade value\n      uint8 gradeValue = __gradeValue(uint16(randomness >> 32));\n\n      // use next 32 bits to determine grade type\n      uint8 gradeType = __gradeType(uint32(randomness >> 64));\n\n      // construct the gem UID based on the already calculated attributes\n      uint80 gemUid = __createGem(1, colorId, gradeType, gradeValue, geodeId, 0, i);\n\n      // add into array\n      gems[i - 1] = gemUid;\n    }\n\n    // enforce 1 level 2 gem\n    __enforceLevelConstraint(gems, 1, 2, uint16(randomness >> 96));\n    // enforce 1 gem of the grade A\n    __enforceGradeConstraint(gems, 1, 4, uint16(randomness >> 128));\n\n    // return created gems array back\n    return gems;\n  }\n\n  // determines color ID randomly\n  function __colorId(uint16 randomness) private pure returns (uint8) {\n    // normalize 0x10000 random range into 12, starting from 1\n    return uint8(__randomValue(randomness, 1, COLORS, 0x10000));\n  }\n\n  // determines grade value randomly\n  function __gradeValue(uint16 randomness) private pure returns (uint8) {\n    // normalize 0x10000 random range into 100\n    return uint8(__randomValue(randomness, 0, GRADE_VALUES, 0x10000));\n  }\n\n  // determines grade type randomly\n  function __gradeType(uint32 randomness) private pure returns (uint8) {\n    // use only low 24 bits of randomness\n    randomness &= 0xFFFFFFFF;\n\n    // Grade D: 20% probability of 16777216 total values\n    if(randomness < 3355444) {\n     return 1;\n    }\n    // Grade C: 28% probability\n    else if(randomness < 8053064) {\n      return 2;\n    }\n    // Grade B: 40% probability\n    else if(randomness < 14763950) {\n      return 3;\n    }\n    // Grade A: 10.95% probability\n    else if(randomness < 16525558) {\n      return 4;\n    }\n    // Grade AA: 1% probability\n    else if(randomness < 16768828) {\n      return 5;\n    }\n    // Grade AAA: 0.05% probability\n    else {\n      return 6;\n    }\n  }\n\n  // assembles a gem UID from its attributes\n  function __createGem(\n    uint8 levelId,\n    uint8 colorId,\n    uint8 gradeType,\n    uint8 gradeValue,\n    uint16 plotId,\n    uint16 blockId,\n    uint8 gemId\n  ) private constant returns (uint80) {\n    // enforce valid levels: in pre-sale we have only level 1\n    require(levelId == 1);\n    // enforce valid colors: 1..12\n    require(colorId >= 1 && colorId <= COLORS);\n    // create gradeId performing internal validations\n    uint16 gradeId = __createGradeId(gradeType, gradeValue);\n    // validate plotId, 1..5000 (GEODES_TO_SELL)\n    require(plotId >= nextGeode && plotId <= GEODES_TO_SELL);\n    // blockId for geode is zero\n    require(blockId == 0);\n    // gemId cannot be greater then GEMS_IN_GEODE\n    require(gemId >= 1 && gemId <= GEMS_IN_GEODE);\n\n    // pack the Gem UID and return\n    return uint80(levelId) << 72 | uint72(colorId) << 64 | uint64(gradeId) << 48 | uint48(plotId) << 24 | gemId;\n  }\n\n  // assembled the gradeId from type and value\n  function __createGradeId(uint8 gradeType, uint8 gradeValue) private pure returns (uint16) {\n    // enforce valid grades: D, C, B, A, AA, AAA – 1, 2, 3, 4, 5, 6 accordingly\n    require(gradeType >= 1 && gradeType <= 6);\n\n    // pack the grade ID and return\n    return uint16(gradeType) << 8 | gradeValue;\n  }\n\n/*\n  // enforce `n` gems to be the same (random) color\n  function __enforceColorConstraint(uint80[] gems, uint8 n, uint32 randomness) private pure {\n    // n must not be greater then number of gems in the array\n    require(gems.length >= n);\n    \n    // generate a random index in range [0, length - n) to rewrite color\n    uint8 index = uint8(__randomValue(0xFFFF & randomness, 0, gems.length - n, 0x10000)); // use low 16 bits\n\n    // generate random color value\n    uint8 colorId = uint8(__randomValue(randomness >> 16, 1, COLORS, 0x10000));\n\n    // rewrite the color in the gems array\n    for(uint8 i = index; i < index + n; i++) {\n      // clear the color\n      gems[i] &= 0xFF00FFFFFFFFFFFFFFFF;\n      // set the new color\n      gems[i] |= uint72(colorId) << 64;\n    }\n  }\n*/\n\n  // enforce at least `n` gem(s) of level `levelId`\n  function __enforceLevelConstraint(uint80[] gems, uint8 n, uint8 levelId, uint16 randomness) private pure {\n    // n must not be greater then number of gems in the array\n    require(gems.length >= n);\n\n    // generate a random index in range [0, length - n) to rewrite color\n    uint8 index = uint8(__randomValue(randomness, 0, gems.length - n, 0x10000)); // use low 16 bits\n\n    // rewrite the color in the gems array\n    for(uint8 i = index; i < index + n; i++) {\n      // clear the level\n      gems[i] &= 0x00FFFFFFFFFFFFFFFFFF;\n      // set the new color\n      gems[i] |= uint80(levelId) << 72;\n    }\n  }\n\n  // enforce at least `n` gem(s) of grade type `gradeType`\n  function __enforceGradeConstraint(uint80[] gems, uint8 n, uint8 gradeType, uint16 randomness) private pure {\n    // n must not be greater then number of gems in the array\n    require(gems.length >= n);\n\n    // generate a random index in range [0, length - n) to rewrite grade type\n    uint8 index = uint8(__randomValue(randomness, 0, gems.length - n, 0x10000)); // use low 16 bits\n\n    // rewrite the grade type in the gems array\n    for(uint8 i = index; i < index + n; i++) {\n      // clear the grade type\n      gems[i] &= 0xFFFF00FFFFFFFFFFFFFF;\n      // set the new grade type\n      gems[i] |= uint64(gradeType) << 56;\n    }\n  }\n\n  // gives a random value, normalizing the given one (randomness)\n  function __randomValue(uint256 randomness, uint256 offset, uint256 length, uint256 n) private pure returns (uint256) {\n    // return random in range [offset, offset + length)\n    return offset + randomness * length / n;\n  }\n\n}\n",
  "sourcePath": "/Users/vgorin/DEVELOP/upwork/Sophophilia/crypto-miner/contracts/GeodeSale.sol",
  "compiler": {
    "name": "solc",
    "version": "0.4.23+commit.124ca40d.Emscripten.clang"
  },
  "schemaVersion": "2.0.0",
  "updatedAt": "2018-05-05T19:26:20.232Z"
}