{
  "contractName": "Token",
  "abi": [
    {
      "constant": true,
      "inputs": [],
      "name": "MASK_CLEAR_STATE",
      "outputs": [
        {
          "name": "",
          "type": "uint256"
        }
      ],
      "payable": false,
      "stateMutability": "view",
      "type": "function"
    },
    {
      "constant": true,
      "inputs": [],
      "name": "totalSupply",
      "outputs": [
        {
          "name": "",
          "type": "uint80"
        }
      ],
      "payable": false,
      "stateMutability": "view",
      "type": "function"
    },
    {
      "constant": true,
      "inputs": [],
      "name": "ROLE_FEATURE_MANAGER",
      "outputs": [
        {
          "name": "",
          "type": "uint32"
        }
      ],
      "payable": false,
      "stateMutability": "view",
      "type": "function"
    },
    {
      "constant": true,
      "inputs": [],
      "name": "FULL_PRIVILEGES_MASK",
      "outputs": [
        {
          "name": "",
          "type": "uint32"
        }
      ],
      "payable": false,
      "stateMutability": "view",
      "type": "function"
    },
    {
      "constant": true,
      "inputs": [],
      "name": "f",
      "outputs": [
        {
          "name": "",
          "type": "uint32"
        }
      ],
      "payable": false,
      "stateMutability": "view",
      "type": "function"
    },
    {
      "constant": true,
      "inputs": [
        {
          "name": "",
          "type": "address"
        },
        {
          "name": "",
          "type": "address"
        }
      ],
      "name": "operators",
      "outputs": [
        {
          "name": "",
          "type": "uint256"
        }
      ],
      "payable": false,
      "stateMutability": "view",
      "type": "function"
    },
    {
      "constant": true,
      "inputs": [
        {
          "name": "",
          "type": "uint80"
        }
      ],
      "name": "tokens",
      "outputs": [
        {
          "name": "",
          "type": "uint256"
        }
      ],
      "payable": false,
      "stateMutability": "view",
      "type": "function"
    },
    {
      "constant": true,
      "inputs": [],
      "name": "lockedBitmask",
      "outputs": [
        {
          "name": "",
          "type": "uint32"
        }
      ],
      "payable": false,
      "stateMutability": "view",
      "type": "function"
    },
    {
      "constant": true,
      "inputs": [
        {
          "name": "",
          "type": "uint80"
        }
      ],
      "name": "approvals",
      "outputs": [
        {
          "name": "",
          "type": "address"
        }
      ],
      "payable": false,
      "stateMutability": "view",
      "type": "function"
    },
    {
      "constant": true,
      "inputs": [
        {
          "name": "",
          "type": "address"
        },
        {
          "name": "",
          "type": "uint256"
        }
      ],
      "name": "collections",
      "outputs": [
        {
          "name": "",
          "type": "uint80"
        }
      ],
      "payable": false,
      "stateMutability": "view",
      "type": "function"
    },
    {
      "constant": true,
      "inputs": [],
      "name": "UNLIMITED_APPROVALS",
      "outputs": [
        {
          "name": "",
          "type": "uint256"
        }
      ],
      "payable": false,
      "stateMutability": "view",
      "type": "function"
    },
    {
      "constant": true,
      "inputs": [
        {
          "name": "",
          "type": "address"
        }
      ],
      "name": "userRoles",
      "outputs": [
        {
          "name": "",
          "type": "uint32"
        }
      ],
      "payable": false,
      "stateMutability": "view",
      "type": "function"
    },
    {
      "constant": true,
      "inputs": [],
      "name": "MASK_CLEAR_TRANSFER",
      "outputs": [
        {
          "name": "",
          "type": "uint256"
        }
      ],
      "payable": false,
      "stateMutability": "view",
      "type": "function"
    },
    {
      "constant": true,
      "inputs": [],
      "name": "ROLE_STATE_PROVIDER",
      "outputs": [
        {
          "name": "",
          "type": "uint32"
        }
      ],
      "payable": false,
      "stateMutability": "view",
      "type": "function"
    },
    {
      "constant": true,
      "inputs": [],
      "name": "ROLE_TOKEN_CREATOR",
      "outputs": [
        {
          "name": "",
          "type": "uint32"
        }
      ],
      "payable": false,
      "stateMutability": "view",
      "type": "function"
    },
    {
      "constant": true,
      "inputs": [],
      "name": "FEATURE_TRANSFERS_ON_BEHALF",
      "outputs": [
        {
          "name": "",
          "type": "uint32"
        }
      ],
      "payable": false,
      "stateMutability": "view",
      "type": "function"
    },
    {
      "constant": true,
      "inputs": [],
      "name": "ROLE_ROLE_MANAGER",
      "outputs": [
        {
          "name": "",
          "type": "uint32"
        }
      ],
      "payable": false,
      "stateMutability": "view",
      "type": "function"
    },
    {
      "constant": true,
      "inputs": [],
      "name": "FEATURE_TRANSFERS",
      "outputs": [
        {
          "name": "",
          "type": "uint32"
        }
      ],
      "payable": false,
      "stateMutability": "view",
      "type": "function"
    },
    {
      "constant": true,
      "inputs": [],
      "name": "MASK_RIGHT_31BITS",
      "outputs": [
        {
          "name": "",
          "type": "uint256"
        }
      ],
      "payable": false,
      "stateMutability": "view",
      "type": "function"
    },
    {
      "constant": true,
      "inputs": [
        {
          "name": "",
          "type": "uint80"
        }
      ],
      "name": "indexes",
      "outputs": [
        {
          "name": "",
          "type": "uint80"
        }
      ],
      "payable": false,
      "stateMutability": "view",
      "type": "function"
    },
    {
      "inputs": [],
      "payable": false,
      "stateMutability": "nonpayable",
      "type": "constructor"
    },
    {
      "anonymous": false,
      "inputs": [
        {
          "indexed": true,
          "name": "tokenId",
          "type": "uint80"
        },
        {
          "indexed": true,
          "name": "to",
          "type": "address"
        },
        {
          "indexed": false,
          "name": "by",
          "type": "address"
        }
      ],
      "name": "Minted",
      "type": "event"
    },
    {
      "anonymous": false,
      "inputs": [
        {
          "indexed": true,
          "name": "tokenId",
          "type": "uint80"
        },
        {
          "indexed": true,
          "name": "from",
          "type": "address"
        },
        {
          "indexed": false,
          "name": "by",
          "type": "address"
        }
      ],
      "name": "Burnt",
      "type": "event"
    },
    {
      "anonymous": false,
      "inputs": [
        {
          "indexed": true,
          "name": "from",
          "type": "address"
        },
        {
          "indexed": true,
          "name": "to",
          "type": "address"
        },
        {
          "indexed": false,
          "name": "tokenId",
          "type": "uint80"
        }
      ],
      "name": "Transfer",
      "type": "event"
    },
    {
      "anonymous": false,
      "inputs": [
        {
          "indexed": true,
          "name": "owner",
          "type": "address"
        },
        {
          "indexed": true,
          "name": "approved",
          "type": "address"
        },
        {
          "indexed": false,
          "name": "tokenId",
          "type": "uint80"
        }
      ],
      "name": "Approval",
      "type": "event"
    },
    {
      "anonymous": false,
      "inputs": [
        {
          "indexed": true,
          "name": "owner",
          "type": "address"
        },
        {
          "indexed": true,
          "name": "operator",
          "type": "address"
        },
        {
          "indexed": false,
          "name": "approved",
          "type": "uint256"
        }
      ],
      "name": "ApprovalForAll",
      "type": "event"
    },
    {
      "constant": true,
      "inputs": [
        {
          "name": "tokenId",
          "type": "uint80"
        }
      ],
      "name": "ownerOf",
      "outputs": [
        {
          "name": "",
          "type": "address"
        }
      ],
      "payable": false,
      "stateMutability": "view",
      "type": "function"
    },
    {
      "constant": true,
      "inputs": [
        {
          "name": "who",
          "type": "address"
        }
      ],
      "name": "balanceOf",
      "outputs": [
        {
          "name": "",
          "type": "uint80"
        }
      ],
      "payable": false,
      "stateMutability": "view",
      "type": "function"
    },
    {
      "constant": true,
      "inputs": [
        {
          "name": "tokenId",
          "type": "uint80"
        }
      ],
      "name": "exists",
      "outputs": [
        {
          "name": "",
          "type": "bool"
        }
      ],
      "payable": false,
      "stateMutability": "view",
      "type": "function"
    },
    {
      "constant": true,
      "inputs": [
        {
          "name": "tokenId",
          "type": "uint80"
        }
      ],
      "name": "getToken",
      "outputs": [
        {
          "name": "",
          "type": "uint96"
        }
      ],
      "payable": false,
      "stateMutability": "view",
      "type": "function"
    },
    {
      "constant": true,
      "inputs": [
        {
          "name": "tokenId",
          "type": "uint80"
        }
      ],
      "name": "getOwnershipModified",
      "outputs": [
        {
          "name": "",
          "type": "uint32"
        }
      ],
      "payable": false,
      "stateMutability": "view",
      "type": "function"
    },
    {
      "constant": true,
      "inputs": [
        {
          "name": "tokenId",
          "type": "uint80"
        }
      ],
      "name": "getCreationTime",
      "outputs": [
        {
          "name": "",
          "type": "uint32"
        }
      ],
      "payable": false,
      "stateMutability": "view",
      "type": "function"
    },
    {
      "constant": true,
      "inputs": [
        {
          "name": "tokenId",
          "type": "uint80"
        }
      ],
      "name": "getState",
      "outputs": [
        {
          "name": "",
          "type": "uint32"
        }
      ],
      "payable": false,
      "stateMutability": "view",
      "type": "function"
    },
    {
      "constant": true,
      "inputs": [
        {
          "name": "tokenId",
          "type": "uint80"
        }
      ],
      "name": "getLastLockingBlock",
      "outputs": [
        {
          "name": "",
          "type": "uint32"
        }
      ],
      "payable": false,
      "stateMutability": "view",
      "type": "function"
    },
    {
      "constant": true,
      "inputs": [
        {
          "name": "tokenId",
          "type": "uint80"
        }
      ],
      "name": "isLocked",
      "outputs": [
        {
          "name": "",
          "type": "bool"
        }
      ],
      "payable": false,
      "stateMutability": "view",
      "type": "function"
    },
    {
      "constant": false,
      "inputs": [
        {
          "name": "bitmask",
          "type": "uint32"
        }
      ],
      "name": "setLockedBitmask",
      "outputs": [],
      "payable": false,
      "stateMutability": "nonpayable",
      "type": "function"
    },
    {
      "constant": false,
      "inputs": [
        {
          "name": "tokenId",
          "type": "uint80"
        },
        {
          "name": "state",
          "type": "uint32"
        }
      ],
      "name": "setState",
      "outputs": [],
      "payable": false,
      "stateMutability": "nonpayable",
      "type": "function"
    },
    {
      "constant": false,
      "inputs": [
        {
          "name": "mask",
          "type": "uint32"
        }
      ],
      "name": "updateFeatures",
      "outputs": [],
      "payable": false,
      "stateMutability": "nonpayable",
      "type": "function"
    },
    {
      "constant": false,
      "inputs": [
        {
          "name": "operator",
          "type": "address"
        },
        {
          "name": "permissions",
          "type": "uint32"
        }
      ],
      "name": "createOperator",
      "outputs": [],
      "payable": false,
      "stateMutability": "nonpayable",
      "type": "function"
    },
    {
      "constant": false,
      "inputs": [
        {
          "name": "operator",
          "type": "address"
        },
        {
          "name": "permissions",
          "type": "uint32"
        }
      ],
      "name": "updateOperator",
      "outputs": [],
      "payable": false,
      "stateMutability": "nonpayable",
      "type": "function"
    },
    {
      "constant": false,
      "inputs": [
        {
          "name": "operator",
          "type": "address"
        }
      ],
      "name": "deleteOperator",
      "outputs": [],
      "payable": false,
      "stateMutability": "nonpayable",
      "type": "function"
    },
    {
      "constant": false,
      "inputs": [
        {
          "name": "to",
          "type": "address"
        },
        {
          "name": "tokenId",
          "type": "uint80"
        }
      ],
      "name": "mint",
      "outputs": [],
      "payable": false,
      "stateMutability": "nonpayable",
      "type": "function"
    },
    {
      "constant": false,
      "inputs": [
        {
          "name": "to",
          "type": "address"
        },
        {
          "name": "data",
          "type": "uint80[]"
        }
      ],
      "name": "mintTokens",
      "outputs": [],
      "payable": false,
      "stateMutability": "nonpayable",
      "type": "function"
    },
    {
      "constant": false,
      "inputs": [
        {
          "name": "tokenId",
          "type": "uint80"
        }
      ],
      "name": "burn",
      "outputs": [],
      "payable": false,
      "stateMutability": "nonpayable",
      "type": "function"
    },
    {
      "constant": false,
      "inputs": [
        {
          "name": "to",
          "type": "address"
        },
        {
          "name": "tokenId",
          "type": "uint80"
        }
      ],
      "name": "transfer",
      "outputs": [],
      "payable": false,
      "stateMutability": "nonpayable",
      "type": "function"
    },
    {
      "constant": false,
      "inputs": [
        {
          "name": "to",
          "type": "address"
        },
        {
          "name": "tokenId",
          "type": "uint80"
        }
      ],
      "name": "approve",
      "outputs": [],
      "payable": false,
      "stateMutability": "nonpayable",
      "type": "function"
    },
    {
      "constant": false,
      "inputs": [
        {
          "name": "to",
          "type": "address"
        },
        {
          "name": "approved",
          "type": "uint256"
        }
      ],
      "name": "approveForAll",
      "outputs": [],
      "payable": false,
      "stateMutability": "nonpayable",
      "type": "function"
    },
    {
      "constant": false,
      "inputs": [
        {
          "name": "to",
          "type": "address"
        },
        {
          "name": "approved",
          "type": "bool"
        }
      ],
      "name": "approveForAll",
      "outputs": [],
      "payable": false,
      "stateMutability": "nonpayable",
      "type": "function"
    },
    {
      "constant": false,
      "inputs": [
        {
          "name": "from",
          "type": "address"
        },
        {
          "name": "to",
          "type": "address"
        },
        {
          "name": "tokenId",
          "type": "uint80"
        }
      ],
      "name": "transferFrom",
      "outputs": [],
      "payable": false,
      "stateMutability": "nonpayable",
      "type": "function"
    },
    {
      "constant": true,
      "inputs": [
        {
          "name": "feature",
          "type": "uint32"
        }
      ],
      "name": "isFeatureEnabled",
      "outputs": [
        {
          "name": "",
          "type": "bool"
        }
      ],
      "payable": false,
      "stateMutability": "view",
      "type": "function"
    },
    {
      "constant": true,
      "inputs": [
        {
          "name": "roleRequired",
          "type": "uint32"
        }
      ],
      "name": "isFeatureEnabledAndSenderInRole",
      "outputs": [
        {
          "name": "",
          "type": "bool"
        }
      ],
      "payable": false,
      "stateMutability": "view",
      "type": "function"
    },
    {
      "constant": true,
      "inputs": [
        {
          "name": "actualRole",
          "type": "uint32"
        },
        {
          "name": "roleRequired",
          "type": "uint32"
        }
      ],
      "name": "isFeatureEnabledAndHasRole",
      "outputs": [
        {
          "name": "",
          "type": "bool"
        }
      ],
      "payable": false,
      "stateMutability": "view",
      "type": "function"
    },
    {
      "constant": true,
      "inputs": [
        {
          "name": "actualRole",
          "type": "uint32"
        },
        {
          "name": "roleRequired",
          "type": "uint32"
        }
      ],
      "name": "hasRole",
      "outputs": [
        {
          "name": "",
          "type": "bool"
        }
      ],
      "payable": false,
      "stateMutability": "pure",
      "type": "function"
    }
  ],
  "bytecode": "0x608060405234801561001057600080fd5b50600033905063ffffffff600360008373ffffffffffffffffffffffffffffffffffffffff1673ffffffffffffffffffffffffffffffffffffffff16815260200190815260200160002060006101000a81548163ffffffff021916908363ffffffff16021790555050612b01806100886000396000f30060806040526004361061023b576000357c0100000000000000000000000000000000000000000000000000000000900463ffffffff16806301170e0214610240578063029656071461027957806318160ddd146102a45780631cb0816d146102e75780632022cc751461031e57806326121ff0146103555780632637588e1461038c5780632aa0e3aa1461040357806330cf6f681461045c57806331523dbc146104a957806333ccc217146104f65780633862ea9d1461054957806343a7ab5f14610580578063441fc52e14610606578063456cea591461067f57806349a764cd146106e8578063557f0b4814610761578063565f6fec1461078c5780635e0a016e146107e557806370a082311461083e57806374d5e100146108ad5780637ad241ea14610910578063818f4f301461095b57806383408e391461098e5780638353bb51146109b957806383a5cf98146109f05780638d4e57e614610a435780638f6fba8c14610a7a578063908e04f714610ab1578063a670cb2d14610b0a578063af26dc8914610b41578063b40992a114610b9c578063b893b6f114610bdf578063bdf01a7614610c30578063be5542bf14610c63578063c0d6568d14610cbc578063c0f2ba3e14610cf3578063d17219ec14610d1e578063d24f0a5d14610d77578063d8ffc4d714610dc8578063dab9a31114610e13578063de84826714610e5c578063e18b5bdf14610ed5578063e584b65414610f2e578063ee7684b214610f7d578063f0540b5814610ff6578063f48261e41461105b575b600080fd5b34801561024c57600080fd5b50610277600480360381019080803569ffffffffffffffffffff1690602001909291905050506110b6565b005b34801561028557600080fd5b5061028e6112b1565b6040518082815260200191505060405180910390f35b3480156102b057600080fd5b506102b96112d1565b604051808269ffffffffffffffffffff1669ffffffffffffffffffff16815260200191505060405180910390f35b3480156102f357600080fd5b506102fc6112ed565b604051808263ffffffff1663ffffffff16815260200191505060405180910390f35b34801561032a57600080fd5b506103336112f4565b604051808263ffffffff1663ffffffff16815260200191505060405180910390f35b34801561036157600080fd5b5061036a6112fc565b604051808263ffffffff1663ffffffff16815260200191505060405180910390f35b34801561039857600080fd5b506103ed600480360381019080803573ffffffffffffffffffffffffffffffffffffffff169060200190929190803573ffffffffffffffffffffffffffffffffffffffff169060200190929190505050611312565b6040518082815260200191505060405180910390f35b34801561040f57600080fd5b5061043a600480360381019080803569ffffffffffffffffffff169060200190929190505050611337565b604051808263ffffffff1663ffffffff16815260200191505060405180910390f35b34801561046857600080fd5b506104a7600480360381019080803573ffffffffffffffffffffffffffffffffffffffff16906020019092919080359060200190929190505050611354565b005b3480156104b557600080fd5b506104e0600480360381019080803569ffffffffffffffffffff1690602001909291905050506113b9565b6040518082815260200191505060405180910390f35b34801561050257600080fd5b50610547600480360381019080803573ffffffffffffffffffffffffffffffffffffffff169060200190929190803563ffffffff1690602001909291905050506113d1565b005b34801561055557600080fd5b5061055e611518565b604051808263ffffffff1663ffffffff16815260200191505060405180910390f35b34801561058c57600080fd5b50610604600480360381019080803573ffffffffffffffffffffffffffffffffffffffff1690602001909291908035906020019082018035906020019080806020026020016040519081016040528093929190818152602001838360200280828437820191505050505050919291929050505061152e565b005b34801561061257600080fd5b5061063d600480360381019080803569ffffffffffffffffffff169060200190929190505050611532565b604051808273ffffffffffffffffffffffffffffffffffffffff1673ffffffffffffffffffffffffffffffffffffffff16815260200191505060405180910390f35b34801561068b57600080fd5b506106b6600480360381019080803569ffffffffffffffffffff169060200190929190505050611565565b60405180826bffffffffffffffffffffffff166bffffffffffffffffffffffff16815260200191505060405180910390f35b3480156106f457600080fd5b50610733600480360381019080803573ffffffffffffffffffffffffffffffffffffffff169060200190929190803590602001909291905050506115b5565b604051808269ffffffffffffffffffff1669ffffffffffffffffffff16815260200191505060405180910390f35b34801561076d57600080fd5b50610776611603565b6040518082815260200191505060405180910390f35b34801561079857600080fd5b506107c3600480360381019080803569ffffffffffffffffffff169060200190929190505050611627565b604051808263ffffffff1663ffffffff16815260200191505060405180910390f35b3480156107f157600080fd5b5061083c600480360381019080803573ffffffffffffffffffffffffffffffffffffffff169060200190929190803569ffffffffffffffffffff169060200190929190505050611654565b005b34801561084a57600080fd5b5061087f600480360381019080803573ffffffffffffffffffffffffffffffffffffffff1690602001909291905050506119a3565b604051808269ffffffffffffffffffff1669ffffffffffffffffffff16815260200191505060405180910390f35b3480156108b957600080fd5b506108ee600480360381019080803573ffffffffffffffffffffffffffffffffffffffff1690602001909291905050506119ef565b604051808263ffffffff1663ffffffff16815260200191505060405180910390f35b34801561091c57600080fd5b50610941600480360381019080803563ffffffff169060200190929190505050611a12565b604051808215151515815260200191505060405180910390f35b34801561096757600080fd5b5061098c600480360381019080803563ffffffff169060200190929190505050611a37565b005b34801561099a57600080fd5b506109a3611a72565b6040518082815260200191505060405180910390f35b3480156109c557600080fd5b506109ce611a96565b604051808263ffffffff1663ffffffff16815260200191505060405180910390f35b3480156109fc57600080fd5b50610a41600480360381019080803573ffffffffffffffffffffffffffffffffffffffff169060200190929190803563ffffffff169060200190929190505050611a9d565b005b348015610a4f57600080fd5b50610a58611bf1565b604051808263ffffffff1663ffffffff16815260200191505060405180910390f35b348015610a8657600080fd5b50610a8f611bf8565b604051808263ffffffff1663ffffffff16815260200191505060405180910390f35b348015610abd57600080fd5b50610b08600480360381019080803573ffffffffffffffffffffffffffffffffffffffff169060200190929190803569ffffffffffffffffffff169060200190929190505050611bfd565b005b348015610b1657600080fd5b50610b1f611c27565b604051808263ffffffff1663ffffffff16815260200191505060405180910390f35b348015610b4d57600080fd5b50610b82600480360381019080803563ffffffff169060200190929190803563ffffffff169060200190929190505050611c2e565b604051808215151515815260200191505060405180910390f35b348015610ba857600080fd5b50610bdd600480360381019080803573ffffffffffffffffffffffffffffffffffffffff169060200190929190505050611c49565b005b348015610beb57600080fd5b50610c16600480360381019080803569ffffffffffffffffffff169060200190929190505050611cb5565b604051808215151515815260200191505060405180910390f35b348015610c3c57600080fd5b50610c61600480360381019080803563ffffffff169060200190929190505050611cf1565b005b348015610c6f57600080fd5b50610c9a600480360381019080803569ffffffffffffffffffff169060200190929190505050611de2565b604051808263ffffffff1663ffffffff16815260200191505060405180910390f35b348015610cc857600080fd5b50610cd1611df9565b604051808263ffffffff1663ffffffff16815260200191505060405180910390f35b348015610cff57600080fd5b50610d08611dfe565b6040518082815260200191505060405180910390f35b348015610d2a57600080fd5b50610d75600480360381019080803573ffffffffffffffffffffffffffffffffffffffff169060200190929190803569ffffffffffffffffffff169060200190929190505050611e06565b005b348015610d8357600080fd5b50610dae600480360381019080803569ffffffffffffffffffff169060200190929190505050611f5b565b604051808215151515815260200191505060405180910390f35b348015610dd457600080fd5b50610df9600480360381019080803563ffffffff169060200190929190505050611f8f565b604051808215151515815260200191505060405180910390f35b348015610e1f57600080fd5b50610e5a600480360381019080803569ffffffffffffffffffff169060200190929190803563ffffffff169060200190929190505050611ffc565b005b348015610e6857600080fd5b50610e93600480360381019080803569ffffffffffffffffffff1690602001909291905050506120b2565b604051808273ffffffffffffffffffffffffffffffffffffffff1673ffffffffffffffffffffffffffffffffffffffff16815260200191505060405180910390f35b348015610ee157600080fd5b50610f0c600480360381019080803569ffffffffffffffffffff1690602001909291905050506120fa565b604051808263ffffffff1663ffffffff16815260200191505060405180910390f35b348015610f3a57600080fd5b50610f7b600480360381019080803573ffffffffffffffffffffffffffffffffffffffff169060200190929190803515159060200190929190505050612127565b005b348015610f8957600080fd5b50610ff4600480360381019080803573ffffffffffffffffffffffffffffffffffffffff169060200190929190803573ffffffffffffffffffffffffffffffffffffffff169060200190929190803569ffffffffffffffffffff169060200190929190505050612162565b005b34801561100257600080fd5b5061102d600480360381019080803569ffffffffffffffffffff169060200190929190505050612340565b604051808269ffffffffffffffffffff1669ffffffffffffffffffff16815260200191505060405180910390f35b34801561106757600080fd5b5061109c600480360381019080803563ffffffff169060200190929190803563ffffffff169060200190929190505050612369565b604051808215151515815260200191505060405180910390f35b6000806110c562010000611f8f565b15156110d057600080fd5b6110d983611f5b565b1515156110e557600080fd5b6000808469ffffffffffffffffffff1669ffffffffffffffffffff16815260200190815260200160002054915081905061111f8184612391565b6006600081819054906101000a900469ffffffffffffffffffff16809291906001900391906101000a81548169ffffffffffffffffffff021916908369ffffffffffffffffffff160217905550506111798160008561253b565b6000808469ffffffffffffffffffff1669ffffffffffffffffffff168152602001908152602001600020600090558073ffffffffffffffffffffffffffffffffffffffff168369ffffffffffffffffffff167fb369589e4d228db5b2331979fb19b9e13db939b671605a45ee8faf93114bf83a33604051808273ffffffffffffffffffffffffffffffffffffffff1673ffffffffffffffffffffffffffffffffffffffff16815260200191505060405180910390a3600073ffffffffffffffffffffffffffffffffffffffff168173ffffffffffffffffffffffffffffffffffffffff167fa0f2d9d810b7227d93b1d65511f1321d5331a7a323e6d357130dda4aa99690a085604051808269ffffffffffffffffffff1669ffffffffffffffffffff16815260200191505060405180910390a3505050565b7bffffffffffffffffffffffffffffffffffffffffffffffffffffffff81565b600660009054906101000a900469ffffffffffffffffffff1681565b6208000081565b63ffffffff81565b6006600e9054906101000a900463ffffffff1681565b6002602052816000526040600020602052806000526040600020600091509150505481565b60008061134383611627565b9050637fffffff8116915050919050565b60006113606002611a12565b151561136b57600080fd5b3390508073ffffffffffffffffffffffffffffffffffffffff168373ffffffffffffffffffffffffffffffffffffffff16141515156113a957600080fd5b6113b4818484612627565b505050565b60006020528060005260406000206000915090505481565b6000806000339250600360008473ffffffffffffffffffffffffffffffffffffffff1673ffffffffffffffffffffffffffffffffffffffff16815260200190815260200160002060009054906101000a900463ffffffff1691506114388262040000612369565b151561144357600080fd5b8163ffffffff1684831763ffffffff1614151561145f57600080fd5b600360008673ffffffffffffffffffffffffffffffffffffffff1673ffffffffffffffffffffffffffffffffffffffff16815260200190815260200160002060009054906101000a900463ffffffff169050838117600360008773ffffffffffffffffffffffffffffffffffffffff1673ffffffffffffffffffffffffffffffffffffffff16815260200190815260200160002060006101000a81548163ffffffff021916908363ffffffff1602179055505050505050565b6006600a9054906101000a900463ffffffff1681565b5050565b60016020528060005260406000206000915054906101000a900473ffffffffffffffffffffffffffffffffffffffff1681565b6000806000808469ffffffffffffffffffff1669ffffffffffffffffffff1681526020019081526020016000205490506000811115156115a457600080fd5b60a0819060020a9004915050919050565b6004602052816000526040600020818154811015156115d057fe5b9060005260206000209060039182820401919006600a02915091509054906101000a900469ffffffffffffffffffff1681565b7fffffffffffffffffffffffffffffffffffffffffffffffffffffffffffffffff81565b60008061163383611565565b90506040816bffffffffffffffffffffffff169060020a9004915050919050565b600061166262010000611f8f565b151561166d57600080fd5b60008060008469ffffffffffffffffffff1669ffffffffffffffffffff168152602001908152602001600020541415156116a657600080fd5b60008269ffffffffffffffffffff16141515156116c257600080fd5b8273ffffffffffffffffffffffffffffffffffffffff1660c06116e3612712565b9060020a02179050600460008473ffffffffffffffffffffffffffffffffffffffff1673ffffffffffffffffffffffffffffffffffffffff16815260200190815260200160002080549050600560008469ffffffffffffffffffff1669ffffffffffffffffffff16815260200190815260200160002060006101000a81548169ffffffffffffffffffff021916908369ffffffffffffffffffff160217905550600460008473ffffffffffffffffffffffffffffffffffffffff1673ffffffffffffffffffffffffffffffffffffffff16815260200190815260200160002082908060018154018082558091505090600182039060005260206000209060039182820401919006600a02909192909190916101000a81548169ffffffffffffffffffff021916908369ffffffffffffffffffff16021790555050806000808469ffffffffffffffffffff1669ffffffffffffffffffff168152602001908152602001600020819055506006600081819054906101000a900469ffffffffffffffffffff168092919060010191906101000a81548169ffffffffffffffffffff021916908369ffffffffffffffffffff160217905550508273ffffffffffffffffffffffffffffffffffffffff168269ffffffffffffffffffff167fc1b4aa2dcfeb8b1a00a5857e6e94dc4218414da2c7b0ce7bfa0aa277d2f449a933604051808273ffffffffffffffffffffffffffffffffffffffff1673ffffffffffffffffffffffffffffffffffffffff16815260200191505060405180910390a38273ffffffffffffffffffffffffffffffffffffffff16600073ffffffffffffffffffffffffffffffffffffffff167fa0f2d9d810b7227d93b1d65511f1321d5331a7a323e6d357130dda4aa99690a084604051808269ffffffffffffffffffff1669ffffffffffffffffffff16815260200191505060405180910390a3505050565b6000600460008373ffffffffffffffffffffffffffffffffffffffff1673ffffffffffffffffffffffffffffffffffffffff168152602001908152602001600020805490509050919050565b60036020528060005260406000206000915054906101000a900463ffffffff1681565b6000611a306006600e9054906101000a900463ffffffff1683611c2e565b9050919050565b611a4362020000611f8f565b1515611a4e57600080fd5b806006600a6101000a81548163ffffffff021916908363ffffffff16021790555050565b7fffffffffffffffff00000000000000000000000000000000000000000000000081565b6202000081565b600080339150600360008373ffffffffffffffffffffffffffffffffffffffff1673ffffffffffffffffffffffffffffffffffffffff16815260200190815260200160002060009054906101000a900463ffffffff169050611b028162040000612369565b1515611b0d57600080fd5b8063ffffffff1683821763ffffffff16141515611b2957600080fd5b6000600360008673ffffffffffffffffffffffffffffffffffffffff1673ffffffffffffffffffffffffffffffffffffffff16815260200190815260200160002060009054906101000a900463ffffffff1663ffffffff16141515611b8d57600080fd5b82600360008673ffffffffffffffffffffffffffffffffffffffff1673ffffffffffffffffffffffffffffffffffffffff16815260200190815260200160002060006101000a81548163ffffffff021916908363ffffffff16021790555050505050565b6201000081565b600281565b6000611c096001611a12565b1515611c1457600080fd5b339050611c22818484612720565b505050565b6204000081565b60008163ffffffff1682841663ffffffff1614905092915050565b611c5562040000611f8f565b1515611c6057600080fd5b600360008273ffffffffffffffffffffffffffffffffffffffff1673ffffffffffffffffffffffffffffffffffffffff16815260200190815260200160002060006101000a81549063ffffffff021916905550565b6000806000808469ffffffffffffffffffff1669ffffffffffffffffffff16815260200190815260200160002054905060008111915050919050565b600080339150600360008373ffffffffffffffffffffffffffffffffffffffff1673ffffffffffffffffffffffffffffffffffffffff16815260200190815260200160002060009054906101000a900463ffffffff169050611d568162080000611c2e565b1515611d6157600080fd5b8281166006600e8282829054906101000a900463ffffffff161792506101000a81548163ffffffff021916908363ffffffff1602179055508263ffffffff18811663ffffffff186006600e8282829054906101000a900463ffffffff161692506101000a81548163ffffffff021916908363ffffffff160217905550505050565b600080611dee83611565565b905080915050919050565b600181565b637fffffff81565b600080611e136002611a12565b1515611e1e57600080fd5b339150611e2a836120b2565b90508073ffffffffffffffffffffffffffffffffffffffff168273ffffffffffffffffffffffffffffffffffffffff16141515611e6657600080fd5b8073ffffffffffffffffffffffffffffffffffffffff168473ffffffffffffffffffffffffffffffffffffffff1614151515611ea157600080fd5b6000600160008569ffffffffffffffffffff1669ffffffffffffffffffff16815260200190815260200160002060009054906101000a900473ffffffffffffffffffffffffffffffffffffffff1673ffffffffffffffffffffffffffffffffffffffff16141580611f3f5750600073ffffffffffffffffffffffffffffffffffffffff168473ffffffffffffffffffffffffffffffffffffffff1614155b1515611f4a57600080fd5b611f5582858561253b565b50505050565b600080611f6783611627565b905060006006600a9054906101000a900463ffffffff16821663ffffffff1611915050919050565b6000806000339150600360008373ffffffffffffffffffffffffffffffffffffffff1673ffffffffffffffffffffffffffffffffffffffff16815260200190815260200160002060009054906101000a900463ffffffff169050611ff38185612369565b92505050919050565b600061200a62020000611f8f565b151561201557600080fd5b6000808469ffffffffffffffffffff1669ffffffffffffffffffff16815260200190815260200160002054905060008111151561205157600080fd5b60e08263ffffffff169060020a027bffffffffffffffffffffffffffffffffffffffffffffffffffffffff8216176000808569ffffffffffffffffffff1669ffffffffffffffffffff16815260200190815260200160002081905550505050565b6000806000808469ffffffffffffffffffff1669ffffffffffffffffffff1681526020019081526020016000205490506000811115156120f157600080fd5b80915050919050565b60008061210683611565565b90506020816bffffffffffffffffffffffff169060020a9004915050919050565b61215e8282612137576000612159565b7fffffffffffffffffffffffffffffffffffffffffffffffffffffffffffffffff5b611354565b5050565b6000806000806121726002611a12565b151561217d57600080fd5b339350600160008669ffffffffffffffffffff1669ffffffffffffffffffff16815260200190815260200160002060009054906101000a900473ffffffffffffffffffffffffffffffffffffffff1692506121d7856120b2565b9150600260008373ffffffffffffffffffffffffffffffffffffffff1673ffffffffffffffffffffffffffffffffffffffff16815260200190815260200160002060008573ffffffffffffffffffffffffffffffffffffffff1673ffffffffffffffffffffffffffffffffffffffff1681526020019081526020016000205490508673ffffffffffffffffffffffffffffffffffffffff168473ffffffffffffffffffffffffffffffffffffffff1614806122bd57508273ffffffffffffffffffffffffffffffffffffffff168473ffffffffffffffffffffffffffffffffffffffff16145b806122c85750600081115b15156122d357600080fd5b8273ffffffffffffffffffffffffffffffffffffffff168473ffffffffffffffffffffffffffffffffffffffff161415612314576123138760008761253b565b5b600081111561232c5761232b878760018403612627565b5b612337878787612720565b50505050505050565b60056020528060005260406000206000915054906101000a900469ffffffffffffffffffff1681565b6000612389836006600e9054906101000a900463ffffffff161683611c2e565b905092915050565b6000806000600460008673ffffffffffffffffffffffffffffffffffffffff1673ffffffffffffffffffffffffffffffffffffffff168152602001908152602001600020925060008380549050141515156123e857fe5b600560008569ffffffffffffffffffff1669ffffffffffffffffffff16815260200190815260200160002060009054906101000a900469ffffffffffffffffffff16915082600184805490500381548110151561244157fe5b9060005260206000209060039182820401919006600a029054906101000a900469ffffffffffffffffffff16905081600560008369ffffffffffffffffffff1669ffffffffffffffffffff16815260200190815260200160002060006101000a81548169ffffffffffffffffffff021916908369ffffffffffffffffffff16021790555080838369ffffffffffffffffffff168154811015156124e057fe5b9060005260206000209060039182820401919006600a026101000a81548169ffffffffffffffffffff021916908369ffffffffffffffffffff160217905550828054809190600190036125339190612a76565b505050505050565b81600160008369ffffffffffffffffffff1669ffffffffffffffffffff16815260200190815260200160002060006101000a81548173ffffffffffffffffffffffffffffffffffffffff021916908373ffffffffffffffffffffffffffffffffffffffff1602179055508173ffffffffffffffffffffffffffffffffffffffff168373ffffffffffffffffffffffffffffffffffffffff167f3212f41ec92f177d999db7467a64faeb241827d867f4f176dc2be61581122d1a83604051808269ffffffffffffffffffff1669ffffffffffffffffffff16815260200191505060405180910390a3505050565b80600260008573ffffffffffffffffffffffffffffffffffffffff1673ffffffffffffffffffffffffffffffffffffffff16815260200190815260200160002060008473ffffffffffffffffffffffffffffffffffffffff1673ffffffffffffffffffffffffffffffffffffffff168152602001908152602001600020819055508173ffffffffffffffffffffffffffffffffffffffff168373ffffffffffffffffffffffffffffffffffffffff167f935230e68d0344049b3ab530b10aa82a70705c7069af8b4cb5f52671eb13d120836040518082815260200191505060405180910390a3505050565b600043637fffffff16905090565b60008073ffffffffffffffffffffffffffffffffffffffff168473ffffffffffffffffffffffffffffffffffffffff161415151561275d57600080fd5b600073ffffffffffffffffffffffffffffffffffffffff168373ffffffffffffffffffffffffffffffffffffffff161415151561279957600080fd5b8373ffffffffffffffffffffffffffffffffffffffff168373ffffffffffffffffffffffffffffffffffffffff16141515156127d457600080fd5b6000808369ffffffffffffffffffff1669ffffffffffffffffffff16815260200190815260200160002054905061280a826120b2565b73ffffffffffffffffffffffffffffffffffffffff168473ffffffffffffffffffffffffffffffffffffffff1614151561284357600080fd5b61284c82611f5b565b15151561285857600080fd5b61286384848461295f565b8273ffffffffffffffffffffffffffffffffffffffff1660a0612884612712565b9060020a027fffffffffffffffff000000000000000000000000000000000000000000000000831617176000808469ffffffffffffffffffff1669ffffffffffffffffffff168152602001908152602001600020819055508273ffffffffffffffffffffffffffffffffffffffff168473ffffffffffffffffffffffffffffffffffffffff167fa0f2d9d810b7227d93b1d65511f1321d5331a7a323e6d357130dda4aa99690a084604051808269ffffffffffffffffffff1669ffffffffffffffffffff16815260200191505060405180910390a350505050565b6129698382612391565b6129738282612978565b505050565b6000600460008473ffffffffffffffffffffffffffffffffffffffff1673ffffffffffffffffffffffffffffffffffffffff16815260200190815260200160002090508080549050600560008469ffffffffffffffffffff1669ffffffffffffffffffff16815260200190815260200160002060006101000a81548169ffffffffffffffffffff021916908369ffffffffffffffffffff1602179055508082908060018154018082558091505090600182039060005260206000209060039182820401919006600a02909192909190916101000a81548169ffffffffffffffffffff021916908369ffffffffffffffffffff16021790555050505050565b815481835581811115612aab576002016003900481600201600390048360005260206000209182019101612aaa9190612ab0565b5b505050565b612ad291905b80821115612ace576000816000905550600101612ab6565b5090565b905600a165627a7a72305820eccc0e9d01f9acc6952264d246f2df92ec25b63d41ecf1d4baa4a5a262434be80029",
  "source": "pragma solidity 0.4.23;\n\n/**\n * @notice This smart contract represents a tradable non-fungible entity.\n * @dev Follows ERC721 standard, but since it is still in draft at the moment\n *      of writing, there are some modifications for convenience of use\n *      particular to the Crypto Miner World needs.\n */\ncontract Token {\n  /// @dev Core of the Gem as ERC721 token is mapping\n  ///      gem id => state + owner\n  ///      which maps a Gem ID (ERC721 tokenId) to a\n  ///      uint256 packed struct containing current gem state\n  ///      and owner address\n  mapping(uint80 => uint256) public tokens;\n\n  /// @dev Mapping from token ID to approved address\n  mapping(uint80 => address) public approvals;\n\n  /// @dev Mapping from owner to operator approvals\n  /// token owner => approved token operator => approvals left (zero means no approval)\n  mapping(address => mapping(address => uint256)) public operators;\n\n  /// @notice Defines a privileged addresses with additional\n  ///      permissions on the smart contract, like minting/burning,\n  ///      enabling/disabling transfers, transferring on behalf and so on\n  /// @dev Maps an address to the permissions bitmask (role), where each bit\n  ///      represents a permissions; bitmask 0xFFFFFFFF represents all possible permissions\n  mapping(address => uint32) public userRoles;\n\n  /// @notice Storage for a collections of tokens\n  /// @notice A collection of tokens is an ordered list of tokens,\n  ///      owned by a particular address (owner)\n  /// @dev A mapping from owner to a collection of his tokens (IDs)\n  /// @dev ERC20 compatible structure for balances can be derived\n  ///      as a length of each collection in the mapping\n  /// @dev ERC20 balances[owner] is equal to collections[owner].length\n  mapping(address => uint80[]) public collections;\n\n  /// @dev token index withing a particular collection\n  mapping(uint80 => uint80) public indexes;\n\n  /// @notice Total number of tokens which exist in the system\n  uint80 public totalSupply;\n\n  /// @dev The data in token's state may contain lock(s),\n  ///      meaning the token is not currently transferable\n  /// @dev A locked token cannot be transferred\n  /// @dev The token is locked if it contains any bits\n  ///      from the `lockedBitmask` in its `state` set\n  uint32 public lockedBitmask;\n\n  /// @dev A bitmask of globally enabled features, see below\n  uint32 public f;\n\n  /**\n   * @dev Globally enabled features, permissions:\n   *\n   */\n  uint32 public constant FEATURE_TRANSFERS = 0x00000001;\n  uint32 public constant FEATURE_TRANSFERS_ON_BEHALF = 0x00000002;\n\n  uint32 public constant ROLE_TOKEN_CREATOR = 0x00010000;\n  uint32 public constant ROLE_STATE_PROVIDER = 0x00020000;\n  uint32 public constant ROLE_ROLE_MANAGER = 0x00040000;\n  uint32 public constant ROLE_FEATURE_MANAGER = 0x00080000;\n\n  uint32 public constant FULL_PRIVILEGES_MASK = 0xFFFFFFFF;\n\n                                              //  F8F0E8E0D8D0C8C0B8B0A8A09890888078706860585048403830282018100800\n  uint256 public constant MASK_CLEAR_STATE    = 0x00000000FFFFFFFFFFFFFFFFFFFFFFFFFFFFFFFFFFFFFFFFFFFFFFFFFFFFFFFF;\n  uint256 public constant MASK_CLEAR_TRANSFER = 0xFFFFFFFFFFFFFFFF000000000000000000000000000000000000000000000000;\n  uint256 public constant MASK_RIGHT_31BITS   = 0x000000000000000000000000000000000000000000000000000000007FFFFFFF;\n  uint256 public constant UNLIMITED_APPROVALS = 0xFFFFFFFFFFFFFFFFFFFFFFFFFFFFFFFFFFFFFFFFFFFFFFFFFFFFFFFFFFFFFFFF;\n\n  /**\n   * @dev event names are self-explanatory\n   */\n  /// @dev fired in mint()\n  event Minted(uint80 indexed tokenId, address indexed to, address by);\n  /// @dev fired in burn()\n  event Burnt(uint80 indexed tokenId, address indexed from, address by);\n  /// @dev fired in transfer()\n  event Transfer(address indexed from, address indexed to, uint80 tokenId);\n  /// @dev fired in approve()\n  event Approval(address indexed owner, address indexed approved, uint80 tokenId);\n  /// @dev fired in approveForAll()\n  event ApprovalForAll(address indexed owner, address indexed operator, uint256 approved);\n\n  /// @dev Creates a token\n  constructor() public {\n    // call sender nicely - creator\n    address creator = msg.sender;\n\n    // grant the contract creator full permissions\n    userRoles[creator] = FULL_PRIVILEGES_MASK;\n  }\n\n  /**\n   * @notice finds an owner address for a token specified\n   * @dev Gets the owner of the specified token ID\n   * @param tokenId ID of the token to query the owner of\n   * @return owner address currently marked as the owner of the given token ID\n   */\n  function ownerOf(uint80 tokenId) public constant returns (address) {\n    // get the token from storage\n    uint256 token = tokens[tokenId];\n\n    // check if this token exists\n    require(token > 0);\n\n    // extract token's address and return\n    return address(token);\n  }\n\n  /**\n   * @notice Gets an amount of tokens owned by the given address\n   * @dev Gets the balance of the specified address\n   * @param who address to query the balance for\n   * @return uint80 representing the amount owned by the passed address\n   */\n  function balanceOf(address who) public constant returns (uint80) {\n    // read the length of the `who`s collection of tokens\n    return uint80(collections[who].length);\n  }\n\n  /**\n   * @notice Checks if specified token exists\n   * @dev Returns whether the specified token ID exists\n   * @param tokenId ID of the token to query the existence of\n   * @return whether the token exists\n   */\n  function exists(uint80 tokenId) public constant returns (bool) {\n    // get the token from storage\n    uint256 token = tokens[tokenId];\n    // check if this token exists\n    return token > 0;\n  }\n\n  /**\n   * @dev extracts 96 bit integer token state,\n   *      64 lower bits of which are managed and updated by the token itself,\n   *      while higher 32 bits may be used by external operators\n   */\n  function getToken(uint80 tokenId) public constant returns (uint96) {\n    // get the token from storage\n    uint256 token = tokens[tokenId];\n\n    // check if this token exists\n    require(token > 0);\n\n    // extract 96 bits of state and return\n    return uint96(token >> 160);\n  }\n\n  /**\n   * @dev extracts 32 bit integer block ID of the last token transfer\n   */\n  function getOwnershipModified(uint80 tokenId) public constant returns (uint32) {\n    // get token state\n    uint96 state = getToken(tokenId);\n\n    // extract 32 bits of last transfer block ID and return\n    return uint32(state);\n  }\n\n  /**\n   * @dev extracts 32 bit integer block ID of the token creation\n   */\n  function getCreationTime(uint80 tokenId) public constant returns (uint32) {\n    // get token state\n    uint96 state = getToken(tokenId);\n\n    // extract 32 bits of token creation block ID and return\n    return uint32(state >> 32);\n  }\n\n  /**\n   * @dev extracts 32 bit integer Gem mining state,\n   *      which may be used by external operators\n   */\n  function getState(uint80 tokenId) public constant returns (uint32) {\n    // get token state\n    uint96 state = getToken(tokenId);\n\n    // extract 32 bits of the mining state and return\n    return uint32(state >> 64);\n  }\n\n  /**\n   * @dev extracts 31 bit integer block ID when token lock has changed\n   */\n  function getLastLockingBlock(uint80 tokenId) public constant returns (uint32) {\n    // get mining state\n    uint32 lockingBlock = getState(tokenId);\n\n    // overwrite first bit with zero (it contains lock) and return\n    return uint32(lockingBlock & 0x7FFFFFFF);\n  }\n\n  /**\n   * @dev checks if the token is in locked state (mining);\n   * locked gem cannot be transferred (change ownership) or\n   * destroyed (burnt)\n   * @param tokenId ID of the token to check locked status for\n   * @return whether the token is locked\n   */\n  function isLocked(uint80 tokenId) public constant returns (bool) {\n    // get token state\n    uint32 state = getState(tokenId);\n\n    // extract the locked bit, check and return\n    return state & lockedBitmask > 0;\n  }\n\n  /**\n   * @dev Allows setting the `lockedBitmask` parameter of the contract,\n   *      which is used to determine if a particular token is locked or not\n   * @dev A locked token cannot be transferred or burnt\n   * @dev The token is locked if it contains any bits\n   *      from the `lockedBitmask` in its `state` set\n   */\n  function setLockedBitmask(uint32 bitmask) public {\n    // feature must be enabled globally and\n    // caller should have a permission to update state\n    require(isFeatureEnabledAndSenderInRole(ROLE_STATE_PROVIDER));\n\n    // update the locked bitmask\n    lockedBitmask = bitmask;\n  }\n\n  /**\n   * @dev Allows external operator to update Gem's mining state\n   * @dev Requires sender to have `ROLE_STATE_PROVIDER` permission.\n   * @dev Requires `ROLE_STATE_PROVIDER` global feature to be enabled.\n   * @param tokenId ID of the token to update state for\n   * @param state mining state to set\n   */\n  function setState(uint80 tokenId, uint32 state) public {\n    // feature must be enabled globally and\n    // caller should have a permission to update state\n    require(isFeatureEnabledAndSenderInRole(ROLE_STATE_PROVIDER));\n\n    // get the token from storage\n    uint256 token = tokens[tokenId];\n\n    // check if this token exists\n    require(token > 0);\n\n    // update token state  // 0x00000000FFFFFFFFFFFFFFFFFFFFFFFFFFFFFFFFFFFFFFFFFFFFFFFFFFFFFFFF\n    tokens[tokenId] = token & MASK_CLEAR_STATE | uint256(state) << 224;\n  }\n\n  /**\n   * @dev Updates set of the globally enabled features (`f`),\n   *      taking into account sender's permissions.\n   * @dev Requires sender to have `ROLE_FEATURE_MANAGER` permission.\n   * @param mask bitmask representing a set of features to enable/disable\n   */\n  function updateFeatures(uint32 mask) public {\n    // call sender nicely - caller\n    address caller = msg.sender;\n    // read caller's permissions\n    uint32 p = userRoles[caller];\n\n    // caller should have a permission to update global features\n    require(hasRole(p, ROLE_FEATURE_MANAGER));\n\n    // taking into account caller's permissions,\n    // 1) enable features requested\n    f |= p & mask;\n    // 2) disable features requested\n    f &= FULL_PRIVILEGES_MASK ^ (p & (FULL_PRIVILEGES_MASK ^ mask));\n  }\n\n  /**\n   * @dev Creates the global `operator` - an address which has\n   * some extended privileges over the token smart contract, for example\n   * token minting, burning, transferring on behalf, etc.\n   * @dev Note that a newly added operator cannot have any permissions\n   * which caller doesn't have.\n   * @dev Requires sender to have `ROLE_ROLE_MANAGER` permission.\n   * @dev Requires `ROLE_ROLE_MANAGER` global feature to be enabled.\n   * @dev Cannot update existing operator. Throws if `operator` already exists.\n   * @param operator address of the operator to add\n   * @param permissions bitmask representing a set of permissions which\n   * newly created operator will have\n   */\n  function createOperator(address operator, uint32 permissions) public {\n    // call sender nicely - caller\n    address caller = msg.sender;\n    // read caller's permissions\n    uint32 p = userRoles[caller];\n\n    // feature must be enabled globally and\n    // caller should have a permission to add new operator\n    require(isFeatureEnabledAndHasRole(p, ROLE_ROLE_MANAGER));\n    // caller cannot grant a permission which he doesn't have himself\n    require(p | permissions == p);\n    // create is not allowed to overwrite existing operator\n    require(userRoles[operator] == 0);\n\n    // add an operator with the permissions specified\n    userRoles[operator] = permissions;\n  }\n\n  /**\n   * @dev Updates an existing global operator.\n   * Creates a new one if it doesn't exist.\n   * @dev Note that updatable (`operator`) cannot receive permission which\n   * updater (sender) doesn't have.\n   * @dev Requires sender to have `ROLE_ROLE_MANAGER` permission.\n   * @dev Requires `ROLE_ROLE_MANAGER` global feature to be enabled.\n   * @dev Can create a new operator. Doesn't throw if `operator` doesn't exist.\n   * @param operator address of the operator to update\n   * @param permissions bitmask representing a set of permissions which\n   * `operator` will have\n   */\n  function updateOperator(address operator, uint32 permissions) public {\n    // call sender nicely - caller\n    address caller = msg.sender;\n    // read caller's permissions\n    uint32 p = userRoles[caller];\n\n    // feature must be enabled globally and\n    // caller should have a permission to update operator\n    require(isFeatureEnabledAndHasRole(p, ROLE_ROLE_MANAGER));\n    // caller cannot grant a permission which he doesn't have himself\n    require(p | permissions == p);\n\n    // update may extend existing operator's permissions\n    uint32 e = userRoles[operator];\n    // update an operator with the permissions specified\n    userRoles[operator] = e | permissions;\n  }\n\n  /**\n   * @dev Deletes an existing global operator.\n   * @dev Requires sender to have `ROLE_ROLE_MANAGER` permission.\n   * @dev Requires `ROLE_ROLE_MANAGER` global feature to be enabled.\n   * @param operator address of the operator to delete\n   */\n  function deleteOperator(address operator) public {\n    // feature must be enabled globally and\n    // caller should have a permission to remove operator\n    require(isFeatureEnabledAndSenderInRole(ROLE_ROLE_MANAGER));\n\n    // remove an operator\n    delete userRoles[operator];\n  }\n\n  /**\n   * @dev Creates new token with `tokenId` ID specified and assigns\n   * address `to` an ownership of that token.\n   * @dev Requires sender to have `ROLE_TOKEN_MANAGER` permission.\n   * @dev Requires `ROLE_TOKEN_MANAGER` global feature to be enabled.\n   * @param to owner address of the newly created token\n   * @param tokenId ID of the token to create\n   */\n  function mint(address to, uint80 tokenId) public {\n    // feature must be enabled globally and\n    // caller should have a permission to mint a token\n    require(isFeatureEnabledAndSenderInRole(ROLE_TOKEN_CREATOR));\n    // the token specified should not already exist\n    require(tokens[tokenId] == 0);\n\n    // validate token ID is not zero\n    require(tokenId != 0);\n\n    // init token value with current date and new owner address\n    uint256 token = __blockNum() << 192 | uint160(to);\n\n    // token index within the owner's collection of tokens\n    // points to the place where the token will be placed to\n    indexes[tokenId] = uint80(collections[to].length);\n\n    // push newly created token ID to the owner's collection of tokens\n    collections[to].push(tokenId);\n\n    // persist newly created token\n    tokens[tokenId] = token;\n\n    // update total tokens number\n    totalSupply++;\n\n    // fire a Mint event\n    emit Minted(tokenId, to, msg.sender);\n    // fire Transfer event (ERC20 compatibility)\n    emit Transfer(address(0), to, tokenId);\n  }\n\n  function mintTokens(address to, uint80[] data) public {\n\n  }\n\n  /**\n   * @dev Destroys a token with `tokenId` ID specified.\n   * @dev Requires sender to have `ROLE_TOKEN_MANAGER` permission.\n   * @dev Requires `ROLE_TOKEN_MANAGER` global feature to be enabled.\n   * @dev Requires the gem not to be locked.\n   * @param tokenId ID of the token to destroy\n   */\n  function burn(uint80 tokenId) public {\n    // feature must be enabled globally and\n    // caller should have a permission to burn a token\n    require(isFeatureEnabledAndSenderInRole(ROLE_TOKEN_CREATOR));\n\n    // token state should not be locked (gem should not be mining)\n    require(!isLocked(tokenId));\n\n    // get the token from storage\n    uint256 token = tokens[tokenId];\n\n    // extract token owner address\n    address from = address(token);\n\n    // remove token from the owner's collection\n    __remove(from, tokenId);\n\n    // update total tokens number\n    totalSupply--;\n\n    // delete approval if any\n    __approve(from, address(0), tokenId);\n\n    // delete token\n    delete tokens[tokenId];\n\n    // fire a Burnt event\n    emit Burnt(tokenId, from, msg.sender);\n    // fire Transfer event (ERC20 compatibility)\n    emit Transfer(from, address(0), tokenId);\n  }\n\n  /**\n   * @notice Transfers a token specified to the address specified.\n   * If transferring to a smart contract be VERY CAREFUL to ensure\n   * that it is aware of ERC-721 or your Token may be lost forever.\n   * @dev Transfers the ownership of a given token ID to another address.\n   * @dev Requires transaction sender to be the owner of a token.\n   * @dev Requires `FEATURE_TRANSFERS` global feature to be enabled.\n   * @dev Requires the gem not to be locked.\n   * @param to address to receive the ownership of the given token ID\n   * @param tokenId ID of the token to be transferred\n   */\n  function transfer(address to, uint80 tokenId) public {\n    // feature must be enabled globally\n    require(isFeatureEnabled(FEATURE_TRANSFERS));\n\n    // call sender nicely - `from`\n    address from = msg.sender;\n\n    // delegate call to unsafe `__transfer`\n    __transfer(from, to, tokenId);\n  }\n\n  /**\n   * @dev Approves another address to transfer the given token ID.\n   * @dev The zero address indicates there is no approved address.\n   * @dev There can only be one approved address per token at a given time.\n   * @dev Can only be called by the token owner or an approved operator.\n   * @dev Requires `FEATURE_TRANSFERS_ON_BEHALF` global feature to be enabled.\n   * @param to address to be approved for the given token ID\n   * @param tokenId ID of the token to be approved\n   */\n  function approve(address to, uint80 tokenId) public {\n    // feature must be enabled globally\n    require(isFeatureEnabled(FEATURE_TRANSFERS_ON_BEHALF));\n\n    // call sender nicely - caller\n    address caller = msg.sender;\n    // get token owner address\n    address owner = ownerOf(tokenId);\n\n    // caller must own this token\n    require(caller == owner);\n    // approval for owner himself is pointless, do not allow\n    require(to != owner);\n    // either we're removing approval, or setting it\n    require(approvals[tokenId] != 0 || to != address(0));\n\n    // perform an approval + emit event\n    __approve(caller, to, tokenId);\n  }\n\n  /**\n   * @dev Sets or unsets the approval of a given operator\n   * @dev An operator is allowed to transfer *all* tokens of the sender on their behalf\n   * @dev Requires `FEATURE_TRANSFERS_ON_BEHALF` global feature to be enabled.\n   * @param to operator address to set the approval\n   * @param approved representing the status of the approval to be set\n   */\n  function approveForAll(address to, bool approved) public {\n    // set maximum possible approval, 2^256  1, unlimited de facto\n    approveForAll(to, approved ? UNLIMITED_APPROVALS : 0);\n  }\n\n  /**\n   * @dev Sets or unsets the approval of a given operator\n   * @dev An operator is allowed to transfer *all* tokens of the sender on their behalf\n   * @dev Requires `FEATURE_TRANSFERS_ON_BEHALF` global feature to be enabled.\n   * @param to operator address to set the approval\n   * @param approved representing the number of the approval left to be set\n   */\n  function approveForAll(address to, uint256 approved) public {\n    // feature must be enabled globally\n    require(isFeatureEnabled(FEATURE_TRANSFERS_ON_BEHALF));\n\n    // call sender nicely - caller\n    address caller = msg.sender;\n\n    // check for input mistakes\n    require(to != caller);\n\n    // update an approval + emit an event\n    __approveAll(caller, to, approved);\n  }\n\n  /**\n   * @dev Transfers the ownership of a given token ID to another address\n   * @dev Requires the msg sender to be the owner, approved, or operator\n   * @dev Requires `FEATURE_TRANSFERS_ON_BEHALF` global feature to be enabled.\n   * @param from current owner of the token\n   * @param to address to receive the ownership of the given token ID\n   * @param tokenId ID of the token to be transferred\n   */\n  function transferFrom(address from, address to, uint80 tokenId) public {\n    // feature must be enabled globally\n    require(isFeatureEnabled(FEATURE_TRANSFERS_ON_BEHALF));\n\n    // call sender nicely - `operator`\n    address operator = msg.sender;\n    // find if an approved address exists for this token\n    address approved = approvals[tokenId];\n\n    // find an owner of a token\n    address owner = ownerOf(tokenId);\n\n    // fetch how much approvals left for a caller\n    uint256 approvalsLeft = operators[owner][operator];\n\n    // caller must have an approval to transfer this particular token\n    // or caller must be approved to transfer all the tokens\n    require(operator == from || operator == approved || approvalsLeft > 0);\n\n    if(operator == approved) {\n      // clear approval + emit event\n      __approve(from, address(0), tokenId);\n    }\n    if (approvalsLeft > 0) {\n      // update an approval + emit an event\n      __approveAll(from, to, approvalsLeft - 1);\n    }\n\n    // delegate call to unsafe `__transfer`\n    __transfer(from, to, tokenId);\n  }\n\n  /// @notice Checks if all the specified features (bitmask) are enabled\n  function isFeatureEnabled(uint32 feature) public constant returns (bool) {\n    // evaluate if feature is enabled and return\n    return hasRole(f, feature);\n  }\n\n  /// @notice Checks if all the specified features (bitmask) are enabled and if sender is allowed to execute them\n  function isFeatureEnabledAndSenderInRole(uint32 roleRequired) public constant returns (bool) {\n    // call sender gracefully - `user`\n    address user = msg.sender;\n\n    // read user's permissions (role)\n    uint32 actualRole = userRoles[user];\n\n    // evaluate the feature and user role\n    return isFeatureEnabledAndHasRole(actualRole, roleRequired);\n  }\n\n  /// @notice Checks if all the specified features (bitmask) are enabled\n  function isFeatureEnabledAndHasRole(uint32 actualRole, uint32 roleRequired) public constant returns (bool) {\n    // evaluate the feature and user role\n    return hasRole(f & actualRole, roleRequired);\n  }\n\n  /// @notice Checks if user role `userRole` contain all the permissions required `roleRequired`\n  function hasRole(uint32 actualRole, uint32 roleRequired) public pure returns(bool) {\n    // check the bitmask for the role required and return the result\n    return actualRole & roleRequired == roleRequired;\n  }\n\n\n  // perform an approval, unsafe, private use only\n  function __approve(address from, address to, uint80 tokenId) private {\n    // set an approval\n    approvals[tokenId] = to;\n\n    // emit en event\n    emit Approval(from, to, tokenId);\n  }\n\n  // perform an token operator approval, unsafe, private use only\n  function __approveAll(address from, address to, uint256 approved) private {\n    // set an approval\n    operators[from][to] = approved;\n\n    // emit an event\n    emit ApprovalForAll(from, to, approved);\n  }\n\n  // perform the transfer, unsafe, private use only\n  function __transfer(address from, address to, uint80 tokenId) private {\n    // validate source and destination address\n    require(from != address(0));\n    require(to != address(0));\n    require(to != from);\n\n    // get the token from storage\n    uint256 token = tokens[tokenId];\n\n    // validate token ownership and existence\n    require(from == ownerOf(tokenId));\n\n    // token state should not be locked (gem should not be mining)\n    require(!isLocked(tokenId));\n\n    // delegate call to `__move` to update collections\n    __move(from, to, tokenId);\n\n    // update token transfer date and owner // 0xFFFFFFFFFFFFFFFF000000000000000000000000000000000000000000000000\n    tokens[tokenId] = token & MASK_CLEAR_TRANSFER | __blockNum() << 160 | uint160(to);\n\n    // emit en event\n    emit Transfer(from, to, tokenId);\n  }\n\n  /// @dev Move a token `tokenId` from owner `from` to a new owner `to`\n  /// @dev Unsafe, doesn't check for consistence\n  /// @dev Must be kept private at all times\n  function __move(address from, address to, uint80 tokenId) private {\n    // delegate call to `__remove` to remove token from `from`\n    __remove(from, tokenId);\n\n    // delegate call to `__add` to add token to `to`\n    __add(to, tokenId);\n  }\n\n  /// @dev Remove a token `tokenId` from owner `from`\n  /// @dev Unsafe, doesn't check for consistence\n  /// @dev Must be kept private at all times\n  function __remove(address from, uint80 tokenId) private {\n    // get a reference to the collection where token is\n    uint80[] storage fCol = collections[from];\n\n    // collection `fCol` cannot be empty, if it is - it's a bug\n    assert(fCol.length != 0);\n\n    // index of the token within collection `f`\n    uint80 i = indexes[tokenId];\n\n    // we put the last token in the collection `f` to the position released\n    // get an ID of the last token in `f`\n    uint80 id = fCol[fCol.length - 1];\n\n    // update token index to point to proper place in the collection `f`\n    indexes[id] = i;\n\n    // put it into the position i within `f`\n    fCol[i] = id;\n\n    // trim the collection `f` by removing last element\n    fCol.length--;\n  }\n\n  /// @dev Add a token `tokenId` to a new owner `to`\n  /// @dev Unsafe, doesn't check for consistence\n  /// @dev Must be kept private at all times\n  function __add(address to, uint80 tokenId) private {\n    // get a reference to the collection where token goes to\n    uint80[] storage tCol = collections[to];\n\n    // update token index according to position in new collection `t`\n    indexes[tokenId] = uint80(tCol.length);\n\n    // push token into collection\n    tCol.push(tokenId);\n  }\n\n  // returns block.number, guaranteed to fit into 31 bit integer\n  function __blockNum() private constant returns (uint256) {\n    // erase everything except right 31 bits\n    return uint256(0x7FFFFFFF & block.number);\n  }\n}\n",
  "sourcePath": "/Users/vgorin/DEVELOP/upwork/Sophophilia/crypto-miner/contracts/Token.sol",
  "compiler": {
    "name": "solc",
    "version": "0.4.23+commit.124ca40d.Emscripten.clang"
  },
  "schemaVersion": "2.0.0",
  "updatedAt": "2018-05-02T12:27:46.482Z"
}