{
  "contractName": "Token",
  "abi": [
    {
      "constant": true,
      "inputs": [],
      "name": "MASK_CLEAR_STATE",
      "outputs": [
        {
          "name": "",
          "type": "uint256"
        }
      ],
      "payable": false,
      "stateMutability": "view",
      "type": "function"
    },
    {
      "constant": true,
      "inputs": [],
      "name": "totalSupply",
      "outputs": [
        {
          "name": "",
          "type": "uint80"
        }
      ],
      "payable": false,
      "stateMutability": "view",
      "type": "function"
    },
    {
      "constant": true,
      "inputs": [],
      "name": "ROLE_FEATURE_MANAGER",
      "outputs": [
        {
          "name": "",
          "type": "uint32"
        }
      ],
      "payable": false,
      "stateMutability": "view",
      "type": "function"
    },
    {
      "constant": true,
      "inputs": [],
      "name": "FULL_PRIVILEGES_MASK",
      "outputs": [
        {
          "name": "",
          "type": "uint32"
        }
      ],
      "payable": false,
      "stateMutability": "view",
      "type": "function"
    },
    {
      "constant": true,
      "inputs": [],
      "name": "f",
      "outputs": [
        {
          "name": "",
          "type": "uint32"
        }
      ],
      "payable": false,
      "stateMutability": "view",
      "type": "function"
    },
    {
      "constant": true,
      "inputs": [
        {
          "name": "",
          "type": "address"
        },
        {
          "name": "",
          "type": "address"
        }
      ],
      "name": "operators",
      "outputs": [
        {
          "name": "",
          "type": "uint256"
        }
      ],
      "payable": false,
      "stateMutability": "view",
      "type": "function"
    },
    {
      "constant": true,
      "inputs": [
        {
          "name": "",
          "type": "uint80"
        }
      ],
      "name": "tokens",
      "outputs": [
        {
          "name": "",
          "type": "uint256"
        }
      ],
      "payable": false,
      "stateMutability": "view",
      "type": "function"
    },
    {
      "constant": true,
      "inputs": [],
      "name": "lockedBitmask",
      "outputs": [
        {
          "name": "",
          "type": "uint32"
        }
      ],
      "payable": false,
      "stateMutability": "view",
      "type": "function"
    },
    {
      "constant": true,
      "inputs": [
        {
          "name": "",
          "type": "uint80"
        }
      ],
      "name": "approvals",
      "outputs": [
        {
          "name": "",
          "type": "address"
        }
      ],
      "payable": false,
      "stateMutability": "view",
      "type": "function"
    },
    {
      "constant": true,
      "inputs": [
        {
          "name": "",
          "type": "address"
        },
        {
          "name": "",
          "type": "uint256"
        }
      ],
      "name": "collections",
      "outputs": [
        {
          "name": "",
          "type": "uint80"
        }
      ],
      "payable": false,
      "stateMutability": "view",
      "type": "function"
    },
    {
      "constant": true,
      "inputs": [],
      "name": "UNLIMITED_APPROVALS",
      "outputs": [
        {
          "name": "",
          "type": "uint256"
        }
      ],
      "payable": false,
      "stateMutability": "view",
      "type": "function"
    },
    {
      "constant": true,
      "inputs": [
        {
          "name": "",
          "type": "address"
        }
      ],
      "name": "userRoles",
      "outputs": [
        {
          "name": "",
          "type": "uint32"
        }
      ],
      "payable": false,
      "stateMutability": "view",
      "type": "function"
    },
    {
      "constant": true,
      "inputs": [],
      "name": "MASK_CLEAR_TRANSFER",
      "outputs": [
        {
          "name": "",
          "type": "uint256"
        }
      ],
      "payable": false,
      "stateMutability": "view",
      "type": "function"
    },
    {
      "constant": true,
      "inputs": [],
      "name": "ROLE_STATE_PROVIDER",
      "outputs": [
        {
          "name": "",
          "type": "uint32"
        }
      ],
      "payable": false,
      "stateMutability": "view",
      "type": "function"
    },
    {
      "constant": true,
      "inputs": [],
      "name": "ROLE_TOKEN_CREATOR",
      "outputs": [
        {
          "name": "",
          "type": "uint32"
        }
      ],
      "payable": false,
      "stateMutability": "view",
      "type": "function"
    },
    {
      "constant": true,
      "inputs": [],
      "name": "FEATURE_TRANSFERS_ON_BEHALF",
      "outputs": [
        {
          "name": "",
          "type": "uint32"
        }
      ],
      "payable": false,
      "stateMutability": "view",
      "type": "function"
    },
    {
      "constant": true,
      "inputs": [],
      "name": "ROLE_ROLE_MANAGER",
      "outputs": [
        {
          "name": "",
          "type": "uint32"
        }
      ],
      "payable": false,
      "stateMutability": "view",
      "type": "function"
    },
    {
      "constant": true,
      "inputs": [],
      "name": "FEATURE_TRANSFERS",
      "outputs": [
        {
          "name": "",
          "type": "uint32"
        }
      ],
      "payable": false,
      "stateMutability": "view",
      "type": "function"
    },
    {
      "constant": true,
      "inputs": [],
      "name": "MASK_RIGHT_31BITS",
      "outputs": [
        {
          "name": "",
          "type": "uint256"
        }
      ],
      "payable": false,
      "stateMutability": "view",
      "type": "function"
    },
    {
      "constant": true,
      "inputs": [
        {
          "name": "",
          "type": "uint80"
        }
      ],
      "name": "indexes",
      "outputs": [
        {
          "name": "",
          "type": "uint80"
        }
      ],
      "payable": false,
      "stateMutability": "view",
      "type": "function"
    },
    {
      "inputs": [],
      "payable": false,
      "stateMutability": "nonpayable",
      "type": "constructor"
    },
    {
      "anonymous": false,
      "inputs": [
        {
          "indexed": true,
          "name": "tokenId",
          "type": "uint80"
        },
        {
          "indexed": true,
          "name": "to",
          "type": "address"
        },
        {
          "indexed": false,
          "name": "by",
          "type": "address"
        }
      ],
      "name": "Minted",
      "type": "event"
    },
    {
      "anonymous": false,
      "inputs": [
        {
          "indexed": true,
          "name": "tokenId",
          "type": "uint80"
        },
        {
          "indexed": true,
          "name": "from",
          "type": "address"
        },
        {
          "indexed": false,
          "name": "by",
          "type": "address"
        }
      ],
      "name": "Burnt",
      "type": "event"
    },
    {
      "anonymous": false,
      "inputs": [
        {
          "indexed": true,
          "name": "from",
          "type": "address"
        },
        {
          "indexed": true,
          "name": "to",
          "type": "address"
        },
        {
          "indexed": false,
          "name": "tokenId",
          "type": "uint80"
        }
      ],
      "name": "Transfer",
      "type": "event"
    },
    {
      "anonymous": false,
      "inputs": [
        {
          "indexed": true,
          "name": "owner",
          "type": "address"
        },
        {
          "indexed": true,
          "name": "approved",
          "type": "address"
        },
        {
          "indexed": false,
          "name": "tokenId",
          "type": "uint80"
        }
      ],
      "name": "Approval",
      "type": "event"
    },
    {
      "anonymous": false,
      "inputs": [
        {
          "indexed": true,
          "name": "owner",
          "type": "address"
        },
        {
          "indexed": true,
          "name": "operator",
          "type": "address"
        },
        {
          "indexed": false,
          "name": "approved",
          "type": "uint256"
        }
      ],
      "name": "ApprovalForAll",
      "type": "event"
    },
    {
      "constant": true,
      "inputs": [
        {
          "name": "tokenId",
          "type": "uint80"
        }
      ],
      "name": "ownerOf",
      "outputs": [
        {
          "name": "",
          "type": "address"
        }
      ],
      "payable": false,
      "stateMutability": "view",
      "type": "function"
    },
    {
      "constant": true,
      "inputs": [
        {
          "name": "who",
          "type": "address"
        }
      ],
      "name": "balanceOf",
      "outputs": [
        {
          "name": "",
          "type": "uint80"
        }
      ],
      "payable": false,
      "stateMutability": "view",
      "type": "function"
    },
    {
      "constant": true,
      "inputs": [
        {
          "name": "tokenId",
          "type": "uint80"
        }
      ],
      "name": "exists",
      "outputs": [
        {
          "name": "",
          "type": "bool"
        }
      ],
      "payable": false,
      "stateMutability": "view",
      "type": "function"
    },
    {
      "constant": true,
      "inputs": [
        {
          "name": "tokenId",
          "type": "uint80"
        }
      ],
      "name": "getToken",
      "outputs": [
        {
          "name": "",
          "type": "uint96"
        }
      ],
      "payable": false,
      "stateMutability": "view",
      "type": "function"
    },
    {
      "constant": true,
      "inputs": [
        {
          "name": "tokenId",
          "type": "uint80"
        }
      ],
      "name": "getOwnershipModified",
      "outputs": [
        {
          "name": "",
          "type": "uint32"
        }
      ],
      "payable": false,
      "stateMutability": "view",
      "type": "function"
    },
    {
      "constant": true,
      "inputs": [
        {
          "name": "tokenId",
          "type": "uint80"
        }
      ],
      "name": "getCreationTime",
      "outputs": [
        {
          "name": "",
          "type": "uint32"
        }
      ],
      "payable": false,
      "stateMutability": "view",
      "type": "function"
    },
    {
      "constant": true,
      "inputs": [
        {
          "name": "tokenId",
          "type": "uint80"
        }
      ],
      "name": "getState",
      "outputs": [
        {
          "name": "",
          "type": "uint32"
        }
      ],
      "payable": false,
      "stateMutability": "view",
      "type": "function"
    },
    {
      "constant": true,
      "inputs": [
        {
          "name": "tokenId",
          "type": "uint80"
        }
      ],
      "name": "getLastLockingBlock",
      "outputs": [
        {
          "name": "",
          "type": "uint32"
        }
      ],
      "payable": false,
      "stateMutability": "view",
      "type": "function"
    },
    {
      "constant": true,
      "inputs": [
        {
          "name": "tokenId",
          "type": "uint80"
        }
      ],
      "name": "isLocked",
      "outputs": [
        {
          "name": "",
          "type": "bool"
        }
      ],
      "payable": false,
      "stateMutability": "view",
      "type": "function"
    },
    {
      "constant": false,
      "inputs": [
        {
          "name": "bitmask",
          "type": "uint32"
        }
      ],
      "name": "setLockedBitmask",
      "outputs": [],
      "payable": false,
      "stateMutability": "nonpayable",
      "type": "function"
    },
    {
      "constant": false,
      "inputs": [
        {
          "name": "tokenId",
          "type": "uint80"
        },
        {
          "name": "state",
          "type": "uint32"
        }
      ],
      "name": "setState",
      "outputs": [],
      "payable": false,
      "stateMutability": "nonpayable",
      "type": "function"
    },
    {
      "constant": false,
      "inputs": [
        {
          "name": "mask",
          "type": "uint32"
        }
      ],
      "name": "updateFeatures",
      "outputs": [],
      "payable": false,
      "stateMutability": "nonpayable",
      "type": "function"
    },
    {
      "constant": false,
      "inputs": [
        {
          "name": "operator",
          "type": "address"
        },
        {
          "name": "permissions",
          "type": "uint32"
        }
      ],
      "name": "createOperator",
      "outputs": [],
      "payable": false,
      "stateMutability": "nonpayable",
      "type": "function"
    },
    {
      "constant": false,
      "inputs": [
        {
          "name": "operator",
          "type": "address"
        },
        {
          "name": "permissions",
          "type": "uint32"
        }
      ],
      "name": "updateOperator",
      "outputs": [],
      "payable": false,
      "stateMutability": "nonpayable",
      "type": "function"
    },
    {
      "constant": false,
      "inputs": [
        {
          "name": "operator",
          "type": "address"
        }
      ],
      "name": "deleteOperator",
      "outputs": [],
      "payable": false,
      "stateMutability": "nonpayable",
      "type": "function"
    },
    {
      "constant": false,
      "inputs": [
        {
          "name": "to",
          "type": "address"
        },
        {
          "name": "tokenId",
          "type": "uint80"
        }
      ],
      "name": "mint",
      "outputs": [],
      "payable": false,
      "stateMutability": "nonpayable",
      "type": "function"
    },
    {
      "constant": false,
      "inputs": [
        {
          "name": "to",
          "type": "address"
        },
        {
          "name": "ids",
          "type": "uint80[]"
        }
      ],
      "name": "mintTokens",
      "outputs": [],
      "payable": false,
      "stateMutability": "nonpayable",
      "type": "function"
    },
    {
      "constant": false,
      "inputs": [
        {
          "name": "tokenId",
          "type": "uint80"
        }
      ],
      "name": "burn",
      "outputs": [],
      "payable": false,
      "stateMutability": "nonpayable",
      "type": "function"
    },
    {
      "constant": false,
      "inputs": [
        {
          "name": "ids",
          "type": "uint80[]"
        }
      ],
      "name": "burnTokens",
      "outputs": [],
      "payable": false,
      "stateMutability": "nonpayable",
      "type": "function"
    },
    {
      "constant": false,
      "inputs": [
        {
          "name": "to",
          "type": "address"
        },
        {
          "name": "tokenId",
          "type": "uint80"
        }
      ],
      "name": "transfer",
      "outputs": [],
      "payable": false,
      "stateMutability": "nonpayable",
      "type": "function"
    },
    {
      "constant": false,
      "inputs": [
        {
          "name": "to",
          "type": "address"
        },
        {
          "name": "tokenId",
          "type": "uint80"
        }
      ],
      "name": "approve",
      "outputs": [],
      "payable": false,
      "stateMutability": "nonpayable",
      "type": "function"
    },
    {
      "constant": false,
      "inputs": [
        {
          "name": "to",
          "type": "address"
        },
        {
          "name": "approved",
          "type": "uint256"
        }
      ],
      "name": "approveForAll",
      "outputs": [],
      "payable": false,
      "stateMutability": "nonpayable",
      "type": "function"
    },
    {
      "constant": false,
      "inputs": [
        {
          "name": "to",
          "type": "address"
        },
        {
          "name": "approved",
          "type": "bool"
        }
      ],
      "name": "approveForAll",
      "outputs": [],
      "payable": false,
      "stateMutability": "nonpayable",
      "type": "function"
    },
    {
      "constant": false,
      "inputs": [
        {
          "name": "from",
          "type": "address"
        },
        {
          "name": "to",
          "type": "address"
        },
        {
          "name": "tokenId",
          "type": "uint80"
        }
      ],
      "name": "transferFrom",
      "outputs": [],
      "payable": false,
      "stateMutability": "nonpayable",
      "type": "function"
    },
    {
      "constant": true,
      "inputs": [
        {
          "name": "feature",
          "type": "uint32"
        }
      ],
      "name": "isFeatureEnabled",
      "outputs": [
        {
          "name": "",
          "type": "bool"
        }
      ],
      "payable": false,
      "stateMutability": "view",
      "type": "function"
    },
    {
      "constant": true,
      "inputs": [
        {
          "name": "roleRequired",
          "type": "uint32"
        }
      ],
      "name": "isFeatureEnabledAndSenderInRole",
      "outputs": [
        {
          "name": "",
          "type": "bool"
        }
      ],
      "payable": false,
      "stateMutability": "view",
      "type": "function"
    },
    {
      "constant": true,
      "inputs": [
        {
          "name": "actualRole",
          "type": "uint32"
        },
        {
          "name": "roleRequired",
          "type": "uint32"
        }
      ],
      "name": "isFeatureEnabledAndHasRole",
      "outputs": [
        {
          "name": "",
          "type": "bool"
        }
      ],
      "payable": false,
      "stateMutability": "view",
      "type": "function"
    },
    {
      "constant": true,
      "inputs": [
        {
          "name": "actualRole",
          "type": "uint32"
        },
        {
          "name": "roleRequired",
          "type": "uint32"
        }
      ],
      "name": "hasRole",
      "outputs": [
        {
          "name": "",
          "type": "bool"
        }
      ],
      "payable": false,
      "stateMutability": "pure",
      "type": "function"
    }
  ],
  "bytecode": "0x608060405234801561001057600080fd5b50600033905063ffffffff600360008373ffffffffffffffffffffffffffffffffffffffff1673ffffffffffffffffffffffffffffffffffffffff16815260200190815260200160002060006101000a81548163ffffffff021916908363ffffffff16021790555050612da3806100886000396000f300608060405260043610610246576000357c0100000000000000000000000000000000000000000000000000000000900463ffffffff16806301170e021461024b578063029656071461028457806318160ddd146102af5780631cb0816d146102f25780632022cc751461032957806326121ff0146103605780632637588e146103975780632aa0e3aa1461040e57806330cf6f681461046757806331523dbc146104b457806333ccc217146105015780633862ea9d1461055457806341c65d141461058b57806343a7ab5f146105f1578063441fc52e14610677578063456cea59146106f057806349a764cd14610759578063557f0b48146107d2578063565f6fec146107fd5780635e0a016e1461085657806370a08231146108af57806374d5e1001461091e5780637ad241ea14610981578063818f4f30146109cc57806383408e39146109ff5780638353bb5114610a2a57806383a5cf9814610a615780638d4e57e614610ab45780638f6fba8c14610aeb578063908e04f714610b22578063a670cb2d14610b7b578063af26dc8914610bb2578063b40992a114610c0d578063b893b6f114610c50578063bdf01a7614610ca1578063be5542bf14610cd4578063c0d6568d14610d2d578063c0f2ba3e14610d64578063d17219ec14610d8f578063d24f0a5d14610de8578063d8ffc4d714610e39578063dab9a31114610e84578063de84826714610ecd578063e18b5bdf14610f46578063e584b65414610f9f578063ee7684b214610fee578063f0540b5814611067578063f48261e4146110cc575b600080fd5b34801561025757600080fd5b50610282600480360381019080803569ffffffffffffffffffff169060200190929190505050611127565b005b34801561029057600080fd5b5061029961114a565b6040518082815260200191505060405180910390f35b3480156102bb57600080fd5b506102c461116a565b604051808269ffffffffffffffffffff1669ffffffffffffffffffff16815260200191505060405180910390f35b3480156102fe57600080fd5b50610307611186565b604051808263ffffffff1663ffffffff16815260200191505060405180910390f35b34801561033557600080fd5b5061033e61118d565b604051808263ffffffff1663ffffffff16815260200191505060405180910390f35b34801561036c57600080fd5b50610375611195565b604051808263ffffffff1663ffffffff16815260200191505060405180910390f35b3480156103a357600080fd5b506103f8600480360381019080803573ffffffffffffffffffffffffffffffffffffffff169060200190929190803573ffffffffffffffffffffffffffffffffffffffff1690602001909291905050506111ab565b6040518082815260200191505060405180910390f35b34801561041a57600080fd5b50610445600480360381019080803569ffffffffffffffffffff1690602001909291905050506111d0565b604051808263ffffffff1663ffffffff16815260200191505060405180910390f35b34801561047357600080fd5b506104b2600480360381019080803573ffffffffffffffffffffffffffffffffffffffff169060200190929190803590602001909291905050506111ed565b005b3480156104c057600080fd5b506104eb600480360381019080803569ffffffffffffffffffff169060200190929190505050611252565b6040518082815260200191505060405180910390f35b34801561050d57600080fd5b50610552600480360381019080803573ffffffffffffffffffffffffffffffffffffffff169060200190929190803563ffffffff16906020019092919050505061126a565b005b34801561056057600080fd5b5061056961142e565b604051808263ffffffff1663ffffffff16815260200191505060405180910390f35b34801561059757600080fd5b506105ef60048036038101908080359060200190820180359060200190808060200260200160405190810160405280939291908181526020018383602002808284378201915050505050509192919290505050611444565b005b3480156105fd57600080fd5b50610675600480360381019080803573ffffffffffffffffffffffffffffffffffffffff1690602001909291908035906020019082018035906020019080806020026020016040519081016040528093929190818152602001838360200280828437820191505050505050919291929050505061149c565b005b34801561068357600080fd5b506106ae600480360381019080803569ffffffffffffffffffff16906020019092919050505061156c565b604051808273ffffffffffffffffffffffffffffffffffffffff1673ffffffffffffffffffffffffffffffffffffffff16815260200191505060405180910390f35b3480156106fc57600080fd5b50610727600480360381019080803569ffffffffffffffffffff16906020019092919050505061159f565b60405180826bffffffffffffffffffffffff166bffffffffffffffffffffffff16815260200191505060405180910390f35b34801561076557600080fd5b506107a4600480360381019080803573ffffffffffffffffffffffffffffffffffffffff169060200190929190803590602001909291905050506115ef565b604051808269ffffffffffffffffffff1669ffffffffffffffffffff16815260200191505060405180910390f35b3480156107de57600080fd5b506107e761163d565b6040518082815260200191505060405180910390f35b34801561080957600080fd5b50610834600480360381019080803569ffffffffffffffffffff169060200190929190505050611661565b604051808263ffffffff1663ffffffff16815260200191505060405180910390f35b34801561086257600080fd5b506108ad600480360381019080803573ffffffffffffffffffffffffffffffffffffffff169060200190929190803569ffffffffffffffffffff16906020019092919050505061168e565b005b3480156108bb57600080fd5b506108f0600480360381019080803573ffffffffffffffffffffffffffffffffffffffff16906020019092919050505061172a565b604051808269ffffffffffffffffffff1669ffffffffffffffffffff16815260200191505060405180910390f35b34801561092a57600080fd5b5061095f600480360381019080803573ffffffffffffffffffffffffffffffffffffffff169060200190929190505050611776565b604051808263ffffffff1663ffffffff16815260200191505060405180910390f35b34801561098d57600080fd5b506109b2600480360381019080803563ffffffff169060200190929190505050611799565b604051808215151515815260200191505060405180910390f35b3480156109d857600080fd5b506109fd600480360381019080803563ffffffff1690602001909291905050506117be565b005b348015610a0b57600080fd5b50610a146117f9565b6040518082815260200191505060405180910390f35b348015610a3657600080fd5b50610a3f61181d565b604051808263ffffffff1663ffffffff16815260200191505060405180910390f35b348015610a6d57600080fd5b50610ab2600480360381019080803573ffffffffffffffffffffffffffffffffffffffff169060200190929190803563ffffffff169060200190929190505050611824565b005b348015610ac057600080fd5b50610ac9611978565b604051808263ffffffff1663ffffffff16815260200191505060405180910390f35b348015610af757600080fd5b50610b0061197f565b604051808263ffffffff1663ffffffff16815260200191505060405180910390f35b348015610b2e57600080fd5b50610b79600480360381019080803573ffffffffffffffffffffffffffffffffffffffff169060200190929190803569ffffffffffffffffffff169060200190929190505050611984565b005b348015610b8757600080fd5b50610b906119ae565b604051808263ffffffff1663ffffffff16815260200191505060405180910390f35b348015610bbe57600080fd5b50610bf3600480360381019080803563ffffffff169060200190929190803563ffffffff1690602001909291905050506119b5565b604051808215151515815260200191505060405180910390f35b348015610c1957600080fd5b50610c4e600480360381019080803573ffffffffffffffffffffffffffffffffffffffff1690602001909291905050506119d0565b005b348015610c5c57600080fd5b50610c87600480360381019080803569ffffffffffffffffffff169060200190929190505050611a3c565b604051808215151515815260200191505060405180910390f35b348015610cad57600080fd5b50610cd2600480360381019080803563ffffffff169060200190929190505050611a78565b005b348015610ce057600080fd5b50610d0b600480360381019080803569ffffffffffffffffffff169060200190929190505050611b69565b604051808263ffffffff1663ffffffff16815260200191505060405180910390f35b348015610d3957600080fd5b50610d42611b80565b604051808263ffffffff1663ffffffff16815260200191505060405180910390f35b348015610d7057600080fd5b50610d79611b85565b6040518082815260200191505060405180910390f35b348015610d9b57600080fd5b50610de6600480360381019080803573ffffffffffffffffffffffffffffffffffffffff169060200190929190803569ffffffffffffffffffff169060200190929190505050611b8d565b005b348015610df457600080fd5b50610e1f600480360381019080803569ffffffffffffffffffff169060200190929190505050611ce2565b604051808215151515815260200191505060405180910390f35b348015610e4557600080fd5b50610e6a600480360381019080803563ffffffff169060200190929190505050611d16565b604051808215151515815260200191505060405180910390f35b348015610e9057600080fd5b50610ecb600480360381019080803569ffffffffffffffffffff169060200190929190803563ffffffff169060200190929190505050611d83565b005b348015610ed957600080fd5b50610f04600480360381019080803569ffffffffffffffffffff169060200190929190505050611e39565b604051808273ffffffffffffffffffffffffffffffffffffffff1673ffffffffffffffffffffffffffffffffffffffff16815260200191505060405180910390f35b348015610f5257600080fd5b50610f7d600480360381019080803569ffffffffffffffffffff169060200190929190505050611e81565b604051808263ffffffff1663ffffffff16815260200191505060405180910390f35b348015610fab57600080fd5b50610fec600480360381019080803573ffffffffffffffffffffffffffffffffffffffff169060200190929190803515159060200190929190505050611eae565b005b348015610ffa57600080fd5b50611065600480360381019080803573ffffffffffffffffffffffffffffffffffffffff169060200190929190803573ffffffffffffffffffffffffffffffffffffffff169060200190929190803569ffffffffffffffffffff169060200190929190505050611ee9565b005b34801561107357600080fd5b5061109e600480360381019080803569ffffffffffffffffffff1690602001909291905050506120c7565b604051808269ffffffffffffffffffff1669ffffffffffffffffffff16815260200191505060405180910390f35b3480156110d857600080fd5b5061110d600480360381019080803563ffffffff169060200190929190803563ffffffff1690602001909291905050506120f0565b604051808215151515815260200191505060405180910390f35b61113362010000611d16565b151561113e57600080fd5b61114781612118565b50565b7bffffffffffffffffffffffffffffffffffffffffffffffffffffffff81565b600660009054906101000a900469ffffffffffffffffffff1681565b6208000081565b63ffffffff81565b6006600e9054906101000a900463ffffffff1681565b6002602052816000526040600020602052806000526040600020600091509150505481565b6000806111dc83611661565b9050637fffffff8116915050919050565b60006111f96002611799565b151561120457600080fd5b3390508073ffffffffffffffffffffffffffffffffffffffff168373ffffffffffffffffffffffffffffffffffffffff161415151561124257600080fd5b61124d8184846122fc565b505050565b60006020528060005260406000206000915090505481565b6000806000339250600360008473ffffffffffffffffffffffffffffffffffffffff1673ffffffffffffffffffffffffffffffffffffffff16815260200190815260200160002060009054906101000a900463ffffffff1691506112d182620400006120f0565b15156112dc57600080fd5b8163ffffffff1684831763ffffffff161415156112f857600080fd5b6000600360008773ffffffffffffffffffffffffffffffffffffffff1673ffffffffffffffffffffffffffffffffffffffff16815260200190815260200160002060009054906101000a900463ffffffff1663ffffffff161415151561135d57600080fd5b600360008673ffffffffffffffffffffffffffffffffffffffff1673ffffffffffffffffffffffffffffffffffffffff16815260200190815260200160002060009054906101000a900463ffffffff169050838216811790508363ffffffff18821663ffffffff188116905080600360008773ffffffffffffffffffffffffffffffffffffffff1673ffffffffffffffffffffffffffffffffffffffff16815260200190815260200160002060006101000a81548163ffffffff021916908363ffffffff1602179055505050505050565b6006600a9054906101000a900463ffffffff1681565b600061145262010000611d16565b151561145d57600080fd5b600090505b81518110156114985761148b828281518110151561147c57fe5b90602001906020020151612118565b8080600101915050611462565b5050565b60008073ffffffffffffffffffffffffffffffffffffffff168373ffffffffffffffffffffffffffffffffffffffff16141515156114d957600080fd5b3073ffffffffffffffffffffffffffffffffffffffff168373ffffffffffffffffffffffffffffffffffffffff161415151561151457600080fd5b61152062010000611d16565b151561152b57600080fd5b600090505b81518110156115675761155a83838381518110151561154b57fe5b906020019060200201516123e7565b8080600101915050611530565b505050565b60016020528060005260406000206000915054906101000a900473ffffffffffffffffffffffffffffffffffffffff1681565b6000806000808469ffffffffffffffffffff1669ffffffffffffffffffff1681526020019081526020016000205490506000811115156115de57600080fd5b60a0819060020a9004915050919050565b60046020528160005260406000208181548110151561160a57fe5b9060005260206000209060039182820401919006600a02915091509054906101000a900469ffffffffffffffffffff1681565b7fffffffffffffffffffffffffffffffffffffffffffffffffffffffffffffffff81565b60008061166d8361159f565b90506040816bffffffffffffffffffffffff169060020a9004915050919050565b600073ffffffffffffffffffffffffffffffffffffffff168273ffffffffffffffffffffffffffffffffffffffff16141515156116ca57600080fd5b3073ffffffffffffffffffffffffffffffffffffffff168273ffffffffffffffffffffffffffffffffffffffff161415151561170557600080fd5b61171162010000611d16565b151561171c57600080fd5b61172682826123e7565b5050565b6000600460008373ffffffffffffffffffffffffffffffffffffffff1673ffffffffffffffffffffffffffffffffffffffff168152602001908152602001600020805490509050919050565b60036020528060005260406000206000915054906101000a900463ffffffff1681565b60006117b76006600e9054906101000a900463ffffffff16836119b5565b9050919050565b6117ca62020000611d16565b15156117d557600080fd5b806006600a6101000a81548163ffffffff021916908363ffffffff16021790555050565b7fffffffffffffffff00000000000000000000000000000000000000000000000081565b6202000081565b600080339150600360008373ffffffffffffffffffffffffffffffffffffffff1673ffffffffffffffffffffffffffffffffffffffff16815260200190815260200160002060009054906101000a900463ffffffff16905061188981620400006120f0565b151561189457600080fd5b8063ffffffff1683821763ffffffff161415156118b057600080fd5b6000600360008673ffffffffffffffffffffffffffffffffffffffff1673ffffffffffffffffffffffffffffffffffffffff16815260200190815260200160002060009054906101000a900463ffffffff1663ffffffff1614151561191457600080fd5b82600360008673ffffffffffffffffffffffffffffffffffffffff1673ffffffffffffffffffffffffffffffffffffffff16815260200190815260200160002060006101000a81548163ffffffff021916908363ffffffff16021790555050505050565b6201000081565b600281565b60006119906001611799565b151561199b57600080fd5b3390506119a981848461271e565b505050565b6204000081565b60008163ffffffff1682841663ffffffff1614905092915050565b6119dc62040000611d16565b15156119e757600080fd5b600360008273ffffffffffffffffffffffffffffffffffffffff1673ffffffffffffffffffffffffffffffffffffffff16815260200190815260200160002060006101000a81549063ffffffff021916905550565b6000806000808469ffffffffffffffffffff1669ffffffffffffffffffff16815260200190815260200160002054905060008111915050919050565b600080339150600360008373ffffffffffffffffffffffffffffffffffffffff1673ffffffffffffffffffffffffffffffffffffffff16815260200190815260200160002060009054906101000a900463ffffffff169050611add81620800006119b5565b1515611ae857600080fd5b8281166006600e8282829054906101000a900463ffffffff161792506101000a81548163ffffffff021916908363ffffffff1602179055508263ffffffff18811663ffffffff186006600e8282829054906101000a900463ffffffff161692506101000a81548163ffffffff021916908363ffffffff160217905550505050565b600080611b758361159f565b905080915050919050565b600181565b637fffffff81565b600080611b9a6002611799565b1515611ba557600080fd5b339150611bb183611e39565b90508073ffffffffffffffffffffffffffffffffffffffff168273ffffffffffffffffffffffffffffffffffffffff16141515611bed57600080fd5b8073ffffffffffffffffffffffffffffffffffffffff168473ffffffffffffffffffffffffffffffffffffffff1614151515611c2857600080fd5b6000600160008569ffffffffffffffffffff1669ffffffffffffffffffff16815260200190815260200160002060009054906101000a900473ffffffffffffffffffffffffffffffffffffffff1673ffffffffffffffffffffffffffffffffffffffff16141580611cc65750600073ffffffffffffffffffffffffffffffffffffffff168473ffffffffffffffffffffffffffffffffffffffff1614155b1515611cd157600080fd5b611cdc82858561295d565b50505050565b600080611cee83611661565b905060006006600a9054906101000a900463ffffffff16821663ffffffff1611915050919050565b6000806000339150600360008373ffffffffffffffffffffffffffffffffffffffff1673ffffffffffffffffffffffffffffffffffffffff16815260200190815260200160002060009054906101000a900463ffffffff169050611d7a81856120f0565b92505050919050565b6000611d9162020000611d16565b1515611d9c57600080fd5b6000808469ffffffffffffffffffff1669ffffffffffffffffffff168152602001908152602001600020549050600081111515611dd857600080fd5b60e08263ffffffff169060020a027bffffffffffffffffffffffffffffffffffffffffffffffffffffffff8216176000808569ffffffffffffffffffff1669ffffffffffffffffffff16815260200190815260200160002081905550505050565b6000806000808469ffffffffffffffffffff1669ffffffffffffffffffff168152602001908152602001600020549050600081111515611e7857600080fd5b80915050919050565b600080611e8d8361159f565b90506020816bffffffffffffffffffffffff169060020a9004915050919050565b611ee58282611ebe576000611ee0565b7fffffffffffffffffffffffffffffffffffffffffffffffffffffffffffffffff5b6111ed565b5050565b600080600080611ef96002611799565b1515611f0457600080fd5b339350600160008669ffffffffffffffffffff1669ffffffffffffffffffff16815260200190815260200160002060009054906101000a900473ffffffffffffffffffffffffffffffffffffffff169250611f5e85611e39565b9150600260008373ffffffffffffffffffffffffffffffffffffffff1673ffffffffffffffffffffffffffffffffffffffff16815260200190815260200160002060008573ffffffffffffffffffffffffffffffffffffffff1673ffffffffffffffffffffffffffffffffffffffff1681526020019081526020016000205490508673ffffffffffffffffffffffffffffffffffffffff168473ffffffffffffffffffffffffffffffffffffffff16148061204457508273ffffffffffffffffffffffffffffffffffffffff168473ffffffffffffffffffffffffffffffffffffffff16145b8061204f5750600081115b151561205a57600080fd5b8273ffffffffffffffffffffffffffffffffffffffff168473ffffffffffffffffffffffffffffffffffffffff16141561209b5761209a8760008761295d565b5b60008111156120b3576120b28787600184036122fc565b5b6120be87878761271e565b50505050505050565b60056020528060005260406000206000915054906101000a900469ffffffffffffffffffff1681565b6000612110836006600e9054906101000a900463ffffffff1616836119b5565b905092915050565b60008061212483611ce2565b15151561213057600080fd5b6000808469ffffffffffffffffffff1669ffffffffffffffffffff16815260200190815260200160002054915081905061216a8184612a49565b6006600081819054906101000a900469ffffffffffffffffffff16809291906001900391906101000a81548169ffffffffffffffffffff021916908369ffffffffffffffffffff160217905550506121c48160008561295d565b6000808469ffffffffffffffffffff1669ffffffffffffffffffff168152602001908152602001600020600090558073ffffffffffffffffffffffffffffffffffffffff168369ffffffffffffffffffff167fb369589e4d228db5b2331979fb19b9e13db939b671605a45ee8faf93114bf83a33604051808273ffffffffffffffffffffffffffffffffffffffff1673ffffffffffffffffffffffffffffffffffffffff16815260200191505060405180910390a3600073ffffffffffffffffffffffffffffffffffffffff168173ffffffffffffffffffffffffffffffffffffffff167fa0f2d9d810b7227d93b1d65511f1321d5331a7a323e6d357130dda4aa99690a085604051808269ffffffffffffffffffff1669ffffffffffffffffffff16815260200191505060405180910390a3505050565b80600260008573ffffffffffffffffffffffffffffffffffffffff1673ffffffffffffffffffffffffffffffffffffffff16815260200190815260200160002060008473ffffffffffffffffffffffffffffffffffffffff1673ffffffffffffffffffffffffffffffffffffffff168152602001908152602001600020819055508173ffffffffffffffffffffffffffffffffffffffff168373ffffffffffffffffffffffffffffffffffffffff167f935230e68d0344049b3ab530b10aa82a70705c7069af8b4cb5f52671eb13d120836040518082815260200191505060405180910390a3505050565b6000808269ffffffffffffffffffff161415151561240457600080fd5b60008060008469ffffffffffffffffffff1669ffffffffffffffffffff1681526020019081526020016000205414151561243d57600080fd5b8273ffffffffffffffffffffffffffffffffffffffff1660c061245e612bf3565b9060020a02179050600460008473ffffffffffffffffffffffffffffffffffffffff1673ffffffffffffffffffffffffffffffffffffffff16815260200190815260200160002080549050600560008469ffffffffffffffffffff1669ffffffffffffffffffff16815260200190815260200160002060006101000a81548169ffffffffffffffffffff021916908369ffffffffffffffffffff160217905550600460008473ffffffffffffffffffffffffffffffffffffffff1673ffffffffffffffffffffffffffffffffffffffff16815260200190815260200160002082908060018154018082558091505090600182039060005260206000209060039182820401919006600a02909192909190916101000a81548169ffffffffffffffffffff021916908369ffffffffffffffffffff16021790555050806000808469ffffffffffffffffffff1669ffffffffffffffffffff168152602001908152602001600020819055506006600081819054906101000a900469ffffffffffffffffffff168092919060010191906101000a81548169ffffffffffffffffffff021916908369ffffffffffffffffffff160217905550508273ffffffffffffffffffffffffffffffffffffffff168269ffffffffffffffffffff167fc1b4aa2dcfeb8b1a00a5857e6e94dc4218414da2c7b0ce7bfa0aa277d2f449a933604051808273ffffffffffffffffffffffffffffffffffffffff1673ffffffffffffffffffffffffffffffffffffffff16815260200191505060405180910390a38273ffffffffffffffffffffffffffffffffffffffff16600073ffffffffffffffffffffffffffffffffffffffff167fa0f2d9d810b7227d93b1d65511f1321d5331a7a323e6d357130dda4aa99690a084604051808269ffffffffffffffffffff1669ffffffffffffffffffff16815260200191505060405180910390a3505050565b60008073ffffffffffffffffffffffffffffffffffffffff168473ffffffffffffffffffffffffffffffffffffffff161415151561275b57600080fd5b600073ffffffffffffffffffffffffffffffffffffffff168373ffffffffffffffffffffffffffffffffffffffff161415151561279757600080fd5b8373ffffffffffffffffffffffffffffffffffffffff168373ffffffffffffffffffffffffffffffffffffffff16141515156127d257600080fd5b6000808369ffffffffffffffffffff1669ffffffffffffffffffff16815260200190815260200160002054905061280882611e39565b73ffffffffffffffffffffffffffffffffffffffff168473ffffffffffffffffffffffffffffffffffffffff1614151561284157600080fd5b61284a82611ce2565b15151561285657600080fd5b612861848484612c01565b8273ffffffffffffffffffffffffffffffffffffffff1660a0612882612bf3565b9060020a027fffffffffffffffff000000000000000000000000000000000000000000000000831617176000808469ffffffffffffffffffff1669ffffffffffffffffffff168152602001908152602001600020819055508273ffffffffffffffffffffffffffffffffffffffff168473ffffffffffffffffffffffffffffffffffffffff167fa0f2d9d810b7227d93b1d65511f1321d5331a7a323e6d357130dda4aa99690a084604051808269ffffffffffffffffffff1669ffffffffffffffffffff16815260200191505060405180910390a350505050565b81600160008369ffffffffffffffffffff1669ffffffffffffffffffff16815260200190815260200160002060006101000a81548173ffffffffffffffffffffffffffffffffffffffff021916908373ffffffffffffffffffffffffffffffffffffffff1602179055508173ffffffffffffffffffffffffffffffffffffffff168373ffffffffffffffffffffffffffffffffffffffff167f3212f41ec92f177d999db7467a64faeb241827d867f4f176dc2be61581122d1a83604051808269ffffffffffffffffffff1669ffffffffffffffffffff16815260200191505060405180910390a3505050565b6000806000600460008673ffffffffffffffffffffffffffffffffffffffff1673ffffffffffffffffffffffffffffffffffffffff16815260200190815260200160002092506000838054905014151515612aa057fe5b600560008569ffffffffffffffffffff1669ffffffffffffffffffff16815260200190815260200160002060009054906101000a900469ffffffffffffffffffff169150826001848054905003815481101515612af957fe5b9060005260206000209060039182820401919006600a029054906101000a900469ffffffffffffffffffff16905081600560008369ffffffffffffffffffff1669ffffffffffffffffffff16815260200190815260200160002060006101000a81548169ffffffffffffffffffff021916908369ffffffffffffffffffff16021790555080838369ffffffffffffffffffff16815481101515612b9857fe5b9060005260206000209060039182820401919006600a026101000a81548169ffffffffffffffffffff021916908369ffffffffffffffffffff16021790555082805480919060019003612beb9190612d18565b505050505050565b600043637fffffff16905090565b612c0b8382612a49565b612c158282612c1a565b505050565b6000600460008473ffffffffffffffffffffffffffffffffffffffff1673ffffffffffffffffffffffffffffffffffffffff16815260200190815260200160002090508080549050600560008469ffffffffffffffffffff1669ffffffffffffffffffff16815260200190815260200160002060006101000a81548169ffffffffffffffffffff021916908369ffffffffffffffffffff1602179055508082908060018154018082558091505090600182039060005260206000209060039182820401919006600a02909192909190916101000a81548169ffffffffffffffffffff021916908369ffffffffffffffffffff16021790555050505050565b815481835581811115612d4d576002016003900481600201600390048360005260206000209182019101612d4c9190612d52565b5b505050565b612d7491905b80821115612d70576000816000905550600101612d58565b5090565b905600a165627a7a723058209da420685adb1254b5d95f4fa81d472f4e08212ed83231faa0002c11022713190029",
  "source": "pragma solidity 0.4.23;\n\n/**\n * @notice This smart contract represents a tradable non-fungible entity.\n * @dev Follows ERC721 standard, but since it is still in draft at the moment\n *      of writing, there are some modifications for convenience of use\n *      particular to the Crypto Miner World needs.\n */\ncontract Token {\n  /// @dev Core of the Gem as ERC721 token is mapping\n  ///      token id => state + owner\n  ///      which maps a Token ID (ERC721 tokenId) to a\n  ///      uint256 packed struct containing current token state\n  ///      and owner address\n  mapping(uint80 => uint256) public tokens;\n\n  /// @dev Mapping from token ID to approved address\n  mapping(uint80 => address) public approvals;\n\n  /// @dev Mapping from owner to operator approvals\n  /// token owner => approved token operator => approvals left (zero means no approval)\n  mapping(address => mapping(address => uint256)) public operators;\n\n  /// @notice Defines a privileged addresses with additional\n  ///      permissions on the smart contract, like minting/burning,\n  ///      enabling/disabling transfers, transferring on behalf and so on\n  /// @dev Maps an address to the permissions bitmask (role), where each bit\n  ///      represents a permissions; bitmask 0xFFFFFFFF represents all possible permissions\n  mapping(address => uint32) public userRoles;\n\n  /// @notice Storage for a collections of tokens\n  /// @notice A collection of tokens is an ordered list of tokens,\n  ///      owned by a particular address (owner)\n  /// @dev A mapping from owner to a collection of his tokens (IDs)\n  /// @dev ERC20 compatible structure for balances can be derived\n  ///      as a length of each collection in the mapping\n  /// @dev ERC20 balances[owner] is equal to collections[owner].length\n  mapping(address => uint80[]) public collections;\n\n  /// @dev token index withing a particular collection\n  mapping(uint80 => uint80) public indexes;\n\n  /// @notice Total number of tokens which exist in the system\n  uint80 public totalSupply;\n\n  /// @dev The data in token's state may contain lock(s),\n  ///      meaning the token is not currently transferable\n  /// @dev A locked token cannot be transferred\n  /// @dev The token is locked if it contains any bits\n  ///      from the `lockedBitmask` in its `state` set\n  uint32 public lockedBitmask;\n\n  /// @dev A bitmask of globally enabled features, see below\n  uint32 public f;\n\n  /**\n   * @dev Globally enabled features, permissions:\n   *\n   */\n  uint32 public constant FEATURE_TRANSFERS = 0x00000001;\n  uint32 public constant FEATURE_TRANSFERS_ON_BEHALF = 0x00000002;\n\n  uint32 public constant ROLE_TOKEN_CREATOR = 0x00010000;\n  uint32 public constant ROLE_STATE_PROVIDER = 0x00020000;\n  uint32 public constant ROLE_ROLE_MANAGER = 0x00040000;\n  uint32 public constant ROLE_FEATURE_MANAGER = 0x00080000;\n\n  uint32 public constant FULL_PRIVILEGES_MASK = 0xFFFFFFFF;\n\n                                              //  F8F0E8E0D8D0C8C0B8B0A8A09890888078706860585048403830282018100800\n  uint256 public constant MASK_CLEAR_STATE    = 0x00000000FFFFFFFFFFFFFFFFFFFFFFFFFFFFFFFFFFFFFFFFFFFFFFFFFFFFFFFF;\n  uint256 public constant MASK_CLEAR_TRANSFER = 0xFFFFFFFFFFFFFFFF000000000000000000000000000000000000000000000000;\n  uint256 public constant MASK_RIGHT_31BITS   = 0x000000000000000000000000000000000000000000000000000000007FFFFFFF;\n  uint256 public constant UNLIMITED_APPROVALS = 0xFFFFFFFFFFFFFFFFFFFFFFFFFFFFFFFFFFFFFFFFFFFFFFFFFFFFFFFFFFFFFFFF;\n\n  /**\n   * @dev event names are self-explanatory\n   */\n  /// @dev fired in mint()\n  event Minted(uint80 indexed tokenId, address indexed to, address by);\n  /// @dev fired in burn()\n  event Burnt(uint80 indexed tokenId, address indexed from, address by);\n  /// @dev fired in transfer()\n  event Transfer(address indexed from, address indexed to, uint80 tokenId);\n  /// @dev fired in approve()\n  event Approval(address indexed owner, address indexed approved, uint80 tokenId);\n  /// @dev fired in approveForAll()\n  event ApprovalForAll(address indexed owner, address indexed operator, uint256 approved);\n\n  /// @dev Creates a token\n  constructor() public {\n    // call sender nicely - creator\n    address creator = msg.sender;\n\n    // grant the contract creator full permissions\n    userRoles[creator] = FULL_PRIVILEGES_MASK;\n  }\n\n  /**\n   * @notice finds an owner address for a token specified\n   * @dev Gets the owner of the specified token ID\n   * @param tokenId ID of the token to query the owner of\n   * @return owner address currently marked as the owner of the given token ID\n   */\n  function ownerOf(uint80 tokenId) public constant returns (address) {\n    // get the token from storage\n    uint256 token = tokens[tokenId];\n\n    // check if this token exists\n    require(token > 0);\n\n    // extract token's address and return\n    return address(token);\n  }\n\n  /**\n   * @notice Gets an amount of tokens owned by the given address\n   * @dev Gets the balance of the specified address\n   * @param who address to query the balance for\n   * @return uint80 representing the amount owned by the passed address\n   */\n  function balanceOf(address who) public constant returns (uint80) {\n    // read the length of the `who`s collection of tokens\n    return uint80(collections[who].length);\n  }\n\n  /**\n   * @notice Checks if specified token exists\n   * @dev Returns whether the specified token ID exists\n   * @param tokenId ID of the token to query the existence of\n   * @return whether the token exists\n   */\n  function exists(uint80 tokenId) public constant returns (bool) {\n    // get the token from storage\n    uint256 token = tokens[tokenId];\n    // check if this token exists\n    return token > 0;\n  }\n\n  /**\n   * @dev extracts 96 bit integer token state,\n   *      64 lower bits of which are managed and updated by the token itself,\n   *      while higher 32 bits may be used by external operators\n   */\n  function getToken(uint80 tokenId) public constant returns (uint96) {\n    // get the token from storage\n    uint256 token = tokens[tokenId];\n\n    // check if this token exists\n    require(token > 0);\n\n    // extract 96 bits of state and return\n    return uint96(token >> 160);\n  }\n\n  /**\n   * @dev extracts 32 bit integer block ID of the last token transfer\n   */\n  function getOwnershipModified(uint80 tokenId) public constant returns (uint32) {\n    // get token state\n    uint96 state = getToken(tokenId);\n\n    // extract 32 bits of last transfer block ID and return\n    return uint32(state);\n  }\n\n  /**\n   * @dev extracts 32 bit integer block ID of the token creation\n   */\n  function getCreationTime(uint80 tokenId) public constant returns (uint32) {\n    // get token state\n    uint96 state = getToken(tokenId);\n\n    // extract 32 bits of token creation block ID and return\n    return uint32(state >> 32);\n  }\n\n  /**\n   * @dev extracts 32 bit integer token state,\n   *      which may be used by external operators\n   */\n  function getState(uint80 tokenId) public constant returns (uint32) {\n    // get token state\n    uint96 state = getToken(tokenId);\n\n    // extract 32 bits of the token state and return\n    return uint32(state >> 64);\n  }\n\n  /**\n   * @dev extracts 31 bit integer block ID when token lock has changed\n   */\n  function getLastLockingBlock(uint80 tokenId) public constant returns (uint32) {\n    // get token state\n    uint32 lockingBlock = getState(tokenId);\n\n    // overwrite first bit with zero (it contains lock) and return\n    return uint32(lockingBlock & 0x7FFFFFFF);\n  }\n\n  /**\n   * @dev checks if the token is in locked state;\n   * locked token cannot be transferred (change ownership) or\n   * destroyed (burnt)\n   * @param tokenId ID of the token to check locked status for\n   * @return whether the token is locked\n   */\n  function isLocked(uint80 tokenId) public constant returns (bool) {\n    // get token state\n    uint32 state = getState(tokenId);\n\n    // extract the locked bit, check and return\n    return state & lockedBitmask > 0;\n  }\n\n  /**\n   * @dev Allows setting the `lockedBitmask` parameter of the contract,\n   *      which is used to determine if a particular token is locked or not\n   * @dev A locked token cannot be transferred or burnt\n   * @dev The token is locked if it contains any bits\n   *      from the `lockedBitmask` in its `state` set\n   */\n  function setLockedBitmask(uint32 bitmask) public {\n    // feature must be enabled globally and\n    // caller should have a permission to update state\n    require(isFeatureEnabledAndSenderInRole(ROLE_STATE_PROVIDER));\n\n    // update the locked bitmask\n    lockedBitmask = bitmask;\n  }\n\n  /**\n   * @dev Allows external operator to update token's state\n   * @dev Requires sender to have `ROLE_STATE_PROVIDER` permission.\n   * @dev Requires `ROLE_STATE_PROVIDER` global feature to be enabled.\n   * @param tokenId ID of the token to update state for\n   * @param state token state to set\n   */\n  function setState(uint80 tokenId, uint32 state) public {\n    // feature must be enabled globally and\n    // caller should have a permission to update state\n    require(isFeatureEnabledAndSenderInRole(ROLE_STATE_PROVIDER));\n\n    // get the token from storage\n    uint256 token = tokens[tokenId];\n\n    // check if this token exists\n    require(token > 0);\n\n    // update token state  // 0x00000000FFFFFFFFFFFFFFFFFFFFFFFFFFFFFFFFFFFFFFFFFFFFFFFFFFFFFFFF\n    tokens[tokenId] = token & MASK_CLEAR_STATE | uint256(state) << 224;\n  }\n\n  /**\n   * @dev Updates set of the globally enabled features (`f`),\n   *      taking into account sender's permissions.\n   * @dev Requires sender to have `ROLE_FEATURE_MANAGER` permission.\n   * @param mask bitmask representing a set of features to enable/disable\n   */\n  function updateFeatures(uint32 mask) public {\n    // call sender nicely - caller\n    address caller = msg.sender;\n    // read caller's permissions\n    uint32 p = userRoles[caller];\n\n    // caller should have a permission to update global features\n    require(hasRole(p, ROLE_FEATURE_MANAGER));\n\n    // taking into account caller's permissions,\n    // 1) enable features requested\n    f |= p & mask;\n    // 2) disable features requested\n    f &= FULL_PRIVILEGES_MASK ^ (p & (FULL_PRIVILEGES_MASK ^ mask));\n  }\n\n  /**\n   * @dev Creates the global `operator` - an address which has\n   * some extended privileges over the token smart contract, for example\n   * token minting, burning, transferring on behalf, etc.\n   * @dev Note that a newly added operator cannot have any permissions\n   * which caller doesn't have.\n   * @dev Requires sender to have `ROLE_ROLE_MANAGER` permission.\n   * @dev Requires `ROLE_ROLE_MANAGER` global feature to be enabled.\n   * @dev Cannot update existing operator. Throws if `operator` already exists.\n   * @param operator address of the operator to add\n   * @param permissions bitmask representing a set of permissions which\n   * newly created operator will have\n   */\n  function createOperator(address operator, uint32 permissions) public {\n    // call sender nicely - caller\n    address caller = msg.sender;\n    // read caller's permissions\n    uint32 p = userRoles[caller];\n\n    // feature must be enabled globally and\n    // caller should have a permission to add new operator\n    require(isFeatureEnabledAndHasRole(p, ROLE_ROLE_MANAGER));\n    // caller cannot grant a permission which he doesn't have himself\n    require(p | permissions == p);\n    // create is not allowed to overwrite existing operator\n    require(userRoles[operator] == 0);\n\n    // add an operator with the permissions specified\n    userRoles[operator] = permissions;\n  }\n\n  /**\n   * @dev Updates an existing global operator.\n   * Creates a new one if it doesn't exist.\n   * @dev Note that updatable (`operator`) cannot receive permission which\n   * updater (sender) doesn't have.\n   * @dev Requires sender to have `ROLE_ROLE_MANAGER` permission.\n   * @dev Requires `ROLE_ROLE_MANAGER` global feature to be enabled.\n   * @dev Cannot create a new operator. Throws if `operator` doesn't exist.\n   * @param operator address of the operator to update\n   * @param permissions bitmask representing a set of permissions which\n   * `operator` will have\n   */\n  function updateOperator(address operator, uint32 permissions) public {\n    // call sender nicely - caller\n    address caller = msg.sender;\n    // read caller's permissions\n    uint32 p = userRoles[caller];\n\n    // feature must be enabled globally and\n    // caller should have a permission to update operator\n    require(isFeatureEnabledAndHasRole(p, ROLE_ROLE_MANAGER));\n    // caller cannot grant a permission which he doesn't have himself\n    require(p | permissions == p);\n    // update is not allowed to create operator\n    require(userRoles[operator] != 0);\n\n    // update may extend existing operator's permissions\n    uint32 e = userRoles[operator];\n\n    // taking into account caller's permissions,\n    // 1) enable permission requested\n    e |= p & permissions;\n    // 2) disable permissions requested\n    e &= FULL_PRIVILEGES_MASK ^ (p & (FULL_PRIVILEGES_MASK ^ permissions));\n\n    // persist operator back\n    userRoles[operator] = e;\n  }\n\n  /**\n   * @dev Deletes an existing global operator.\n   * @dev Requires sender to have `ROLE_ROLE_MANAGER` permission.\n   * @dev Requires `ROLE_ROLE_MANAGER` global feature to be enabled.\n   * @param operator address of the operator to delete\n   */\n  function deleteOperator(address operator) public {\n    // feature must be enabled globally and\n    // caller should have a permission to remove operator\n    require(isFeatureEnabledAndSenderInRole(ROLE_ROLE_MANAGER));\n\n    // remove an operator\n    delete userRoles[operator];\n  }\n\n  /**\n   * @dev Creates new token with `tokenId` ID specified and assigns\n   * address `to` an ownership of that token.\n   * @dev Requires sender to have `ROLE_TOKEN_MANAGER` permission.\n   * @dev Requires `ROLE_TOKEN_MANAGER` global feature to be enabled.\n   * @param to owner address of the newly created token\n   * @param tokenId ID of the token to create\n   */\n  function mint(address to, uint80 tokenId) public {\n    // validate destination address\n    require(to != address(0));\n    require(to != address(this));\n\n    // feature must be enabled globally and\n    // caller should have a permission to mint a token\n    require(isFeatureEnabledAndSenderInRole(ROLE_TOKEN_CREATOR));\n\n    // delegate call to `__mint`\n    __mint(to, tokenId);\n  }\n\n  /**\n   * @dev Creates several tokens in a single transaction and\n   * assigns an ownership `to` for these tokens\n   * @dev Requires sender to have `ROLE_TOKEN_MANAGER` permission.\n   * @dev Requires `ROLE_TOKEN_MANAGER` global feature to be enabled.\n   * @param to an address to assign created cards ownership to\n   * @param ids IDs ow the tokens to create\n   */\n  function mintTokens(address to, uint80[] ids) public {\n    // validate destination address\n    require(to != address(0));\n    require(to != address(this));\n\n    // feature must be enabled globally and\n    // caller should have a permission to mint tokens\n    require(isFeatureEnabledAndSenderInRole(ROLE_TOKEN_CREATOR));\n\n    // iterate over `ids` array and mint each token specified\n    for(uint256 i = 0; i < ids.length; i++) {\n      // delegate call to `__mint`\n      __mint(to, ids[i]);\n    }\n  }\n\n  /**\n   * @dev Destroys a token with `tokenId` ID specified.\n   * @dev Requires sender to have `ROLE_TOKEN_MANAGER` permission.\n   * @dev Requires `ROLE_TOKEN_MANAGER` global feature to be enabled.\n   * @dev Requires the token not to be locked.\n   * @param tokenId ID of the token to destroy\n   */\n  function burn(uint80 tokenId) public {\n    // feature must be enabled globally and\n    // caller should have a permission to burn a token\n    require(isFeatureEnabledAndSenderInRole(ROLE_TOKEN_CREATOR));\n\n    // delegate call to `__burn`\n    __burn(tokenId);\n  }\n\n  /**\n   * @dev Destroys several tokens in a single transaction\n   * @dev Requires sender to have `ROLE_TOKEN_MANAGER` permission.\n   * @dev Requires `ROLE_TOKEN_MANAGER` global feature to be enabled.\n   * @param ids IDs ow the tokens to destroy\n   */\n  function burnTokens(uint80[] ids) public {\n    // feature must be enabled globally and\n    // caller should have a permission to burn a token\n    require(isFeatureEnabledAndSenderInRole(ROLE_TOKEN_CREATOR));\n\n    // iterate over `ids` array and burn each token specified\n    for(uint256 i = 0; i < ids.length; i++) {\n      // delegate call to `__burn`\n      __burn(ids[i]);\n    }\n  }\n\n  /**\n   * @notice Transfers a token specified to the address specified.\n   * If transferring to a smart contract be VERY CAREFUL to ensure\n   * that it is aware of ERC-721 or your Token may be lost forever.\n   * @dev Transfers the ownership of a given token ID to another address.\n   * @dev Requires transaction sender to be the owner of a token.\n   * @dev Requires `FEATURE_TRANSFERS` global feature to be enabled.\n   * @dev Requires the token not to be locked.\n   * @param to address to receive the ownership of the given token ID\n   * @param tokenId ID of the token to be transferred\n   */\n  function transfer(address to, uint80 tokenId) public {\n    // feature must be enabled globally\n    require(isFeatureEnabled(FEATURE_TRANSFERS));\n\n    // call sender nicely - `from`\n    address from = msg.sender;\n\n    // delegate call to unsafe `__transfer`\n    __transfer(from, to, tokenId);\n  }\n\n  /**\n   * @dev Approves another address to transfer the given token ID.\n   * @dev The zero address indicates there is no approved address.\n   * @dev There can only be one approved address per token at a given time.\n   * @dev Can only be called by the token owner or an approved operator.\n   * @dev Requires `FEATURE_TRANSFERS_ON_BEHALF` global feature to be enabled.\n   * @param to address to be approved for the given token ID\n   * @param tokenId ID of the token to be approved\n   */\n  function approve(address to, uint80 tokenId) public {\n    // feature must be enabled globally\n    require(isFeatureEnabled(FEATURE_TRANSFERS_ON_BEHALF));\n\n    // call sender nicely - caller\n    address caller = msg.sender;\n    // get token owner address\n    address owner = ownerOf(tokenId);\n\n    // caller must own this token\n    require(caller == owner);\n    // approval for owner himself is pointless, do not allow\n    require(to != owner);\n    // either we're removing approval, or setting it\n    require(approvals[tokenId] != 0 || to != address(0));\n\n    // perform an approval + emit event\n    __approve(caller, to, tokenId);\n  }\n\n  /**\n   * @dev Sets or unsets the approval of a given operator\n   * @dev An operator is allowed to transfer *all* tokens of the sender on their behalf\n   * @dev Requires `FEATURE_TRANSFERS_ON_BEHALF` global feature to be enabled.\n   * @param to operator address to set the approval\n   * @param approved representing the status of the approval to be set\n   */\n  function approveForAll(address to, bool approved) public {\n    // set maximum possible approval, 2^256  1, unlimited de facto\n    approveForAll(to, approved ? UNLIMITED_APPROVALS : 0);\n  }\n\n  /**\n   * @dev Sets or unsets the approval of a given operator\n   * @dev An operator is allowed to transfer *all* tokens of the sender on their behalf\n   * @dev Requires `FEATURE_TRANSFERS_ON_BEHALF` global feature to be enabled.\n   * @param to operator address to set the approval\n   * @param approved representing the number of the approval left to be set\n   */\n  function approveForAll(address to, uint256 approved) public {\n    // feature must be enabled globally\n    require(isFeatureEnabled(FEATURE_TRANSFERS_ON_BEHALF));\n\n    // call sender nicely - caller\n    address caller = msg.sender;\n\n    // check for input mistakes\n    require(to != caller);\n\n    // update an approval + emit an event\n    __approveAll(caller, to, approved);\n  }\n\n  /**\n   * @dev Transfers the ownership of a given token ID to another address\n   * @dev Requires the msg sender to be the owner, approved, or operator\n   * @dev Requires `FEATURE_TRANSFERS_ON_BEHALF` global feature to be enabled.\n   * @param from current owner of the token\n   * @param to address to receive the ownership of the given token ID\n   * @param tokenId ID of the token to be transferred\n   */\n  function transferFrom(address from, address to, uint80 tokenId) public {\n    // feature must be enabled globally\n    require(isFeatureEnabled(FEATURE_TRANSFERS_ON_BEHALF));\n\n    // call sender nicely - `operator`\n    address operator = msg.sender;\n    // find if an approved address exists for this token\n    address approved = approvals[tokenId];\n\n    // find an owner of a token\n    address owner = ownerOf(tokenId);\n\n    // fetch how much approvals left for a caller\n    uint256 approvalsLeft = operators[owner][operator];\n\n    // caller must have an approval to transfer this particular token\n    // or caller must be approved to transfer all the tokens\n    require(operator == from || operator == approved || approvalsLeft > 0);\n\n    if(operator == approved) {\n      // clear approval + emit event\n      __approve(from, address(0), tokenId);\n    }\n    if (approvalsLeft > 0) {\n      // update an approval + emit an event\n      __approveAll(from, to, approvalsLeft - 1);\n    }\n\n    // delegate call to unsafe `__transfer`\n    __transfer(from, to, tokenId);\n  }\n\n  /// @notice Checks if all the specified features (bitmask) are enabled\n  function isFeatureEnabled(uint32 feature) public constant returns (bool) {\n    // evaluate if feature is enabled and return\n    return hasRole(f, feature);\n  }\n\n  /// @notice Checks if all the specified features (bitmask) are enabled and if sender is allowed to execute them\n  function isFeatureEnabledAndSenderInRole(uint32 roleRequired) public constant returns (bool) {\n    // call sender gracefully - `user`\n    address user = msg.sender;\n\n    // read user's permissions (role)\n    uint32 actualRole = userRoles[user];\n\n    // evaluate the feature and user role\n    return isFeatureEnabledAndHasRole(actualRole, roleRequired);\n  }\n\n  /// @notice Checks if all the specified features (bitmask) are enabled\n  function isFeatureEnabledAndHasRole(uint32 actualRole, uint32 roleRequired) public constant returns (bool) {\n    // evaluate the feature and user role\n    return hasRole(f & actualRole, roleRequired);\n  }\n\n  /// @notice Checks if user role `userRole` contain all the permissions required `roleRequired`\n  function hasRole(uint32 actualRole, uint32 roleRequired) public pure returns(bool) {\n    // check the bitmask for the role required and return the result\n    return actualRole & roleRequired == roleRequired;\n  }\n\n\n  // perform a mint operation, unsafe, private use only\n  function __mint(address to, uint80 tokenId) private {\n    // validate token ID is not zero\n    require(tokenId != 0);\n\n    // the token specified should not already exist\n    require(tokens[tokenId] == 0);\n\n    // init token value with current date and new owner address\n    uint256 token = __blockNum() << 192 | uint160(to);\n\n    // token index within the owner's collection of tokens\n    // points to the place where the token will be placed to\n    indexes[tokenId] = uint80(collections[to].length);\n\n    // push newly created token ID to the owner's collection of tokens\n    collections[to].push(tokenId);\n\n    // persist newly created token\n    tokens[tokenId] = token;\n\n    // update total tokens number\n    totalSupply++;\n\n    // fire a Mint event\n    emit Minted(tokenId, to, msg.sender);\n    // fire Transfer event (ERC20 compatibility)\n    emit Transfer(address(0), to, tokenId);\n  }\n\n  // perform a burn operation, unsafe, private use only\n  function __burn(uint80 tokenId) private {\n    // token state should not be locked\n    // this check also checks if token exists\n    require(!isLocked(tokenId));\n\n    // get the token from storage\n    uint256 token = tokens[tokenId];\n\n    // extract token owner address\n    address from = address(token);\n\n    // remove token from the owner's collection\n    __remove(from, tokenId);\n\n    // update total tokens number\n    totalSupply--;\n\n    // delete approval if any\n    __approve(from, address(0), tokenId);\n\n    // delete token\n    delete tokens[tokenId];\n\n    // fire a Burnt event\n    emit Burnt(tokenId, from, msg.sender);\n    // fire Transfer event (ERC20 compatibility)\n    emit Transfer(from, address(0), tokenId);\n  }\n\n  // perform an approval, unsafe, private use only\n  function __approve(address from, address to, uint80 tokenId) private {\n    // set an approval\n    approvals[tokenId] = to;\n\n    // emit en event\n    emit Approval(from, to, tokenId);\n  }\n\n  // perform an token operator approval, unsafe, private use only\n  function __approveAll(address from, address to, uint256 approved) private {\n    // set an approval\n    operators[from][to] = approved;\n\n    // emit an event\n    emit ApprovalForAll(from, to, approved);\n  }\n\n  // perform the transfer, unsafe, private use only\n  function __transfer(address from, address to, uint80 tokenId) private {\n    // validate source and destination address\n    require(from != address(0));\n    require(to != address(0));\n    require(to != from);\n\n    // get the token from storage\n    uint256 token = tokens[tokenId];\n\n    // validate token ownership and existence\n    require(from == ownerOf(tokenId));\n\n    // token state should not be locked\n    require(!isLocked(tokenId));\n\n    // delegate call to `__move` to update collections\n    __move(from, to, tokenId);\n\n    // update token transfer date and owner // 0xFFFFFFFFFFFFFFFF000000000000000000000000000000000000000000000000\n    tokens[tokenId] = token & MASK_CLEAR_TRANSFER | __blockNum() << 160 | uint160(to);\n\n    // emit en event\n    emit Transfer(from, to, tokenId);\n  }\n\n  /// @dev Move a token `tokenId` from owner `from` to a new owner `to`\n  /// @dev Unsafe, doesn't check for consistence\n  /// @dev Must be kept private at all times\n  function __move(address from, address to, uint80 tokenId) private {\n    // delegate call to `__remove` to remove token from `from`\n    __remove(from, tokenId);\n\n    // delegate call to `__add` to add token to `to`\n    __add(to, tokenId);\n  }\n\n  /// @dev Remove a token `tokenId` from owner `from`\n  /// @dev Unsafe, doesn't check for consistence\n  /// @dev Must be kept private at all times\n  function __remove(address from, uint80 tokenId) private {\n    // get a reference to the collection where token is\n    uint80[] storage fCol = collections[from];\n\n    // collection `fCol` cannot be empty, if it is - it's a bug\n    assert(fCol.length != 0);\n\n    // index of the token within collection `f`\n    uint80 i = indexes[tokenId];\n\n    // we put the last token in the collection `f` to the position released\n    // get an ID of the last token in `f`\n    uint80 id = fCol[fCol.length - 1];\n\n    // update token index to point to proper place in the collection `f`\n    indexes[id] = i;\n\n    // put it into the position i within `f`\n    fCol[i] = id;\n\n    // trim the collection `f` by removing last element\n    fCol.length--;\n  }\n\n  /// @dev Add a token `tokenId` to a new owner `to`\n  /// @dev Unsafe, doesn't check for consistence\n  /// @dev Must be kept private at all times\n  function __add(address to, uint80 tokenId) private {\n    // get a reference to the collection where token goes to\n    uint80[] storage tCol = collections[to];\n\n    // update token index according to position in new collection `t`\n    indexes[tokenId] = uint80(tCol.length);\n\n    // push token into collection\n    tCol.push(tokenId);\n  }\n\n  // returns block.number, guaranteed to fit into 31 bit integer\n  function __blockNum() private constant returns (uint256) {\n    // erase everything except right 31 bits\n    return uint256(0x7FFFFFFF & block.number);\n  }\n}\n",
  "sourcePath": "/Users/vgorin/DEVELOP/upwork/Sophophilia/crypto-miner/contracts/Token.sol",
  "compiler": {
    "name": "solc",
    "version": "0.4.23+commit.124ca40d.Emscripten.clang"
  },
  "schemaVersion": "2.0.0",
  "updatedAt": "2018-05-06T07:00:49.397Z"
}